:020000040800F2
:10000000B8B50020092C00085B0E00085D0E000842
:10001000610E0008650E0008690E0008000000006F
:100020000000000000000000000000006D0E00084D
:100030006F0E0008000000003B040108992400082E
:10004000232C0008232C0008232C0008232C000854
:10005000232C0008232C0008232C0008232C000844
:10006000232C0008232C0008232C0008232C000834
:10007000232C0008232C0008232C0008232C000824
:10008000232C0008232C0008232C0008232C000814
:10009000232C0008232C0008232C0008232C000804
:1000A000232C0008232C0008232C0008232C0008F4
:1000B000232C0008232C000847290008232C0008C3
:1000C000232C0008232C0008232C0008232C0008D4
:1000D000232C00087D26000833270008AF290008DC
:1000E000232C0008232C0008232C0008232C0008B4
:1000F000232C0008232C0008232C0008232C0008A4
:10010000232C0008232C0008C32B0008232C0008F4
:10011000232C0008232C0008232C0008232C000883
:10012000232C0008232C0008232C0008232C000873
:1001300000F002F800F0B0F80AA090E8000C824449
:100140008344AAF10107DA4501D100F0A5F8AFF226
:10015000090EBAE80F0013F0010F18BFFB1A43F0A5
:10016000010318471C0C01003C0C01000A444FF02D
:10017000000C10F8013B13F0070408BF10F8014B06
:100180001D1108BF10F8015B641E05D010F8016B4B
:10019000641E01F8016BF9D113F0080F1EBF10F8AF
:1001A000014BAD1C0C1B09D16D1E58BF01F801CBD2
:1001B000FAD505E014F8016B01F8016B6D1EF9D555
:1001C0009142D6D37047000000230024002500266A
:1001D000103A28BF78C1FBD8520728BF30C148BFAA
:1001E0000B6070476E290EF0C78470290EF01785DA
:1001F000662910F05383652910F05083672910F0A9
:100200004D836129AFF3008003681B0A28BF41F0CA
:10021000800169290EF0748464290EF071847529B7
:100220000EF06E846F290FF05F8078290EF0E38462
:10023000E9290EF0F987E4290EF0F687F5290EF08A
:10024000F387EF290FF05C80F8290EF0E284036851
:10025000DB0928BF41F0800163290EF0688773290C
:100260000EF06D87E3290FF04983F3290FF04E83D9
:10027000002070471FB50FF003FC04000020002190
:1002800010F028F9401C60600020002110F038F9BF
:10029000E0601FBD10B510BD0FF0CDFB1146FFF79C
:1002A000E9FF00F08DFC0FF0ABFC03B4FFF7F2FFA9
:1002B00003BC02F085F9000010B5044600BF01F050
:1002C000F1FE10BD0EB5002400BF32E002A806F01A
:1002D00069FA64B906E041F2883002F042F9FAA006
:1002E0000EF09CFB01F025FD0028F4D1012401F063
:1002F0003BFDFE4908800846B0F900000A2190FB4A
:10030000F1F201FB1205F948B0F9000090FBF1F69B
:100310002A463146F6A00EF081FB02A806F08CFAC0
:1003200002A800210B460522CDE9001008460CF07A
:10033000F6FDCBE786B000200490059000BF1BE1DE
:10034000F048007818B9F0A001F083F914E1ED4805
:100350000078012853D1EF4800780D283FD2DFE81C
:1003600000F0070B0F13171B1F23272B2F3337000A
:10037000E9A001F06EF932E0E8A001F06AF92EE0A0
:10038000E7A001F066F92AE0E6A001F062F926E0B4
:10039000E6A001F05EF922E0E6A001F05AF91EE0C5
:1003A000E6A001F056F91AE0E2A001F052F916E0D9
:1003B000DEA001F04EF912E0DAA001F04AF90EE0F9
:1003C000D7A001F046F90AE0D4A001F042F906E016
:1003D000D1A001F03EF90020CE49087000BF00BF57
:1003E000CC480078401CCB49087003A80021C823E2
:1003F0000A46CDE9001008460CF091FDBCE0D1485A
:1004000000680A21B0FBF1F201FB120078B1CD487F
:100410000068B0FBF1F201FB1200012807D0C948C7
:100420000068B0FBF1F201FB1200022813D1AF48C3
:10043000B0F900000A2190FBF1F201FB1204AB4875
:10044000B0F9000090FBF1F523462A46BEA104A8AE
:100450000EF0F0FA0BE0BE49BA48006801F028FA45
:10046000BB484368BBA1826804A80EF0E3FA04A865
:1004700001F0EFF80020BA49086003A800214FF40A
:10048000F5730A46CDE9001008460CF048FDAD486A
:1004900000680A21B0FBF1F201FB120078B1A94813
:1004A0000068B0FBF1F201FB1200012807D0A5485B
:1004B0000068B0FBF1F201FB1200022813D18B4857
:1004C000B0F900000A2190FBF1F201FB1204874809
:1004D000B0F9000090FBF1F523462A469AA104A842
:1004E0000EF0A8FA06E09A4843689EA1826804A824
:1004F0000EF0A0FA04A801F0ACF8012098490860B9
:1005000003A800214FF4F5730A46CDE90010084610
:100510000CF005FD8B480068401C8A4908600846BD
:10052000016893A00EF07AFA76480078042822D168
:1005300094480078372814D193480DF0CBFE9349A6
:10054000088008460188904800F09DFE18B990A0E8
:100550000EF064FA02E094A00EF060FA00208949DF
:10056000087088480078401C864908700846017861
:1005700092A00EF053FA00BFE2E60EB500BF1AE0FB
:1005800000207749086002A800214FF4FA730A4658
:10059000CDE9001008460CF0C2FC01208D49C1F8DD
:1005A000A00102A800214FF4FA730A46CDE9001019
:1005B00008460CF0B4FCE3E7A4B0202113A80EF029
:1005C000F4FC00201290002400BF2BE24D4800787C
:1005D00000B927E24B480078012831D17E480268F3
:1005E0007E4801687E48006800F0DDFD4FF47A70B7
:1005F00001F0B7FF7BA00EF011FA4FF47A7001F012
:10060000B0FF7BA00EF00AFA4FF47A7001F0A9FF58
:100610007AA00EF003FA00F024FE30B1022039492E
:10062000087079A00EF0FAF90AE07BA00EF0F6F956
:1006300001203449087042F2107001F092FFF1E19C
:100640003048007802283DD1402102A80EF0ADFCD0
:1006500042F66B6378A27CA102A80EF0EBF9C822E7
:1006600080A102A800F032FD0546012D0AD17EA02E
:100670000EF0D4F900202349087042F2107001F006
:1006800070FFCFE17CA00EF0C9F923A800214FF440
:100690007A730A46CDE9001008460CF040FC64224B
:1006A00070A178A000F012FD00207A490880642231
:1006B00079A17AA000F00AFD18B97BA00EF0AEF97E
:1006C00015E1FBE05EE100002A2A2A2A2A2A2A44B0
:1006D000533138423230204E4F5420524541445914
:1006E0002A2A2A2A2A2A0D0A000000002A000020AD
:1006F000CEC2B6C874656D70203D2025642E256479
:10070000200D0A0000000020202020206020202052
:10071000200000001D000020230000005F230000D7
:100720005F5F23005F5F5F23000000005F5F5F5F2C
:10073000230000005F5F5F5F5F2300005F5F5F5F1C
:100740005F5F2300200000202025642E25647E00AA
:10075000B01A00202020253032643A25303264005F
:10076000A00121422020253032642025303264004F
:100770000D0A74696D657374616D702020202564A5
:100780000D0A00001C000020E81900201A000020BB
:100790000D0A4D5154545F50696E67205375636361
:1007A0006573730D0A0000000D0A4D5154545F50DB
:1007B000696E67204661696C0D0A00000D0A706958
:1007C0006E675F7365636F6E6420A3BA2025642033
:1007D0000D0A0000000021420C000020080000204B
:1007E00004000020B5C8B4FD31732020200D0A009C
:1007F000B5C8B4FD32732020200D0A00B5C8B4FD81
:1008000033732020200D0A007769666920696E69BC
:1008100074206F6B210D0A007769666920696E6923
:1008200074206661696C2120D6D8D0C2C1ACBDD31A
:10083000D6D00D0A000000003131362E36322E326D
:1008400030392E383200000041542B434950535464
:100850004152543D22544350222C222573222C25F0
:10086000640000004F4B0000544350206661696CE7
:10087000757265210D0A0000544350206F6B210DE5
:100880000A00000041542B4349504D4F44453D312F
:1008900000000000320200203E00000041542B43C3
:1008A000495053454E440000737461727420747251
:1008B000616E732E2E2E0D0A0000000023A8002169
:1008C0000B460522CDE9001008460CF028FBF7A0E6
:1008D0000EF0A4F823A800210B460522CDE9001054
:1008E00008460CF01CFB0020F84908709AE023A889
:1008F000002164230A46CDE9001008460CF00FFBE6
:10090000F3A3F5A2F6480168F6480DF0ABFBF649F3
:100910000880F449F5A00EF081F8F3480188F14809
:1009200000F0B1FCF8A00EF079F823A800216423B0
:100930000A46CDE9001008460CF0F1FA0123022224
:10094000F7A1E8480DF085FCE7490880E549F6A0E5
:100950000EF064F8E4480188E24800F094FCF9A045
:100960000EF05CF823A8002164230A46CDE90010AC
:1009700008460CF0D4FA0420D44908700020F74946
:10098000088000BFD148007804284AD1F348008885
:1009900000F40040002844D00020F14908701BA852
:1009A0000DF0C4FCC5B205B93CE0CE480DF03CFCEE
:1009B000CD49088008460188CA4800F064FC10B997
:1009C000E8A00EF02BF81F9800282AD00421EAA0F6
:1009D0000EF024F81F980EF017FA00B922E0EBA1F0
:1009E0001F980EF0FFF900B91CE012AB13AAE7A1A3
:1009F0001F9801F081F8002406E013A850F8241095
:100A0000E3A00EF00BF8641C12988442F5DBE1A120
:100A100013980EF0E7F920B114980EF0CFF9E049E1
:100A2000086000BFD2E530B58BB00446002500BF9A
:100A300003F096FF0AA809F000FF0DF0E5F90AAAF5
:100A40000121084605F087FF00BF00BF00BF04F08A
:100A5000BFF8054600BF00BFD2480078401CD1490E
:100A6000087000BF00BF284604F0B6F800BF00BF02
:100A700000BF0AA8032100220592CDE906210890B3
:100A8000104680210C22C84BCDE90132CDE903107C
:100A900007200023AFF2DF42C4A10090C7480AF04C
:100AA000A3FA0AA8032100220592CDE906210890A5
:100AB000104680210C22C24BCDE90132CDE9031052
:100AC00006200023AFF24D52BEA10090C0480AF0AC
:100AD0008BFA0AA8032100220592CDE9062108908D
:100AE000104680210C22BB4BCDE90132CDE9031029
:100AF00004200023AFF2C372B7A10090B9480AF0F6
:100B000073FA0AA8032100220592CDE90621089074
:100B1000104680210C22B44BCDE90132CDE90310FF
:100B200005200023AFF66302B0A10090B3480AF09D
:100B30005BFA0AA8032100220592CDE9062108905C
:100B4000104680210C22AE4BCDE90132CDE90310D5
:100B500008200023AFF69F02AAA10090AC480AF03B
:100B600043FA00BF00BF00BF04F032F8054600BFE3
:100B700000BF8C480078401E8A49087008460078FB
:100B8000A0B9A4480088002809DD00BF00BF28469E
:100B900004F022F800BF00BF06F0C6FA0DE000BF67
:100BA00000BF284604F018F800BF06E000BF00BFF1
:100BB000284604F011F800BF00BF00BF0BB030BDE5
:100BC0008AB0002401F074FC4FF4A06002F03CF8FD
:100BD0004FF4E13001F003FD4FF4E13001F020FE6D
:100BE00000F036FA01F094FA0DF083F900F0D4FB2E
:100BF00000F053FC8848016888A00DF00FFF09A899
:100C000005F080FC00BF00BF00BF03F0E1FF044619
:100C100000BF00BF63480078401C6249087000BFF5
:100C200000BF204603F0D8FF00BF00BF00BF09A8E7
:100C3000032100220592CDE90621089010464FF4C9
:100C400000713322794BCDE90132CDE90310032045
:100C50000023AFF22D2276A1009078480AF0C4F963
:100C600000BF00BF00BF03F0B3FF044600BF00BFDA
:100C70004C480078401E4B49087008460078A0B9DF
:100C800064480088002809DD00BF00BF204603F04B
:100C9000A3FF00BF00BF06F047FAD8E000BF00BFC7
:100CA000204603F099FF00BFD1E0C9E04E4F545FEA
:100CB000434F4E4649472121212121212121212134
:100CC000212121212E2E2E0D0A00000000000020DF
:100CD0007075626C69630000656D717800000000DA
:100CE00014000020E81900201A0000200D0A4D51C0
:100CF00054545F436F6E6E656374203A2025582EFE
:100D00002E2E0D0A000000000D0A4D5154545F4371
:100D10006F6E6E656374202E2E2E0D0A000000008B
:100D200054696D65000000000D0A4D5154545F5325
:100D30007562736372696265203A2025582E2E2EE3
:100D40000D0A00000D0A4D5154545F5375627363D0
:100D500072696265202E2E2E0D0A000032020020DC
:100D60001C0000200D0A4D5154545F505542414320
:100D70004B202E2E2E0D0A000D0A73697A656F66C0
:100D80002025642E2E2E0D0A000000003D000000DC
:100D900025730A0074696D657374616D70000000DD
:100DA00020000020C4020020241500206573703844
:100DB000323636207461736B00000000601400202E
:100DC000601200206C6564207461736B0000000089
:100DD0009C110020D80C00206C6564302074617375
:100DE0006B000000140C00209C0F0020647331384D
:100DF000623230207461736B00000000D80E002056
:100E0000E8170020626C65207461736B00000000BD
:100E100024170020880200200400002041542B43A6
:100E2000574A41503D22257322000000140400203F
:100E30007374617274207461736B0000500300203E
:100E400000BF00BF204603F0C7FE00BF00BF00BFC9
:100E500009A805F020FE00BFFEE7704700BFFEE7CF
:100E600000BFFEE700BFFEE700BFFEE77047704728
:100E70000CB50020019000906C48006840F4803070
:100E80006A49086000BF6948006800F400300090BB
:100E90000198401C0190009818B90198B0F5A06F16
:100EA000F1D16248006800F4003010B101200090D8
:100EB00001E0002000900098012843D15C480068C0
:100EC00040F010005A4908600846006820F003000E
:100ED00008600846006840F0020008605348406817
:100EE000524948600846406848600846406840F4F7
:100EF000806048600846406820F47C1048600846DE
:100F0000406840F4E81048600846006840F080708F
:100F1000086000BF4548006800F000700028F9D064
:100F20004248406820F00300404948600846406855
:100F300040F00200486000BF3C48406800F00C00F0
:100F40000828F9D10CBD10B5FFF792FF10BD10B500
:100F50003648006840F0010034490860084640689F
:100F60003449084031494860084600683249084021
:100F70002E4908600846006820F480200860084672
:100F8000406820F4FE0048604FF41F008860FFF7BF
:100F9000DAFF4FF000602949086010BD10B500214C
:100FA00000200022214B5B6803F00C0121B10429D1
:100FB00006D0082928D107E0214B224C236027E0E6
:100FC0001F4B204C236023E0184B5B6803F4701028
:100FD000164B5B6803F48032022303EB904022B986
:100FE000194B4343174C23600DE0104B5B6803F42F
:100FF000003323B1144B4343124C236003E0104BE6
:101000004343104C236003E00D4B0E4C236000BFA4
:1010100000BF064B5B68C3F303130C4CE15C094B48
:101020001B68CB40074C236010BD0000001002403D
:10103000002002400000FFF8FFFFF6FE08ED00E090
:1010400000127A003000002000093D00340000202A
:1010500008B50121242002F085FB4FF48070ADF823
:10106000000010208DF8030003208DF8020069466F
:10107000094801F0B7FE4FF48071074801F05FFFA7
:101080000420ADF800006946044801F0ABFE0421DD
:10109000024801F054FF08BD00080140001401405F
:1010A00070B5044600258948008800F4004058B116
:1010B000002086490988C1F30E01854A5054214613
:1010C00010460DF08FFE0546284670BD2DE9F04113
:1010D00006460C4615460027B84600207B49088086
:1010E00031467CA001F013FC002C27D0002D25D028
:1010F0001DE00A2001F035FA7448008800F4004031
:10110000A8B12046FFF7CCFF80462046FFF7C8FF76
:1011100028B12246314671A00DF080FC0BE042461A
:10112000314674A00DF07AFC002068490880681EE2
:1011300080B20500DDD100BF05B901273846BDE802
:10114000F08110B500BF7248008800F04000002810
:10115000F9D02B206E49091D08800F2001F001FAFB
:1011600000BF6B48008800F040000028F9D02B2019
:101170006749091D08800F2001F0F3F900BF64489A
:10118000008800F040000028F9D02B206049091D9C
:1011900008804FF4FA7001F0E4F914225DA15EA01A
:1011A000FFF794FF10BD2DE9F04104460F461546A8
:1011B00020200CF02DFF06460AE0FFF7C2FFC822F0
:1011C00054A156A0FFF782FF4FF4487001F0C9F90F
:1011D000142250A150A0FFF779FF0028EDD100BFE5
:1011E00014224CA151A0FFF771FF0028F8D1322240
:1011F00048A150A0FFF76AFF142246A150A0FFF7B4
:1012000065FF4FF47A7001F0ACF94FF47A7001F099
:10121000A8F94FF47A7001F0A4F94FF47A7001F054
:10122000A0F914223BA148A0FFF750FF2B4622460D
:1012300048A130460DF0FEFB2B46224645A1304624
:101240000DF0ECFB00BF4FF4967247A13046FFF75C
:101250003DFF0028F7D130460CF0CEFE0020BDE85F
:10126000F08170B5FFF76DFF08B1002070BD32222C
:1012700040A141A0FFF72AFF43A0FFF711FF054659
:101280002C782046F2E72DE9F04107460D46002D67
:1012900007DD002403E0385D3E490855641CAC427C
:1012A000F9D300260CE000BF4021194802F092F863
:1012B0000028F9D03748815D154802F01DF8761CEA
:1012C000AE42F0D30020BDE8F081000032020020E1
:1012D000C81F002025730D0A00000000B5C3B5BD6E
:1012E000D3D0D0A7CAFDBEDD202573203A202573B8
:1012F0000D0A0000C3BBD3D0B5C3B5BDD3D0D0A7B2
:10130000CAFDBEDD202573203A2025730D0A00009A
:10131000004400404F4B00004154000041542B4317
:1013200049504D4F44453D30000000004154453088
:101330000000000041542B43574D4F44453D3100C0
:1013400041542B525354000041542B4349504D55A6
:10135000583D300041542B43574A41503D2225739C
:10136000222C2225732200005749464920474F541A
:10137000204950003A00000041542B434950535437
:1013800041545553000000002B43495053544154DD
:1013900055530000C81B002008B50121082002F0A9
:1013A000E1F94FF46240ADF8000010208DF8030021
:1013B00001208DF802006946F84801F013FD402035
:1013C000ADF8000004208DF8030001208DF8020024
:1013D0006946F24801F006FD4FF46241EF4801F022
:1013E000AEFD08BD70B50446002518E00020EC49AC
:1013F000086004F0800020B10120E949083108604C
:1014000003E00020E649083108606006040E012070
:1014100001F07CF80120E2490860681CC5B2082D83
:10142000E4DB70BD2DE9F04107460E46144600206E
:10143000DB4910390860012C14DCFFF7D3FF0020D2
:10144000FFF7D0FF0020FFF7CDFF0020FFF7CAFF16
:101450000120D34908603846FFF7C4FF3046FFF744
:10146000C1FF14E03846FFF7BDFF3046FFF7BAFF73
:101470000120CB490860012507E00020FFF7B2FFFB
:101480000020FFF7AFFF681CC5B2A542F5DB0120C5
:10149000C34910390860BDE8F08110B5012406E0A9
:1014A000224607210B20FFF7BDFF601CC4B2032CAE
:1014B000F6DD012406E0224600210920FFF7B2FFF5
:1014C000601CC4B2032CF6DD012406E02246012193
:1014D0000C20FFF7A7FF601CC4B2032CF6DD01242B
:1014E00006E0224600210F20FFF79CFF601CC4B2DB
:1014F000032CF6DD012406E0224601210A20FFF735
:1015000091FF601CC4B2032CF6DD0A2001F029F81B
:10151000A4A00DF083FA10BD70B50546012406E0C5
:10152000224607210B20FFF77DFF601CC4B2032C6D
:10153000F6DD012406E0224600210920FFF772FFB4
:10154000601CC4B2032CF6DD012406E02246012112
:101550000C20FFF767FF601CC4B2032CF6DD0124EA
:1015600006E0224600210F20FFF75CFF601CC4B29A
:10157000032CF6DD012406E0224629460A20FFF767
:1015800051FF601CC4B2032CF6DD0A2000F0E9FF15
:1015900070BD02464FF0FF30002106E0854B5B5CDA
:1015A000934201D1084602E0491C2029F6D300BF2E
:1015B000704702464FF0FF30002106E07E4B5B5C37
:1015C000934201D1084602E0491C0329F6D300BF2B
:1015D000704702464FF0FF30002106E0774B5B5C1E
:1015E000934201D1084602E0491C0229F6D300BF0C
:1015F000704702464FF0FF30002106E0704B5B5C05
:10160000934201D1084602E0491C0329F6D300BFEA
:10161000704702464FF0FF30002106E0694B5B5CEB
:10162000934201D1084602E0491C0229F6D300BFCB
:10163000704702464FF0FF30002106E0624B5B5CD2
:10164000934201D1084602E0491C0629F6D300BFA7
:1016500070472DE9F04F9FB0804600201E9020215A
:1016600006A80DF0A2FC182168460DF09EFC4FF074
:10167000000AD146CB460025BCE018F80500FFF76C
:1016800088FF0646701C80B104201E90002409E0EB
:101690004E4800EBC600005D0EA901EBC5010855E0
:1016A000601CC4B2082CF3DB9DE018F80500FFF7BE
:1016B000C0FF0646701C80B108201E90002409E07F
:1016C000434800EBC600005D0EA901EBC5010855BB
:1016D000601CC4B2082CF3DB85E018F80500FFF7A6
:1016E00088FF0646701C80B105201E90002409E08A
:1016F000384800EBC600005D0EA901EBC501085596
:10170000601CC4B2082CF3DB6DE018F80500FFF78D
:1017100080FF0646701C80B106201E90002409E060
:101720002D4800EBC600005D0EA901EBC501085570
:10173000601CC4B2082CF3DB55E018F80500FFF775
:1017400048FF0646701C80B103201E90002409E06B
:10175000224800EBC600005D0EA901EBC50108554B
:10176000601CC4B2082CF3DB3DE018F80500FFF75D
:1017700020FF0646701C80B102201E90002409E064
:10178000174800EBC600005D0EA901EBC501085526
:10179000601CC4B2082CF3DB25E023E0000C014000
:1017A000B48121420D0A6D6178373231390D0A0D4D
:1017B0000A000000A5080108A0080108A308010804
:1017C000C5080108C8080108CA0801086C00002003
:1017D000940100206C010020840100205C000020A6
:1017E0004400002004E006A91E9841F8250000BF2F
:1017F000681CC5B240460DF007FBA8423FF63DAF5E
:1018000000272DE006A850F8270000B92AE04FF085
:10181000000A1EE00EA901EBC70111F80A104846A4
:101820004FEAE97209EB5272D210A9EBC2026B4681
:1018300003EBCB039954401CC11700EB5171C91045
:10184000A0EBC10109B90BF1010B09F101090AF182
:10185000010A06A850F827005045DBDC781CC7B207
:10186000082FCFDB00BF002710E001250AE0684603
:1018700000EBC702681E115C7A1C2846FFF7D2FDF8
:10188000681CC5B2092DF2DB781CC7B2032FECDB54
:101890001FB0BDE8F08F10B5012406E0002211460C
:1018A0002046FFF7BFFD601CC4B2082CF6DD10BD5A
:1018B00070B5082400B90020C4EB0415AD00C5EBD9
:1018C000051500EB85003C25B0FBF5F605FB16057C
:1018D0000D603C25B0FBF5F0B0FBF5F605FB1605F9
:1018E0004D603C25B0FBF5F048F6F805B0FBF5F38C
:1018F00040F2B27505EB83054D6148F6F805B0FB83
:10190000F5F605FB160000BF42F238220D7D05F00A
:10191000030505B91832904200D204E04D696D1CF0
:101920004D61801AF0E700BF1825B0FBF5F605FB06
:1019300016058D601825B0FBF5F0401C0D7D05F0F7
:10194000030555B93C2801D9401E06E03C2804D1C6
:1019500001250D611D25CD6070BD00250D6106E0DE
:10196000374E0D69755D401B0D696D1C0D61344E60
:101970000D69755D8542F3D3C86000BFECE7014691
:101980000A46C81701EB90708010A1EB800070B977
:10199000642091FBF0F300FB131030B94FF4C870D2
:1019A00091FBF0F300FB131008B9012070470020F1
:1019B000FCE70FB430B500BF0898FFF7E0FF00EB7D
:1019C0004000204901EB00110798401E51F820000B
:1019D00006990844401E00EB4000C1004FF46160CE
:1019E00041430898A0F2B27040F26D12504300EBF0
:1019F0004000C000C0EB4012C2EB002001EB001021
:101A00000599C1EB4112C2EB012100EB01100499D1
:101A1000C1EB011100EB81000399451840F2B2744B
:101A200006E02046FFF7ABFF08B107480544641CF9
:101A30000898A042F5DC284630BC5DF814FB000095
:101A4000D0080108C40100208051010070B598B091
:101A50003E480468001D0568001D0668E0B28DF868
:101A60002C00200A8DF82D00200C8DF82E00200E61
:101A70008DF82F00E8B28DF83000280A8DF831007B
:101A8000280C8DF83200280E8DF83300F0B28DF856
:101A90003400300A8DF83500300C8DF83600300EE9
:101AA0008DF837009DF837009DF836109DF83520E9
:101AB0009DF83430CDE90632CDE908109DF8331099
:101AC0009DF832009DF831209DF83030CDE902328A
:101AD000CDE904019DF82F009DF82E10CDE90010EE
:101AE0009DF82D309DF82C2019A10EA80CF0A2FF16
:101AF0009DF8380018B070BD2DE9F04707460D4637
:101B0000164698464FF000091FB138460DF07CF993
:101B100008B9BDE8F0871DB128460DF075F900B988
:101B2000F7E7294638460DF057F9044607E010C696
:101B300009F10109294600200DF04EF90446002C58
:101B4000F5D1C8F8009000BFE3E70000E8F7FF1FF9
:101B5000252E3258252E3258252E3258252E325811
:101B6000252E3258252E3258252E3258252E325801
:101B7000252E3258252E3258252E3258252E3258F1
:101B800000000000002107E0002201E0531C9AB28F
:101B90000A2AFBDB4B1C99B28142F5DB704700B58A
:101BA0009348006820F00F009149086008460068DB
:101BB00040F00300086000208E49086040F2771072
:101BC000FFF7E0FF01208C49C1F880010820FFF7F2
:101BD000D9FF00BD10B500248548006820F00F0033
:101BE000834908600846006840F00800086004E087
:101BF000601CC4B20120FFF7C5FF7E488038006832
:101C000008B1C82CF4DBC82C01DB012010BD002476
:101C100004E0601CC4B20120FFF7B4FF75488038AF
:101C2000006808B9F02CF4DBF02C01DB0120EDE7B3
:101C30000020EBE710B56E48006820F00F006C49FB
:101C400008600846006840F0030008600020694909
:101C500008600120FFF796FF01206749C1F8800165
:101C60006348006820F00F0061490860084600687A
:101C700040F0080008600620FFF784FF5D488038C8
:101C8000006808B1012400E000241920FFF77AFF62
:101C9000204610BD70B50026012508E0FFF7CAFFF9
:101CA0000446E00140EA6600C6B2681CC5B2082DD1
:101CB000F4DD304670BD70B504464D48006820F034
:101CC0000F004B4908600846006840F003000860B8
:101CD00001251FE004F0010664106EB100204549A3
:101CE00008600120FFF74EFF01204349C1F8800141
:101CF0001E20FFF747FF0BE000203E4908601E2032
:101D0000FFF740FF01203C49C1F88001FFF73AFF8F
:101D1000681CC5B2082DDDDD70BD00B5FFF73FFFC3
:101D2000FFF758FFCC20FFF7C6FF4420FFF7C3FFA3
:101D300000BD08B50121042001F014FD0120ADF81B
:101D4000000010208DF8030003208DF80200694682
:101D5000274801F047F80121254801F0F0F8FFF786
:101D60001EFFFFF737FF08BD2DE9F84FFFF7D5FF3E
:101D7000FFF715FFFFF72EFFCC20FFF79CFFBE20DB
:101D8000FFF799FFFFF786FF8346FFF783FF0446BF
:101D9000072C08DDE043C4B26FEA0B0000F0FF0B34
:101DA0004FF0000A01E04FF0010AA1464FEA092076
:101DB0000FFA80F909EB0B000FFA80F948460EF094
:101DC0000FFD00900EF0E0FC074600220B4B0EF0DA
:101DD000DDFB05460EF0AAFB0FFA80F9BAF1000F01
:101DE00002D04846BDE8F88FC9F1000000B2F9E71B
:101DF0000008014080012142000021420000E43F30
:101E000008B50121042001F0ADFC4FF40060ADF8ED
:101E1000000010208DF8030003208DF802006946B1
:101E2000C04800F0DFFF0120BF4908601020ADF876
:101E3000000028208DF8030003208DF80200694679
:101E4000B84800F0CFFFB9A00CF0E8FD4FF4E13046
:101E500000F024FE08BD1CB5B9A00CF0DFFD09E0C0
:101E60000A22BCA1BDA000F0C1FA00B909E06420BB
:101E700000F077FB0522BBA1B8A000F0B7FA00285C
:101E8000EED100BFB9A00CF0C9FD0522B9A1BAA0DE
:101E900000F0ACFA10B9B9A00CF0C0FDB9A00CF07C
:101EA000BDFDBAA2BCA1BF480CF0C4FD0A22B1A17D
:101EB000BC4800F09BFA20B9BA49BBA00CF0AEFDBB
:101EC00003E0B849BBA00CF0A9FDBDA00CF0A6FD35
:101ED000AEA2BDA1B3480CF0ADFD0A22A5A1B14848
:101EE00000F084FA20B9AF49AFA00CF097FD03E0F1
:101EF000AC49B0A00CF092FDB6A00CF08FFD05220D
:101F0000B6A1A8480CF096FD0A229AA1A54800F0B7
:101F10006DFA20B9A349A4A00CF080FD03E0A1490B
:101F2000A4A00CF07BFDB0A00CF078FD01200021F6
:101F300008234FF4E132CDE90010ADA199480CF02F
:101F400079FD0A228BA1974800F050FA20B99549F3
:101F500095A00CF063FD03E0924996A00CF05EFDA5
:101F60000522A8A18F480CF065FD0A2281A18D48A9
:101F700000F03CFA20B98B498BA00CF04FFD03E038
:101F800088498CA00CF04AFD0A227AA1A1A000F099
:101F90002DFA18B9A4A00CF041FD02E0A8A00CF0A5
:101FA0003DFD0A2273A1ADA000F020FA18B9AEA041
:101FB0000CF034FD02E0B1A00CF030FD0A226DA15E
:101FC000B4A000F013FA18B9B7A00CF027FD02E096
:101FD000BCA00CF023FD0A2266A1C2A000F006FA04
:101FE00018B9C4A00CF01AFD02E0C7A00CF016FD51
:101FF0005322CBA16B480CF01DFD0A225DA169485C
:1020000000F0F4F920B9674967A00CF007FD03E080
:10201000644968A00CF002FD1CBD10B5C3480178EE
:10202000C3A000F0B2FDC1480178C6A00CF0F6FCD8
:10203000BE480078401CBD49087008460078FF285B
:1020400001D10020087010BD70B500240025C348E0
:10205000008800F4004020B3C0480088C0F30E059B
:102060000020BF494855BD490880BEA00CF0D6FCF1
:1020700000BF0DE000BF4021BB4801F0ABF90028D4
:10208000F9D0B748015DB84801F036F9601C84B258
:10209000AC42EFDB2946B2480CF065FF6EA00CF0B5
:1020A000BDFC70BD002400BF642000F05AFA00207F
:1020B000AA490880ADA00CF0B1FC28E0FFF7C4FFEE
:1020C00019489C38006868B900BFAC480078B0B9BE
:1020D0000120AA4908700020A9490870A9A00CF0A5
:1020E0009DFC0CE000BFA648007840B90120A4493F
:1020F00008700020A1490870A7A00CF08FFC601C9C
:10210000C4B2142C00D100240A2000F02AFAD5E72A
:1021100010B5A6A00CF082FCFFF772FEFFF79BFE45
:1021200010BD000000080140AC012142424C45C4F2
:10213000A3BFE9494FB3F5CABCBBAF0D0A0000000D
:10214000424C45C4A3BFE9B2CECAFDC5E4D6C30D17
:102150000A0000004552524F520000002B2B2B6109
:1021600000000000612B6F6B000000000D0A310DB4
:102170000A0D0A004F4B0000415400004154204F0B
:102180004B0D0A000D0A320D0A0D0A0041544B2D69
:10219000424C45303200000041542B4E414D453DEC
:1021A00025730000C81A0020257320204F4B0D0A0C
:1021B00000000000257320204552524F520D0A00A6
:1021C0000D0A330D0A0D0A0041542B48454C4C4F63
:1021D0003D2573000D0A340D0A0D0A0041542B549D
:1021E000504C3D25640000000D0A350D0A0D0A0013
:1021F00041542B554152543D25642C25642C2564B3
:102200002C25640041542B41445054494D3D2564D4
:102210000000000041542B4C494E4B504153534554
:102220004E3D4F464600000041542B4C494E4B500A
:10223000415353454E3D4F464620204F4B0D0A001B
:1022400041542B4C494E4B50415353454E3D4F4604
:102250004620204552524F520D0A000041542B4C4B
:102260004544454E3D4F4E0041542B4C4544454E50
:102270003D4F4E20204F4B0D0A00000041542B4C87
:102280004544454E3D4F4E20204552524F520D0A77
:102290000000000041542B534C415645534C4545DA
:1022A00050454E3D4F46460041542B534C415645F8
:1022B000534C454550454E3D4F464620204F4B0D13
:1022C0000A00000041542B534C415645534C4545A0
:1022D00050454E3D4F464620204552524F520D0A22
:1022E0000000000041542B4D41585055543D4F467D
:1022F0004600000041542B4D41585055543D4F4627
:102300004620204F4B0D0A0041542B4D415850554B
:10231000543D4F464620204552524F520D0A000070
:1023200041542B4D4F44453D2563000024020020BD
:1023300041544B2D424C45303220544553542025B6
:10234000640D0A00533A2041544B2D424C45303223
:1023500020544553542025640D0A00003402002007
:10236000C8270020523A0000003801400D0A424CB4
:1023700045BDF8B3CCB4A6C0ED0D0A00250200207F
:10238000260200200D0A626C6520636F6E6E656325
:1023900074210D0A000000000D0A626C652064695A
:1023A00073636F6E6E656374210D0A000D0AC0B60B
:1023B000D1C0B3F5CABCBBAF0D0A0D0A00000000C6
:1023C00070B5044600252548008800F4004058B147
:1023D000002022490988C1F30E01214A50542146A8
:1023E00010460CF0FFFC0546284670BD2DE9F04173
:1023F00004460E4615460027002018490880FF2C89
:1024000007D800BF1748006A0028FBD116490C8086
:1024100003E0214615A000F0B8FBDEB1D5B112E013
:102420000A2000F09EF80D48008800F4004050B1EA
:102430003046FFF7C5FF18B100200849088006E0C4
:10244000002006490880681E80B20500E8D100BF60
:1024500005B901273846BDE8F081000034020020AC
:10246000C8270020000002400448004025730D0AE0
:102470000000000008B5684604F094F908BD08B5EE
:10248000684604F0D9F908BD38B504466A46082103
:1024900020460AF0BFFC38BD10B54248007801283C
:1024A00005D104F0C5F80AF041FF04F0D2F810BDE0
:1024B00010B56FF0040000F016FC3B4800683B4983
:1024C000B0FBF1F03A490870374800683749B0FB73
:1024D000F1F438480068C910B1FBF0F044433548C6
:1024E00000684FF47A71B1FBF0F0334908804FF087
:1024F000E020006940F002004FF0E021086108464A
:102500004461006940F00100086110BD2DE9F04709
:10251000074600264FF0E020D0F8149024480078B9
:1025200007FB00F800BFFFF7A5FF4FF0E02085692B
:1025300011E04FF0E0208469AC420CD0AC4202D2F2
:10254000281B064403E0A9EB040028440644254662
:10255000464500D300E0ECE700BFFFF790FFBDE881
:10256000F08770B504460F480078A0B11348007892
:1025700088B911480088844206DB0F48008894FB24
:10258000F0F52846FFF780FF0B48008894FBF0F138
:1025900000FB114084B24FF47A7104FB01F0FFF7A5
:1025A000B5FF70BD7D0200203000002000127A00CF
:1025B00028020020D40A01082A0200207C02002000
:1025C000014600BF704700BF4D4A128802F040022A
:1025D000002AF9D0C2B24A4B1B1D1A80704710B5B1
:1025E00086B00446012144F2040001F0BBF84448DF
:1025F00000F046FD4FF40070ADF8140003208DF894
:10260000160018208DF8170005A93E4800F0EAFBD7
:102610004FF48060ADF8140004208DF8170005A970
:10262000384800F0DFFB25208DF8000003208DF8EE
:1026300001008DF8020001208DF80300684600F0CB
:1026400008FB01940020ADF80800ADF80A00ADF8D1
:102650000C00ADF810000C20ADF80E0001A92848C0
:1026600000F051FD012240F22551254800F0E3FD24
:102670000121234800F0D3FD06B010BD10B503F0D2
:10268000D7FF40F225511E4800F0BAFE10B31C4897
:1026900000F036FEC4B21C48008800F40040C8B9FF
:1026A0001948008800F4804060B10A2C03D0002053
:1026B0001549088020E01448008840F40040124981
:1026C000088019E00D2C06D10F48008840F48040A6
:1026D0000D49088010E00C480088C0F30D000B493C
:1026E0000C5409480088401C0749088008460088A7
:1026F000C72801DD0020088003F0ABFF10BD0000FB
:10270000003801400008014030020020FA1A002081
:1027100010B5044644B10021954802F075F8012136
:10272000934801F0DDFD03E00021914801F0D8FD60
:1027300010BD10B540F225518E4800F061FE08B37F
:102740008C4800F0DDFDC4B28B480088B0F5806F86
:1027500012DA0021864802F057F88748008810B93D
:102760000120FFF7D5FF844801880088401C824A79
:1027700010808248445405E07F48008840F40040BF
:102780007D49088010BD7FB505460C460121042017
:1027900000F0F5FFADF80450ADF800400020ADF8B2
:1027A0000600ADF802006946714801F03DFA0122C9
:1027B00011466F4801F0AFFD1E208DF80C0001207E
:1027C0008DF80D0002208DF80E0001208DF80F000D
:1027D00003A800F03EFA7FBD70B58CB006460C46EB
:1027E00015460121084600F0B0FF304601F01EF802
:1027F0000194029510200390002004900590802001
:10280000069000200790089009904FF480500A909D
:1028100000200B9001A9304601F0AAF80CB070BD61
:1028200010B586B004460121042000F09BFF012171
:10283000480400F0A4FF4F4800F022FC0420ADF84B
:10284000100003208DF8120018208DF8130004A941
:102850004B4800F0C7FA0820ADF8100004208DF8AE
:10286000130004A9464800F0BDFA00940020ADF81A
:102870000400ADF80600ADF80800ADF80C000C201F
:10288000ADF80A0069463B4800F03DFC012280217A
:10289000384800F0F5FC3B4A3649091D3A48FFF735
:1028A0009BFF0121334800F0BAFC012240F2255180
:1028B000304800F0C0FC26208DF8140002208DF86E
:1028C000150003208DF8160001208DF8170005A8CB
:1028D00000F0BFF941F61F4140F2E730FFF753FF28
:1028E000002025490880FFF713FF06B010BD70B522
:1028F00004460D460021204601F065F82946204691
:1029000001F076F80121204601F05DF870BD0FB4AA
:1029100038B505A800901B48009A04990CF06CF893
:102920000020009000BF184801F064F80028FAD198
:1029300014480CF069FAC4B221461348FFF7D7FFD8
:1029400038BC5DF814FB10B50121094801F091FF76
:1029500060B10948008840F400400749088001211F
:10296000034801F097FF0020FFF7D2FE10BD0000E2
:10297000000800400044004032020020C81F002030
:1029800000080140C81B00208000024010B504462A
:1029900044B10021954801F037FF0121934801F02F
:1029A0009FFC03E00021914801F09AFC10BD10B596
:1029B00040F225518E4800F023FD08B38C4800F00A
:1029C0009FFCC4B28B480088B0F5806F12DA0021FA
:1029D000864801F019FF8748008810B90120FFF7E9
:1029E000D5FF844801880088401C824A10808248B4
:1029F000445405E07F48008840F400407D49088049
:102A000010BD7FB505460C460121082000F0B7FE39
:102A1000ADF80450ADF800400020ADF80600ADF868
:102A200002006946714801F0FFF8012211466F4823
:102A300001F071FC32208DF80C0001208DF80D00A2
:102A400002208DF80E0001208DF80F0003A800F081
:102A500000F97FBD70B58CB006460C4615460121C5
:102A6000084600F072FE304600F0E0FE0194029548
:102A700010200390002004900590802006900020F4
:102A80000790089009904FF480500A9000200B9016
:102A900001A9304600F06CFF0CB070BD10B586B0D7
:102AA00004460121082000F05DFE0121880400F0A9
:102AB00066FE4F4800F0E4FA4FF48060ADF8100075
:102AC00003208DF8120018208DF8130004A94B483C
:102AD00000F088F94FF40060ADF8100004208DF884
:102AE000130004A9454800F07DF900940020ADF8DA
:102AF0000400ADF80600ADF80800ADF80C000C209D
:102B0000ADF80A0069463A4800F0FDFA012280213A
:102B1000374800F0B5FB3A4A3549091D3948FFF7F7
:102B200099FF0121324800F07AFB012240F2255141
:102B30002F4800F080FB27208DF8140002208DF82C
:102B400015008DF8160001208DF8170005A800F07B
:102B500080F841F61F416320FFF753FF002025490D
:102B60000880FFF713FF06B010BD70B504460D4690
:102B70000021204600F027FF2946204600F038FFBC
:102B80000121204600F01FFF70BD0FB438B505A825
:102B900000901B48009A04990BF02EFF0020009033
:102BA00000BF184800F026FF0028FAD114480CF0A6
:102BB0002BF9C4B221461348FFF7D7FF38BC5DF8A4
:102BC00014FB10B50121094801F053FE60B109481A
:102BD000008840F40040074908800121034801F0C3
:102BE00059FE0020FFF7D2FE10BD0000000C00408F
:102BF0000048004034020020C8270020000C01409B
:102C0000C82300201C0002400948804709480047AB
:102C1000FEE7FEE7FEE7FEE7FEE7FEE7FEE7FEE78C
:102C2000FEE7FEE704480549054A064B70470000E9
:102C30004F0F000831010008B8A10020B8B50020EE
:102C4000B8A30020B8A3002031490143314A1160E4
:102C5000704770B5002100230F22C47804B32D4CB7
:102C6000246804F4E064C4F5E064210AC1F10403BB
:102C7000CA40447804FA03F18478144021430901DE
:102C8000254C0678A155047804F01F050124AC40BA
:102C900005786D11AD0005F1E025C5F8004109E0AA
:102CA000047804F01F050124AC401C4D0678761111
:102CB00045F8264070BD1A4A0A400243154B1B1FB7
:102CC0001A60704739B1134A121D12680243114B42
:102CD0001B1D1A6006E00F4A121D126882430D4B3D
:102CE0001B1D1A607047042808D14FF0E0210969C4
:102CF00041F004014FF0E022116107E04FF0E021C4
:102D0000096921F004014FF0E022116170470000D1
:102D10000000FA050CED00E000E400E080E100E0D6
:102D200080FFFF1F10B50446CC48844208D1012122
:102D3000042000F031FD0021042000F02DFD46E0CC
:102D4000C748844208D10121082000F025FD002158
:102D5000082000F021FD3AE0C248844208D1012158
:102D6000102000F019FD0021102000F015FD2EE0CC
:102D7000BD48844208D10121202000F00DFD002132
:102D8000202000F009FD22E0B848844208D101214A
:102D9000402000F001FD0021402000F0FDFC16E085
:102DA000B348844208D10121802000F0F5FC0021C5
:102DB000802000F0F1FC0AE0AE48844207D10121F6
:102DC000801500F0E9FC0021A01500F0E5FC10BD25
:102DD00010B50121084600F0DFFC0021012000F0C1
:102DE000DBFC10BD2DE9F041024600250026002045
:102DF00000230024002791F803C00CF00F0591F880
:102E000003C00CF0100CBCF1000F03D091F802C00D
:102E10004CEA050591F800C0BCF1000F31D01468F0
:102E200000202BE04FF0010C0CFA00F3B1F800C0C9
:102E30000CEA03069E4220D183004FF00F0C0CFADF
:102E400003F7BC4305FA03FC4CEA040491F803C001
:102E5000BCF1280F06D14FF0010C0CFA00FCC2F8AF
:102E600014C00AE091F803C0BCF1480F05D14FF03F
:102E7000010C0CFA00FCC2F810C0401C0828D1D389
:102E80001460B1F800C0BCF1FF0F34DD54680020BD
:102E90002EE000F1080C4FF0010808FA0CF3B1F82D
:102EA00000C00CEA03069E4221D183004FF00F0CB4
:102EB0000CFA03F7BC4305FA03FC4CEA040491F84E
:102EC00003C0BCF1280F05D100F1080C08FA0CF87A
:102ED000C2F8148091F803C0BCF1480F07D100F18B
:102EE000080C4FF0010808FA0CF8C2F81080401CDA
:102EF0000828CED35460BDE8F0814FF6FF71018001
:102F0000022181700421C17070470246002093683D
:102F10000B400BB1012000E000207047014688689B
:102F200080B2704702460020D3680B400BB10120ED
:102F300000E0002070470146C86880B27047016118
:102F40007047416170470AB1016100E0416170471B
:102F5000C16070474FF480320A43826181618261AF
:102F600082698269704702460020434B18684FF619
:102F70008073184040EA021008433F4B18607047C6
:102F80003E49C8617047F0B50A460023002400217D
:102F9000002500F00046B6F1004F02D1364EF1692F
:102FA00001E0354E7168C0F3034583B200F440166A
:102FB000B6F5401F08D121F070612F4E766826F0DB
:102FC00070662D4F7E6012E000F48016B6F5801F0B
:102FD00006D1032606FA05F4A14341F0706106E02C
:102FE000460D360103FA06F6B14341F0706122B195
:102FF000460D360103FA06F6314300F00046B6F1FD
:10300000004F02D11C4EF16101E01B4E7160F0BD1A
:1030100030B500228B071C0F0F2303FA04F2164B66
:1030200008338C1053F824309343134C08348D101C
:1030300044F8253023468C1053F824308C07240F95
:1030400000FA04F423430C4C08348D1044F8253066
:1030500030BD0A49DC3108607047000000080140BB
:10306000000C014000100140001401400018014014
:10307000001C0140002001400000014000002042EF
:1030800010B50446FB48844209D10121880300F0B1
:1030900083FB00214FF4804000F07EFB32E0F648D5
:1030A000844209D10121480400F083FB00214FF440
:1030B000003000F07EFB25E0F048844209D1012178
:1030C000880400F076FB00214FF4802000F071FBB3
:1030D00018E0EB48844209D10121C80400F069FBE3
:1030E00000214FF4002000F064FB0BE0E54884422F
:1030F00008D10121080500F05CFB00214FF480108D
:1031000000F057FB10BD2DE9F04786B005460E468E
:103110000024A24600BFA1460027B08900B100BF2D
:103120002F462C8A4CF6FF700440F08804432C8212
:10313000AC894EF6F3100440B08831890843718998
:1031400008430443AC81AC8A4FF6FF400440B08989
:103150000443AC8201A800F098FAC648874202D125
:10316000DDF810A001E0DDF80CA0A88900F4004013
:1031700040B10AEBCA0000EB0A1031684900B0FB0D
:10318000F1F807E00AEBCA0000EB0A103168890089
:10319000B0FBF1F86420B8FBF0F0040120096421D1
:1031A00001FB1089A88900F4004040B1322000EBF7
:1031B000C900B0FBF1F000F00700044308E0322042
:1031C00000EB09106421B0FBF1F000F00F000443A4
:1031D0002C8106B0BDE8F0874FF416510160002144
:1031E0008180C18001810C21418100218181704752
:1031F00010B502460020108A4FF2FF0318400B88DA
:103200004C8823438C882343CC8823431843108263
:1032100010BD0021018041808180C180704721B1B3
:10322000828942F40052828104E082894DF6FF7364
:103230001A4082817047F0B503460024002600251D
:10324000002040F66A17B94200D100BF1846C1F30A
:10325000421401F01F06012707FA06F5012C01D1DF
:103260000C3004E0022C01D1103000E014301AB10F
:1032700007682F43076002E00768AF430760F0BDAF
:103280001AB1838A0B43838202E0838A8B43838251
:103290007047028A4FF6F0731A400282028A0A438C
:1032A0000282704782894FF2FF731A4082818289BD
:1032B0000A438281704721B1828942F002028281F1
:1032C00004E082894FF6FD731A4082817047028ABA
:1032D0004FF6DF731A400282028A0A430282704765
:1032E00021B1028A42F48042028204E0028A4BF653
:1032F000FF731A4002827047C1F308028280704750
:1033000001468888C0F308007047818941F00101B7
:1033100081817047028BD2B20283028B42EA012282
:1033200002837047028B02F47F420283028B0A43BE
:103330000283704721B1828A42F02002828204E037
:10334000828A4FF6DF731A408282704721B1828AE7
:1033500042F01002828204E0828A4FF6EF731A4034
:103360008282704721B1828A42F00802828204E0A0
:10337000828A4FF6F7731A408282704721B18289A0
:1033800042F40042828103E08289C2F30E0282810C
:10339000704721B1828A42F40062828204E0828A0C
:1033A0004FF2FF731A4082827047828A4FF6FB7396
:1033B0001A408282828A0A438282704721B1828ABD
:1033C00042F00202828204E0828A4FF6FD731A40C4
:1033D0008282704702460020B1F5007F00D100BF15
:1033E00013880B400BB1012000E00020704701F46E
:1033F0000072B2F5007F00D100BFCA43028070475F
:1034000070B50246002400230025002040F66A160D
:10341000B14200D100BFC1F3421501F01F030126E4
:1034200006FA03F3012D02D19689334006E0022DFE
:1034300002D1168A334001E0968A33400C120126ED
:1034400006FA04F41688344013B10CB1012000E0F0
:10345000002070BD10B50022002340F66A14A1427E
:1034600000D100BF0A1201249440A3B2DC430480BF
:1034700010BD0000003801400044004000480040FA
:10348000004C004000500040DF48006840F0010060
:10349000DD49086008464068DC490840DA49486070
:1034A00008460068DA490840D749086008460068BD
:1034B00020F4802008600846406820F4FE00486040
:1034C0004FF41F0088607047CF49096821F48031AC
:1034D000CD4A11601146096821F480211160B0F5D0
:1034E000803F03D0B0F5802F0ED106E0C6490968B1
:1034F00041F48031C44A116007E0C349096841F4CE
:10350000A021C14A116000E000BF00BF704710B5A4
:1035100001460022002300204A11012A02D1BA4CA0
:10352000236806E0022A02D1B74C236A01E0B64CB8
:10353000636A01F01F02012494401C400CB1012079
:1035400000E0002010BD38B50020009000240025C8
:1035500000BF3120FFF7DBFF05460098401C0090BC
:103560000098B0F5A06F01D0002DF2D03120FFF708
:10357000CEFF08B1012400E00024204638BD0146FA
:103580000020A14A106820F0F80040EAC100106055
:103590007047A04908607047024600209A4B58685F
:1035A00020F47C1042EA01031843974B586070479F
:1035B00098490866704701460020934A506820F0F9
:1035C00003000843506070478F48406800F00C00CB
:1035D0007047014600208C4A506820F0F0000843F4
:1035E0005060704701460020874A506820F4E06030
:1035F00008435060704701460020834A506820F419
:10360000605040EAC1005060704729B17E4A527A4A
:1036100002437D4B5A7204E07B4A527A82437A4BD2
:103620005A7270477B49D8310860704701460020C4
:10363000754A506820F440400843506070470021AC
:10364000714A20321170704A82F82010012802D08D
:1036500004280AD104E001216B4A2032117005E0F0
:103660000521694A2032117000E000BF00BF704799
:103670006949086070476449096A0143624A1162F6
:103680007047654944390860704730B50021002211
:10369000002400235C4D6D6805F00C0121B1042964
:1036A00005D0082923D105E05C4D056022E05B4D83
:1036B00005601FE0544D6D6805F47012524D6D6841
:1036C00005F48034022505EB92421CB9544D554354
:1036D00005600BE04C4D6D6805F400351DB1504D93
:1036E0005543056002E04D4D5543056002E04B4DEA
:1036F000056000BF00BF444D6D6805F0F001090989
:10370000484D6B5C0568DD4045603F4D6D6805F4D4
:10371000E061090A434D6B5C4568DD4085603A4DC8
:103720006D6805F46051C90A3E4D6B5C4568DD402B
:10373000C560354D6D6805F44041890B3A4D6B5CB1
:10374000C568B5FBF3F5056130BD29B12E4A526954
:1037500002432D4B5A6104E02B4A526982432A4BA3
:103760005A61704729B1284A92690243264B9A61EF
:1037700004E0254A92698243234B9A61704729B13C
:10378000214AD2690243204BDA6104E01E4AD26921
:1037900082431D4BDA61704729B11B4AD26802434C
:1037A000194BDA6004E0184AD2688243164BDA609B
:1037B000704729B1144A12690243134B1A6104E09D
:1037C000114A12698243104B1A61704712494039FD
:1037D000086070470F49C86470470B49C87170474B
:1037E0000948406A40F080700749486270470146C6
:1037F0000020054A92680A400AB1012000E000203A
:103800007047014988727047001002400000FFF8BD
:10381000FFFFF6FE000042428004424200127A009E
:1038200000093D00360200204602002001684FF6E4
:10383000FE72114001600021016041608160C16041
:103840008D49884208D18C490839496841F00F01F7
:10385000894A083A51608AE087491431884208D180
:1038600085490839496841F0F001834A083A5160B6
:103870007DE081492831884208D17F49083949686B
:1038800041F470617C4A083A516070E07A493C31F9
:10389000884208D178490839496841F47041764A2C
:1038A000083A516063E074495031884208D1724946
:1038B0000839496841F470216F4A083A516056E06E
:1038C0006D496431884208D16B490839496841F42F
:1038D0007001694A083A516049E067497831884285
:1038E00008D165490839496841F07061624A083A6F
:1038F00051603CE06149884206D1011F096841F0EE
:103900000F01021F116032E05C491431884208D176
:103910005A49091F096841F0F001584A121F116005
:1039200025E056492831884208D15449091F0968C1
:1039300041F47061514A121F116018E04F493C3147
:10394000884208D14D49091F096841F470414B4A2A
:10395000121F11600BE049495031884207D1474995
:10396000091F096841F47021444A121F1160704711
:1039700010B50022026847F6F0739A430C6A8B6810
:1039800023430C6923434C6923438C692343CC694B
:1039900023434C6A23438C6A23431A430260CB6857
:1039A00043600B6883604B68C36010BD00210160F9
:1039B00041608160C160016141618161C1610162F9
:1039C00041628162704721B1026842F001020260E7
:1039D00004E002684FF6FE731A40026070471AB1A5
:1039E00003680B43036002E003688B430360704786
:1039F000416070470146486880B270470146002028
:103A0000002201F080531BB11C4B083B1A6802E0F6
:103A1000194B083B1A6802EA01030BB1012000E0D0
:103A20000020704700F0805119B11449091F086047
:103A300002E0114908394860704701460020002221
:103A400001F080531BB10D4B083B1A6802E00A4B92
:103A5000083B1A6802EA01030BB1012000E00020D4
:103A6000704700F0805119B10449091F086002E055
:103A700001490839486070470800024008040240C4
:103A800010B50446FE48844208D10121C014FFF756
:103A900083FE0021E014FFF77FFEC4E0B4F1804F05
:103AA00008D101210846FFF784FE00210120FFF71D
:103AB00080FEB8E0F348844208D101210220FFF7DC
:103AC00078FE00210220FFF774FEACE0EE4884424D
:103AD00008D101210420FFF76CFE00210420FFF72C
:103AE00068FEA0E0E948844208D101210820FFF7E0
:103AF00060FE00210820FFF75CFE94E0E448844269
:103B000008D101211020FFF754FE00211020FFF7FB
:103B100050FE88E0DF48844208D101212020FFF7D1
:103B200048FE00212020FFF744FE7CE0DA48844272
:103B300008D101214014FFF72FFE00216014FFF788
:103B40002BFE70E0D548844209D10121C804FFF75B
:103B500023FE00214FF40020FFF71EFE63E0D04853
:103B6000844209D101210805FFF716FE00214FF418
:103B70008010FFF711FE56E0CA48844209D10121A6
:103B80004805FFF709FE00214FF40010FFF704FE7F
:103B900049E0C548844208D101214020FFF709FED1
:103BA00000214020FFF705FE3DE0C048844208D1D7
:103BB00001218020FFF7FDFD00218020FFF7F9FDA6
:103BC00031E0BB48844208D101218015FFF7F1FDA7
:103BD0000021A015FFF7EDFD25E0B648844209D18C
:103BE00001210804FFF7D8FD00214FF48030FFF7D2
:103BF000D3FD18E0B048844209D101214804FFF701
:103C0000CBFD00214FF40030FFF7C6FD0BE0AB48C1
:103C1000844208D101218804FFF7BEFD00214FF442
:103C20008020FFF7B9FD10BD00220288944B984216
:103C30000ED0994B98420BD0B0F1804F08D0914BE9
:103C4000984205D0904B984202D0904B984204D1B4
:103C50004FF68F731A404B881A438D4B984207D00A
:103C60008C4B984204D04FF6FF431A40CB881A433E
:103C700002808B8883850B880385814B98420BD00B
:103C8000854B984208D08B4B984205D08A4B98427E
:103C900002D08A4B984201D10B7A0386012383829A
:103CA000704770B5002400220023058C4FF6FE7685
:103CB00035400584028C8388048B4FF68F752C4029
:103CC000B51E2C400D882C43751E2A400D892A43B1
:103CD0004D882A436A4DA8420BD06F4DA84208D0A8
:103CE000744DA84205D0744DA84202D0734DA8422D
:103CF00013D14FF6F7752A404D892A434FF6FB75CD
:103D00002A408D882A434FF6FF652B404FF6FF551A
:103D10002B408D892B43CD892B4383800483CD8811
:103D20008586028470BD70B5002400220023058CB6
:103D30004FF6EF7635400584028C8388048B48F675
:103D4000FF752C404FF6FF452C400D884FF6FF764F
:103D500006EA05252C434FF6DF752A400D8906EA51
:103D600005152A434D8806EA05152A43444DA84205
:103D700002D0494DA8421DD14FF67F752A404D898A
:103D80004FF6FF7606EA05152A434FF6BF752A401F
:103D90008D8806EA05152A434FF6FF352B404FF272
:103DA000FF752B408D8906EA85052B43CD8906EAF0
:103DB00085052B4383800483CD880587028470BDED
:103DC00070B5002400220023058C4FF6FF663540B5
:103DD0000584028C8388848B4FF68F752C404FF6B8
:103DE000FC752C400D882C434FF6FF552A400D8959
:103DF0004FF6FF7606EA05252A434D8806EA052593
:103E00002A431F4DA84202D0234DA8421DD14FF294
:103E1000FF752A404D894FF6FF7606EA05252A43AD
:103E20004FF6FF352A408D8806EA05252A434EF6CF
:103E3000FF752B404DF6FF752B408D8906EA051561
:103E40002B43CD8906EA05152B4383808483CD88D7
:103E50008587028470BD70B5002200230024058C84
:103E60004EF6FF7635400584038C8488828B48F6B5
:103E7000FF752A404FF6FF452A400D8820E00000DC
:103E8000002C01400004004000080040000C0040ED
:103E9000001000400014004000340140004C01407C
:103EA000005001400054014000180040001C004038
:103EB0000020004000400140004401400048014013
:103EC0004FF6FF7606EA05252A434DF6FF752B408F
:103ED0000D8906EA05352B434D8806EA05352B4347
:103EE000FA4DA84202D0FA4DA84208D14BF6FF7510
:103EF0002C408D894FF6FF7606EA85152C43848089
:103F00008283CD88A0F84050038470BD828B4FF22D
:103F1000FF331A408283828B4FF6FF7303EA01233B
:103F20001A4382837047F0B50C46154600220021E3
:103F30000026078C4EF6FF7C07EA0C070784828B6D
:103F4000018C4FF6FF7707EA043640F6FF473A4008
:103F50004FF6FF7707EA05273A434FF6FF7707EA60
:103F600003373A43D94FB8420ED0D94FB8420BD09D
:103F7000B0F1804F08D0D74FB84205D0D64FB842E5
:103F800002D0D64FB84206D14DF6FF77394046F4FD
:103F90008057394305E047F6FF57394044F48057CE
:103FA000394382830184F0BD828B4FF6F3731A404C
:103FB0008283828B0A4382837047F0B50C46154694
:103FC000002200210026078C4FF6FF6C07EA0C0741
:103FD0000784828B018C4FF6FF7707EA04264FF6A1
:103FE0000C773A404FF6FF7707EA03172F433A431F
:103FF000B64FB8420ED0B64FB8420BD0B0F1804F9A
:1040000008D0B44FB84205D0B34FB84202D0B34F36
:10401000B84206D14FF6FF57394046F4807739430E
:1040200005E04FF2FF57394044F4807739438283EB
:104030000184F0BD028B4FF2FF331A400283028BE2
:104040004FF6FF7303EA01231A4302837047F0B56A
:104050000C461546002200210026078C4FF6EF7C07
:1040600007EA0C070784028B018C4FF6FF7707EAFB
:10407000041640F6FF473A404FF6FF7707EA03374A
:104080003A434FF6FF7707EA05273A438F4FB84286
:104090000ED08F4FB8420BD0B0F1804F08D08D4F6B
:1040A000B84205D08C4FB84202D08C4FB84206D1EE
:1040B0004FF6DF77394046F01007394305E04FF6F9
:1040C0005F77394044F01007394302830184F0BD23
:1040D000028B4FF6F3731A400283028B0A4302836A
:1040E0007047F0B50C46154600220021068C4FF6AD
:1040F000FE773E400684028B018C4FF60C763240F0
:104100007E1C06EA03162E433243704EB0420ED098
:104110006F4EB0420BD0B0F1804F08D06D4EB04220
:1041200005D06D4EB04202D06C4EB04206D14FF673
:10413000FD76314044F00106314305E04FF6F57657
:10414000314044F00106314302830184F0BD70B573
:1041500005460C465D4885420ED05D4885420BD031
:10416000B5F1804F08D05B48854205D05A4885425A
:1041700002D05A48854200D100E000BF208850B9E3
:104180002389A28861882846FFF7ABFFE18828468B
:10419000FFF79EFF25E0208804280AD12389A28802
:1041A00061882846FFF753FFE1882846FFF742FF62
:1041B00017E0208808280AD12389A2886188284628
:1041C000FFF7FBFEE1882846FFF7EEFE09E02389B2
:1041D000A28861882846FFF7A6FEE1882846FFF7F7
:1041E00095FE70BD2DE9F04105460C4600260127DD
:1041F000608808B9022600E00026A088012801D1C5
:10420000022700E001272088A0B92389A2886188BD
:104210002846FFF766FFE1882846FFF759FF238904
:104220003A4631462846FFF712FFE1882846FFF755
:1042300001FF13E02389A28861882846FFF707FF62
:10424000E1882846FFF7F6FE23893A46314628469C
:10425000FFF747FFE1882846FFF73AFFBDE8F08106
:104260000A884B881A438B881A43CB881A430B89D8
:104270001A434B891A438B891A43A0F8442070478C
:104280004FF6FF71818000210180C1804180017261
:1042900070470021018041808180C180018141817E
:1042A0008181C1817047002101804180012181808D
:1042B0000021C180018170470021018041808180FF
:1042C000C18001814181818170470000002C014043
:1042D000003401400004004000080040000C004091
:1042E00021B1028842F00102028004E002884FF608
:1042F000FE731A400280704731B1B0F8442042F496
:104300000042A0F8442005E0B0F84420C2F30E02B9
:10431000A0F8442070471AB183890B43838102E0DF
:1043200083898B43838170478182704741EA02030E
:10433000A0F8483070471AB183890B43838102E0AB
:1043400083898B438381704701894FF6F87211404E
:10435000018170470A46002101894FF68F73194089
:1043600011430181704730B504460D462946204669
:10437000FFF7F0FF208940F00700208130BD2DE9D4
:10438000F04104460D4616461F46602D06D13B46B9
:10439000012231462046FFF75AFE05E03B46012246
:1043A00031462046FFF79DFE29462046FFF7D2FF03
:1043B000208940F007002081BDE8F08130B50C462F
:1043C00000210189C9B24FF6FF7505EA032515439F
:1043D00025432943018130BD2DE9F04105460E46B4
:1043E00017469846002443463A4631462846FFF78A
:1043F000E5FF2C894FF6F870044044F007044FF6AF
:104400008F70044044F070042C81BDE8F081F0B559
:1044100004460D4616461F463B4632462946204670
:10442000FFF7CCFF208940F480402081F0BD01855A
:10443000828270470A46002101884FF68F73194027
:10444000114301807047F0B50C4615461E46002109
:10445000002200230189028B038C4FF6F877394044
:1044600021434FF6FC473A4040F201173A434FF6DA
:10447000DD773B404FF6FF7707EA06172F433B43B4
:10448000018102830384F0BD0A460021018B4FF6AF
:104490008F7319401143018370470A460021018B35
:1044A00048F6FF7319404FF6FF7303EA02231943DE
:1044B000018370470A460021818B4FF68F731940A4
:1044C0001143818370470A460021818B48F6FF73B0
:1044D00019404FF6FF7303EA0223194381837047A3
:1044E00021B1028842F08002028004E002884FF687
:1044F0007F731A400280704721B1828842F0040223
:10450000828004E082884FF6FB731A4082807047F5
:1045100021B1828842F00802828004E082884FF64E
:10452000F7731A408280704721B1828842F00102FD
:10453000828004E082884FF6FE731A4082807047C2
:104540000A460021018B4FF6F7731940114301838E
:1045500070470A460021018B4FF2FF7319404FF656
:10456000FF7303EA02231943018370470A460021BF
:10457000818B4FF6F77319401143818370470A46C8
:104580000021818B4FF2FF7319404FF6FF7303EA4E
:1045900002231943818370470A460021018B4FF69D
:1045A000FB7319401143018370470A460021018BB8
:1045B0004FF6FF3319404FF6FF7303EA0223194306
:1045C000018370470A460021818B4FF6FB73194027
:1045D0001143818370470A460021818B4FF6FF33D8
:1045E00019404FF6FF7303EA022319438183704792
:1045F0000A460021018B4FF67F7319401143018356
:1046000070470A460021018BC1F30E014FF6FF737C
:1046100003EA02231943018370470A460021818B74
:104620004FF67F7319401143818370470A4600217A
:10463000818BC1F30E014FF6FF7303EA0223194386
:10464000818370470A460021018C4FF6FD731940A3
:104650001143018470470A460021018C4FF6F7731D
:1046600019401143018470470A460021018C4FF61E
:10467000DF7319404FF6FF7303EA021319430184F5
:1046800070470A460021018C4FF67F7319404FF6A0
:10469000FF7303EA02131943018470470A4600219D
:1046A000018C4FF6FF5319404FF6FF7303EA0223C4
:1046B0001943018470470A460021018C4FF2FF73B1
:1046C00019404FF6FF7303EA022319430184704730
:1046D0000A460021018C4DF6FF7319404FF6FF7317
:1046E00003EA023319430184704730B500230124E3
:1046F0008C40A3B2048C9C430484048C02FA01F520
:10470000ADB22C43048430BD30B5002304248C406A
:10471000A3B2048C9C430484048C02FA01F5ADB26C
:104720002C43048430BD70B5034600200024184695
:10473000183001258D40ACB21D8CA5431D8409B1F4
:10474000082909D100EB6100056825F070050560B6
:104750000568154305600EE00D1FC5F34E0528449E
:10476000056825F4E045056005684FF6FF7606EA22
:1047700002263543056070BD21B1028842F0020275
:10478000028004E002884FF6FD731A4002807047F1
:1047900021B1028842F00402028004E002884FF650
:1047A000FB731A400280704721B1828842F0800278
:1047B000828004E082884FF67F731A4082807047BF
:1047C00002884FF6F7731A40028002880A4302807B
:1047D000704782884FF68F731A40828082880A431E
:1047E0008280704702894FF6F8731A40028102896D
:1047F0000A430281704702894FF67F731A40028193
:1048000002890A430281704781847047818570471D
:10481000818670470187704781877047A0F84010F4
:10482000704702884FF6FF431A40028002880A430D
:10483000028070470146888E70470146088F704796
:104840000146888F70470146B1F840007047014625
:10485000888C70470146088D704702460020138AF5
:104860000B400BB1012000E000207047CA430282D8
:10487000704730B50246002000230024158A05EA5F
:104880000103958905EA010413B10CB1012000E090
:10489000002030BDCA4302827047000000B585B0D9
:1048A0006846FEF7F2FE019805B000BD10B5FFF7AF
:1048B000F5FF04461748006840F08070154908600D
:1048C0000020154948600846006840F00100086073
:1048D000204600F0B6F810BD0F49486870472DE932
:1048E000F0478246FFF7DAFF4FF0000980460B4A97
:1048F0000023404649460AF008F8064632460B4671
:10490000504600210AF001F804460D46204629468B
:10491000BDE8F087FCED00E0001000E040420F0031
:1049200010B5002400BF00BF00F052F9044600BFDC
:1049300000BF1021A14800F0D2FA00BF00BF2046FE
:1049400000F04AF900BF00BF10BD10B5FFF7E8FF47
:1049500010BD10B500209A490860FFF7A7FF10BDF1
:1049600010B5FFF7F6FFFFF7F0FF10BD00BFFEE741
:1049700070B505460C46002614B900BFFFF7F6FFD8
:1049800015B90A20208070BD00BF00BF00F020F9DB
:10499000064600BF00BF10228849284600F056FF97
:1049A00000BF00BF304600F017F900BF00BF002075
:1049B000208000BFE7E72DE9F04105460C460027BF
:1049C00014B900BFFFF7D2FF1DB90A202080BDE84F
:1049D000F0811021284600F021FF0646102E15D246
:1049E00000BF00BF00F0F4F8074600BF00BF102270
:1049F0002946724800F02AFF00BF00BF384600F089
:104A0000EBF800BF00BF0020208002E04FF47A7076
:104A1000208000BFDBE710B5FFF75EFF04462046AD
:104A200010BD704700B5014611B900BFFFF79EFFEA
:104A3000634A106808B1002201E04FF4FA620A806C
:104A400000BD5F490860704770B50546284600F014
:104A5000CAF80446183C204670BD70B50546284685
:104A600000F0C1F80446103C204670BD70B5054604
:104A7000284600F0B8F8044600BF204670BD30B5A7
:104A800002460B460024D2F1FF359C4126D24FF658
:104A9000FF74D2F1FF359C410FD26FF07F44D2F109
:104AA000FF359C4103D2190E464C605C44E0190C62
:104AB000444C645C04F108003EE0FF24D2F1FF3571
:104AC0009C4105D2190A3F4C645C04F1100033E0AC
:104AD00019463C4C645C04F118002DE04FF6FF755C
:104AE0000024AD1A9C4115D26FF07F450024AD1A09
:104AF0009C4107D2140E44EA0321324C645C04F159
:104B0000200019E0140C44EA03412E4C645C04F1CB
:104B1000280011E00024D2F1FF059C4107D2140ABD
:104B200044EA0361274C645C04F1300004E0114660
:104B3000244C645C04F1380030BD70B504460CB9F7
:104B4000082070BD204600F051F805462846F8E7D9
:104B500070B504460CB9102070BD204600F046F830
:104B600005462846F8E770B504460CB9202070BD0C
:104B7000204600F03BF805462846F8E72DE9F043CB
:104B800004460D46002184EA01006940084302D131
:104B90004020BDE8F083E243E843521C40F10001AD
:104BA00002EA040601EA050730463946FFF767FFC7
:104BB0008046C8F13F094846EBE70000C82B0020BB
:104BC0004C020020DC08010872B6704762B67047DC
:104BD000EFF3108072B6704780F31088704730BFD3
:104BE000704720BF7047B0FA80F0704790FAA0F08D
:104BF000B0FA80F0704790FAA0F070470146412962
:104C000003DB5A2901DC012200E00022012A08D03E
:104C1000612903DB7A2901DC012200E00022012A5C
:104C200001D1012200E000221046704701464129CF
:104C300003DB5A2901DC012200E00022012A08D00E
:104C4000612903DB7A2901DC012200E00022012A2C
:104C500001D1012200E00022012A08D0302903DB23
:104C6000392901DC012200E00022012A01D10122C0
:104C700000E00022104670470146612903DB7A29D3
:104C800001DC012200E00022104670470146412964
:104C900003DB5A2901DC012200E0002210467047A4
:104CA0000146302903DB392901DC012200E0002222
:104CB000104670470146302903DB372901DC012209
:104CC00000E00022104670470146302901DB3929F7
:104CD00007DD412901DB462903DD612903DB662964
:104CE00001DC012200E00022104670470146202925
:104CF00001D0092901D1012200E0002210467047AD
:104D00000146202909D00D2907D00A2905D00C29F0
:104D100003D0092901D00B2901D1012200E0002292
:104D2000104670470146202903DB7E2901DC012261
:104D300000E00022104670470146212903DB7E294E
:104D400001DC012200E000221046704701462029C4
:104D500003DB7E2901DC012200E00022012A35D19B
:104D6000202909D00D2907D00A2905D00C2903D004
:104D7000092901D00B2901D1012200E000222ABB20
:104D8000412903DB5A2901DC012200E00022012A2B
:104D900008D0612903DB7A2901DC012200E000222E
:104DA000012A01D1012200E00022012A08D0302985
:104DB00003DB392901DC012200E00022012A01D1B4
:104DC000012200E000220AB9012200E00022104680
:104DD000704701464AB2002A01DB1F2901DD7F2905
:104DE00001D1012200E0002210467047014641290E
:104DF00003DB5A2901DC012200E00022012A02D152
:104E000001F1200200E00A46D0B270470146612954
:104E100003DB7A2901DC012200E00022012A02D111
:104E2000A1F1200200E00A46D0B27047F0B5044676
:104E30000B462046FFF7EAFF05461846FFF7E6FF58
:104E40000646B54201D1012000E000200746384661
:104E5000F0BD0000FC48FD490160014641600021B1
:104E60008160C160016141618161C1610162016371
:104E7000C1624162F6498163C1634FF4806101649C
:104E800041640146F34A116070472DE9F04105463F
:104E90000B4694460027002402E03F021F43641C97
:104EA000042CFAD3604605F00306294646B1344681
:104EB00003E001F8013B401E641C08B1042CF8D348
:104EC0000A4601E080C2001F0428FBD2114602E01E
:104ED00001F8013B401E0028FAD1BDE8F08130B551
:104EE00005460C46224600212846FFF7CEFF30BD7E
:104EF0002DE9F04F85B007468846914646463D4627
:104F0000AE4207D94A464146384601F01DF905B080
:104F1000BDE8F08F4C4607EB0900451E08EB090081
:104F2000461EA81B04900498042834D305F00300FF
:104F3000029006F003010191DDE90110884201D1E0
:104F4000012000E0002000900098012823D1029861
:104F5000032810D0029840B2039008E016F8010927
:104F600005F80109641E0398401E40B2039014B175
:104F700003980028F2DAA5F1030AA6F1030B04E076
:104F80005BF804094AF80409241F042CF8D20AF13A
:104F900003050BF1030604E016F8010905F8010901
:104FA000641E002CF8D100BFB1E72DE9F84F804610
:104FB0008946154615B90120BDE8F88FB8F1000FF4
:104FC00001D10020F8E7B9F1000F01D10020F3E78B
:104FD0000124294608EB050209EB050302F0030C46
:104FE00003F0030BDC4501D1012000E0002000901C
:104FF0000098012829D1BCF1000F12D0E2460AE046
:10500000521E5B1E107893F800E0704500D000241B
:10501000491EAAF1010A012C03D111B1BAF1000F06
:10502000EED1012C11D116461F4608E0361F3F1F56
:105030003068D7F800E0704500D00024091F012C2B
:1050400001D10429F2D232463B4608E0521E5B1ED3
:10505000107893F800E0704500D00024491E012C20
:1050600001D10029F2D12046A6E7F0B503460E464D
:105070001546D96BB1FBF5F005FB101CBCF1000F18
:1050800002D0A5EB0C0200E000229419586CA0425B
:1050900001D20020F0BD0F191144DF63586C001BD2
:1050A00058640846F6E72DE9F04106460F46B6FB80
:1050B000F3FC03FB1C6109B15C1A00E00024B2FBA5
:1050C000F3FC03FB1C2109B15D1A00E0002502EB93
:1050D0000508A7F1010C08FB0C4C0CEB0200BDE825
:1050E000F0812DE9FE4F8046894614461E46002079
:1050F00000900CB901AC00BF00202060524F00BFEF
:1051000000BFFFF765FD009000BF00BFF86B029085
:10511000D7F844B04B46424601210298FFF7C3FF3F
:1051200005465D450FD900BF00BF0098FFF754FD4D
:1051300000BF00BFA5EB0B00206042F2E2703080A0
:105140000020BDE8FE8F4A4641463846FFF78DFFF6
:105150008246BAF1000F0CD100BF00BF0098FFF7E4
:105160003BFD00BF00BF256042F2E27030800020AE
:10517000E7E700BF00BF0098FFF72EFD00BF00BFAC
:1051800042F2107030805046DBE72DE9FC5F0746A5
:105190000C4690460020009000BF00BFFFF718FDAE
:1051A000009000BF00BFD7F80490D9F8380008B1CC
:1051B000484600E024488246DAF84450DAF83CB029
:1051C00000BF00BF0098FFF707FD00BF00BF012C24
:1051D0000AD9BBFBF4F004FB10B60EB1A01B00E033
:1051E0000020019001982D1A42F21070A8F80000DA
:1051F0002846BDE8FC9F70B504460D462A46214668
:105200001148FFF7C2FF0646304670BD18B942F29A
:1052100011720A807047104A026000224260826068
:10522000C260026142618261C26102628262426363
:105230000263C26242628263C2630264426442F2F7
:1052400010720A8000BFE5E7D82B00204845415086
:10525000202C0020500200204E4F4E452DE9FF4FDC
:1052600091B00446DDE9208900200090B8F1000FDC
:1052700002D10DF1180800BF0020C8F8000049460F
:105280002046FFF7C3FFB9F8000042F210718842D0
:1052900002D015B0BDE8F08FFE48006820B942F298
:1052A000E770A9F80000F4E7DFF8ECA30020059010
:1052B00000BF00BFFFF78CFC009000BF00BF12983A
:1052C00080BB5546AB462E46DAF83C000D900423D1
:1052D0001A4614990D98FFF7E6FE049004990D986C
:1052E00008440C90DDE91E2314990C98FFF7DBFEAF
:1052F0000390DDE9030108440590DAF8447005984D
:10530000B8427DD900BF00BF0098FFF765FC00BF21
:1053100000BF0598C01BC8F8000042F2E270A9F86F
:105320000000B6E7FFE712980B90DDE91201084490
:10533000401E0A900025AB46D64806683BE0B16B9C
:105340001298814205D1316C1398814201D13546C2
:1053500033E0B06B0990316CB06B0844401E08908C
:10536000DDE90901814200D227E009990B988842C2
:1053700003D8DDE9091088420FD209990B988842B9
:1053800003D308990A98884207D908990B9888424C
:105390000FD808990A9888420BD300BF00BF009825
:1053A000FFF71AFC00BF00BF42F27F70A9F80000AF
:1053B0006FE7B346F668002EC1D100BF45B9254658
:1053C0001298A0631298E0631398206413986064A5
:1053D000DAF83C000D9004231A4614990D98FFF753
:1053E00062FE0490DAF844700498B84211D900BF04
:1053F00000BF0098FFF7F0FB00BF00BF049800E07B
:1054000024E0C01BC8F8000042F2E270A9F80000D6
:105410003FE7E86B0C90DDE91E2314990C98FFF729
:1054200042FE03906F6C0398B8420FD900BF00BFD3
:105430000098FFF7D1FB00BF00BF0398C01BC8F85E
:10544000000042F2D870A9F8000022E7149880000A
:105450000290042250460299FFF707FE0F900F9822
:1054600030BBDAF8447000BF00BF0098FFF7B4FB10
:1054700000BF00BF129858B90598B84204D90598E2
:10548000C01BC8F800000EE00598C8F800000AE04C
:105490000298B84204D90298C01BC8F8000002E084
:1054A0000298C8F8000042F2E270A9F80000F0E6A5
:1054B0000020019034E02846DDE91E12FFF7D5FDFB
:1054C0000E900E9820BBE86B0C906F6C00BF00BF75
:1054D0000098FFF781FB00BF00BF01991498401AA4
:1054E0000790DDE91E2307990C98FFF7DCFD059076
:1054F0000598B84204D90598C01BC8F8000002E01E
:105500000598C8F8000042F2D870A9F80000C0E67B
:10551000019ADDE90E0141F822000198401C01903A
:10552000149901988842C6D3A5420DD1C4F808B099
:10553000E660BBF1000F02D0CBF80C4001E055480B
:1055400004605EB1B46009E068691090256110984C
:1055500060616C61109808B1109804614F48206038
:1055600065600C98A06103990C980844401EE061A6
:105570000F9820620398A0621F9860631E982063B2
:105580001498E0621498606200BF00BF0098FFF7B3
:1055900023FB00BF00BF42F21070A9F8000000BF5B
:1055A00077E62DE9F04104460D46002700BF00BF15
:1055B000FFF70EFB074600BF00BF666A00BF00BFD3
:1055C0003846FFF709FB00BF00BF42F21070288089
:1055D0003046BDE8F0812DE9F04104468846154685
:1055E000002700BF00BFFFF7F3FA074600BF00BF68
:1055F000606A60B900BF00BF3846FFF7EDFA00BF30
:1056000000BF42F2DE7028800020BDE8F081E16A30
:10561000606A88420BD900BF00BF3846FFF7DCFA4A
:1056200000BF00BF42F2957028800020EDE7606A5D
:10563000401E6062D4E9080150F8216000BF00BF3D
:105640003846FFF7C9FA00BF00BF42F21070288049
:105650003046DAE72DE9F04704460F4615464FF08D
:10566000000900BF00BFFFF7B3FA814600BF00BFCB
:10567000E06AC01B461EE06AB04213D800BF00BFFC
:105680004846FFF7A9FA00BF00BF42F29570288094
:10569000002005E050020020D82B0020504F4F4C36
:1056A000BDE8F087606AB0420BD900BF00BF484632
:1056B000FFF792FA00BF00BF42F2957028800020E9
:1056C000E7E7206A50F8268000BF00BF4846FFF792
:1056D00083FA00BF00BF42F2107028804046D8E72E
:1056E0002DE9F04704460E4617464FF0000A00BF6A
:1056F00000BFFFF76DFA824600BF00BFE16A606A33
:1057000088420BD300BF00BF5046FFF765FA00BFC9
:1057100000BF42F2DD703880BDE8F0874FF000082E
:10572000656A08E0206A50F82590B14502D14FF033
:10573000010803E06D1CE06AA842F3D800BFB8F18D
:10574000010F06D1D4E9080150F82100216A41F87F
:105750002500D4E9080140F82160606A401C6062BD
:1057600000BF00BF5046FFF737FA00BF00BF42F24C
:105770001070388000BFCFE72DE9F84F04460F4680
:105780001646002000904FF0FF3B00BF00BFFFF720
:105790001FFA009000BF00BFE16A606A88420CD324
:1057A00000BF00BF0098FFF717FA00BF00BF42F22A
:1057B000DD7030805846BDE8F88F4FF00009656A0B
:1057C00008E0206A50F82580B84502D14FF0010961
:1057D00003E06D1CE06AA842F3D800BFB9F1010FE5
:1057E0000FD1E06A401EA0EB050A00BF00BF009881
:1057F000FFF7F2F900BF00BF42F210703080504650
:10580000D9E700BF00BF0098FFF7E6F900BF00BF6F
:1058100042F2887030805846CDE7000010B502464D
:105820000B461146002001E0491C401C19B10C78C0
:105830000CB19842F8D310BD30B504464FF0FF319B
:105840002046FFF7EBFF0546284630BD70B50446FD
:105850000D4616460CB9002070BD0DB90020FBE7BF
:1058600021462A46002304E010780870491C521C87
:105870005B1C21B11AB1107808B1B342F4D301B165
:105880000AB90020E8E7B34201D2002008702046A0
:10589000E2E770B504460D464FF0FF322946204638
:1058A000FFF7D4FF0646304670BD70B503460C4680
:1058B00015460BB9002070BD0CB90020FBE70DB9EF
:1058C0001846F8E7194600E0491C11B1087800288D
:1058D000FAD109B90020EEE72246002604E010784C
:1058E0000870491C521C761C21B11AB1107808B1FD
:1058F000AE42F4D301B10AB90020DCE70020087001
:105900001846D8E770B504460D464FF0FF322946D9
:105910002046FFF7CAFF0646304670BD2DE9F0432A
:1059200005460B469446BCF1000F02D10020BDE8AD
:10593000F08335B90BB90020F9E7187842421046D8
:10594000F5E713B92A781046F1E729461C460F46B9
:1059500026467F1C761C4FF0000805E0491C641C9D
:105960007F1C761C08F10108087894F800904845DF
:1059700005D1087818B117B10EB1E045EED3E04576
:1059800001D10020D3E7087894F80090484505D06D
:10599000087894F80090A0EB09020BE0087808B9A9
:1059A000002207E02FB90EB9002203E0307842420E
:1059B00000E03A781046BAE770B504460D464FF05D
:1059C000FF3229462046FFF7A9FF0646304670BD44
:1059D0002DE9F74F82B080460E46049818B9002092
:1059E00005B0BDE8F08FB8F1000F09D10EB9002065
:1059F000F6E73078FFF7FAF907467C422046EFE7F2
:105A00003EB998F80000FFF7F1F905462C4620460C
:105A1000E6E7C146B246C846C3465646CDF804A09E
:105A2000D8460BF1010B019E701C0190C84699F8F5
:105A30000000FFF7DBF9054656469AF80000FFF72D
:105A4000D5F907460020009015E009F101090AF197
:105A5000010A0BF1010B0198401C01900098401CB9
:105A6000009099F80000FFF7C1F905469AF8000088
:105A7000FFF7BCF90746BD420BD199F8000040B1D1
:105A8000BBF1000F05D0019818B104990098884225
:105A9000DBD304990098884201D10020A0E7BD42E1
:105AA00001D0EC1B16E00DB9002413E0BBF1000F90
:105AB0000AD1019808B900240CE001990878FFF791
:105AC00095F907467C4205E09BF80000FFF78EF948
:105AD00005462C46204683E770B504460D464FF038
:105AE000FF3229462046FFF773FF0646304670BD59
:105AF00030B504460B4615460CB9002030BD0BB935
:105B00000020FBE72146002201E0491C521C31B174
:105B1000087820B10878A84201D09A42F5D309B993
:105B20000020EBE79A4201D30020E7E70878A8427B
:105B300001D00020E2E70846E0E770B505460C46D4
:105B400022464FF0FF312846FFF7D2FF0646304687
:105B500070BD2DE9F04305460E46174615B90020E5
:105B6000BDE8F0830EB90020FAE72C46A6F1010942
:105B700049462046FFF752FE804644440CB90020B7
:105B8000EEE700E0641EAC4202D02078B842F9D1C2
:105B90002078B84201D00020E2E72046E0E770B567
:105BA00005460C4622464FF0FF312846FFF7D1FF4D
:105BB0000646304670BD70B504460D4616460CB913
:105BC000002070BD0BB90020FBE721461A4605E016
:105BD0000878A84200D10E70491C521E19B10878ED
:105BE00008B1002AF4D12046EBE7F0B504460D4693
:105BF00016464FF0FF33324629462046FFF7DBFFBB
:105C000007463846F0BD2DE9FF4F06460F461546BC
:105C10001EB9002004B0BDE8F08F0FB90020F9E7ED
:105C20000DB90020F6E7681C00B101E04FF0FF302D
:105C3000039029463046FFF7F1FD80463846039928
:105C4000FFF7ECFD04460CB93046E3E7444501D9C3
:105C50000020DFE706EB080BBBF1000F01D10020AD
:105C6000D8E707EB040BBBF1000F01D10020D1E70F
:105C7000A8EB040002904FF000090020019000BF43
:105C800006EB09000090224639460098FFF746FED1
:105C90008246BAF1000F01D1012000E000200190FE
:105CA00009F10109019810B902988145E8D9BAF1C2
:105CB000000F01D00020ADE70098ABE770B50446B7
:105CC0000D464FF0FF3229462046FFF79CFF06465F
:105CD000304670BD2DE9FF4F8DB00F4615461A9E18
:105CE0001D9818B9002011B0BDE8F08F0020039076
:105CF0000490012F01DA01200390022D01D3242DFD
:105D000001D90120039096B33046FFF70BF80290BB
:105D10000298012802D00120039028E0302E26D0DE
:105D2000A6F13000C0B207901B98012804D0A6F15C
:105D30004100C0B2069003E0A6F16100C0B2069037
:105D40000A2D02D80798A84209DB0A2D09D907981D
:105D50000A2804D3A5F10A000699884201D9012036
:105D600000E0002005900598012800D103901D9CBB
:105D70000398002846D1DDF834A0DDF834A0CDF832
:105D800030A001200B9007E00B98401CC0B20B9094
:105D90000C98B0FBF5F00C900C98A842F4D2109837
:105DA000012800D100E0002009900B9909980844CF
:105DB000B84225DC002001900B98B84201DA0B981C
:105DC00000E038460A903EB1B8460A98391A099858
:105DD000081AC0B2089006E0DDE90910084400F096
:105DE000FF08002008900898002806DD302E01D119
:105DF000012000E00020049004E00020049001E075
:105E000001200390039800B1B84644441C9808B19F
:105E100000202070641E4FF0000941E00398A8BBE9
:105E2000BAF1000F02D1B9F1000F1CD1BAFBF5F0A5
:105E300005FB10A000F0FF0BBBF10A0F04D20BF121
:105E4000300004F801090BE01B98012804D00BF185
:105E5000370004F8010903E00BF1570004F80109C9
:105E6000BAFBF5FA1AE01098012810D1049808B985
:105E7000019828B1049850B1A8F10100484506D115
:105E80002D2004F801090120019007E003E02EB164
:105E900004F8016902E03F2004F8010909F1010951
:105EA000C145BBD3039808B100201CE71D981AE731
:105EB0002DE9FF5F05460E4617461C46DDE90F9AA1
:105EC000DDF8388000233A46314628468DE8100731
:105ED000FFF700FF8346584604B0BDE8F09F2DE968
:105EE000FF4F85B0044689461F46DDE913AB002C01
:105EF00002DA6542012601E0254600261298334663
:105F0000CDE902ABCDE9007049462846079AFFF774
:105F1000E1FE8046404609B0BDE8F08F2DE9FF4F15
:105F20008BB0064689461546B9F1000F02D10DF136
:105F3000240900BFC9F80060189810B907A8189084
:105F400000BF0021189801701EB900200FB0BDE8F5
:105F5000F08F012D01D0242D01D90020F6E7344621
:105F60002078FEF7CDFE039004E0641C2078FEF755
:105F7000C7FE039003980128F7D020782B2802D081
:105F80002D280BD103E0641C4FF0000B09E00E98A4
:105F9000012800D1641C4FF0010B02E04FF0000B10
:105FA00000BF00BF0A9425B1082D1CD0102D36D19A
:105FB0001EE02078302814D1641C2078582802D0A4
:105FC00078280BD100BF102567783846FEF77CFE95
:105FD0008246BAF1010F00D1641C01E0082500BF20
:105FE00000E00A251CE02078302800D1641C17E06E
:105FF0002078302812D1641C2078582802D07828C4
:106000000AD100BF67783846FEF75EFE8246BAF1D5
:10601000010F00D1641C00E000BF00BF00E000BF22
:1060200000BF4FF0000800200290019040E0277868
:106030003846FEF7FBFD05900598012836D1384615
:10604000FEF72EFE06900698012804D1A7F1300035
:10605000C0B208900FE03846FEF70EFE0490049898
:10606000012804D1A7F15700C0B2089003E0A7F1BE
:106070003700C0B208900898A84214DA029880B994
:10608000304850F82500404509D308FB05F808982A
:1060900080440898804504D20120029001E001204C
:1060A0000290641C04E00120019001E001200190B5
:1060B00001980028BBD00298012801D14FF0FF3889
:1060C0000A98844202D0C9F8004001E0C9F8006093
:1060D000189880F800B0404638E7F8B504460D46F9
:1060E0001646002003463246294600902046FFF718
:1060F00015FF07463846F8BD2DE9FC4105460E461A
:10610000174601A801233A46314600902846FFF77A
:1061100005FF04469DF8040040B9B4F1004F02D3D6
:106120006FF0004000E02046804607E0B4F1004FE9
:1061300002D34FF0004000E0604280464046BDE898
:10614000FC810000E0090108002800D17047002907
:1061500000D17047002A00D170472DE9F81F00F0E8
:10616000030301F00304A34211D1C3F1040303F0BC
:106170000303012B1DD3012A00D2F2E011F8014BD9
:1061800000F8014BA3F10103A2F10102F1E700F0D5
:10619000010301F00104A34200D094E0012B44D399
:1061A00011F8014B00F8014BA3F10103A2F1010228
:1061B000F4E7B2F5B47F26D3B1E8F81FA0E8F81FE2
:1061C000B1E8F81FA0E8F81FB1E8F81FA0E8F81F31
:1061D000B1E8F81FA0E8F81FB1E8F81FA0E8F81F21
:1061E000B1E8F81FA0E8F81FB1E8F81FA0E8F81F11
:1061F000B1E8F81FA0E8F81FB1E8F81FA0E8F81F01
:10620000A2F5B472D5E7282A06D3B1E8F81FA0E8B2
:10621000F81FA2F12802F6E7042A06D351F8043B3E
:1062200040F8043BA2F10402F6E7202A42D331F8F9
:10623000023B20F8023B31F8023B20F8023B31F8E8
:10624000023B20F8023B31F8023B20F8023B31F8D8
:10625000023B20F8023B31F8023B20F8023B31F8C8
:10626000023B20F8023B31F8023B20F8023B31F8B8
:10627000023B20F8023B31F8023B20F8023B31F8A8
:10628000023B20F8023B31F8023B20F8023B31F898
:10629000023B20F8023B31F8023B20F8023B31F888
:1062A000023B20F8023B31F8023B20F8023BA2F10E
:1062B0002002BAE7022A06D331F8023B20F8023B5B
:1062C000A2F10202F6E7102A42D311F8013B00F8CE
:1062D000013B11F8013B00F8013B11F8013B00F8CC
:1062E000013B11F8013B00F8013B11F8013B00F8BC
:1062F000013B11F8013B00F8013B11F8013B00F8AC
:10630000013B11F8013B00F8013B11F8013B00F89B
:10631000013B11F8013B00F8013B11F8013B00F88B
:10632000013B11F8013B00F8013B11F8013B00F87B
:10633000013B11F8013B00F8013B11F8013B00F86B
:10634000013B11F8013B00F8013BA2F11002BAE752
:10635000012A06D311F8013B00F8013BA2F101022A
:10636000F6E7BDE8F81F7047154816481648174865
:10637000174818481848194819481A481A481B4815
:106380001B481C481C481D481D481E481E481F48E5
:106390001F482048204821482148224822482348B5
:1063A0002348244824482548254826482648274885
:1063B0002748284828482948294800BF7047000036
:1063C000140B0108740A0108780A01087C0A010804
:1063D000800A0108840A0108880A01088C0A010859
:1063E000900A0108940A0108980A01089C0A010809
:1063F000A00A0108A40A0108A80A0108AC0A0108B9
:10640000B00A0108B40A0108B80A0108BC0A010868
:10641000C00A0108C40A0108C80A0108CC0A010818
:10642000D00A0108D40A0108D80A0108DC0A0108C8
:10643000E00A0108E40A0108E80A0108EC0A010878
:10644000F00A0108F40A0108F80A0108FC0A010828
:10645000000B0108040B0108080B01080C0B0108D4
:10646000100B0108002400BF19E000BF00BFFEF7B9
:10647000AFFB044600BF00BFF9480068401CF84964
:106480000860F8480068401CF649086000BF00BF7B
:106490002046FEF7A1FB00BF00BF07F079FBE4E751
:1064A00010B58AB004460020ED4908600B20002199
:1064B0000591CDE9070406910846EB490968EB4AC6
:1064C0001268EB4B1B68CDE90132CDE903103F2088
:1064D0000023AFF26F02E7A10090EB4804F084FDC7
:1064E0000AB010BD00210AE001EB4102E74B03EBCB
:1064F000820000220281026042604A1CD1B240291F
:10650000F2D3704770B5044607F04AFB0020E0491B
:106510000870E0490870E0490870E0490860E04907
:106520000860E0490870E0490870E0490870E049F7
:106530000860E0490860E0490860E0490870E04808
:1065400000680A21B0FBF1F0DE490860DE4800680F
:1065500058B1DE48056845B1DB48066803E0761EA1
:10656000002028602D1D002EF9D10020D849086098
:10657000D8490860D8490860D8490860D8490860F7
:10658000D8490860D8490860D849087003F00CF869
:10659000FFF7A8FF204601F035FE208800B170BD4E
:1065A000204602F070F9208800B1F8E7204602F09A
:1065B00096F9208800B1F2E7204602F0DDFF20883E
:1065C00000B1ECE7204603F089FC208800B1E6E743
:1065D000204604F09FF8208800B1E0E7204606F04E
:1065E00073F9208800B1DAE7204601F090FF208897
:1065F00000B1D4E72046FFF753FF208800B1CEE773
:10660000204606F0B8FA208800B1C8E7204604F01A
:106610003AFB208800B1C2E7204607F014FA208830
:1066200000B1BCE700F016FEFFF79EFE00BFB6E724
:1066300098480078012800D0704795480078FA28DB
:1066400000DBF9E792480078401C9149087000BFD0
:10665000F2E710B500248F480078012800D010BD63
:1066600000BFFEF7B5FA044600BF8948007828B994
:1066700000BF2046FEF7B0FA00BFF0E7844800787C
:10668000401E8349087008460078002805DD00BFD9
:106690002046FEF7A1FA00BFE1E77F480078002816
:1066A00005DD00BF2046FEF797FA00BFD7E702F0EE
:1066B00085FF7D4908700846007800EB400073496B
:1066C00051F8200076490860084600687349096857
:1066D000884205D100BF2046FEF77EFA00BFBEE724
:1066E0006F480068D0F89000401C6D490968C1F8F7
:1066F00090007F480068401C7D49086009F098FEC2
:1067000000BF2046FEF768FA00BF00BFA7E710B53C
:1067100000245F480078002800DD10BD5E48007846
:10672000002800DDF9E700BFFEF752FA044600BF7B
:1067300002F044FF5C4908700846007800EB400016
:10674000524951F8200056490860084600685349EC
:106750000968884205D100BF2046FEF73DFA00BF18
:10676000DBE74F480068D0F89000401C4C490968AE
:10677000C1F890005E480068401C5D49086009F05F
:1067800052FE00BF2046FEF727FA00BF00BFC4E755
:1067900010B541480078012803D1FEF79DF844491F
:1067A000086010BD70B504460025394800780028FF
:1067B00003DD46F66250208070BD3648007801281F
:1067C00003D045F689602080F6E733480078FA2840
:1067D00003DB45F209202080EEE700BF00BFFEF793
:1067E000F7F9054600BF00BF2B480078401C2A4936
:1067F0000870FFF7CDFF00BF00BF2846FEF7ECF999
:1068000000BF00BF0020208000BFD5E710B52248A0
:10681000007880B9FEF760F825490968441A2548D0
:106820000068A04201D22348046023480068A042C7
:1068300001D22148046010BD70B5044600251448FB
:106840000078002803DD46F66550208070BD1148B1
:10685000007801284ED045F689602080F6E70000D8
:1068600078020020DC0200207C0A0108780A010876
:10687000740A010875432F4F532D49494920496433
:106880006C65205461736B00B044002044460020C6
:106890007C0200207D020020C40200201C03002096
:1068A00020030020AA020020AB020020AC0200203E
:1068B000B8020020BC020020C0020020CC02002050
:1068C000D40A0108C8020020A40A0108A00A01088D
:1068D0005C020020600200206402002068020020A8
:1068E0006C0200207002002074020020FA020020D6
:1068F000F0020020F948007818B946F6645020806C
:10690000A4E700BF00BFFEF763F9054600BF00BF64
:10691000F2480078401EF1490870084600780028C7
:106920000ADD00BF00BF2846FEF756F900BF00BFD2
:1069300046F66350208089E7FFF768FF00BF00BF7D
:106940002846FEF749F900BF00BFFFF7E0FE002030
:10695000208000BF7AE72DE9F04105460C46164637
:10696000002700BF00BFFEF733F9074600BF00BF96
:10697000012D03D00020DA49087002E00120D84937
:10698000087014B1D748046006E0D74800680A21AF
:10699000B0FBF1F0D349086000BF00BF3846FEF7F6
:1069A0001BF900BF00BF00203080BDE8F08110B5AA
:1069B00001460C8924B1012C03D0022C0CD101E03A
:1069C00000BF14E008684A6802610024C4601461D2
:1069D000D0600A6048600AE008684A68C36800241A
:1069E0001C61C4600261D0600B60486000BF00BFE2
:1069F00010BD2DE9F04104460027BC48007800286E
:106A000004DD48F2D1402080BDE8F081B348007831
:106A1000002803DD46F663502080F5E7B048007893
:106A2000012803D046F67B102080EDE700BF00BFB1
:106A3000FEF7CEF8074600BF00BFAD48007800EB78
:106A40004000AC4901EB8006308902280ADA00BF19
:106A500000BF3846FEF7C0F800BF00BF46F67A1008
:106A60002080D1E73046FFF7A2FF3568686D18B97E
:106A70009C480068A86501E0686DA86500BF00BF7C
:106A80003846FEF7A9F800BF00BFFFF740FE002020
:106A9000208000BFB8E710B5044697480078E8B9F1
:106AA00002F08CFD954908700846007890490870FE
:106AB0009248007800EB40008E4951F82000904940
:106AC0000860084600688F49086001208A490870FC
:106AD00009F098FC43F69920208002E045F68A6090
:106AE000208010BD01460020088047F25C6070479E
:106AF00030B548B14568C1F8C05000F108042268BB
:106B000093681D6AC56113E091F83450022D02D0DC
:106B1000072D08D103E07CA5C1F8C05007E07CA593
:106B2000C1F8C05003E07DA5C1F8C05000BF00BF50
:106B300030BDF0B58E6896F8375007893FB9012708
:106B4000078100274F600F600160416023E00789E3
:106B50007F1C0781026806E0946894F83770AF42A2
:106B600000DD02E05268002AF6D100BF32B90027EA
:106B70004F6043680B60596041600CE017682FB9A3
:106B8000116000270F604A60016004E013680B6029
:106B90004A6059601160F0BD10B5C28701630023DF
:106BA0000AE000244C600C600C614C610C83CC61E9
:106BB000886020315C1CA3B29342F2DB10BD2DE94A
:106BC000F041054695F8370000EB4000494901EBDC
:106BD00080042F69EE6887B946B9002020812060C3
:106BE000606095F8370002F00BFD0EE02089401E32
:106BF000208100203061266007E02089401E20812E
:106C0000FE600EB9676000E0376100202861E8602F
:106C1000BDE8F08138B504460D4685B16B460222C9
:106C20002946204605F0E8FFBDF8000018B903200A
:106C300084F8360006E0022084F8360002E00220E4
:106C400084F836002046FFF7BAFF38BD2DE9F04141
:106C500005460C4616461F462A48006880F83460F0
:106C600000202849096881F8350039462548006820
:106C7000FFF7D0FF6CB104F10808EC60012229464F
:106C800020480068FFF788FF29464046FFF751FF7C
:106C900006E000201B490968C8871A49096808638B
:106CA000184801682046FFF723FFBDE8F08110B5C2
:106CB0000489012C03D100240460446034E00C6892
:106CC00024B94A680024146002602DE04C6824B99D
:106CD0000B6800245C60436026E021E0C4020020D1
:106CE000CC020020C8020020D40A01087C02002047
:106CF000AA020020444600207D020020AB020020B2
:106D0000200300201C0300205461736B20510000FD
:106D10005461736B2053656D00000000200000007B
:106D20000B684A685A6013600489641E0481002459
:106D30004C600C6010BD2DE9F0410446256BE68FD8
:106D40000AE0D5F80C8008F1080729463846FFF715
:106D5000AEFF2035701E86B2002EF2DC0020E087E8
:106D60002063BDE8F08130B50346086BCC8F08E0A6
:106D7000C5689D4202D10361C26104E02030651EF6
:106D8000ACB2002CF4DC00BF30BD10B590F8373049
:106D900003EB4303F94C04EB83010B893BB901235B
:106DA0000B810023C36003610860486009E00B8920
:106DB0005B1C0B810B68C360002303610A681061D0
:106DC000086010BD10B590F8373003EB4303EB4C6F
:106DD00004EB83010B893BB901230B810023C360C2
:106DE00003610860486008E00B895B1C0B8100238D
:106DF000C3604A680261D060486010BD10B50446A7
:106E000094F8370002F0ECFB94F83700DC4909787D
:106E1000884203D12046FFF7D5FF02E02046FFF766
:106E2000B4FF10BD10B50446204605F075FD94F87A
:106E3000360000F0040010B92046FFF7DFFF10BD58
:106E400070B505460C46164694F83600082847D219
:106E5000DFE800F0040508090607272800BF00BF87
:106E600000BF3EE000BF94F83400032804D132464E
:106E700021462846FFF777FF0020E065A4F8600070
:106E8000266415B12046FFF756FF2046FFF7CAFFDC
:106E900000203434A07001206070002004F8340910
:106EA0001FE000BF94F83400032804D13246214685
:106EB0002846FFF758FF0020E065A4F8600026642C
:106EC00015B12046FFF737FF204605F025FD0420C9
:106ED0003434A07001206070002004F8340900E010
:106EE00000BF00BF70BD30B5AFF2D015C1F8C050C3
:106EF00000F1080422681AB193681D6AC56102E0B6
:106F0000AFF2E815C56130BD2DE9F04304460F46E8
:106F100084F83770256BB4F83E8013E0D5F80C90F8
:106F200009F108063089012807D929463046FFF7BC
:106F3000BEFE29463046FFF7FCFD2035A8F10100D2
:106F40001FFA80F8B8F1000FE8D1BDE8F083002106
:106F5000016041600181704703895B1C0381036804
:106F60004B6000230B60026802B11160016003896D
:106F7000012B00D14160704730B50346086BCC8FC0
:106F800008E0C5689D4202D10361C26104E020307F
:106F9000651EACB2002CF4DC00BF30BD70B50646F7
:106FA0000C46154694F83600082845D2DFE800F074
:106FB000040508090607262700BF00BF00BF3CE004
:106FC00000BF94F83400032804D12A4621463046F5
:106FD000FFF7D2FF0020E065A4F86000256420469A
:106FE000FFF7A9FE2046FFF71DFF00203434A070F4
:106FF00002206070002004F834091EE000BF94F8FD
:107000003400032804D12A4621463046FFF7B4FF56
:107010000020E065A4F860002564204605F07CFCB3
:107020002046FFF788FE04203434A07002206070F0
:10703000002004F8340900E000BF00BF70BDF0B5C7
:107040000446059E086BCD8F0AE0C768A74204D1AD
:10705000046142610383C66104E020306F1EBDB24B
:10706000002DF2DC00BFF0BD2DE9F84306460C46CA
:1070700017469846089D94F83600082850D2DFE855
:1070800000F00405080906072B2C00BF00BF00BF55
:1070900047E000BF94F83400032807D143463A463E
:1070A000214630460095FFF7CAFF03E0E765A4F8E4
:1070B0006080256436B12046FFF73DFE214630460C
:1070C000FFF711FF2046FFF7ADFE00203434A0701B
:1070D000607004F8340924E000BF94F834000328F9
:1070E00007D143463A46214630460095FFF7A7FFB1
:1070F00003E0E765A4F860802564204605F00CFCF9
:1071000036B12046FFF717FE21463046FFF7EBFE6B
:1071100004203434A0700020607004F8340900E0CA
:1071200000BF00BFBDE8F88310B5002400BFFDF725
:107130004FFD044600BF0020124908701248134951
:10714000086008460068D0F89000401C0968C1F843
:1071500090000F480068401C0D49086009F063F971
:1071600000BF2046FDF738FD00BF10BD70B50546D5
:1071700000260848007801280ED070BD4446002043
:10718000AA020020AB02002074450020200300204A
:10719000F0020020CC02002000BF00BFFDF718FD68
:1071A000064600BF00BF2C683CB900BF00BF304698
:1071B000FDF712FD00BF00BFDFE72348844207D17F
:1071C00000BF00BF3046FDF707FD00BF00BFD4E79A
:1071D000A06D10B1A06D401EA065A06D38B100BFBC
:1071E00000BF3046FDF7F8FC00BF00BFC5E72889A7
:1071F000022807DA00BF00BF3046FDF7EDFC00BFF4
:1072000000BFBAE711480078002807DD00BF00BFC3
:107210003046FDF7E1FC00BF00BFAEE72846FFF7B0
:10722000C6FB2C68606D18B909480068A06501E0CC
:10723000606DA06500BF00BF3046FDF7CDFC00BF0C
:1072400000BF00BF99E70000B0440020C402002046
:10725000C8020020244825482548264826482748B3
:10726000274828482848294829482A482A482B4896
:107270002B482C482C482D482D482E482E482F4866
:107280002F48304830483148314832483248334836
:107290003348344834483548354836483648374806
:1072A000374838483848394839483A483A483B48D6
:1072B0003B483C483C483D483D483E483E483F48A6
:1072C0003F48404840484148414842484248434876
:1072D0004348444844484548454846484648474846
:1072E000474800BF70470000180B0108800C0108D8
:1072F0001A0B01081B0B01081C0B0108200B0108CD
:10730000240B0108210B01084C0B01084D0B01084F
:107310004E0B0108500B0108520B0108540B0108D9
:10732000560B0108580B0108780B01087A0B01086D
:107330007C0B01087E0B0108800B0108820B010801
:10734000840B0108B00B0108B10B0108B20B010856
:10735000B40B0108B60B0108B70B0108B80B010804
:10736000BA0B0108BC0B0108BE0B0108C00B0108D9
:10737000C20B0108C40B0108F40B0108F50B01084E
:10738000F60B0108F70B0108F80B0108FA0B0108CE
:10739000FC0B0108240C0108250C0108260C01082F
:1073A000270C0108280C01082A0C01082C0C0108E4
:1073B000300C0108310C0108320C0108330C0108B3
:1073C000340C0108350C0108360C0108370C010893
:1073D000380C01083A0C01083B0C01083C0C010870
:1073E0003E0C0108400C0108410C0108440C010846
:1073F000780C0108790C01087A0C01087C0C010852
:107400007E0C0108F7A1C16100214161F6490968BC
:1074100011B90021816105E0F34909688161F249F0
:1074200009684861F049086070472DE9F041044659
:107430000E4617461D464FF00008EC48007800281D
:1074400004DD42F6E1602880BDE8F0811CB945F614
:10745000C3502880F8E700BF00BF00BFFDF7B8FBAE
:10746000804600BF00BFE2480078401CE049087039
:1074700000BF00BF4046FDF7AFFB00BF00BF00BF2D
:10748000DC482060666027620020606204F108002A
:10749000FFF75DFD2046FFF7B5FFD7480088401C89
:1074A000D549088000BF00BF00BFFDF791FB8046B3
:1074B00000BF00BFCE480078401ECD49087000BF15
:1074C00000BF4046FDF788FB00BF00BF00BF0020A3
:1074D000288000BFB8E770B50446C8482060C8A03F
:1074E00060600020206204F108052846FFF72FFDA8
:1074F00070BD426981693AB9BB4B196009B100237B
:107500004B610023836109E019B900239361436152
:1075100004E091614A6100238361436170472DE972
:10752000FC5F05468846144600200090AF4800786E
:10753000002805DD43F2C92020800020BDE8FC9F23
:1075400025B945F6C35020800020F7E7B8F1000FB9
:1075500003D0B8F1010F02D100E000BF04E045F60E
:10756000256020800020E9E700BFA2492868884202
:1075700004D045F6C45020800020DFE700BF00BFE4
:1075800000BFFDF725FB009000BF00BF98480078C2
:10759000401C9749087000BF00BF0098FDF71CFB16
:1075A00000BF00BF00BF05F10809B9F80860374601
:1075B000B8F1000F03D0B8F1010F6ED16EE07FBBC0
:1075C0002846FFF796FF8C480088401E8A490880AD
:1075D0002846FFF780FF00BF00BF00BFFDF7F8FAA5
:1075E000009000BF00BF82480078401E80490870AC
:1075F00008460078A8B984480088002809DD00BF43
:1076000000BF0098FDF7E8FA00BF00BFFFF78CFD50
:107610000EE000BF00BF0098FDF7DEFA00BF07E0F4
:107620000AE000BF00BF0098FDF7D6FA00BF00BF18
:1076300000BF002020802FE000BF00BF00BFFDF78B
:10764000C7FA009000BF00BF69480078401E684933
:10765000087008460078A0B96B480088002809DD4A
:1076600000BF00BF0098FDF7B7FA00BF00BFFFF7EB
:107670005BFD0DE000BF00BF0098FDF7ADFA00BF55
:1076800006E000BF00BF0098FDF7A6FA00BF00BFEC
:1076900000BF47F25F10208067E035E0FDF71CF97E
:1076A00001900AE0D9F800A0DAF808B05946284657
:1076B000019AFFF773FC701E86B2002EF2D12846A5
:1076C000FFF717FF4C480088401E4B4908802846AA
:1076D000FFF701FF00BF00BF00BFFDF779FA009080
:1076E00000BF00BF42480078401E4149087000BFFB
:1076F00000BF0098FDF770FA00BF00BF00BFFFF7A2
:1077000006F80020208030E000BF00BF00BFFDF77A
:107710005FFA009000BF00BF35480078401E344932
:10772000087008460078A0B937480088002809DDAD
:1077300000BF00BF0098FDF74FFA00BF00BFFFF782
:10774000F3FC0DE000BF00BF0098FDF745FA00BF55
:1077500006E000BF00BF0098FDF73EFA00BF00BF83
:1077600000BF45F62560208000BF00BF3846E5E633
:107770002DE9F04106460F4614461D46DDF81880F7
:1077800022480068C0F8804020480068A0F888506F
:1077900000201E490968C1F8840043460122394689
:1077A0003046FFF753FABDE8F0812DE9F04F8BB07A
:1077B0000446884693469946DDE9147500200190F9
:1077C0000A480078002806DD46F2AE102880002026
:1077D0000BB0BDE8F08FDCB945F6C350288000201F
:1077E000F6E7000020000000940200207C02002048
:1077F000C4020020464C4147980200204E4F4E459F
:107800003F464C4147000000880200201C03002036
:1078100048F20101A9EB0100894536D01ADC40F29B
:107820000111A9EB010089452BD00CDCB9F1010F46
:1078300023D0B9F1020F21D0B9F1040F1FD0B9F153
:10784000080F2AD11CE001281CD003281BD00728D0
:1078500023D119E0B0F5807F1BD006DC012815D0BC
:10786000032814D0072818D112E0A0F2011088B123
:10787000022810D0062810D10EE000BF00BF00BFC4
:1078800000BF00BF00BF00BF00BF00BF00BF00BF00
:1078900000BF00BF00BF00BF04E045F625602880A0
:1078A000002095E700BFF9492068884204D045F6DA
:1078B000C450288000208BE709F4807010B14FF08D
:1078C000010A01E04FF0000A0FB10020386009F012
:1078D0000F000A9000BF00BFFDF77AF9019000BFCA
:1078E00000BF0A9801286ED002286DD0042802D06B
:1078F00008286AD16AE0206A00EA0806464517D1DE
:10790000BAF1010F02D1206AB0432062E04800685A
:10791000C0F884600FB1606A386000BF00BF019892
:10792000FDF75AF900BF00BF0020288030464FE71E
:1079300009F4004058B100BF00BF0198FDF74CF9B1
:1079400000BF00BF46F2B0102880002040E7D148B9
:10795000007800280BDD00BF00BF0198FDF73CF95F
:1079600000BF00BF46F663502880002030E700BF0C
:10797000C8480078401CC749087000BF00BF019884
:10798000FDF72AF900BF00BF00BF4B464246214623
:1079900002A8CDF800B0FFF7EBFE00BF00BF00BFAC
:1079A000FDF716F9019000BF00BFBA480078401EED
:1079B000B849087000BF00BF0198FDF70DF900BF7E
:1079C00000BF00BF44E168E0CFE035E1206A00EA93
:1079D0000806BEB1BAF1010F02D1206AB04320629D
:1079E000AB480068C0F884600FB1606A386000BFBF
:1079F00000BF0198FDF7F0F800BF00BF002028800D
:107A00003046E5E609F4004058B100BF00BF0198D8
:107A1000FDF7E2F800BF00BF46F2B010288000205A
:107A2000D6E69C48007800280BDD00BF00BF019817
:107A3000FDF7D2F800BF00BF46F663502880002053
:107A4000C6E600BF93480078401C9249087000BF0A
:107A500000BF0198FDF7C0F800BF00BF00BF4B4654
:107A60004246214602A8CDF800B0FFF781FE00BFD4
:107A700000BF00BFFDF7ACF8019000BF00BF854814
:107A80000078401E8349087000BF00BF0198FDF7D1
:107A9000A3F800BF00BF00BFDAE0206A28EA0006B2
:107AA000464517D1BAF1010F02D1206A3043206256
:107AB00077480068C0F884600FB1606A386000BF22
:107AC00000BF0198FDF788F800BF00BF00202880A4
:107AD00030467DE609F4004058B100BF00BF019870
:107AE000FDF77AF800BF00BF46F2B01028800020F2
:107AF0006EE66848007800280BDD00BF00BF0198E3
:107B0000FDF76AF800BF00BF46F6635028800020EA
:107B10005EE600BF5F480078401C5E49087000BF09
:107B200000BF0198FDF758F800BF00BF00BF4B46EB
:107B30004246214602A8CDF800B0FFF719FE00BF6B
:107B400000BF00BFFDF744F8019000BF00BF5148DF
:107B50000078401E4F49087000BF00BF0198FDF734
:107B60003BF800BF00BF00BF72E0206A28EA0006B1
:107B7000BEB1BAF1010F02D1206A304320624448FD
:107B80000068C0F884600FB1606A386000BF00BF51
:107B90000198FDF721F800BF00BF00202880304683
:107BA00016E609F4004058B100BF00BF0198FDF788
:107BB00013F800BF00BF46F2B0102880002007E68F
:107BC0003448007800280BDD00BF00BF0198FDF7A6
:107BD00003F800BF00BF46F6635028800020F7E599
:107BE00000BF2C480078401C2A49087000BF00BF25
:107BF0000198FCF7F1FF00BF00BF00BF4B464246B3
:107C0000214602A8CDF800B0FFF7B2FD00BF00BFCB
:107C100000BFFCF7DDFF019000BF00BF1D480078EA
:107C2000401E1C49087000BF00BF0198FCF7D4FF3C
:107C300000BF00BF00BF0BE000BF00BF0198FCF712
:107C4000CBFF00BF00BF45F6256028800020BFE5C0
:107C500000BFFEF75CFD00BF00BFFCF7B9FF01905D
:107C600000BF00BF0A48006890F8350030B1012815
:107C700012D0022830D003283FD11EE01FB10448A3
:107C80000068006C38600020288042E0464C414784
:107C90001C030020C40200201FB1FC480068006CD7
:107CA000386000BF00BF0198FCF796FF00BF00BF1F
:107CB00046F2A910288000208AE50FB10020386024
:107CC00000BF00BF0198FCF787FF00BF00BF47F26D
:107CD000D920288000207BE51FB1EC480068006CAB
:107CE000386000BF00BF0198FCF776FF00BF00BFFF
:107CF00045F6C250288000206AE500BF00BF019809
:107D0000FCF76AFF00BF00BF46F62E602880002007
:107D10005EE500BFDD480068D0F88460BAF1010F6D
:107D200020D10A9801280BD002280AD0042802D0BA
:107D300008280AD100E000BF206AB043206210E0AA
:107D400000BF206A304320620BE000BF00BF0198F3
:107D5000FCF742FF00BF00BF45F6256028800020E9
:107D600036E500BF00BF00BF0198FCF735FF00BF3C
:107D700000BF0020288030462AE52DE9F05F054647
:107D80000E4614464FF0000AC1480078002805DD71
:107D900046F2AA1020800020BDE8F09F25B945F6E4
:107DA000C35020800020F7E74EB1B6F5807F07D0A2
:107DB000B6F5004F05D0B6F5014F04D102E000BF83
:107DC00000BF00BF04E045F6256020800020E3E707
:107DD00000BFB0492868884204D045F6C4502080CE
:107DE0000020D9E700BF00BFFCF7F2FE824600BFCB
:107DF00000BF05F10807388958B900BF00BF5046D9
:107E0000FCF7EAFE00BF00BF46F2AB102080002066
:107E1000C2E700BFA0480078401C9F49087000BF1F
:107E200000BF5046FCF7D8FE00BF00BF00BF4FF0B8
:107E30000008FCF751FD83460FE03868D0F8089041
:107E40005A4649462846FEF7FBFF08F101001FFA93
:107E500080F8B6F5807F00D002E038890028ECDC9D
:107E600000BF00BF00BF00BFFCF7B2FE824600BFEC
:107E700000BF89480078401E8749087000BF00BFD6
:107E80005046FCF7A9FE00BF00BF00BF06F400404B
:107E900008B9FEF73CFC0020208040467CE770B526
:107EA000044600267A480078002804DD46F2AE1029
:107EB0002080002070BD00BF00BFFCF789FE064691
:107EC00000BF00BF71480068D0F8845000BF00BFF9
:107ED0003046FCF781FE00BF00BF0020208028460E
:107EE000E8E770B504460E46154634342665002092
:107EF00060702070E560A078343C082816D2DFE876
:107F000000F0040508090706101100BF00BF00BFFC
:107F10000DE000BF2046FEF785FF002084F8360004
:107F200005E000BF042084F8360000E000BF00BF79
:107F30002046FEF700FF70BD2DE9F04F85B00446E6
:107F4000894692469B46DDF838800020009000BFAD
:107F500000BFFCF73DFE009000BF00BFBAF1000F6C
:107F60000AD0BAF1010F0DD0BAF5004F05D06FF469
:107F70000040504460B906E000BF206A40EA0900B2
:107F8000206214E000BF206A20EA090020620EE0AF
:107F900000BF00BF0098FCF71FFE00BF00BF45F602
:107FA0002560A8F80000002005B0BDE8F08F00BFF4
:107FB000C4F824B004F1080001900198008958B970
:107FC00000BF00BF0098FCF707FE00BF00BF002005
:107FD000A8F80000206AE7E700BF2F480078401C9F
:107FE0002D49087000BF00BF0098FCF7F5FD00BFE9
:107FF00000BF00BF01980768BD6888E078680290FC
:1080000095F8880000F00F0003900398012821D014
:1080100002282ED0042802D008283FD10EE0206A82
:10802000D5F8801000EA0106D5F88000B04204D1EE
:108030005A4631462846FFF754FF62E0206AD5F8D9
:10804000801000EA010626B15A4631462846FFF75D
:1080500048FF56E0D5F88000216A20EA0106D5F8ED
:108060008000B04204D15A4631462846FFF739FF16
:1080700047E0D5F88000216A20EA010626B15A4679
:1080800031462846FFF72DFF3BE000001C0300208F
:108090007C020020464C4147C402002000BF00BFC4
:1080A00000BFFCF795FD009000BF00BF5948007865
:1080B000401E5849087008460078A0B95648008804
:1080C000002809DD00BF00BF0098FCF785FD00BF58
:1080D00000BFFFF729F80DE000BF00BF0098FCF7D4
:1080E0007BFD00BF06E000BF00BF0098FCF774FDF9
:1080F00000BF00BF00BF43F6FF20A8F8000000202B
:1081000052E700BF029F0FB1BD6800E00025002DBF
:108110007FF474AF00BF00BF00BFFCF759FD0090B3
:1081200000BF00BF3B480078401E3A49087000BFBE
:1081300000BF0098FCF750FD00BF00BF00BF0AF46D
:10814000004008B9FEF7E3FA00BF00BFFCF740FDAE
:10815000009000BF00BF206A049000BF00BF0098DD
:10816000FCF73AFD00BF00BF0020A8F8000004980B
:108170001AE72DE9FF470546884617461C4635B9DC
:1081800045F6C3502080002004B0BDE8F0874FB111
:10819000012F08D0B7F5004F06D06FF400403844E7
:1081A00020B902E000BF00BF00BF04E045F6256033
:1081B00020800020E8E700BF18492868884204D0E2
:1081C00045F6C45020800020DEE7FCF785FB06461C
:1081D0001348007800280BDD00231A4629460F4873
:1081E000CDE90087CDE9026400F020F80020CBE75C
:1081F00033463A46414628460094FFF79DFE8146A5
:108200004846C1E70021074A1160074A11800180F2
:1082100070470000C402002088020020464C4147FD
:108220007C02002094020020980200202DE9F84FE3
:1082300004460D4616461F46DDE90BABDDF82890D7
:10824000DDF834800020009000BF00BFFCF7C0FCC8
:10825000009000BF00BFE2480088E24909888842D8
:108260003EDADF480088401CDD490880DE4800888F
:108270000988884203DADA480088DB490880DB484D
:1082800000680460D94800688560D8480068C66006
:10829000D64800680782D5480068C0F81490D348D3
:1082A0000068A0F818A0D1480068C0F81CB0CF48FA
:1082B00000684068CD4908600120CD490881CD485B
:1082C00008604860002001F08BF9CB48007818B1B5
:1082D000C9480078C94908700020A8F8000008E0E3
:1082E000C7480088401CC649088044F25360A8F87B
:1082F000000000BF00BF0098FCF76EFC00BF00BF8D
:10830000BDE8F88F3EB5BF4800680068BE4A811AD4
:10831000904279D00FDCBD49084400283ED0BC49CA
:108320000844A8B1BB490844002860D0BA490844B1
:1083300000286AD13FE0B9480844002850D0B84925
:108340000844002862D0B74908440028F1D110E061
:1083500002A8AC4D00902D68EB69AA4D2D682A8BC0
:10836000A84D2D686969A74D2D68A868FFF7E4FD41
:108370007AE002A9A3480068C069A24DCDE90001D6
:108380002D682B8B9F4D2D682A8A9E4D2D68E9689C
:108390009C4D2D68A86801F09CFC65E0994B1B681A
:1083A000DA69984B1B68198B964B1B68986802AB6F
:1083B00002F074F858E002A992480068C069914D33
:1083C000CDE900012D682B8B8E4D2D682A8A8D4DAD
:1083D0002D68E9688B4D2D68A86803F026FA43E004
:1083E00088490968886802A903F0D7FB3CE0854BFF
:1083F0001B68DA69834B1B68198B824B1B68986872
:1084000002AB03F039FE2FE007E02CE07D4909685C
:10841000886802A904F05DF926E07849097801EB43
:108420004101734A02EB8100FEF7A0FE7548006827
:1084300002AB0021C2697C4803F01EFE7B48006845
:10844000401E7A4908600846006858B978480068B4
:108450000860FCF741FA044602AB22460021754849
:1084600003F00AFE00E000BF00BF3EBD002700BFD2
:108470004CE0002648E000BF00BFFCF7A9FB074620
:1084800000BF00BF5648008888B9002058490881BD
:108490000860486001F0B4F800BF00BF3846FCF740
:1084A0009BFB00BF00BFFEF732F901262CE000BFA6
:1084B00000BF3846FCF790FB00BF00BFFCF70CFA8A
:1084C0000546FFF71FFFFCF707FA441B5A480068F0
:1084D000A04201D25848046000BF00BFFCF778FBFF
:1084E000074600BF00BF474800684068454908602C
:1084F0003B480088401E3A49088000BF00BF38460C
:10850000FCF76AFB00BF00BF002EB4D0B1E7F0B5A6
:1085100089B0054600203A4908804848006820B9DB
:1085200044F25260288009B0F0BD2E48008802282D
:1085300003DA44F254602880F5E700203E490860E1
:108540003E4804682646203600270CE03C48206060
:108550000020A060E060208260612083666020349B
:108560002036781C87B21F4800888742EEDB203C0B
:108570003248066866601D48066022480660002092
:1085800017490880184908802E48006818B944F235
:1085900055602880C7E72C4800682C490968884244
:1085A00003D244F256602880BDE7032000210591E4
:1085B000CDE90705069124480068254A1268214B39
:1085C0001B68CDE90301CDE9013200910B46AFF202
:1085D000631220A1074802F007FD00BFA3E70000D7
:1085E00088020020880A01088A02002080020020F8
:1085F0004446002074450020AA020020AC0200205E
:108600008C020020840200205449434BADBAB2BE14
:108610000DF90BFAF2F8F7FF0006F6FF00F7FDF789
:1086200000FFEFFF03FE0FFE084A002018030020A2
:1086300014030020CC4A002090020020840A010884
:108640004E4F4E45900A0108980A0108D00A0108C9
:10865000940A010875432F4F532D49494920495326
:1086600052205175657565205461736B00000000E0
:10867000002181618749096811B90021C16105E0C4
:1086800084490968C1618349096888618149086032
:1086900070472DE9FF4F83B0044615461F46DDE9BC
:1086A0001096002000907C480078002805DD45F2F7
:1086B000B960308007B0BDE8F08F1DB945F2BB60EE
:1086C0003080F7E7022F03DA45F2BC603080F1E733
:1086D000B9F1040F03D245F2C1603080EAE74FF0F0
:1086E000030ABAF1000F0DD005EA0A0018B145F2ED
:1086F000BB603080DEE709EA0A0018B145F2C160CC
:108700003080D7E7AB46A846781E80B201900020A3
:10871000029007E0C844CBF80080C3460298401C92
:1087200080B20290DDE901108842F3DB0020CBF833
:10873000000000BF00BF00BFFCF74AFA009000BF76
:1087400000BF56480078401C5449087000BF00BF65
:108750000098FCF741FA00BF00BF00BF50482060FE
:108760000498A0606560E560A7826782A4F8109015
:108770002046FFF77DFF4B480088401C4949088090
:1087800000BF00BF00BFFCF723FA009000BF00BF8E
:1087900042480078401E4149087000BF00BF009861
:1087A000FCF71AFA00BF00BF00BF0020308000BFF6
:1087B00080E72DE9F04104460D4600272CB945F22B
:1087C000BF6028800020BDE8F08100BF00BFFCF73B
:1087D000FFF9074600BF00BFA08A58B900BF00BF1D
:1087E0003846FCF7F9F900BF00BF45F2C2602880A7
:1087F0000020E8E7E6683068E060A08A401EA082BA
:1088000000BF00BF3846FCF7E7F900BF00BF0020FB
:1088100028803046D7E72DE9F04104460E4615463C
:10882000002724B945F2BF602880BDE8F0811EB959
:1088300045F2BE602880F8E700BF00BFFCF7C8F92A
:10884000074600BF00BFA08A618A88420ADB00BFDA
:1088500000BF3846FCF7C0F900BF00BF45F2BA6060
:108860002880E2E7E0683060E660A08A401CA082D1
:1088700000BF00BF3846FCF7AFF900BF00BF0020C3
:10888000288000BFD1E70021024A1160054A11800B
:10889000018070479C0200207C020020C40200205E
:1088A0004D454D20A002002070B502460B461046F3
:1088B000114610315E1EB5B2002408E001600026AA
:1088C00046600681C66010301031661CB4B2AC42FE
:1088D000F4DB0026066046600681C66070BD10B5F8
:1088E00004467948006818B945F21E70208010BD12
:1088F0007648008818B945F21D702080F7E7734864
:10890000018871480068FFF7CFFF6F480068704921
:1089100008606E48008888800020C8800881208018
:1089200000BFE4E710B5014648894B89002B17DDED
:108930000A68674B1B681360654C4B6823602346CD
:10894000DB884C891B1B624CE38023469B884C8947
:1089500023445F4CA38000234B818B810B604B60D1
:1089600010BD018100224281828102604260704715
:10897000F0B504460D46608940B90020288002B158
:10898000106046F2925018800020F0BD61684E6879
:10899000088928800AB1C86810600868606060684B
:1089A00018B900202060608102E06089401E60816B
:1089B000474800680860464801608088401C444F72
:1089C000B8803846C088401EF880002018803046A5
:1089D000DBE72DE9F0410D46DDE90674B0F80AC089
:1089E000B0F80880C44505DB46F2935CA4F800C0EB
:1089F000BDE8F081DFF8D8C0BCF804C0BCF1000FBE
:108A000004D145F21D7CA4F800C0F1E7DFF8C0C036
:108A1000DCF80010DFF8B880D1F800C0C8F800C05A
:108A2000C446BCF804C0ACF1010CA8F804C0C446AC
:108A3000BCF806C00CF1010CA8F806C0C446BCF88E
:108A400008C0B8F80680C44507DADFF884C0BCF86F
:108A500006C0DFF87C80A8F808C0B0F80AC0BCF1F6
:108A6000000F06D1016041604FF0010CA0F80AC070
:108A700017E003F0100CBCF1000F07D1066831605D
:108A80004FF0000CC1F800C0016004E0D0F804C051
:108A9000C1F800C04160B0F80AC00CF1010CA0F8A8
:108AA0000AC0B0F80CC0B0F80A80C44503DAB0F8C8
:108AB0000AC0A0F80CC04D600A81CF604FF0000CD6
:108AC000A4F800C000BF93E7B40A0108AC0A01088B
:108AD00038460020F8A1C16100214161F7490968C9
:108AE00011B90021816105E0F44909688161F34908
:108AF00009684861F149086070472DE9F041044672
:108B00000E4615460027EE480078002804DD42F6A0
:108B1000E1602880BDE8F0811CB945F6C35028808B
:108B2000F8E700BF00BF00BFFCF752F8074600BFE0
:108B300000BFE4480078401CE249087000BF00BF55
:108B40003846FCF749F800BF00BF00BFDE48206090
:108B500066600020206284F82500A062402084F82E
:108B6000240004F10800FEF7F2F92046FFF7B2FFF7
:108B7000D6480088401CD549088000BF00BF00BF10
:108B8000FCF726F8074600BF00BFCE480078401E1D
:108B9000CC49087000BF00BF3846FCF71DF800BF85
:108BA00000BF00BF0020288000BFB3E710B5044617
:108BB000C7482060C7A060600020206284F82500BC
:108BC000A062402084F8240004F10800FEF7BFF9F9
:108BD00010BD426981693AB9B84B196009B10023E7
:108BE0004B610023836109E019B90023936143615C
:108BF00004E091614A6100238361436170472DE97C
:108C0000FE4F05468946144600200090AC48007887
:108C1000002805DD43F2C92020800020BDE8FE8F3A
:108C200025B945F6C35020800020F7E7B9F1000FC1
:108C300003D0B9F1010F02D100E000BF04E045F616
:108C4000256020800020E9E700BF9F49286888420E
:108C500004D045F6C45020800020DFE700BF00BFED
:108C600000BFFBF7B5FF009000BF00BF954800783C
:108C7000401C9449087000BF00BF0098FBF7ACFF90
:108C800000BF00BF00BF05F1080ABAF80870B84677
:108C9000B9F1000F03D0B9F1010F6FD16FE0B8F156
:108CA000000F3AD12846FFF794FF88480088401EFD
:108CB000864908802846FFF779FF00BF00BF00BF44
:108CC000FBF786FF009000BF00BF7E480078401E83
:108CD0007C49087008460078A0B9804800880028C0
:108CE00009DD00BF00BF0098FBF776FF00BF00BFA3
:108CF000FEF71AFA0DE000BF00BF0098FBF76CFF0B
:108D000000BF06E000BF00BF0098FBF765FF00BF93
:108D100000BF00BF002020802FE000BF00BF00BFC9
:108D2000FBF756FF009000BF00BF66480078401E6A
:108D30006449087008460078A0B96848008800288F
:108D400009DD00BF00BF0098FBF746FF00BF00BF72
:108D5000FEF7EAF90DE000BF00BF0098FBF73CFF0B
:108D600000BF06E000BF00BF0098FBF735FF00BF63
:108D700000BF00BF47F25F102080E2E0B0E02E6A43
:108D8000002E61D096F8370095F8241088425BD009
:108D900096F83600082824D2DFE800F004131A1BE6
:108DA00014151C1D3046FDF70AFF95F8240086F8BF
:108DB000370096F8370000F013FC3046FEF702F853
:108DC00041E000BF00BF95F8240086F837003AE084
:108DD00000BF00BF00BF95F824103046FEF794F89E
:108DE00031E000BF00BF00BFFBF7F2FE009000BF04
:108DF00000BF34480078401E3249087008460078A9
:108E0000A0B936480088002809DD00BF00BF0098DF
:108E1000FBF7E2FE00BF00BFFEF786F90DE000BFE2
:108E200000BF0098FBF7D8FE00BF06E000BF00BF00
:108E30000098FBF7D1FE00BF00BF00BF46F62D60D3
:108E400020800020EAE600BFFBF746FD01900BE022
:108E5000DAF800B0DBF8080002902846DDE90121CD
:108E6000FEF79CF8781E87B2002FF1D12846FFF755
:108E7000B0FE16480088401E144908802846FFF7B7
:108E800095FE00BF00BF00BFFBF7A2FE009000BF31
:108E900000BF0C480078401E0A49087000BF00BFA0
:108EA0000098FBF799FE00BF00BF00BFFDF72FFC45
:108EB0000020208045E0000020000000A4020020E7
:108EC0007C020020C40200204D555458A802002006
:108ED0004E4F4E453F4D55544558000088020020E6
:108EE00000BF00BF00BFFBF773FE009000BF00BFD4
:108EF000FE480078401EFD49087008460078A0B979
:108F0000FB480088002809DD00BF00BF0098FBF780
:108F100063FE00BF00BFFEF707F90DE000BF00BF12
:108F20000098FBF759FE00BF06E000BF00BF0098A5
:108F3000FBF752FE00BF00BF00BF45F62560208052
:108F400000BF00BF404669E62DE9F04788B00546FE
:108F5000894690461C46109E4FF0000AE54800786E
:108F6000002805DD46F2AE10308008B0BDE8F0877D
:108F70001DB945F6C3503080F7E7B8F1000F03D0B4
:108F8000B8F5004F02D100E000BF03E045F62560D0
:108F90003080EAE700BFD8492868884203D045F608
:108FA000C4503080E1E70CB10020206000BF00BF5A
:108FB000FBF70EFE824600BF00BF95F82500C0B942
:108FC000CE4800682862CD48006890F8370085F8E0
:108FD0002400012085F825000CB1A86A206000BF9C
:108FE00000BF5046FBF7F8FD00BF00BF00203080F7
:108FF000BBE7C249286A0968884212D195F8250062
:10900000401C85F825000CB1A86A206000BF00BF95
:109010005046FBF7E1FD00BF00BF45F28270308093
:10902000A3E708F4004050B100BF00BF5046FBF773
:10903000D3FD00BF00BF46F2B010308095E7AB48CB
:10904000007800280ADD00BF00BF5046FBF7C4FDD2
:1090500000BF00BF46F66350308086E700BFA348DC
:109060000078401CA149087000BF00BF5046FBF7C4
:10907000B3FD00BF00BF00BF2F6A97F837009F49BC
:10908000096891F83710884260DD97F836000828A3
:109090002AD2DFE800F004151E1F171620213846DB
:1090A000FDF78DFD9548006890F8370087F8370088
:1090B00097F8370000F094FA3846FDF766FE44E072
:1090C00000BF00BF8D48006890F8370087F8370070
:1090D0003BE000BF00BF00BF8848006890F8371031
:1090E0003846FDF711FF30E000BF00BF00BFFBF7BF
:1090F0006FFD824600BF00BF7C480078401E7B4960
:10910000087008460078A0B979480088002809DD71
:1091100000BF00BF5046FBF75FFD00BF00BFFEF77A
:1091200003F80DE000BF00BF5046FBF755FD00BF40
:1091300006E000BF00BF5046FBF74EFD00BF00BF7A
:1091400000BF46F62D6030800FE700BF4B4604227B
:1091500029466846FDF77AFD00BF00BF00BFFBF758
:1091600037FD824600BF00BF60480078401E5F495F
:10917000087000BF00BF5046FBF72EFD00BF00BFC8
:1091800000BFFDF7C4FA00BF00BFFBF721FD824618
:1091900000BF00BF5948006890F8350030B1012881
:1091A0000CD002281AD0032821D110E01CB153485A
:1091B0000068006C2060002030801CE01CB14F482B
:1091C0000068006C206046F2A910308013E00CB1FA
:1091D0000020206047F2D92030800CE01CB14748C5
:1091E0000068006C206045F6C250308003E046F60F
:1091F0002E60308000BF00BF00BF00BF5046FBF7AD
:10920000EBFC00BF00BF00BFAFE62DE9F05F0546F5
:109210000E4614464FF0000A36480078002805DD57
:1092200046F2AA1020800020BDE8F09F25B945F63F
:10923000C35020800020F7E74EB1B6F5807F07D0FD
:10924000B6F5004F05D0B6F5014F04D102E000BFDE
:1092500000BF00BF04E045F6256020800020E3E762
:1092600000BF25492868884204D045F6C4502080B4
:109270000020D9E700BF00BFFBF7AAFC824600BF71
:1092800000BF05F10807388958B900BF00BF504634
:10929000FBF7A2FC00BF00BF46F2AB10208000200D
:1092A000C2E700BF11480078401C1049087000BF99
:1092B00000BF5046FBF790FC00BF00BF00BF4FF05F
:1092C0000008FBF709FB83461AE03868D0F80890DD
:1092D0005A4649462846FDF7B3FD08F101001FFA3A
:1092E00080F8B6F5807F0BD00DE00000C4020020AE
:1092F000880200207C0200204D5554581C03002099
:1093000038890028E1DC00BF00BF00BF00BFFBF7C9
:109310005FFC824600BF00BF9B480078401E9A4910
:10932000087000BF00BF5046FBF756FC00BF00BFEF
:1093300000BF06F4004008B9FDF7E9F900202080DD
:10934000404671E72DE9F84F0446884615464FF030
:10935000000A8E480078002804DD46F20E2028809E
:10936000BDE8F88F1CB945F6C3502880F8E7B8F17E
:10937000000F03D0B8F5004F02D100E000BF03E0BA
:1093800045F625602880EBE700BF814920688842C8
:1093900003D045F6C4502880E2E700BF00BFFBF7CA
:1093A00017FC824600BF00BF7A49206A09688842DC
:1093B0000AD000BF00BF5046FBF70EFC00BF00BF45
:1093C00045F281702880CBE700BF6F480078401CD1
:1093D0006D49087000BF00BF5046FBF7FDFB00BFA2
:1093E00000BF00BFFBF778FA0746A76294F8250094
:1093F000401E84F8250094F82500002830DD00BFC9
:1094000000BF00BFFBF7E4FB824600BF00BF5E4821
:109410000078401E5C49087008460078A0B95E4894
:109420000088002809DD00BF00BF5046FBF7D4FBD1
:1094300000BF00BFFDF778FE0DE000BF00BF504643
:10944000FBF7CAFB00BF06E000BF00BF5046FBF7BA
:10945000C3FB00BF00BF00BF45F2837028807FE7D9
:1094600004F10809B9F8080098BB0020206284F8CC
:10947000250000BF00BF00BFFBF7AAFB824600BF6C
:1094800000BF41480078401E3F49087008460078F8
:10949000A0B941480088002809DD00BF00BF504640
:1094A000FBF79AFB00BF00BFFDF73EFE0DE000BFDB
:1094B00000BF5046FBF790FB00BF06E000BF00BFB7
:1094C0005046FBF789FB00BF00BF00BF002028808B
:1094D00046E7FFE72F48006890F8370094F824101B
:1094E000884219D02B480068FDF769FB94F82400E6
:1094F0002849096881F837002649096891F837003A
:1095000000F06EF823480068FDF75CFC2148006815
:1095100090F8370021490870D9F800008668266263
:1095200096F8370084F82400012084F825000023F1
:109530001A46314620460097FDF796FD00BF00BF52
:1095400000BFFBF745FB824600BF00BF0E48007816
:10955000401E0D49087000BF00BF5046FBF73CFBA2
:1095600000BF00BF00BF08F4004008B9FDF7CFF806
:109570000020288000BFF3E60021094A1160094A53
:109580001180018070470000C40200207C0200208E
:109590004D5554581C03002088020020AA020020C8
:1095A000A4020020A8020020002004E000211C4AA0
:1095B00042F82010401C0228F8D3704770B50025EF
:1095C000174C03E005F12000C5B2241D20680028D7
:1095D000F8D02068FBF707FB2844C5B2284670BDC9
:1095E00030B5420900F01F030121C3F11F04A1405F
:1095F0000B4C54F822400C43094D45F8224030BD35
:1096000030B5420900F01F030121C3F11F04A1403E
:10961000034C54F822408C43014D45F8224030BDA4
:1096200054020020F8A1C16100214161F749096895
:1096300011B90021816105E0F44909688161F349AC
:1096400009684861F149086070472DE9F041044616
:109650000F4616461D464FF00008ED4800780028DA
:1096600004DD42F6E1602880BDE8F0811CB945F6D2
:10967000C3502880F8E71EB946F294502880F3E7DB
:1096800000BF00BF00BFFBF7A3FA804600BF00BFCA
:10969000E0480078401CDF49087000BF00BF40462A
:1096A000FBF79AFA00BF00BF00BFDB48206067608D
:1096B000314604F12000FFF754F904F10800FDF7EA
:1096C00046FC2046FFF7AEFFD4480088401CD34933
:1096D000088000BF00BF00BFFBF77AFA804600BFDA
:1096E00000BFCC480078401ECA49087000BF00BFC8
:1096F0004046FBF771FA00BF00BF00BF0020288082
:1097000000BFB1E710B5044604F12000FFF70AF9E5
:10971000C3482060C3A06060002104F12000FFF76F
:1097200020F904F10800FDF712FC10BD42698169BF
:109730003AB9B64B196009B100234B61002383612C
:1097400009E019B900239361436104E091614A6122
:1097500000238361436170472DE9FC5F054688461D
:10976000144600200090AA480078002805DD43F246
:10977000C92020800020BDE8FC9F25B945F6C350D4
:1097800020800020F7E7B8F1000F03D0B8F1010FF7
:1097900002D100E000BF04E045F6256020800020F3
:1097A000E9E700BF9C492868884204D045F6C450C8
:1097B00020800020DFE700BF00BFFBF709FA009020
:1097C00000BF00BF05F10809B9F808603746B8F1D5
:1097D000000F03D0B8F1010F65D120E0A7B92846EA
:1097E000FFF7A4FF8D480088401E8C49088028465A
:1097F000FFF788FF00BF00BF0098FBF7EDF900BF3F
:1098000000BF0020208009E000BF00BF0098FBF7E8
:10981000E3F900BF00BF47F25F1020804EE000BFB9
:109820007C480078401C7B49087000BF00BF00984E
:10983000FBF7D2F900BF00BF00BFFBF74DF8019066
:109840000AE0D9F800A0DAF808B059462846019A8B
:10985000FDF7A4FB701E86B2002EF2D12846FFF75A
:1098600065FF6E480088401E6C4908802846FFF757
:1098700049FF00BF00BF00BFFBF7AAF9009000BF7F
:1098800000BF64480078401E6249087000BF00BFF6
:109890000098FBF7A1F900BF00BF00BFFCF737FF3E
:1098A000002020800AE000BF00BF0098FBF794F979
:1098B00000BF00BF45F62560208000BF00BF3846CE
:1098C00059E72DE9F04105460C460026504800783E
:1098D000002805DD4FF46C5020800020BDE8F081A9
:1098E00025B945F6C35020800020F7E74A4928688B
:1098F000884204D045F6C45020800020EEE700BF27
:1099000000BF00BFFBF764F9064600BF00BF414837
:109910000078401C3F49087000BF00BF3046FBF78D
:109920005BF900BF00BF00BF05F12000FEF7FAFFA2
:10993000074600BF00BF00BFFBF74AF9064600BF5D
:1099400000BF34480078401E32490870084600784D
:10995000A0B935480088002809DD00BF00BF3046A7
:10996000FBF73AF900BF00BFFDF7DEFB0DE000BFDB
:1099700000BF3046FBF730F900BF06E000BF00BF74
:109980003046FBF729F900BF00BF00BF0020208050
:109990003846A3E72DE9F04F89B00746894690463F
:1099A0001E46DDE912544FF0000B194800780028DC
:1099B00006DD46F2AE102080002009B0BDE8F08F31
:1099C00027B945F6C35020800020F6E726B946F2B5
:1099D000D52020800020F0E7B8F1000F03D0B8F5C3
:1099E000004F02D100E000BF04E045F62560208072
:1099F0000020E2E700BF08493868884216D045F6E3
:109A0000C45020800020D8E720000000B0020020D1
:109A10007C020020C402002051554555B4020020AC
:109A20004E4F4E453F510000880200200DB10020EE
:109A3000286000BF00BFFBF7CBF8834600BF00BF24
:109A400023462A46314607F12000FEF791FF824661
:109A5000208840B900BF00BF5846FBF7BDF800BFE3
:109A600000BF5046A9E708F4004058B100BF00BF4E
:109A70005846FBF7B1F800BF00BF46F2B010208097
:109A800000209AE7F748007800280BDD00BF00BFF0
:109A90005846FBF7A1F800BF00BF46F66350208090
:109AA00000208AE700BFEF480078401CED490870AD
:109AB00000BF00BF5846FBF78FF800BF00BF00BFD4
:109AC0004B460522394601A8FDF7C0F800BF00BF8C
:109AD00000BFFBF77DF8834600BF00BFE148007878
:109AE000401EE049087000BF00BF5846FBF774F8FD
:109AF00000BF00BF00BFFCF70AFE00BF00BFFBF7BE
:109B000067F8834600BF00BFD748006890F835006B
:109B100030B1012815D002282AD0032835D11DE004
:109B2000D1480068D0F85CA0CF480068B0F8600069
:109B300030801DB1CC480068006C28600020208077
:109B40002BE04FF0000A002030801DB1C6480068AD
:109B5000006C286046F2A91020801EE04FF0000A39
:109B60000020308005B1286047F2D920208014E021
:109B70004FF0000A002030801DB1BB480068006C27
:109B8000286045F6C250208007E04FF0000A002010
:109B9000308046F62E60208000BF00BF00BF00BFAF
:109BA0005846FBF719F800BF00BF504605E72DE9FE
:109BB000F05F05460E4614464FF0000AAB480078A9
:109BC000002805DD46F2AA1020800020BDE8F09FA5
:109BD00025B945F6C35020800020F7E74EB1B6F511
:109BE000807F07D0B6F5004F05D0B6F5014F04D100
:109BF00002E000BF00BF00BF04E045F62560208002
:109C00000020E3E700BF9A492868884204D045F65F
:109C1000C45020800020D9E700BF00BFFAF7D8FF6A
:109C2000824600BF00BF05F10807388958B900BF58
:109C300000BF5046FAF7D0FF00BF00BF46F2AB109E
:109C400020800020C2E700BF86480078401C85497C
:109C5000087000BF00BF5046FAF7BEFF00BF00BF4C
:109C600000BF4FF00008FAF737FE83460FE0386870
:109C7000D0F808905A4649462846FDF7E1F808F121
:109C800001001FFA80F8B6F5807F00D002E0388925
:109C90000028ECDC00BF00BF00BF00BFFAF798FF50
:109CA000824600BF00BF6F480078401E6D490870B3
:109CB00000BF00BF5046FAF78FFF00BF00BF00BFD4
:109CC00006F4004008B9FCF722FD00202080404641
:109CD0007CE72DE9F04F85B007468A4693461C463F
:109CE0000020029000BF00BF00BFFAF771FF029092
:109CF00000BF00BF5B480078401C5A49087000BF95
:109D000000BF0298FAF768FF00BF00BF00BF07F16D
:109D100008063089002842D104F0100010B94FF035
:109D2000000801E04FF01008DDE90E0143465A46F5
:109D3000CDE90001514607F12000FEF74AFE00BFC1
:109D400000BF00BFFAF744FF029000BF00BF4548C4
:109D50000078401E4349087008460078A0B945487D
:109D60000088002809DD00BF00BF0298FAF734FF21
:109D700000BF00BFFDF7D8F90DE000BF00BF02989B
:109D8000FAF72AFF00BF06E000BF00BF0298FAF70B
:109D900023FF00BF00BF00BF05B0BDE8F08F04F493
:109DA000007008B1358900E00125D6F8009011E077
:109DB000D9F808000390D9F8040004900E985B4687
:109DC0005246009038460399FDF74EF9DDF81090A1
:109DD000681E85B2002DEBD100BF00BF00BFFAF7AF
:109DE000F7FE029000BF00BF1E480078401E1D49CC
:109DF000087000BF00BF0298FAF7EEFE00BF00BF78
:109E000000BF04F4004008B9FCF781FC00210F9862
:109E1000018000BFC0E72DE9FF470546884691460F
:109E20001F460C9C25B945F6C3502080BDE8FF872E
:109E3000B7F5004F24D009DCF7B1102F1DD0B7F5CE
:109E4000007F1BD0B7F5047F1ED118E0A7F50040B6
:109E50001038B0B1B0F5F87F14D0B0F5007F13D151
:109E600011E00000C40200201C0300207C0200203E
:109E7000515545558802002000BF00BF00BF00BFFC
:109E800000BF00BF00BF03E045F625602080CDE79E
:109E900000BF16492868884203D045F6C450208088
:109EA000C4E7FAF719FD06461148007800280BDDD3
:109EB00000204B4642462946CDE9017603940090A6
:109EC0000A48FEF7B3F9B1E73B464A464146284601
:109ED000CDE90064FFF7FDFE00BFA7E70021054ABA
:109EE0001160054A118001807047000051554555A9
:109EF0007C020020B0020020B4020020F8A1C16161
:109F000000214161F749096811B90021816105E02B
:109F1000F44909688161F34909684861F1490860B9
:109F200070472DE9F04104460E4617461D464FF096
:109F30000008ED480078002804DD42F6E160288042
:109F4000BDE8F0811CB945F6C3502880F8E700BF92
:109F500000BF00BFFAF73CFE804600BF00BFE348E9
:109F60000078401CE149087000BF00BF4046FAF786
:109F700033FE00BF00BF00BFDD4820602762002025
:109F80006062666004F10800FCF7E1FF2046FFF71D
:109F9000B5FFD8480088401CD649088000BF00BFE4
:109FA00000BFFAF715FE804600BF00BFCF4800781B
:109FB000401ECE49087000BF00BF4046FAF70CFEB5
:109FC00000BF00BF00BF0020288000BFB8E710B569
:109FD0000446C9482060002020626062C7A060601B
:109FE00004F10800FCF7B3FF10BD426981693AB97A
:109FF000BC4B196009B100234B610023836109E068
:10A0000019B900239361436104E091614A6100231F
:10A010008361436170472DE9FC5F0546884614461D
:10A0200000200090B0480078002805DD43F2C920E8
:10A0300020800020BDE8FC9F25B945F6C350208054
:10A040000020F7E7B8F1000F03D0B8F1010F02D1FB
:10A0500000E000BF04E045F6256020800020E9E72D
:10A0600000BFA3492868884204D045F6C450208028
:10A070000020DFE700BF00BFFAF7AAFD009000BF95
:10A0800000BF05F10809B9F808603746B8F1000FBC
:10A0900003D0B8F1010F65D120E0A7B92846FFF73A
:10A0A000A4FF94480088401E924908802846FFF784
:10A0B0008EFF00BF00BF0098FAF78EFD00BF00BF03
:10A0C0000020208009E000BF00BF0098FAF784FD5F
:10A0D00000BF00BF47F25F1020804EE000BF834802
:10A0E0000078401C8149087000BF00BF0098FAF753
:10A0F00073FD00BF00BF00BFFAF7EEFB01900AE05E
:10A10000D9F800A0DAF808B059462846019AFCF7B9
:10A1100045FF701E86B2002EF2D12846FFF765FF7C
:10A1200074480088401E734908802846FFF74FFF97
:10A1300000BF00BF00BFFAF74BFD009000BF00BF9B
:10A140006A480078401E6949087000BF00BF009847
:10A15000FAF742FD00BF00BF00BFFCF7D8FA0020AD
:10A1600020800AE000BF00BF0098FAF735FD00BF6D
:10A1700000BF45F62560208000BF00BF384659E784
:10A180002DE9F04788B00646894690461C46109D4A
:10A190004FF0000A54480078002806DD46F2AE1061
:10A1A0002880002008B0BDE8F08726B945F6C350E6
:10A1B00028800020F6E7B8F1000F03D0B8F5004F73
:10A1C00002D100E000BF04E045F6256028800020B1
:10A1D000E8E700BF46493068884204D045F6C450DD
:10A1E00028800020DEE70CB10020206000BF00BF07
:10A1F000FAF7EEFC824600BF00BF306A88B1306AD1
:10A20000401E30620CB1706A2060376A00BF00BF28
:10A210005046FAF7E1FC00BF00BF00202880384616
:10A22000C0E708F4004060B1376A00BF00BF504685
:10A23000FAF7D2FC00BF00BF46F2B01028803846C3
:10A24000B0E72A48007800280BDD00BF00BF504669
:10A25000FAF7C2FC00BF00BF46F66350288000201A
:10A26000A0E700BF21480078401C2049087000BFCB
:10A2700000BF5046FAF7B0FC00BF00BF00BF4B461E
:10A28000062231466846FCF7E1FC00BF00BF00BF74
:10A29000FAF79EFC824600BF00BF14480078401EBB
:10A2A0001249087000BF00BF5046FAF795FC00BF86
:10A2B00000BF00BFFCF72BFA00BF00BFFAF788FC15
:10A2C000824600BF00BF0F48006890F83500D8B143
:10A2D000012821D002282FD0032836D125E0000004
:10A2E00020000000D00200207C020020C4020020D8
:10A2F00053454D41D40200204E4F4E453F53454DEE
:10A30000000000001C0300201CB1F8480068006C2D
:10A3100020600020288024E01CB1F4480068006C14
:10A32000206046F2A91028801BE00CB100202060BC
:10A3300047F2D920288014E01CB1EC480068006C7A
:10A34000206045F6C25028800BE046F62E6028803B
:10A3500000BF00BF5046FAF73FFC00BF00BF00201F
:10A3600020E700BF376A00BF00BF5046FAF734FC51
:10A3700000BF00BF384615E72DE9F05F05460E46E1
:10A3800014464FF0000ADA480078002805DD46F24E
:10A39000AA1020800020BDE8F09F25B945F6C350E3
:10A3A00020800020F7E74EB1B6F5807F07D0B6F5E4
:10A3B000004F05D0B6F5014F04D102E000BF00BF49
:10A3C00000BF04E045F6256020800020E3E700BFE1
:10A3D000C8492868884204D045F6C450208000202F
:10A3E000D9E700BF00BFFAF7F3FB824600BF00BF0A
:10A3F00005F10807388958B900BF00BF5046FAF781
:10A40000EBFB00BF00BF46F2AB1020800020C2E78C
:10A4100000BFB9480078401CB749087000BF00BFB2
:10A420005046FAF7D9FB00BF00BF00BF4FF000084D
:10A43000FAF752FA83460FE03868D0F808905A4687
:10A4400049462846FCF7FCFC08F101001FFA80F899
:10A45000B6F5807F00D002E038890028ECDC00BF30
:10A4600000BF00BF00BFFAF7B3FB824600BF00BFCA
:10A47000A1480078401EA049087000BF00BF5046A8
:10A48000FAF7AAFB00BF00BF00BF06F4004008B9FE
:10A49000FCF73DF90020208040467CE72DE9FF5F76
:10A4A0000446884691461D460020019000BF00BF2B
:10A4B000FAF78EFB019000BF00BF04F1080738894E
:10A4C00000284FD10420012804D0022814D00428E9
:10A4D00034D123E0206AFF280DD100BF00BF0198CE
:10A4E000FAF77AFB00BF00BF46F6C550288000206F
:10A4F00004B0BDE8F09F22E04FF6FF71206A884269
:10A500000BD100BF00BF0198FAF766FB00BF00BF88
:10A5100046F6C55028800020EAE710E0206A401C7B
:10A5200058B900BF00BF0198FAF756FB00BF00BF43
:10A5300046F6C55028800020DAE700E000BF00BFE3
:10A54000206A401C2062D4F820A0C4F8249000BFE8
:10A5500000BF0198FAF740FB00BF00BF0020288031
:10A560005046C5E700BF64480078401C6249087047
:10A5700000BF00BF0198FAF72FFB00BF00BF00BF6C
:10A5800008F4007008B13E8900E00126D7F800B059
:10A5900011E0DBF808000290DBF8040003900023D0
:10A5A0001A46CDF8009020460299FCF75DFDDDF8D3
:10A5B0000CB0701E86B2002EEBD1D4F820A000BFE4
:10A5C00000BF00BFFAF704FB019000BF00BF4A487C
:10A5D0000078401E4849087000BF00BF0198FAF794
:10A5E000FBFA00BF00BF00BF08F4004008B9FCF749
:10A5F0008EF80020288050467AE72DE9FF41054675
:10A600000F46144635B945F6C3502080002004B0EB
:10A61000BDE8F0814FB1B7F5007F07D0B7F5004F27
:10A6200005D0B7F5024F04D102E000BF00BF00BF64
:10A6300004E045F6256020800020E8E700BF2D49B2
:10A640002868884204D045F6C45020800020DEE708
:10A65000FAF742F906462648007800280CDD00206B
:10A66000034602462946CDE901760394009021482D
:10A67000FDF7DCFD0020CAE723463246394628466E
:10A68000FFF70CFF80464046C1E72DE9F041044644
:10A690000E4615464FF0000815480078002804DDE6
:10A6A00046F6C6502880BDE8F0811CB945F6C35077
:10A6B0002880F8E70F492068884203D045F6C45047
:10A6C0002880F0E70020288000BF00BFFAF780FA5A
:10A6D000804600BF00BF206A08B1266211E004F185
:10A6E0000807388950B926620BE000001C030020DF
:10A6F0007C02002053454D41C402002047F25F1008
:10A70000288000BF00BF4046FAF766FA00BF00BFCE
:10A7100000BFC8E70021034A1160034A118001808D
:10A7200070470000D0020020D40200202DE9F04143
:10A7300007464FF0000800BF00BFFAF749FA80460D
:10A7400000BF00BF0020F8490860F8490880F849B8
:10A750000880F8490860F8490860F8490860F84935
:10A760000860F849088100BF00BF4046FAF734FA94
:10A7700000BF00BF00BF00BFFAF72AFA804600BF43
:10A7800000BFF148046800BF00BF4046FAF724FA52
:10A7900000BF00BF21E000BF00BFFAF719FA8046F2
:10A7A00000BF00BF00207834E06320602063A06118
:10A7B000A082E0826062A062FAF78EF82062783CA4
:10A7C00004F164060020B081D4F8BC4000BF00BF93
:10A7D0004046FAF701FA00BF00BF002CDBD100BFF2
:10A7E00000BFFAF7F5F9804600BF00BFD7480568FB
:10A7F00000BF00BF4046FAF7EFF900BF00BF12E00C
:10A8000000BF00BFFAF7E4F9804600BF00BF05F1C2
:10A8100020060020B081AD6900BF00BF4046FAF7B6
:10A82000DBF900BF00BF002DEAD102F0E0FA03F02F
:10A8300072F900203880BDE8F081F8B504460026A2
:10A840006946C34801F0E9FFBDF8000018B1BDF842
:10A8500000002080F8BD6A460021022002F0DAFAEA
:10A86000BDF8000018B1BDF800002080F2E700BF7D
:10A8700000BFFAF7ADF9064600BF00BF0020B5499A
:10A88000086000BF00BF3046FAF7A6F900BF00BF5E
:10A890000025B1480068B1490968884205D9AE4829
:10A8A0000068AE490968B0FBF1F525B9AA4800680F
:10A8B0000A21B0FBF1F56A460021284602F0AAFA07
:10A8C0006946A34801F006FABDF8000018B1BDF8CA
:10A8D00000002080BEE700BF00BFFAF779F9064606
:10A8E00000BF00BF0020934908609A4800689C4957
:10A8F000086001209B49087000BF00BF3046FAF78E
:10A900006BF900BF00BF0020208000BFA2E786B027
:10A910000020009000BF06E090490968480001AAA5
:10A92000002102F077FA8F4800780128F4D101A8BD
:10A93000FFF7FCFE002788480068884909688842BC
:10A9400005D98548006885490968B0FBF1F727B942
:10A95000814800680A21B0FBF1F793E1F9F7BCFFE9
:10A96000804600BF00BFFAF733F9009000BF00BF78
:10A97000784800687C49086000207649086000BF7C
:10A9800000BF0098FAF728F900BF00BF74480068BC
:10A9900075490968884248D97148006873498842F6
:10A9A00005D242F2107003900120029023E06C481F
:10A9B00000686F49884205D24FF47A7003900A20EC
:10A9C000029018E0664800686A49884203D2642011
:10A9D000039002900FE0624800686749884205D200
:10A9E0000A2003904FF47A70029004E00120039053
:10A9F00042F2107002905A4801680298B1FBF0FAD6
:10AA00005949039809684843B0FBFAF042F21071C3
:10AA1000081A5A490880464800880988884208DA96
:10AA2000564800884249088003E042F210705349BA
:10AA3000088003F0C3F8002500BF00BFFAF7C8F88C
:10AA4000009000BF00BF4048046800BF00BF0098EE
:10AA5000FAF7C2F800BF00BF5AE000BF00BF00BF56
:10AA6000FAF7B6F8009000BF00BF45480078401CD8
:10AA70004349087000BF00BF0098FAF7ADF800BF67
:10AA800000BF00BF54F89C0F6060002044F89C0990
:10AA900000BF00BF00BFFAF79BF8009000BF00BFE7
:10AAA00037480078401E3649087008460078A0B93B
:10AAB00034480088002809DD00BF00BF0098FAF77D
:10AAC0008BF800BF00BFFCF72FFB0DE000BF00BFFD
:10AAD0000098FAF781F800BF06E000BF00BF0098B9
:10AAE000FAF77AF800BF00BF00BFD4F8A000054411
:10AAF00000BF00BFFAF76CF8009000BF00BFD4F8A9
:10AB0000BC4000BF00BF0098FAF766F800BF00BF66
:10AB1000002CA2D1C5B31548854236D242F210703E
:10AB200005904FF0010B4CE0900200208A020020BB
:10AB3000DA020020EC020020000300200C030020B9
:10AB4000BC02002038460020F4020020B0020020A1
:10AB5000CC4A0020DC020020D40A0108BC0A01080B
:10AB6000E0020020E8020020E4020020801A060033
:10AB700000093D00005A62020084D717D802002065
:10AB8000C4020020880200201FE06148854205D2EF
:10AB90004FF47A7005904FF00A0B12E05D48854241
:10ABA00003D26420059083460BE05B48854204D2C3
:10ABB0000A2005904FF47A7B03E00120059042F2D1
:10ABC000107BB5FBFBF0049003E000200590012012
:10ABD000049000BF00BFF9F7FBFF009000BF00BF6B
:10ABE0004E48046800BF00BF0098F9F7F5FF00BFAA
:10ABF00000BF2BE0D4F8A000059948430499B0FBAE
:10AC0000F1F086B242F21070864200D90646A4F8EE
:10AC10008C60B4F88E00B04201DAA4F88E6001AB0B
:10AC200004F1AC02111D204601F0E3FC00BF00BF9F
:10AC3000F9F7CEFF009000BF00BFD4F8BC4000BFC2
:10AC400000BF0098F9F7C8FF00BF00BF002CD1D1AA
:10AC500033480078012805D100203149087001A847
:10AC6000FFF764FDF9F738FEA0EB08092D480068EE
:10AC7000484502D22B48C0F8009001AA002138466E
:10AC800002F0C8F86AE610B58AB0044600202649EA
:10AC9000086026490860264908602649087020494E
:10ACA00008702548006820B946F62B6020800AB05D
:10ACB00010BD2248006822490968884203D246F63E
:10ACC0002C602080F3E71F4800783F2803D346F626
:10ACD0002A602080EBE7032000210591CDE90704DD
:10ACE0000691084615490968174A1268124B1B68F5
:10ACF000CDE90132CDE90310124800780023AFF20C
:10AD0000F13212A10090164800F06EF900BFCEE7B4
:10AD100000093D00005A62020084D717F4020020A7
:10AD2000D6020020EC020020DC020020E402002019
:10AD3000E0020020E8020020C00A0108C80A010859
:10AD4000D00A0108B80A0108C40A010875432F4F48
:10AD5000532D4949492053746174205461736B0029
:10AD6000444900202DE9F04104460D4616464FF0B7
:10AD70000008FE480078002804DD47F249103080C2
:10AD8000BDE8F0811DB946F273203080F8E73F2D11
:10AD900003D346F273203080F2E78CB900BF00BFC6
:10ADA000F9F716FF804600BF00BFF148046800BFF6
:10ADB00000BF4046F9F710FF00BF00BF012700E0C9
:10ADC000002700BF00BF00BFF9F702FF804600BFA9
:10ADD00000BFE8480078401CE649087000BF00BF8B
:10ADE0004046F9F7F9FE00BF00BF00BF94F83600F7
:10ADF00008283AD2DFE800F004171C1D18191E1F9E
:10AE00002046FBF7DCFE84F8375094F83700FEF755
:10AE1000E7FB012F03D12046FBF7B7FF02E02046F6
:10AE2000FBF7D0FF52E000BF00BF84F837504DE081
:10AE300000BF00BF00BF94F83400082812D2DFE83A
:10AE400000F01106040A090B0C0500BF00BF84F8CE
:10AE5000375008E000BF00BF00BF29462046FCF77E
:10AE600053F800E000BF00BF30E000BF00BF00BFEC
:10AE7000F9F7AEFE804600BF00BFBE480078401E16
:10AE8000BC49087008460078A0B9BB480088002873
:10AE900009DD00BF00BF4046F9F79EFE00BF00BFBE
:10AEA000FCF742F90DE000BF00BF4046F9F794FE01
:10AEB00000BF06E000BF00BF4046F9F78DFE00BFAF
:10AEC00000BF00BF46F62D60308059E700BF00BFCD
:10AED00000BF00BFF9F77CFE804600BF00BFA54859
:10AEE0000078401EA349087000BF00BF4046F9F734
:10AEF00073FE00BF00BF00BFFBF709FC00203080DD
:10AF000000BF3DE70021C0F8B8109C49096819B995
:10AF10000021C0F8BC1007E098490968C0F8BC10CF
:10AF200096490968C1F8B80094490860704770B53F
:10AF3000044600202060A0606060E06020616061E5
:10AF4000A061E0618EA0206200206062A062E062E9
:10AF50002064E065A4F86000002104F16400FDF7BE
:10AF600000FD002044F8740F6060E060A082206162
:10AF7000743C002506E0002104F17C0040F8251017
:10AF8000681CC5B2002DF6D0002034342061206743
:10AF90006067606084F85600E067A06720814FF02A
:10AFA000004060610020A061E06120626062A4F85E
:10AFB0005800A4F85A00E0652066F9F78DFC0646B3
:10AFC00066660020A066C4F8800020706070A070E3
:10AFD0004020E0700020C4F88400C4F888006AA013
:10AFE000C4F88C00343C70BD2DE9FF4F87B0044697
:10AFF0009046DDE91BA5DDE91496179F002003901C
:10B000005A480078002805DD47F24A1028800BB026
:10B01000BDE8F08F1CB947F2AD102880F7E7B8F112
:10B02000000F03D147F24F102880F0E71EB946F613
:10B030002F602880EBE755480068874203D246F628
:10B0400030602880E3E71698B84203D346F63160B3
:10B050002880DCE7B9F1400F03D346F27320288043
:10B06000D5E7B9F1000F06D14948844203D046F232
:10B0700073202880CBE7B9F13F0F06D145488442C1
:10B0800003D046F273202880C1E72046FFF74FFF28
:10B09000002028800AF0010090B10AF0020078B187
:10B0A00005960020069008E00021059801600598AB
:10B0B000001D05900698401C06900698B842F3D3F0
:10B0C000169806EB80000490CDE9007A324640469F
:10B0D000049B0A9902F098FD0590C4F828800A980C
:10B0E000E0620898206284F8379005982060049800
:10B0F000A06019986065199818B927480068A0657C
:10B1000001E01998A0651A9860606662A763A4F8C8
:10B110003CA04FF0000B08E0002104F17C0040F857
:10B120002B100BF1010000F0FF0BBBF1000FF3D06F
:10B1300004F164001899FDF714FC204602F046FD66
:10B1400000BF00BF00BFF9F743FD039000BF00BF81
:10B1500008480078401C0749087000BF00BF0398EA
:10B16000F9F73AFD00BF00BF00BF17E07C020020E6
:10B170001C030020C402002088020020F4020020EA
:10B180003F5461736B00000020000000D00A0108EA
:10B1900074450020B0440020C802002094F8370015
:10B1A000FEF71EFA2046FBF70DFE2046FFF7AAFE2B
:10B1B000FE480088401CFD490880FD4800780128B1
:10B1C0002DD000BF00BF00BFF9F702FD039000BF04
:10B1D00000BFF8480078401EF6490870084600781D
:10B1E000A0B9F5480088002809DD00BF00BF03981A
:10B1F000F9F7F2FC00BF00BFFBF796FF0DE000BFC0
:10B2000000BF0398F9F7E8FC00BF06E000BF00BFED
:10B210000398F9F7E1FC00BF00BF00BFF7E600BFED
:10B2200000BF00BFF9F7D4FC039000BF00BFE148A6
:10B230000078401EDF49087000BF00BF0398F9F78F
:10B24000CBFC00BF00BF00BFFBF761FA00BFDEE62A
:10B25000D0F8B820D0F8BC104AB9D84B196011B159
:10B260000023C1F8B8300023C0F8BC300FE029B982
:10B270000023C2F8BC30C0F8B83008E0C2F8BC10F7
:10B28000C1F8B8200023C0F8BC30C0F8B83070470F
:10B2900070B504460D460026C9480078002803DD35
:10B2A00047F24E10288070BDC648844203D147F251
:10B2B0004C102880F7E7C448844203D147F24D1070
:10B2C0002880F0E77CB900BF00BFF9F781FC064693
:10B2D00000BF00BFBD48046800BF00BF3046F9F79B
:10B2E0007BFC00BF00BF00BF00BF00BFF9F770FCD0
:10B2F000064600BF00BFAF480078401CAD4908704B
:10B3000000BF00BF3046F9F767FC00BF00BF00BFB9
:10B3100094F8360008282DD2DFE800F004090E105A
:10B32000080A0F112046FBF74AFC54E053E000BF27
:10B33000204601F0F1FA4EE000BF00BF00BF2046FA
:10B3400001F0EAFA94F83400082810D2DFE800F09F
:10B3500004070508090A0B0600BF00BF08E000BF8C
:10B3600000BF00BF00BF2046FBF7E5FC00E000BFC8
:10B3700000BF30E000BF00BF00BFF9F729FC064660
:10B3800000BF00BF8B480078401E8A4908700846FD
:10B390000078A0B988480088002809DD00BF00BFF8
:10B3A0003046F9F719FC00BF00BFFBF7BDFE0DE00A
:10B3B00000BF00BF3046F9F70FFC00BF06E000BF3A
:10B3C00000BF3046F9F708FC00BF00BF00BF46F6DB
:10B3D0002D60288067E700BF04F16400FDF7A2FA42
:10B3E000204602F0FDFB2046FFF732FF6F48008841
:10B3F000401E6E4908802046FFF799FDFF2084F823
:10B40000360000BF00BF00BFF9F7E2FB064600BFF1
:10B4100000BF68480078401E6649087000BF00BF42
:10B420003046F9F7D9FB00BF00BF00BF00202880DD
:10B43000FBF76DF900BF36E72DE9F04104460D46F4
:10B4400000265F480078002805DD4FF46C50288006
:10B450000020BDE8F0817CB900BF00BFF9F7B8FB60
:10B46000064600BF00BF5948046800BF00BF304611
:10B47000F9F7B2FB00BF00BF00BF00BF00BFF9F784
:10B48000A7FB064600BF00BF4A480078401C494958
:10B49000087000BF00BF3046F9F79EFB00BF00BF39
:10B4A00000BF04F16400FDF73DFA074600BF00BF8E
:10B4B00000BFF9F78DFB064600BF00BF3D4800788E
:10B4C000401E3C49087008460078A0B93A480088F8
:10B4D000002809DD00BF00BF3046F9F77DFB00BF43
:10B4E00000BFFBF721FE0DE000BF00BF3046F9F7BB
:10B4F00073FB00BF06E000BF00BF3046F9F76CFBEE
:10B5000000BF00BF00BF002028803846A1E72DE91A
:10B51000F05F80460F4616461C460A9D4FF0000B12
:10B5200027480078002805DD46F2AE10288000206C
:10B53000BDE8F09F26B946F2D52028800020F7E725
:10B540001FB1B7F5004F02D100E000BF04E045F69F
:10B55000256028800020EBE700BF0CB100202060B0
:10B5600000BF00BFF9F734FB834600BF00BF174898
:10B57000006800F164092B46224631464846FDF733
:10B58000F7F98246288888BB3CB3F9F7A5F921680A
:10B59000401A0E49096848670C480068806F0B49DB
:10B5A0000968496F884218D2084811E0F802002063
:10B5B0007D020020C402002088020020F402002046
:10B5C0007C020020B0440020744500201C030020B1
:10B5D0000068406FF5490968886700BF00BF58469A
:10B5E000F9F7FAFA00BF00BF5046A1E7FFE707F4FA
:10B5F000004058B146F2B010288000BF00BF584646
:10B60000F9F7EAFA00BF00BF002091E7E8480078A8
:10B6100000280BDD00BF00BF5846F9F7DDFA00BF78
:10B6200000BF46F663502880002081E700BFE04855
:10B630000078401CDE49087000BF00BF5846F9F78B
:10B64000CBFA00BF00BF00BF4346022200210846DC
:10B65000FBF7FCFA00BF00BF00BFF9F7B9FA834659
:10B6600000BF00BFD2480078401ED149087000BF1B
:10B6700000BF5846F9F7B0FA00BF00BF00BFFBF7A4
:10B6800046F800BF00BFF9F7A3FA834600BF00BF2A
:10B69000C648006890F8350020B101282AD0032858
:10B6A00032D132E0C1480068D0F85CA0BF480068E1
:10B6B000B0F860003080D4B1BC480068006C2060F5
:10B6C000F9F70AF9B9490968096C401AB7490968D4
:10B6D0004867B6480068806FB4490968496F884276
:10B6E00005D2B2480068406FB049096888670020F9
:10B6F000288017E04FF0000A0020308004B120605D
:10B7000046F2A91028800DE000BF4FF0000A00208B
:10B7100030801CB1A5480068006C206047F2D92039
:10B72000288000BF00BF00BF00BF5846F9F754FA99
:10B7300000BF00BF5046FBE62DE9F04105460E462E
:10B74000144600279B480078002805DD46F2AA1021
:10B7500020800020BDE8F0811EB1B6F5004F02D177
:10B7600000E000BF04E045F6256020800020F1E7FE
:10B7700000BF00BF00BFF9F72BFA074600BF00BFAC
:10B780001DB18A48006885420BD100BF00BF384612
:10B79000F9F722FA00BF00BF46F2AC10208000206B
:10B7A000D8E795F8340002280BD000BF00BF384618
:10B7B000F9F712FA00BF00BF46F2AB10208000205C
:10B7C000C8E700BF7A480078401C7949087000BF7C
:10B7D00000BF3846F9F700FA00BF00BF00BFF9F715
:10B7E0007BF88046424629460020FBF729FB00BF34
:10B7F00000BF00BFF9F7ECF9074600BF00BF6C4877
:10B800000078401E6A49087000BF00BF3846F9F74B
:10B81000E3F900BF00BF00BF06F4004008B9FAF723
:10B8200076FF00202080012094E72DE9FC470446A4
:10B830000F4690469946DDE90A654FF0000A00BFC1
:10B8400000BF00BFF9F7C4F9824600BF00BF5848E7
:10B850000078401C5649087000BF00BF5046F9F7F9
:10B86000BBF900BF00BF00BF0CB9504804680020FE
:10B87000288094F8360008287ED2DFE800F004051E
:10B880003E3F0607404100BF00BF00BF4B46424657
:10B89000394604F16400CDE90065FDF79AF800BF70
:10B8A00000BF00BFF9F794F9824600BF00BF4048CF
:10B8B0000078401E3E49087008460078A0B93E480E
:10B8C0000088002809DD00BF00BF5046F9F784F961
:10B8D00000BF00BFFBF728FC0DE000BF00BF5046D3
:10B8E000F9F77AF900BF06E000BF00BF5046F9F74C
:10B8F00073F900BF00BF00BF9BE000BF00BF00BFE7
:10B9000094F83400022821D143463A4621460020CB
:10B910000096FBF7A9FB00BF00BF00BFF9F758F97D
:10B92000824600BF00BF22480078401E20490870B0
:10B9300000BF00BF5046F9F74FF900BF00BF00BF7E
:10B9400009F40040D0BBFAF7E2FE40E04B46424625
:10B95000394604F16400CDE90065FDF73AF800BF0F
:10B9600000BF00BFF9F734F9824600BF00BF10489E
:10B970000078401E0E4900E02AE008700846007872
:10B98000E8B90D480088002809DD00BF00BF504617
:10B99000F9F722F900BF00BFFBF7C6FB16E000BFB6
:10B9A00000BF5046F9F718F900BF0FE01C03002054
:10B9B000C40200207C0200208802002007E000BFB3
:10B9C00000BF5046F9F708F900BF00BF00BF30E0E4
:10B9D00000BF00BF00BFF9F7FBF8824600BF00BF01
:10B9E000FE480078401EFD49087008460078A0B95E
:10B9F000FB480088002809DD00BF00BF5046F9F76A
:10BA0000EBF800BF00BFFBF78FFB0DE000BF00BFEE
:10BA10005046F9F7E1F800BF06E000BF00BF50460E
:10BA2000F9F7DAF800BF00BF00BF46F62D602880A6
:10BA300000BF00BFBDE8FC872DE9FF4707468846E9
:10BA400091461D460C9E4DB1102D08D0B5F5004F06
:10BA500006D0A5F50040103820B902E000BF00BFB5
:10BA600000BF04E045F625603080BDE8FF8700BFD9
:10BA7000F8F732FF0446DB48007800280BDD002091
:10BA80004B4642463946CDE90246CDE90005D64847
:10BA9000FCF7CCFBE9E72B464A4641463846CDE960
:10BAA0000046FFF7C2FE00BFDFE72DE9F041044684
:10BAB0000D4616464FF000082DB146F6791030803D
:10BAC0000020BDE8F08100BF00BFF9F781F8804693
:10BAD00000BF00BF0CB9C548046804F17C0050F8F1
:10BAE000257000BF00BF4046F9F776F800BF00BFE1
:10BAF000002030803846E4E770B50446002600BFD9
:10BB000000BFF9F765F8064600BF00BFB8480078E7
:10BB100058B145F6DA10208000BF00BF3046F9F773
:10BB20005BF800BF00BF012070BDB1480578007808
:10BB3000401CAF49087000BF00BF3046F9F74CF811
:10BB400000BF00BF002020802846EDE72DE9F0412E
:10BB500004460D4617461E464FF0000825B146F62E
:10BB600079103080BDE8F08100BF00BFF9F730F8F0
:10BB7000804600BF00BF0CB99C48046804F17C00FB
:10BB800040F8257000BF00BF4046F9F725F800BF18
:10BB900000BF0020308000BFE4E770B504460D46CA
:10BBA000002600BF00BFF9F713F8064600BF00BF2C
:10BBB0000020288094F8360008287BD2DFE800F0C7
:10BBC000040506071243556700BF00BF00BF00BF52
:10BBD00000BF3046F9F700F800BF00BF47F253102E
:10BBE000288072E000BF7D480078401C7B490870C7
:10BBF00000BF00BF3046F8F7EFFF00BF00BF00BF37
:10BC000014F88A0F401E207014F88A0928B9002001
:10BC100084F836002046FBF705F900BF00BF00BFDF
:10BC2000F8F7D6FF064600BF00BF6C480078401EFC
:10BC30006A49087000BF00BF3046F8F7CDFF00BF6B
:10BC400000BF00BF41E014F88A0F401E207014F8B6
:10BC50008A0910B9012084F8360000BF00BF3046C1
:10BC6000F8F7BAFF00BF00BF2FE014F88A0F401E9C
:10BC7000207014F88A0910B9022084F8360000BF39
:10BC800000BF3046F8F7A8FF00BF00BF1DE014F862
:10BC90008A0F401E207014F88A0910B9032084F816
:10BCA000360000BF00BF3046F8F796FF00BF00BF68
:10BCB0000BE0FFE700BF00BF3046F8F78DFF00BF85
:10BCC00000BF46F62D60288070BD00BFFAF71FFD4B
:10BCD00000BFF9E77FB504460D46002600BF00BF50
:10BCE000F8F776FF064600BF00BF1CB13F4800686A
:10BCF00084420AD100BF00BF3046F8F76DFF00BF95
:10BD000000BF47F2571028807FBD00BF00BF3046FC
:10BD1000F8F762FF00BF00BF3248007800280BDD53
:10BD2000002000900190034602462146CDE902051D
:10BD30003048FCF77BFAE7E729462046FFF72DFF5E
:10BD400000BFE1E72DE9F04780460E4614461D4648
:10BD50004FF0000923480078002805DD46F2AE10B8
:10BD600028800020BDE8F0871EB1B6F5004F02D153
:10BD700000E000BF04E045F6256028800020F1E7E0
:10BD800000BF0CB10020206000BF00BFF8F720FF0B
:10BD9000814600BF00BF15480068406C60B313487F
:10BDA0000068406C401E1149096848640F480068EB
:10BDB000476C1CB10D480068006C2060F8F78CFDE2
:10BDC0000A490968096C401A08490968C1F8A400C1
:10BDD00006480068D0F8A80004490EE0C40200201C
:10BDE000880200207C020020544D53471C03002091
:10BDF000FA0200205452455317E00968D1F8A41004
:10BE0000884207D2FE480068D0F8A400FC490968BF
:10BE1000C1F8A80000BF00BF4846F8F7DDFE00BF2C
:10BE200000BF0020288038469CE706F4004058B147
:10BE300000BF00BF4846F8F7CFFE00BF00BF46F284
:10BE4000B010288000208DE7EE48007800280BDD38
:10BE500000BF00BF4846F8F7BFFE00BF00BF46F670
:10BE60006350288000207DE700BFE6480078401C32
:10BE7000E449087000BF00BF4846F8F7ADFE00BFB8
:10BE800000BF00BF4346072200210846FAF7DEFE46
:10BE900000BF00BF00BFF8F79BFE814600BF00BF98
:10BEA000D8480078401ED749087000BF00BF4846F8
:10BEB000F8F792FE00BF00BF00BFFAF728FC00BFF2
:10BEC00000BFF8F785FE814600BF00BFCC48006880
:10BED00090F8350020B1012826D0032834D12CE079
:10BEE000FCB1C7480068006C2060F8F7F5FCC44955
:10BEF0000968096C401AC2490968C1F8A400C04821
:10BF00000068D0F8A800BE490968D1F8A41088429A
:10BF100007D2BB480068D0F8A400B9490968C1F845
:10BF2000A8000020288013E01CB1B5480068006C10
:10BF3000206046F2A91028800AE00CB100202060A1
:10BF400047F2D920288003E046F62E60288000BF03
:10BF500000BFAB480068476C00BF00BF4846F8F719
:10BF60003BFE00BF00BF3846FCE62DE9F041054628
:10BF70000E4614460027A4480078002805DD46F246
:10BF8000AA1020800020BDE8F0811EB1B6F5004F58
:10BF900002D100E000BF04E045F6256020800020CB
:10BFA000F1E700BF00BF00BFF8F712FE074600BF71
:10BFB00000BF1DB19248006885420BD100BF00BF91
:10BFC0003846F8F709FE00BF00BF46F2AC102080EB
:10BFD0000020D8E795F8340007280BD000BF00BF39
:10BFE0003846F8F7F9FD00BF00BF46F2AB102080DD
:10BFF0000020C8E700BF00BF3846F8F7EDFD00BFDE
:10C0000000BF00BF00BF00BFF8F7E2FD074600BF5A
:10C0100000BF7C480078401C7A49087000BF00BF10
:10C020003846F8F7D9FD00BF00BF00BFF8F754FC51
:10C030008046424629460020FAF702FF00BF00BFB3
:10C0400000BFF8F7C5FD074600BF00BF6D48007888
:10C05000401E6C49087000BF00BF3846F8F7BCFDB1
:10C0600000BF00BF00BF06F4004008B9FAF74FFB5D
:10C0700000202080012086E72DE9F8430446884609
:10C0800017461D464FF0000900BF00BF00BFF8F77C
:10C090009FFD814600BF00BF5A480078401C5949A7
:10C0A000087000BF00BF4846F8F796FD00BF00BF0C
:10C0B00000BF0CB95248046827640020288094F817
:10C0C0003600082871D2DFE800F00405F8F9060709
:10C0D000FAFB00BF00BF00BF0420012804D00228E3
:10C0E00039D004286FD170E0606CFF2832D100BFD6
:10C0F00000BF00BFF8F76CFD814600BF00BF41489C
:10C100000078401E3F49087008460078A0B93F48B3
:10C110000088002809DD00BF00BF4846F8F75CFD35
:10C1200000BF00BFFBF700F80DE000BF00BF4846AE
:10C13000F8F752FD00BF06E000BF00BF4846F8F721
:10C140004BFD00BF00BF00BF46F6C5502880002051
:10C15000BDE8F8837AE04FF6FF71606C884233D116
:10C1600000BF00BF00BFF8F733FD814600BF00BF2E
:10C1700024480078401E2349087008460078A8B972
:10C1800022480088002809DD00BF00BF4846F8F7B4
:10C1900023FD00BF00BFFAF7C7FF0EE000BF00BFDE
:10C1A0004846F8F719FD00BF07E094E100BF00BF63
:10C1B0004846F8F711FD00BF00BF00BF46F6C55066
:10C1C00028800020C4E740E040E0606C401CD0BB09
:10C1D00000BF00BF00BFF8F7FBFC814600BF00BFF7
:10C1E00008480078401E0749087008460078E8B9FA
:10C1F00006480088002812DD00BF00BF484607E05F
:10C200001C030020C40200207C02002088020020C1
:10C21000F8F7E2FC00BF00BFFAF786FF0DE000BFB1
:10C2200000BF4846F8F7D8FC00BF06E000BF00BFDB
:10C230004846F8F7D1FC00BF00BF00BF46F6C55026
:10C240002880002084E7FFE700E000BF00BF606CAB
:10C25000401C6064666C00BF00BF00BFF8F7B8FC0C
:10C26000814600BF00BFFD480078401EFB490870B2
:10C2700008460078A0B9FA480088002809DD00BF08
:10C2800000BF4846F8F7A8FC00BF00BFFAF74CFF14
:10C290000DE000BF00BF4846F8F79EFC00BF06E077
:10C2A00000BF00BF4846F8F797FC00BF00BF00BFC3
:10C2B00043E105E003E001E0FFE700BF00BF00BF8E
:10C2C00094F83400072823D100231A462146184643
:10C2D0000097FAF7C9FE666C00BF00BF00BFF8F711
:10C2E00077FC814600BF00BFDC480078401EDB4978
:10C2F000087000BF00BF4846F8F76EFC00BF00BFE3
:10C3000000BF08F40040002801D1FAF700FAE1E08C
:10C310000420012804D0022838D004287ED16DE002
:10C32000606CFF2831D100BF00BF00BFF8F750FCA0
:10C33000814600BF00BFC9480078401EC749087049
:10C3400008460078A0B9C6480088002809DD00BF6B
:10C3500000BF4846F8F740FC00BF00BFFAF7E4FE14
:10C360000DE000BF00BF4846F8F736FC00BF06E00E
:10C3700000BF00BF4846F8F72FFC00BF00BF00BF5A
:10C3800046F6C55028800020E2E671E04FF6FF71C6
:10C39000606C884231D100BF00BF00BFF8F718FCC5
:10C3A000814600BF00BFAD480078401EAB49087011
:10C3B00008460078A0B9AA480088002809DD00BF17
:10C3C00000BF4846F8F708FC00BF00BFFAF7ACFE14
:10C3D0000DE000BF00BF4846F8F7FEFB00BF06E0D7
:10C3E00000BF00BF4846F8F7F7FB00BF00BF00BF23
:10C3F00046F6C55028800020AAE639E0606C401C53
:10C4000098BB00BF00BF00BFF8F7E2FB814600BF4A
:10C4100000BF92480078401E904900E027E0087075
:10C4200008460078A0B98E480088002809DD00BFC2
:10C4300000BF4846F8F7D0FB00BF00BFFAF774FE14
:10C440000DE000BF00BF4846F8F7C6FB00BF06E09E
:10C4500000BF00BF4846F8F7BFFB00BF00BF00BFEA
:10C4600046F6C5502880002072E6FFE700E000BFD6
:10C4700000BF606C401C6064666C00BF00BF00BF02
:10C48000F8F7A6FB814600BF00BF74480078401E45
:10C490007249087008460078A0B9714800880028E1
:10C4A00009DD00BF00BF4846F8F796FB00BF00BF9C
:10C4B000FAF73AFE0DE000BF00BF4846F8F78CFBE4
:10C4C00000BF06E000BF00BF4846F8F785FB00BF8D
:10C4D00000BF00BF31E000BF00BF00BFF8F778FB2E
:10C4E000814600BF00BF5D480078401E5B49087070
:10C4F00008460078A0B95A480088002809DD00BF26
:10C5000000BF4846F8F768FB00BF00BFFAF70CFE13
:10C510000DE000BF00BF4846F8F75EFB00BF06E035
:10C5200000BF00BF4846F8F757FB00BF00BF00BF81
:10C5300046F62D602880002600BF00BF304607E683
:10C540002DE9FF4106460F4614461FB1B7F5004FCF
:10C5500002D100E000BF06E045F625602080002003
:10C5600004B0BDE8F08100BFF8F7B6F905463D48D4
:10C57000007800280CDD002000900346024631467A
:10C58000CDE9025401903848FBF750FE0020E7E760
:10C5900023462A4639463046FFF76EFD8046404620
:10C5A000DEE72DE9F04104460F4615464FF000083E
:10C5B0002C480078002805DD46F6C650288000206B
:10C5C000BDE8F08100BF00BFF8F702FB804600BF66
:10C5D00000BF0CB925480468666C676400BF00BFE3
:10C5E0004046F8F7F9FA00BF00BF00202880304627
:10C5F000E6E72DE9F04705460E4617461C464FF084
:10C60000000A18480078002804DD47F259102080FD
:10C61000BDE8F0871EB946F2D5202080F8E71FB9A3
:10C6200046F2D5202080F3E700BF00BFF8F7D0FA2C
:10C63000824600BF00BF0DB90C4805682868B8B92C
:10C6400000BF00BF5046F8F7C7FA00BF00BF002088
:10C650003060386047F252102080D9E7C4020020D1
:10C66000880200207C020020545349471C0300200C
:10C6700095F83C0000F0010068B900BF00BF5046CB
:10C68000F8F7AAFA00BF00BF00203060386047F218
:10C6900054102080BCE700BF00BF5046F8F79CFA5A
:10C6A00000BF00BF4FF00008D5F8249003E009F167
:10C6B000040908F10108D9F800000028F7D0C6F8ED
:10C6C0000080A86BA0EB080038600020208000BF2D
:10C6D0009EE770B504460D46002600BF00BFF8F780
:10C6E00077FA064600BF00BF0CB98148046880484D
:10C6F000006884420ED17F48007800280ADD00BF20
:10C7000000BF3046F8F768FA00BF00BF46F6635036
:10C71000288070BD0020288094F8360008286CD24C
:10C72000DFE800F004313F4D5B5C5D5E00BF7148A7
:10C730000078401C6F49087000BF00BF3046F8F712
:10C740004BFA00BF00BF00BF042084F83600012070
:10C7500084F88A002046FAF732FA00BF00BF00BF13
:10C76000F8F736FA064600BF00BF62480078401E60
:10C770006049087000BF00BF3046F8F72DFA00BFCF
:10C7800000BF00BF44E0052084F83600012084F893
:10C790008A0000BF00BF3046F8F71EFA00BF00BF96
:10C7A00036E0062084F83600012084F88A0000BFB5
:10C7B00000BF3046F8F710FA00BF00BF28E007209E
:10C7C00084F83600012084F88A0000BF00BF30469C
:10C7D000F8F702FA00BF00BF1AE000BF00BF00BFB9
:10C7E00094F88A00401C84F88A0000BF00BF3046DD
:10C7F000F8F7F2F900BF00BF0AE000BF00BF304603
:10C80000F8F7EAF900BF00BF46F62D60288080E700
:10C8100000BFF9F77CFF00BF7BE77FB505460C46FC
:10C820003548854203D147F25B1020807FBD3348F5
:10C83000854203D147F25C102080F7E7304800784A
:10C8400000280BDD00200090019003460246294697
:10C85000CDE902042B48FBF7E9FCE7E7214628462F
:10C86000FFF737FF00BFE1E72DE9F04104460D4631
:10C870001646002722480078002804DD46F6C650F8
:10C880003080BDE8F08100BF00BFF8F7A1F907468E
:10C8900000BF00BF0CB9164804681DB91A480068EB
:10C8A000606500E06565D4E91501884201D9606DD5
:10C8B000A06500BF00BF3846F8F78EF900BF00BF83
:10C8C0000020308000BFDCE70021104A1160104AD0
:10C8D0001180104A11600180704708B50448006853
:10C8E00001F088F969460020FEF7D2FC08BD00007F
:10C8F0001C030020C4020020B04400207445002026
:10C900007C02002054535553C8020020F40200203A
:10C91000F8020020F002002010B5C269BAB100246C
:10C9200004651468844205D14169116039B100245D
:10C930008C6104E0816943694B6103B19961002412
:10C9400044618461C461C4649488641E948010BD91
:10C950002DE9F05F4FF0000B00BF00BF00BFF8F7FC
:10C9600037F9834600BF00BFF7480078401CF649FE
:10C97000087000BF00BF5846F8F72EF900BF00BF8F
:10C9800000BFF7F7A9FF0546F0480068401CEF49D3
:10C99000086008460068EE490988B0FBF1F201FB27
:10C9A00012001FFA80FAEB4800EBCA08D8F80040E2
:10C9B000002782E0002C7FD0D4F8149094F8360041
:10C9C000082875D2DFE800F00408051B063D075073
:10C9D00000BF00BF00BF6CE0DC49E06C0968401A92
:10C9E0002065DA49E06C0968884206D1002084F8A5
:10C9F00036002046FAF716FA00E0012759E0D3493D
:10CA0000E06C0968401A2065D049E06C09688842EA
:10CA100015D10020E065A4F86000F7F75DFF206401
:10CA20002046FAF788F92046FAF7FCF9002034345A
:10CA3000A07003206070002004F8340900E0012792
:10CA400037E0C249E06C0968401A2065BF49E06CD4
:10CA50000968884206D1042084F836002046FFF792
:10CA60005BFF00E0012724E0B849E06C0968401A48
:10CA70002065B649E06C0968884217D10020E0655E
:10CA8000A4F86000F7F728FF20642046FAF753F96E
:10CA90002046FFF741FF04203434A070032060706B
:10CAA000002004F8340902E006E001E0012700E07C
:10CAB00000BF00BF4C4600E00127002F3FF47AAFD3
:10CAC000F7F70AFF461BA4480068B04201D2A2480B
:10CAD000066000BF00BF00BFF8F77AF8834600BFCA
:10CAE00000BF99480078401E9749087008460078B2
:10CAF000A0B99A480088002809DD00BF00BF584649
:10CB0000F8F76AF800BF00BFFAF70EFB0DE000BFB0
:10CB100000BF5846F8F760F800BF06E000BF00BF4E
:10CB20005846F8F759F800BF00BF00BFBDE8F09FB6
:10CB30001CB500BF0EE001AB6A4600210846FFF7B6
:10CB400001F9BDF8040028B985480078012801D111
:10CB5000FFF7FEFEEFE7002108E07E4A02EBC1008E
:10CB6000002202608280C2804A1C91B2784A1288F8
:10CB70009142F2DB704710B58AB004460020734939
:10CB8000086075490860FFF7E6FF7648006820B93D
:10CB900047F2122020800AB010BD73480068734924
:10CBA0000968884203D247F213202080F3E77048D7
:10CBB00000783F2803D347F211202080EBE70B20B9
:10CBC000002105910A46CDE90704069166480068F0
:10CBD00068490968634B1B68CDE90131CDE903025F
:10CBE000634800780023AFF2B70263A10090674862
:10CBF000FEF7FAF900BFCEE72DE9F04F0C461646D6
:10CC00001D46042E1ED1DFF84491D9F80090A4EB04
:10CC10000909A9F1010313F5803F0DD94FF000096F
:10CC2000C0F84C90C0F85090C0F81C9047F27E2994
:10CC3000A5F80090BDE8F08FC46403F10109C0F8C5
:10CC400050903FE084B3082E25D1D0F8489009EBEE
:10CC50000407DFF8F890D9F80090A7EB0909A9F1CB
:10CC60000103A34201D2C76406E0DFF8E090D9F8DF
:10CC70000090A144C0F84C90DFF8D0A0D0F84C90C0
:10CC8000DAF800A0A9EB0A09C0F85090D0F84C904F
:10CC9000C0F8489016E0DFF8B490D9F80090A144AD
:10CCA000C0F84C9004650DE0FFE74FF00009C0F8B4
:10CCB0004C90C0F85090C0F81C9047F27E29A5F81F
:10CCC0000090B7E7DFF888A0BAF800A0D0F84C9041
:10CCD000B9FBFAFB0AFB1B991FFA89F8DFF874907D
:10CCE00009EBC802B2F80490B9F1000F0BD14FF074
:10CCF0000009C0F81490C0F8189010604FF00109B6
:10CD0000A2F8049062E0116858E0DFF840A0D1F882
:10CD10004C90DAF800A0A9EB0A09C1F85090D0F8BD
:10CD20005090D1F850A0D14532D9D1F81490B9F132
:10CD3000000F01D0496941E04FF00009C0F814909C
:10CD400081614861002139E0C4020020FC0200201A
:10CD5000EC0A0108A0410020000300208802002006
:10CD60007D020020DC0A0108E40A0108D00A01085B
:10CD7000D80A0108E00A010875432F4F532D49498D
:10CD800049205469636B205461736B00084A00208A
:10CD9000D1F81890B9F1000F07D14FF00009C0F891
:10CDA000189041618861106007E0D1F818C0C0F8A0
:10CDB00018C04161CCF81400886100210029A4D179
:10CDC000B2F8049009F10109A2F80490B2F80690B3
:10CDD000B2F804A0D14503DAB2F80490A2F80690A4
:10CDE000C2614FF00009A5F8009000BF22E70020C3
:10CDF00006E0064A02EBC0010022CA80421C90B243
:10CE0000034A12889042F4DB70470000A0410020E2
:10CE1000EC0A01082DE9F04105460E4614460027AC
:10CE2000F7480078002804DD47F275202080BDE82F
:10CE3000F081F4480078002803DD46F66350208036
:10CE4000F5E736B1022E05D0042E0AD0082E09D1FE
:10CE500001E000BF00BF1DB947F27E202080E6E759
:10CE600004E003E045F625602080E0E700BF00BF56
:10CE700000BF00BFF7F7ACFE074600BF00BFE148A8
:10CE80000078401CDF49087000BF00BF3846F7F744
:10CE9000A3FE00BF00BF00BF0120DB49096881F885
:10CEA0003600234632462946D7480068FFF7A4FEDD
:10CEB0002088A8B100BF00BF00BFF7F789FE074672
:10CEC00000BF00BFCF480078401ECE49087000BFA9
:10CED00000BF3846F7F780FE00BF00BF00BFA6E7DF
:10CEE000C9480068F9F76BFE00BF00BF00BFF7F745
:10CEF0006FFE074600BF00BFC2480078401EC14910
:10CF0000087000BF00BF3846F7F766FE00BF00BFDD
:10CF100000BFF9F7FCFB0020208000BF87E72DE968
:10CF2000FF5F05460E4617469846DDE90EA4002031
:10CF30000090B3480078002804DD47F27520208077
:10CF4000BDE8FF9FAF480078002803DD46F6635038
:10CF50002080F5E70AF00E0BBBF1000F09D0BBF102
:10CF6000020F07D0BBF1040F10D0BBF1080F0ED198
:10CF700001E000BF00BFB8F1000F06D12FB926B9FC
:10CF80001DB947F27E202080DAE704E003E045F691
:10CF900025602080D4E700BF2AF01E0008B10120E0
:10CFA00000E0002003900398012803D145F6256096
:10CFB0002080C5E7CAF3001002900298C0B9B8F506
:10CFC0007A7F03D347F27B202080B9E73B2F03DD34
:10CFD00047F27A202080B3E73B2E03DD47F2792029
:10CFE0002080ADE7632D12DD47F278202080A7E78F
:10CFF00042F20F70864203DD47F2792020809FE7DE
:10D00000B5F57A7F03DB47F27820208098E77F48E8
:10D01000D0F800904FF4FA70B0FBF9F0404400FBF8
:10D0200009F04FF47A71B0FBF1F14FF4616068439D
:10D03000C6EB061200EB8200384400FB0910019099
:10D040000198002856D000BF00BF00BFF7F7C0FD11
:10D05000009000BF00BF6B480078401C6949087011
:10D0600000BF00BF0098F7F7B7FD00BF00BF00BFCB
:10D0700001206549096881F8360023465A4662480E
:10D0800001990068FFF7B8FD2088A8B100BF00BF74
:10D0900000BFF7F79DFD009000BF00BF5948007822
:10D0A000401E5849087000BF00BF0098F7F794FD74
:10D0B00000BF00BF00BF43E753480068F9F77FFD9A
:10D0C00000BF00BF00BFF7F783FD009000BF00BFA7
:10D0D0004C480078401E4B49087000BF00BF0098C4
:10D0E000F7F77AFD00BF00BF00BFF9F710FB002083
:10D0F000208002E047F27E20208000BF20E770B54C
:10D1000005460C4600263E480078002803DD47F21D
:10D110007620208070BD1DB947F251102080F9E7BC
:10D1200000BF00BFF7F754FD064600BF00BF3648FA
:10D13000006885420AD147F25110208000BF00BF2D
:10D140003046F7F749FD00BF00BFE3E795F836002A
:10D1500008287DD2DFE800F0040F3E495C6796A105
:10D1600000BF00BF3046F7F737FD00BF00BF47F2F2
:10D1700051102080A7E000BF22480078401C2149C0
:10D18000087000BF00BF3046F7F726FD00BF00BFA4
:10D1900000BF002085F836002846FFF7BDFB284673
:10D1A000F9F72CFE00BF00BF00BFF7F711FD0646E0
:10D1B00000BF00BF13480078401E1249087000BF2E
:10D1C00000BF3046F7F708FD00BF00BF00BF0020DA
:10D1D000208078E000BF00BF3046F7F7FDFC00BFBD
:10D1E00000BF47F2511020806DE000BF00BF304605
:10D1F000F7F7F2FC00BF00BF47F25110208062E059
:10D200007C020020C40200201C030020D40A010874
:10D2100000BF00BF3046F7F7DFFC00BF00BF47F29A
:10D22000511020804FE000BF4E480078401C4D490F
:10D23000087000BF00BF3046F7F7CEFC00BF00BF4C
:10D2400000BF042085F836002846FFF765FB00E0A4
:10D250002EE000BF00BF00BFF7F7BAFC064600BFD4
:10D2600000BF40480078401E3E49087000BF00BF24
:10D270003046F7F7B1FC00BF00BF00BF47F25A10BD
:10D28000208020E000BF00BF3046F7F7A5FC00BFBC
:10D2900000BF47F25110208015E000BF00BF3046AC
:10D2A000F7F79AFC00BF00BF47F2511020800AE058
:10D2B00000BF00BF3046F7F78FFC00BF00BF46F647
:10D2C0002D60208000BF00BFF9F721FA00BF21E7E1
:10D2D00070B50446002600BF00BFF7F779FC06468C
:10D2E00000BF00BF2048056800BF00BF3046F7F709
:10D2F00073FC00BF00BF00202080284670BD70B5C1
:10D3000004460D46002600BF00BFF7F761FC064645
:10D3100000BF00BF1448046000BF00BF3046F7F7ED
:10D320005BFC00BF00BF0020288070BD10B586B038
:10D3300000F006FDF7F7D0FA044605A80021009199
:10D34000CDE9011403900948007800EB4000084A39
:10D3500002EB800100231A460648FAF767FF06B081
:10D3600010BD0000C4020020FC020020AA02002020
:10D37000444600205449434B0021C162FC490968DE
:10D3800011B90021016305E0F94909680163F84911
:10D390000968C862F649086070472DE9F84F0446ED
:10D3A000884616461F46DDE90BABDDF828900D9D3B
:10D3B00000200090EF480078002804DD47F2433059
:10D3C0002880BDE8F88F1CB945F6C3502880F8E7DF
:10D3D000B9F1010F08D0B9F1020F0BD11FB947F213
:10D3E00040302880EDE709E01EB947F23F30288041
:10D3F000E7E703E045F625602880E2E700BF00BFCD
:10D4000000BF00BFF7F7E4FB009000BF00BFDA48A1
:10D410000078401CD849087000BF00BF0098F7F79B
:10D42000DBFB00BF00BF00BF012084F82A00D34807
:10D430002060C4F8048026620020A061E061676279
:10D44000A4F82890C4F808A0C4F80CB0206160616A
:10D450002046FFF791FFCA480088401CC849088051
:10D4600000BF00BF00BFF7F7B3FB009000BF00BFD5
:10D47000C1480078401EC049087000BF00BF009836
:10D48000F7F7AAFB00BF00BF00BF0020288000BF45
:10D4900097E7002180F82A10BA490160BAA14160DB
:10D4A000002101628161C161416201858160C160C9
:10D4B000016141617047F0B5B54E36888569B5FBAD
:10D4C000F6F706FB1755ACB2B24D05EBC402156872
:10D4D000854205D10169116039B100254D6104E033
:10D4E000416903690B6103B15961012580F82A5034
:10D4F00000250561456195886D1E9580F0BDC26A65
:10D50000016B3AB99A4B196009B10023CB62002331
:10D51000036309E019B900231363C36204E01163D4
:10D52000CA6200230363C362704738B505460C46E0
:10D5300090480078002804DD47F243302080002026
:10D5400038BD25B947F2423020800020F8E78B49EA
:10D550002868884204D045F6C45020800020EFE7B8
:10D560006846F9F71FF92846FFF7C9FF8448008885
:10D57000401E8349088095F82A00F0B1012811D097
:10D58000022802D0032820D10DE02846FFF793FFA0
:10D590002846FFF77EFF6846F9F74EF90020208005
:10D5A0000120CDE700BF2846FFF773FF6846F9F773
:10D5B00043F9002020800120C2E76846F9F73CF9D2
:10D5C00047F23D3020800020BAE76846F9F734F989
:10D5D00047F2413020800020B2E7F8B504460D46FE
:10D5E00064480078002804DD47F24330288000209A
:10D5F000F8BD24B947F2423028800020F8E75F499F
:10D600002068884204D045F6C45028800020EFE707
:10D610006846F9F7C7F894F82A0050B3012810D0EB
:10D62000022802D003282CD11DE05B49A0690968BB
:10D63000461AE6616846F9F7FFF800202880304670
:10D64000D6E7208D022805D1206A08B9666A02E073
:10D65000266A00E0266AE6616846F9F7EDF80020E0
:10D6600028803046C4E76846F9F7E6F800202880AD
:10D67000BEE76846F9F7E0F847F23D302880002021
:10D68000B6E76846F9F7D8F847F24130288000201D
:10D69000AEE7F0B50C46022680F82A60012C05D1D1
:10D6A0003D4F466A3F683E4486610CE0066A2EB9EB
:10D6B000394F466A3F683E44866104E0364F066A49
:10D6C0003F683E448661324F3F888669B6FBF7FC6F
:10D6D00007FB1C66B5B22F4E06EBC502166836B9BD
:10D6E0000026066146611060012696802CE02A4FD4
:10D6F00086693F68F61BC661116820E0264F8E6977
:10D700003F68F61BCE61C669CF69BE4209D90E6972
:10D710000EB1096913E0002606614161086100212C
:10D720000DE04E692EB90026466101614861106026
:10D7300004E04B69436101611861486100210029DF
:10D74000DCD19688761C9680D6889788BE4201DA0E
:10D750009688D680F0BD38B505460C460548007859
:10D7600000281BDD47F243302080002038BD000038
:10D77000040300207C020020C4020020544D5220EB
:10D78000080300204E4F4E453F544D52000000000C
:10D790000C0B0108284400201003002025B947F293
:10D7A00042302080002038BDE2492868884204D0F9
:10D7B00045F6C45020800020F5E76846F8F7F2FFF0
:10D7C00095F82A0000B3012812D0022802D00328BD
:10D7D00022D10EE02846FFF76EFE00212846FFF713
:10D7E00058FF6846F9F728F8002020800120DAE782
:10D7F00000BF00212846FFF74CFF6846F9F71CF8E8
:10D80000002020800120CEE76846F9F715F847F29E
:10D810003D3020800020C6E76846F9F70DF847F252
:10D82000413020800020BEE72DE9F04105460C463E
:10D830000027C1480078002805DD47F243302080EA
:10D840000020BDE8F08125B947F242302080002059
:10D85000F7E7B8492868884204D045F6C4502080CC
:10D860000020EEE700BF00BFF7F7B2F9074600BFA0
:10D8700000BF95F82A6036B1012E05D0022E05D0E2
:10D88000032E06D101E000BF00BF00BF00202080B2
:10D8900003E047F24130208000BF00BF00BF00BF5F
:10D8A0003846F7F799F900BF00BF3046C9E72DE9C0
:10D8B000F84305460F4690461C469F4800780028CE
:10D8C00005DD47F2433020800020BDE8F88325B90C
:10D8D00047F2423020800020F7E7964928688842C6
:10D8E00004D045F6C45020800020EEE76846F8F7E3
:10D8F00059FF95F82A0000283DD0012833D002288E
:10D9000002D003283FD12DE02846FFF7D4FD0020A8
:10D910002080C7B1032F02D0042F15D109E0AE68D3
:10D920001EB12846E968B04702E047F24430208043
:10D9300012E0AE681EB141462846B04702E047F209
:10D940004430208008E007E06846F8F775FF45F6A8
:10D95000256020800020B8E700BF6846F8F76CFF1C
:10D960000120B2E700BF6846F8F766FF47F249308A
:10D9700020800120A9E76846F8F75EFF47F23D30B6
:10D9800020800020A1E76846F8F756FF47F24130B3
:10D990002080002099E71CB500BF53E001AB6A4628
:10D9A00000210846FEF7CEF901A8F8F7FBFEF6F7CE
:10D9B00093FF064661480068401C604908600846BD
:10D9C00000685F490988B0FBF1F201FB12001FFA01
:10D9D00080FA5C4800EBCA08D8F800404FF0000B12
:10D9E00021E0F4B1D4F810905449A0690968884244
:10D9F00014D12046FFF75FFD208D022804D10121BC
:10DA00002046FFF746FE02E0032084F82A00A568BE
:10DA100015B12046E168A8474C4604E04FF0010BE1
:10DA200001E04FF0010BBBF1000FDAD0F6F754FF25
:10DA3000871B01A8F8F700FF43480068B84201D2ED
:10DA400041480760AAE770B58AB0044600203F4904
:10DA500008603F48006840B13E4800683C4909689A
:10DA6000B0FBF1F03C49086006E03A4800680A2142
:10DA7000B0FBF1F038490860374800683749086062
:10DA800000202E49086030490860002508E02D4834
:10DA900000EBC5060020B080F0803060681C85B2C5
:10DAA000274800888542F2DB2D48006820B947F2FC
:10DAB000473020800AB070BD2A4800682A490968AA
:10DAC000884203D247F248302080F3E727480078A5
:10DAD0003F2803D347F246302080EBE70B2000219C
:10DAE0000591CDE90704069108461E490968204AB8
:10DAF00012681B4B1B68CDE90132CDE903101B48AE
:10DB000000780023AFF271121AA100901F48FDF7B0
:10DB10006BFA00BFCEE7002006E00A4A02EBC00124
:10DB20000022CA80421C90B2054A12889042F4DB5F
:10DB300070470000544D52207C020020100300204A
:10DB40000C0B0108284400200C03002004030020D3
:10DB5000F80A0108D40A0108140300201803002061
:10DB6000FC0A0108040B0108D00A0108F40A0108A4
:10DB7000000B010875432F4F532D49494920546923
:10DB80006D6572205461736B00000000CC4A002068
:10DB900010B58748006810B185480068804710BDFF
:10DBA000844800688449096800EB81008349086063
:10DBB0000846006820F007000860704710B58048EC
:10DBC000006810B17E480068804710BD10B504465B
:10DBD0007C48006818B120467A490968884710BD1A
:10DBE00010B504467848006818B12046764909689F
:10DBF000884710BD10B504467448006818B1204627
:10DC000072490968884710BDF0B50446DDE905563C
:10DC100002EB850020F007004FF0807C071F38469C
:10DC2000C7F800C0071F38463C60DFF8A4C1071FD3
:10DC30003846C7F800C04FF0123C071F3846C7F8F7
:10DC400000C04FF0033C071F3846C7F800C04FF034
:10DC5000023C071F3846C7F800C0071F38463B6024
:10DC6000071F384639604FF0113C071F3846C7F888
:10DC700000C04FF0103C071F3846C7F800C04FF0F7
:10DC8000093C071F3846C7F800C04FF0083C071F83
:10DC90003846C7F800C04FF0073C071F3846C7F8A2
:10DCA00000C04FF0063C071F3846C7F800C04FF0D1
:10DCB000053C071F3846C7F800C04FF0043C071F5B
:10DCC0003846C7F800C0F0BD10B54248006810B132
:10DCD000404800688047F6F7FFFD04463E4800686C
:10DCE0003E490968884215D03B480068D0F8980042
:10DCF000201A39490968C1F8940037480068D0F8FB
:10DD00009C0035490968D1F89410084432490968E3
:10DD1000C1F89C0031480068C0F898402E4800685F
:10DD2000D0F8B4002E490968884205D22C48006812
:10DD300029490968C1F8B40000202949086010BDCC
:10DD400010B52848006810B126480068804710BD0B
:10DD500010B5002400BF00BFF6F73AFF044600BF2D
:10DD600000BF21480078401C1F49087000BF00BF59
:10DD70002046F6F731FF00BF00BFFFF7D7FAF8F7EC
:10DD800068FC10BD01464A1E4FF0E0235A61174A55
:10DD9000106820F07F4000BF10601A46126942F000
:10DDA00005021A611A46126942F002021A617047AE
:10DDB00068020020A00A0108A40A01082403002028
:10DDC0006C0200205C02002060020020640200203F
:10DDD000DBC80008700200201C0300202003002084
:10DDE000C0020020740200207C02002020ED00E030
:10DDF0007047704770472B480068401C29490860ED
:10DE0000704770477047704710B5002400BF00BFCF
:10DE1000F6F7DEFE044600BF00BFAFF21500224950
:10DE20000860AFF21F0021490860AFF229002049C5
:10DE30000860AFF23D001F490860AFF247001E497D
:10DE40000860AFF251001D490860AFF25B001C4949
:10DE5000086000BF00BF2046F6F7BEFE00BF00BF4F
:10DE600010BD10B5002400BF00BFF6F7B1FE044698
:10DE700000BF00BF00200C4908600C4908600C4935
:10DE800008600C4908600C4908600C4908600C499E
:10DE9000086000BF00BF2046F6F79EFE00BF00BF2F
:10DEA00010BD7047280300205C02002060020020A3
:10DEB00064020020680200206C0200207002002032
:10DEC0007402002070B503460C4603E014F8015BB1
:10DED00003F8015B1500A2F10102F7D170BD30B566
:10DEE000034601E003F8011B1400A2F10102F9D17D
:10DEF00030BD00B55A494FF4A062C8680021FFF751
:10DF0000EEFF57494FF4A04288680021FFF7E7FF72
:10DF100001205349087400BD0022002106E050484A
:10DF2000C06830F8110000B1521C491CB1F5207FC7
:10DF3000F5D3642050434FF42073B0FBF3F0C0B22C
:10DF400070472DE9F04106460024A0464448007C75
:10DF500010B94349086880471EB94FF0FF30BDE84B
:10DF6000F081C6F34F1506F01F0008B1681C85B29A
:10DF700040F27F241AE03A48C06830F8140020B913
:10DF800008F101001FFA80F801E04FF00008A845F1
:10DF90000BD1002705E03248C068E11920F8115084
:10DFA0007F1CAF42F7D36001D9E7641E002CE2DA90
:10DFB0004FF0FF30D3E770B505462948007C20B903
:10DFC000274908688047012070BDB5F5A04F11D2E0
:10DFD00069092348C06830F81120002406E00020B9
:10DFE0001F4BDB680E1923F81600641C9442F6DB05
:10DFF0000020E9E70220E7E770B5044604B970BDE8
:10E0000017488068251A2846FFF7D5FF00BFF6E7B6
:10E0100070B505462846FFF794FF0446601C08B912
:10E02000002070BD0E4880682044FAE770B50646AF
:10E030000C462046FFF785FF0546681C08B90020FE
:10E0400070BD07498968481922463146FFF73AFFF3
:10E050003046FFF7D1FF024880682844F0E700000F
:10E060002C0300202DE9FF4F81B005468A469346D8
:10E07000504600F0C9FE8146584600F0C5FE0746EE
:10E08000049800F0C1FE8046002000900224002683
:10E0900009F1100038444044009010202870009886
:10E0A000687000222046641C2A5404222046641C06
:10E0B0002A544D222046641C2A5451222046641CB6
:10E0C0002A5454222046641C2A542046641C2A5494
:10E0D00004222046641C2A54C2222046641C2A546E
:10E0E00000222046641C2A543C222046641C2A54E8
:10E0F00009F47F4002122046641C2A542046641C06
:10E1000005F8009000BF04E01AF80600A119685451
:10E11000761C4E45F8DB4C44002F12DD07F47F409F
:10E1200002122046641C2A542046641C2F540026E8
:10E1300004E01BF80600A1196854761CBE42F8DB07
:10E140003C44B8F1000F13DD08F47F400212204672
:10E15000641C2A542046641C05F80080002604E054
:10E160000498805DA1196854761C4645F8DB444448
:10E17000A0B205B0BDE8F08F2DE9F05F05468946F5
:10E1800092469B46484600F03FFE0746504600F048
:10E190003BFE8046002430222046641C2A54BBF1FA
:10E1A000000F06D0381D4044C2B22046641C2A54D9
:10E1B00005E0B81C4044C2B22046641C2A5407F44F
:10E1C0007F4002122046641C2A542046641C2F54AF
:10E1D000002604E019F80600A1196854761CBE4216
:10E1E000F8DB3C44BBF1000F11D06948008800F413
:10E1F0007F4002122046641C2A546548027820465B
:10E20000641C2A5462480088401C6149088000262A
:10E2100004E01AF80600A1196854761C4645F8DB9C
:10E220004444A0B2BDE8F09F01464020087002209F
:10E2300048705848008800F47F40001288705548A4
:10E240000078C87053480088401C524A108004204F
:10E2500070472DE9F0470546884692469946404664
:10E2600000F0D2FD064600270024B9F1000F04D0CB
:10E2700082222046641C2A5403E0A2222046641C09
:10E280002A54701DC2B22046641C2A540022204623
:10E29000641C2A5401222046641C2A5406F47F4040
:10E2A00002122046641C2A542046641C2E54002767
:10E2B00004E018F80700E11968547F1CB742F8DB46
:10E2C0003444B9F1000F02D005F804A0641CA0B2D8
:10E2D000BDE8F0870146C020087000204870022089
:10E2E00070470146E0200870002048700220704707
:10E2F00070B505460C4615E02748008800F400403C
:10E3000068B12648264A127881182246284600F02D
:10E31000E5FD2348007820442149087003E00A20E5
:10E32000F4F71FF9E8E700BF204670BD30B585B0AF
:10E330000446C82529461BA000F070FB00201849A0
:10E340000870C821224800F00EFE0020E060AFF205
:10E350005F0229461E4800F006FA032811D11DA0CD
:10E3600000F05CFB1A4A04F10C00011D02AB25C34E
:10E37000019108308B1F9A1E211D0090204600F04D
:10E380003BF8002004490880E06805B030BD00007B
:10E39000420300204403002032020020C81F002056
:10E3A00040030020B6C1C8A1B7D6CEF64D51545493
:10E3B000B7FECEF1C6F7B4ABBBD8B5C4CAFDBEDD5F
:10E3C000206275666C656E3A20256420090A00009B
:10E3D00090A000204D515454446573657269616C7E
:10E3E000697A655F7075626C697368206275666CC6
:10E3F000656E20090A0000002DE9FF5F06460C4605
:10E4000017469846DDE90FABDDF838900020039001
:10E4100011980290002500200190009002A800F0C1
:10E42000F7F88DF80C000398C0F30310032800D010
:10E4300032E00398C0F3C00030700398C0F341008D
:10E440002060039800F0010038706946029800F0DF
:10E45000C7F8019002990844029000990298451863
:10E460002A4602A9484600F034F910B10298281A49
:10E4700000D511E02068002804DD02A800F0BBF8F8
:10E48000A8F800000298281ACBF800000298CAF8F1
:10E4900000000120019000BF019804B0BDE8F09F8A
:10E4A0002DE9FE4F04460D4616461F46DDF830A006
:10E4B0000020029001978046814601A800F0A8F84C
:10E4C0008DF808000298C0F3C00028700298C0F3CD
:10E4D000031020706946019800F082F88146019986
:10E4E00008440190DDE9001000EB01080198A8EB59
:10E4F0000000022800DA06E001A800F07CF8308075
:10E500004FF0010900BF4846BDE8FE8F30B5024616
:10E51000002300BF0846CD1701EB5565ED11A1EBB7
:10E52000C515ECB2CD1701EB5565E911002901DDE8
:10E5300044F0800418465B1C14540029EADC184699
:10E5400030BD2DE9F84305460C4601260027002082
:10E55000206000BF4FF0FF38781C0746042801DD1B
:10E5600000BF17E001216846A8478046B8F1010FB7
:10E5700000D00FE09DF8001001F07F01206801FB42
:10E5800006002060F6019DF8000000F080000028E1
:10E59000E0D100BF3846BDE8F883401C802801DA8E
:10E5A000401C0AE0B0F5804F01DA801C05E0D44938
:10E5B000884201DAC01C00E0001D704710B5024619
:10E5C000002309E0CF48006800781070CD4800684B
:10E5D000401CCC4C20605B1C8B42F3DB084610BD1A
:10E5E00070B504460D46C74804602946AFF23300B3
:10E5F000FFF7A7FF70BD30B501460A68537814785D
:10E600004FF4807505FB04300B689B1C0B6030BD1C
:10E6100001460A6810780A68521C0A60704702684E
:10E6200011700268521C0260704710B50A46CB1781
:10E6300001EB13631B0A046823700268521C02601A
:10E640000A46CB1701EB13631B12A1EB03230468EB
:10E6500023700268521C026010BD70B504460E465D
:10E66000304600F0D1FB054629462046FFF7DDFF86
:10E670002A463146206800F031FC2068284420609A
:10E6800070BD10B501464A780B784FF4807404FBD6
:10E69000032010BD1FB50446029800280DDD20465A
:10E6A0000299FFF7C2FFDDE90221206800F016FCA5
:10E6B00020680299084420600AE0019820B12046B1
:10E6C0000199FFF7CAFF03E000212046FFF7ADFFE5
:10E6D0001FBDF0B505460C46164600272068301AC7
:10E6E00001280FDD2046FFF786FF68602068696813
:10E6F0000844B04206D82168A960206869680844C7
:10E7000020600127002028603846F0BD37B500247E
:10E71000009820B1009800F077FB044600E0019CCF
:10E7200020463EBD2DE9F04104460E460027B8467E
:10E73000206828B12568206800F066FB074601E0E4
:10E74000A5686768304600F05FFB8046474508D102
:10E750003A463146284600F076FB10B90120BDE864
:10E76000F0810020FBE72DE9FC4104460F461546E9
:10E770004FF0FF3800200190002600900121204634
:10E78000A847012800D01EE0012669462846FFF769
:10E79000D8FE601C0099FFF7B9FE0644009830448B
:10E7A000B84200DD0FE0009830B1A0190099A847E9
:10E7B0000099884200D006E020788DF80400019886
:10E7C000C0F3031800BF4046BDE8FC81F8B504461D
:10E7D0004FF0FF36206918B90120A0600020E060EA
:10E7E00000BF2069042800DB22E001226946D4E949
:10E7F000003098470546401C00B919E00DB90026C5
:10E8000016E02069401C20619DF8001001F07F0196
:10E81000D4E9022001FB0200E060A068C001A06012
:10E820009DF8000000F080000028DAD1266900BFC2
:10E830003046F8BD2DE9F84306460F4614464FF022
:10E84000FF3800200090207D30B1012817D0022829
:10E850002FD00020207500BF01223146D4E90030BE
:10E8600098470546401C00B946E015B90020BDE8B0
:10E87000F88300202061207D401C207500BF2046C9
:10E88000FFF7A4FF0546401C00B935E00DB9002094
:10E89000EDE7701CE168FFF739FE401C2061D4E908
:10E8A00003010844B84200DD26E0207D401C2075AD
:10E8B00000BFE068B8B1D4E9032C0CEB0601D4E941
:10E8C000003098470546401C00B915E00DB90020FE
:10E8D000CDE7E068401BE060206928442061E068E3
:10E8E00008B10020C3E730788DF800000098C0F32D
:10E8F000031800BF00BF00BF002020754046B6E7E8
:10E90000FFFF1F0048030020704753EA020C00F08D
:10E9100069802DE9F04B4FF00006002B1FBFB3FAC2
:10E9200083F503FA05F424FA05F65E4012BF164398
:10E93000B2FA82F502FA05F4C5F120051EBF22FAEB
:10E9400005FC44EA0C04203556EA044C4FEA144412
:10E9500018BF641C4FF000084FF00009904271EBA3
:10E96000030C39D3002919BFB1FA81F701FA07F670
:10E97000B0FA80F700FA07F6C7F120071EBF20FAA9
:10E9800007FC46EA0C062037B6FBF4FCA7EB0507AC
:10E99000103F07F01F0BCBF120060CFA0BFB2CFAF3
:10E9A00006F644BFB3460026202FA4BF5E464FF0B4
:10E9B000000B5BEA060C08BF4FF0010B19EB0B09CB
:10E9C000ABFB027C48EB0608C01B06FB02CC0BFB32
:10E9D00003CC71EB0C01C1E70B46024641464846A9
:10E9E000BDE8F08B13B54FF000004FF00001AFF31E
:10E9F0000080BDE81C4070471CB50C46064B7B44AC
:10EA000069460090204600F070FB044600206946ED
:10EA100000F07EFB20461CBD0F0700000FB4044928
:10EA200010B503AA029800F08FFB10BC5DF814FB30
:10EA30002C0200200FB41CB5084B06AA7B44694683
:10EA40000090059800F051FB04460020694600F054
:10EA50005FFB20461CBC5DF814FB0000D1060000E3
:10EA600070B5044685690068C10601D5302600E00E
:10EA70002026C00707D070BDD4E901213046904759
:10EA8000206A401C20626D1EF6D570BD70B504462C
:10EA900085690078C00707D170BDD4E90121202025
:10EAA0009047206A401C20626D1EF6D570BD70B57F
:10EAB0000C460546012A05D02878800600D5EA696B
:10EAC000002302E0012305E05B1C934202D2E05CDC
:10EAD0000028F9D1A869E618C01AA861286A184464
:10EAE00028622846FFF7BCFF04E0D5E9012114F8AD
:10EAF000010B9047B442F8D32846FFF7C7FF70BD1B
:10EB00002DE9F0410646002410687529314616A506
:10EB100010D000F079FA002802DA404213A507E08D
:10EB200031688A0701D512A502E0490704D511A56D
:10EB3000012401E000F071FA00210A2206F1240705
:10EB400009E0B0FBF2FCB0FBF2F302FB1C0030303A
:10EB500078541846491C0028F3D123462A463046EB
:10EB6000BDE8F04100F062BA000000002D00000096
:10EB70002B0000002000000011680268006A5305A5
:10EB800001D508700AE0D30501D5088006E0130618
:10EB900003D5C217C1E9000200E0086001207047F8
:10EBA000F0B40D460188090502D5214C7C4402E0F1
:10EBB0001F4C7C440E34002100F1240608E002F0D2
:10EBC0000F071209E75D42EA03721B097754491CDB
:10EBD00052EA0307F3D102780023120704D5702DFF
:10EBE00006D009B1022311342246F0BC00F01EBA4F
:10EBF00001231034F8E770B504460D46214610682D
:10EC000000F00BFA024629462046BDE8704000237A
:10EC1000C6E7D21D22F00703D3E90023C0E703684B
:10EC2000126843F0200303600823C3610023B7E7A1
:10EC3000D42000002DE9F05F894604464FF0000A19
:10EC4000DFF874B1FB44C0F820A02046E168884793
:10EC5000002874D0252806D0D4E901219047206AE5
:10EC6000401C2062F1E700265F462046E1688847A5
:10EC70002028054607DB312D05D2781910F8200C25
:10EC800008B10643F1E7B00701D526F00406C4F841
:10EC90001CA00027C4F818A02A2D09D0284601F08E
:10ECA00011FC38B304EB8708303DC8F8185019E060
:10ECB00059F8041B204604EB87029161E1688847FC
:10ECC000012F054618D1E069002820DA26F0200639
:10ECD0001DE0D8F8180000EB800005EB400030384C
:10ECE000C8F818002046E1688847054601F0EAFBAD
:10ECF0000028EED1012F0AD02E2D08D12046E16840
:10ED000088477F1C0546022F46F02006C4DBA06919
:10ED1000002803DA404246F00106A061F00701D066
:10ED200026F010066C2D0BD0682D09D04C2D39D053
:10ED30006A2D35D0742D35D07A2D33D016E038E0D9
:10ED4000E1682F4620468847B842054609D16C2F16
:10ED500026D04FF48060E168064320468847054688
:10ED600004E06C2F1AD04FF4807006430DB3A5F168
:10ED70004100192802D8203546F400664A46294643
:10ED8000204626604E46F1F72DFA80B101280BD0BF
:10ED9000F61D26F0070000F1080956E74020E4E7D9
:10EDA0008020D8E70020D6E706F104094DE7284681
:10EDB00052E7206ABDE8F09F6420000070B5064667
:10EDC00000F01EF90468054630460A22002100F0D2
:10EDD000A1FA2C6070BD0000014A00F0D3BA000017
:10EDE0004C03002030B505460B462A4613F8014B6C
:10EDF00012F8010B08B1A042F8D01CB1002802D0D3
:10EE00006D1CF1E7284630BD10B5431C02E010F838
:10EE1000011B71B18107FAD14FF0013202C88C1A7F
:10EE20008C4314EAC211F9D0C01A0A0603D0C01EDE
:10EE300010BDC01A10BD0A0401D0801E10BD090209
:10EE4000FCD0401E10BD40EA010370B59B072ED1D7
:10EE50004FF00136042A2AD308C810C99D1B9D43D0
:10EE6000121F15EAC61517D0D8B2E1B2401A50EAFF
:10EE7000056110D198B2A1B2401A50EA05410AD1F9
:10EE800023F07F4024F07F41401A50EA052102D14F
:10EE9000180EA0EB146070BDA342DBD018BA21BAE3
:10EEA000884201D9012070BD4FF0FF3070BD0AB912
:10EEB000002070BD10F8013B11F8014B63B1A34273
:10EEC0000AD1521E08D010F8013B11F8014B1BB1BA
:10EED000A34201D1521EEDD1181B70BD032A40F28E
:10EEE000308010F0030C00F0158011F8013BBCF1EC
:10EEF000020F624498BF11F801CB00F8013B38BF04
:10EF000011F8013BA2F1040298BF00F801CB38BF11
:10EF100000F8013B11F0030300F05682083AC0F0FC
:10EF2000088051F8043B083A51F804CBA0E80810D7
:10EF3000F5E7121D5CBF51F8043B40F8043BAFF30A
:10EF40000080D20724BF11F8013B11F801CB48BF64
:10EF500011F8012B24BF00F8013B00F801CB48BF9A
:10EF600000F8012B70474FF000020429C0F0128016
:10EF700010F0030C00F01B80CCF1040CBCF1020F6C
:10EF800018BF00F8012BA8BF20F8022BA1EB0C0141
:10EF900000F00DB85FEAC17C24BF00F8012B00F837
:10EFA000012B48BF00F8012B70474FF0000200B55D
:10EFB000134694469646203922BFA0E80C50A0E89C
:10EFC0000C50B1F12001BFF4F7AF090728BFA0E84A
:10EFD0000C5048BF0CC05DF804EB890028BF40F816
:10EFE000042B08BF704748BF20F8022B11F0804F58
:10EFF00018BF00F8012B7047704770477047704783
:10F000000048704758A1002009684A0501D540B260
:10F010007047C905FCD500B2704709684A0501D59B
:10F02000C0B27047C905FCD580B270472DE9F047E2
:10F030000D4699469246044600F124080168880668
:10F0400004D5E06921F01001216000E00120A84210
:10F0500001DD471B00E00027A1697A1902EB0900D6
:10F06000081AA0612078C00602D42046FFF7F8FCF9
:10F07000002608E0D4E901211AF806009047206A2A
:10F08000401C761C20624E45F4DB2078C0060AD571
:10F090002046FFF7E5FC06E0D4E901213020904747
:10F0A000206A401C2062381EA7F10107F4DC07E04B
:10F0B000D4E9012118F805009047206A401C20621D
:10F0C000281EA5F10105F3DC2046FFF7DFFC2078C0
:10F0D000000602D50220BDE8F0870120FBE7000012
:10F0E00001694A1C02610878704700B58FB0CDE90C
:10F0F00001310021059105497944CDE903101146FC
:10F100006846FFF797FD0FB000BD0000E5FFFFFF69
:10F110000A6802F8010B0A60704710B5436913B121
:10F12000AFF3008001E0FFF7C2FC012010BD1278B0
:10F1300000F124010A7000224A700122EDE71168F3
:10F140004FF0FF32E9E70000074B70B50D467B44F6
:10F15000FFF7CBFF0446284600F02BFC10B14FF020
:10F16000FF3070BD204670BD7534FFFF2DE9FF5F95
:10F1700015468A460446DFF8AC80F8440027D8E9F3
:10F1800000103E46CDE9001010E03AF816106A462D
:10F1900002A800F012FC411C07D02178890603D593
:10F1A000E269391891420DD80744761C2078800610
:10F1B00002D5E069B84205DDAE42E6DB3AF816005A
:10F1C0000028E2D1A069C01BA0612046FFF748FCDF
:10F1D000D8E90010CDE90010002017E03AF8181027
:10F1E0006A4602A800F0E9FBB0F1FF3F81460BD070
:10F1F00000250DF1080B05E0D4E901211BF80500FD
:10F2000090476D1C4D45F7D308F10100B042804690
:10F21000E4DB206A384420622046FFF737FCBDE873
:10F22000FF9F0000421B00002DE9F0418046D21DE7
:10F2300022F007020025D2E90002F52915A614D014
:10F24000011E72F1000106DA0023D0EB030063EB2C
:10F25000020211A608E0D8F800108B0701D50FA60E
:10F2600002E0490701D50EA601251146002408F148
:10F27000240704E000F0E6F830323A55641C50EA06
:10F280000102F7D12B46324621464046BDE8F04107
:10F29000FFF7CCBE000000002D0000002B00000096
:10F2A0002000000030B4002100F1240408E002F046
:10F2B0000705D208303542EA4372DB086554491C21
:10F2C00052EA0305F3D10468002310A2250708D5EC
:10F2D00004F020040C4304D0C46901230CA2641E72
:10F2E000C46130BCFFF7A2BE10B5044621461068C9
:10F2F000FFF793FE02462046BDE810400023D1E709
:10F30000D21D22F00701D1E90023CBE70000000065
:10F31000300000002DE9F04791460F468046044634
:10F32000002614F8015B2DB100F084F80068405D00
:10F33000C007F6D12B2D02D02D2D18D0641E4A46C1
:10F340003946204600F0E6FA27B13968A14201D1DA
:10F35000C7F800804FF0020471050BD54042002829
:10F3600003DDFFF74DFE0460A007BDE8F08746F41B
:10F370008066E4E70028F8DAFFF742FE04606FF0E9
:10F380000040F2E72DE9F04115460E46040002D197
:10F390002C6804B90BA4204600F03FFB04442078FD
:10F3A00070B127463146384600F027FB04442078E8
:10F3B00010B1002004F8010B38462C60BDE8F08144
:10F3C0000027F9E70000000010B5203AC0F00B80DC
:10F3D000B1E81850203AA0E81850B1E81850A0E859
:10F3E0001850BFF4F5AF5FEA027C24BFB1E81850B3
:10F3F000A0E8185044BF18C918C0BDE810405FEA23
:10F40000827C24BF51F8043B40F8043B08BF70479E
:10F41000D20728BF31F8023B48BF11F8012B28BFA3
:10F4200020F8023B48BF00F8012B704700487047A6
:10F4300058A1002010B500F023FB001D10BD00BF37
:10F440009510000030B5B0F10A024FEA900E71F14C
:10F4500000034EEA817EB0EB0E0061EB91014FEAB2
:10F46000101E4EEA017E10EB0E0041EB11114FEA27
:10F47000102E4EEA016E10EB0E0041EB11214FEA07
:10F48000104E4EEA014E10EB0E0041EB11414018B8
:10F4900041F100014FEAD00040EA41704FEAD1014A
:10F4A00010EB80054FEA810444EA907444EB0104B8
:10F4B0006D1944EB0404521BA3414FF0000348BFF5
:10F4C0000A3200D530BD401C41F1000130BD70470B
:10F4D0002DE9FF4F0C461E464FF0FF378BB0D2E9A7
:10F4E0000001DDF860800A908A46C1F30A5505B92B
:10F4F0003D46002108464FF00000BAF1000F00F42D
:10F50000400005DA00EB80004FF4400101EA5000B2
:10F510004FEA9059B9F1010F00DDB9460A9850EA57
:10F520004A000ED044F61050A5F2FF3545432F1483
:10F53000B8F1000F1ED07542291E1EDDC9F1000270
:10F540001CE0B8F1010F4FF0000001D0302103E0C2
:10F55000F24305E02154401CB042FBDB3046002260
:10F56000002121540B99C1F80880C1E900200FB097
:10F57000BDE8F08FBD1B6D1CDEE74A4600DA69422C
:10F5800006A800F0CFFA06AB93E8070003AB83E8C8
:10F59000070050460A9900F079FB8DE80700A0F5B6
:10F5A00000501F3800900398002D09DD42F21F0122
:10F5B0004A46084403A90390684600F0D8FD08E0D5
:10F5C000A0F500504A461F3803A90390684600F092
:10F5D000E2FD8DE807000004000C03D04FF0FF307F
:10F5E000410800E01046B8F1000F03D0002200925D
:10F5F00015461EE0751E05D4FFF724FF3032625514
:10F600006D1EF9D5B3460122084302D000227F1CAB
:10F6100004E02078302801D100227F1E002A0997BB
:10F6200086D01DE0112D07DAFFF70CFF303262554E
:10F630006D1C50EA0102F5D1084302D00098C8B110
:10F640000EE00021681E05E0235C625C63542254D6
:10F65000401E491C8142F7DBAB46A81B401E0990A7
:10F66000002004F80B000B98099AC0F80880C0E944
:10F67000002B7CE711264FF0000859E72DE9F04FE9
:10F6800088460446D21D22F0070191B0D1E900015D
:10F69000CDE90A0100F002FF02460B98C00F01D02D
:10F6A0002D2007E02068810701D52B2002E02021D2
:10F6B00001EAC000032A099001D0072A05DB0346AE
:10F6C0004146204600F0E0F90BE12078800601D5A4
:10F6D000E06900E00620B8F1650F814606D0B8F178
:10F6E000660F18D0B8F1670F70D131E00020B9F182
:10F6F000110F009001DB112301E009F101030AAAB7
:10F7000001A90CA8FFF7E4FEDDE90C70002609F161
:10F710000105834647E001204B4600904FF000472B
:10F720000AAA01A90CA8FFF7D3FEDDE90DB00C99D8
:10F730005D46002610B909F101000D18B9EB05006E
:10F7400003D4C0F1FF3609F10105A5EB09002BE058
:10F75000B9F1010F01DA4FF001090020B9F1110FE1
:10F760000090484601DD112300E003460AAA01A9E2
:10F770000CA8FFF7ADFEDDE90C704D460026834670
:10F78000207800070AD4AB4500DA5D4601A8012DB8
:10F7900004DD411911F8011C302907D04F4502DA68
:10F7A00017F1040F04DA012082460FE06D1EEEE728
:10F7B000002F02DCED1B3E4403E0781CA84200DD74
:10F7C0007D1CB81B00F1010A4FF0004720780007AC
:10F7D00003D4AA4501DB4FF0FF3A0021B7F1004FF7
:10F7E0000DF143088DF8431024D002202B23002F65
:10F7F00001DA7F422D230A21021EA0F1010000DC64
:10F800005FB197FBF1FC97FBF1F201FB1C7C174603
:10F810000CF1300C08F801CDEEE7A8F101000370FF
:10F820002188090501D5452100E06521A0F10108E5
:10F8300000F8011C09980FA9A1EB0807FF1D00B1F2
:10F840000120411901EBEA70A1693844081A401EF1
:10F85000A0612078C00602D42046FFF701F909987C
:10F8600028B1D4E901219047206A401C2062207809
:10F87000C00622D52046FFF7F3F81EE0002E04DB79
:10F88000B34502DD01A8805D00E03020D4E901210C
:10F890009047206A401C2062761CAAF101005FEAB2
:10F8A000000A0AD100F0ECF8C0680168405CD4E9B5
:10F8B00001219047206A401C2062281EA5F1010505
:10F8C000DCDC07E0D4E9012118F8010B9047206A3D
:10F8D000401C2062381EA7F10107F3DC2046FFF729
:10F8E000D5F8032011B043E610B5436913B1AFF367
:10F8F000008001E0FFF73AFC012010BD128800F102
:10F90000240182840022C2840122EDE711684FF0B5
:10F91000FF32E9E72DE9F05F824615468B46002766
:10F920000AF10104B9460078302801D09DB113E0F6
:10F9300014F8010B0127782803D0582801D045B1CD
:10F940000AE00DB1102D07D1002714F8010B102586
:10F9500002E0082500E00A250026B0460EE005FB7F
:10F96000080005FB06F101271FFA80F801EB10469D
:10F97000B6F5803F00D3B94614F8010B294600F0D4
:10F98000C3F80028EBDABBF1000F05D00FB1641EFD
:10F9900000E05446CBF80040B9F1000F06D0FFF765
:10F9A0002FFB02210160C81EBDE8F09F48EA064017
:10F9B000FAE7007B00F08000704770B516460C46F1
:10F9C0000546FFF737FD036893F80101012806D0CB
:10F9D000FF2C0FD8185D68B101202C7070BDD3F8D2
:10F9E00007013246214603F2071303442846BDE8C7
:10F9F000704018474FF0FF3070BD30B503461D789A
:10FA00001DB10A4603E0AC4201D1181A30BD12F80C
:10FA1000014B002CF7D15B1CF1E730B503461D7894
:10FA20003DB10A4612F8014B1CB1AC42FAD15B1C45
:10FA3000F5E7181A30BD7546FFF7F8FCAE4605002D
:10FA40006946534620F00700854618B020B5F3F705
:10FA5000E9F8BDE820404FF000064FF000074FF0F6
:10FA600000084FF0000B21F00701AC46ACE8C009DC
:10FA7000ACE8C009ACE8C009ACE8C0098D467047E5
:10FA80000048704778A100202DE9F0411F46044648
:10FA900003260168072A01F4006004DB08B116A5FB
:10FAA00005E016A503E008B115A500E015A521F0B5
:10FAB00010002060A069C01EA0610FB1401EA061AF
:10FAC0002046FEF7CDFF4FB1D4E9012138469047DB
:10FAD000206A401C2062C01C206206E0206AFAE70F
:10FAE000D4E9012115F8010B9047761EF8D2204683
:10FAF000FEF7CCFFBDE8F0814E414E006E616E0016
:10FB0000494E4600696E66003A2800D2303820F02F
:10FB10002002412A01D3A2F13700884201D34FF0DD
:10FB2000FF3070472DE9F047814616468AB03348CA
:10FB300078440DC88DE80D0030487844801C03AC33
:10FB40000DC884E80D0041F69B300844372190FB36
:10FB5000F1F290FBF1F5A5F1800501FB12041B3CCD
:10FB600002D56442012000E00020DFF890A080462A
:10FB70000027FA44AAF1BE0A0DE0E00709D0324698
:10FB8000684607EB47010AEB810100F004FB8DE8B2
:10FB9000070064107F1C002CEFD1184F7F44AC3F4E
:10FBA00018E0E80714D007EB04100DF1180A90E8EC
:10FBB0000E008AE80E00C068F04201D19819089042
:10FBC000324606A903A800F0E6FA03AB83E8070073
:10FBD0006D10641C002DE4D132466946B8F1000F67
:10FBE00003A802D000F0C3FA01E000F0D4FAC9E99A
:10FBF0000001C9F808200AB0BDE8F0871012000023
:10FC00000446AFF300802046F0F74FFB4FF0013C75
:10FC100050F8042B51F8043B9A4221D1A2EB0C037B
:10FC2000934313EACC1317D150F8042B51F8043B3B
:10FC30009A4215D1A2EB0C03934313EACC130BD1D8
:10FC400050F8042B51F8043B9A4209D1A2EB0C0363
:10FC5000934313EACC13DBD04FF00000704700BF92
:10FC6000D01A01BAB1FA81F101F0180122FA01F0BB
:10FC7000CB40C1F12001DBB2C0B2C01A2CFA01F3B3
:10FC8000D11A914311EAC311E6D170475FEA400CE3
:10FC900008BF91F0000F4FEA8C234FEAC12243EADC
:10FCA00051514FEA1C5018BF00F5F0404FEA3000A8
:10FCB00018BF41F000415FEA6C5C00F02980BCF1A4
:10FCC000FF3F08BF40F080407047130C06BF12048E
:10FCD0004FF0100C4FF0000C130E04BF12020CF189
:10FCE000080C130F04BF12010CF1040C930F04BF96
:10FCF00092000CF1020CD30F04BF52000CF1010C66
:10FD000011464FF00002A0F11F00A0EB0C0070475D
:10FD100011F0004F08BF704731F000413FF4D5AFFC
:10FD20000B0C06BF09044FF0100C4FF0000C0B0E2B
:10FD300004BF09020CF1080C0B0F04BF09010CF100
:10FD4000040C8B0F04BF89000CF1020CCB0F04BF15
:10FD500049000CF1010CCCF12003A0EB0C0022FABD
:10FD600003F302FA0CF241EA030100F101007047CB
:10FD700020F07F4C80EA030023F07F47ACEB0703C1
:10FD800003F57C5300F0004003F1FF032DE98049A7
:10FD90004FEA154B09B44FEA144325EA0B4E24EA07
:10FDA00003480FF2042606EB132749083E785FEA62
:10FDB000320203FB0667C7F5000707FB06F64FEAAA
:10FDC00054374FEAD64606F1020607FB066CCCF123
:10FDD000005C4FEA1C472CEA074C07FB06F40CFBBF
:10FDE00006F504EB15464FEA961634BF00204FF097
:10FDF00000404FEAD13706FB07FC4FEA1C4C0CFBD6
:10FE00000BF7D21B03FB0CF761EB07010CFB0EF7A2
:10FE1000B0EB074072EB17420CFB08F734BFA2EBC4
:10FE20000742B2EB074261EB17414FEA0C444FEA3D
:10FE3000910706FB07FC4FEA1C4C0CFB0BF7B0EBE1
:10FE4000C74072EB573203FB0CF734BFA2EBC7423B
:10FE5000B2EBC74261EB57310CFB0EF7B0EBC700BA
:10FE600072EB57720CFB08F734BFA2EBC702B2EB80
:10FE7000C70261EB5771039F4FEA816141EA92111A
:10FE800004EBCC044FEAD1374FEA826206FB07FC51
:10FE900042EA90124FEA80604FEA1C4C0CFB0BF7D1
:10FEA000D21B03FB0CF761EB07010CFB0EF7B0EB69
:10FEB000074072EB17420CFB08F734BFA2EB074276
:10FEC000B2EB074261EB17414FEA8C554FEA9107BD
:10FED00004EB9C2406FB07FC4FEA1C4C0CFB0BF7C5
:10FEE000B0EBC74072EB573203FB0CF734BFA2EB09
:10FEF000C742B2EBC74261EB57310CFB0EF7B0EBD8
:10FF0000C70072EB57720CFB08F734BFA2EBC702B5
:10FF1000B2EBC70261EB577115EB4C254FEA8161DB
:10FF200041EA92114FEA82624FEAD13742EA9012D7
:10FF300006FB07FC44F100044FEA80604FEA1C4CCA
:10FF40000CFB0BF7D21B03FB0CF761EB07010CFB5F
:10FF50000EF7B0EB074072EB17420CFB08F734BF0B
:10FF6000A2EB0742B2EB074261EB174115EB1C1500
:10FF70004FEA813141EA92414FEA823242EA9042AD
:10FF80004FEA80304FEA0C7644F1000448EA03431C
:10FF90004EEA0B484FF0000EB2EB080C71EB030772
:10FFA00024BF624639464EEB0E0E4FF0000B001890
:10FFB000524149414BEB0B0BB2EB080C71EB0307C1
:10FFC0007BF1000B24BF624639464EEB0E0E4FF01C
:10FFD000000B0018524149414BEB0B0BB2EB080CE4
:10FFE00071EB03077BF1000B24BF624639464EEBF1
:10FFF0000E0E51EA020718BF46F0010616EB0E7608
:020000040801F1
:1000000055F1000254F1000103D5BDE88901BDE8B6
:100010000088BDE88901BDE80048B619524141EBAE
:100020000101A3F10103704780807F7E7D7C7B7A94
:100030007978777676757473727171706F6E6E6D94
:100040006C6C6B6A6A69686867666665646463633A
:1000500062616160605F5F5E5E5D5D5C5C5B5B5AC0
:100060005A5959585857575656555555545453532D
:1000700052525251515050504F4F4F4E4E4D4D4D88
:100080004C4C4C4B4B4B4A4A4A49494948484847D3
:100090004747474646464545454444444443434311
:1000A0004342424242414141002B26D4770021D0B5
:1000B0001CB54FEA370703B44FF010004FF01001A2
:1000C0004FF000000FBCBDE810400BF1010BBBF17D
:1000D000010F08BF5FEA170722BF12F1010211F1F9
:1000E00001014FF0004143F1000300F0004043EAFA
:1000F00000007047F9D35708DAE746EA064613F1DD
:10010000400F4FEA16461FDD13F1200FDFBF1643E5
:100110000A46002120335B42C8D0C3F1200746EADB
:10012000064602FA07F74FEA164646EA0706C3F103
:10013000200722FA03F201FA07F721FA03F14FF040
:10014000000342EA0702B1E746EA020646EA06462B
:100150004FEA164646EA0106BCBF46EA0646360C9A
:100160004FF000034FF000024FF000019EE72DE931
:10017000C048934630B491E8380007C831EA400CD3
:1001800048BF34EA430C03D5FFF7F2FDFFF78CFFBD
:10019000F0BCBDE800882DE9C048934630B491E832
:1001A000380007C810F0804F08BF13F0804F03D10C
:1001B00000F005F8FFF778FFF0BCBDE8008820F0FC
:1001C0007F4780EA030023F07F4C07EB0C03A3F585
:1001D0007C5300F00040A3F1FE0392F0000F00F00A
:1001E000B38095F0000F00F077802DE901494FEAC8
:1001F00011404FEA144621EA004800FB06FC24EABD
:10020000064708FB06F607FB08F800FB07F718EBA4
:1002100006484CEB164C4FEA124B18EB07484FEAD6
:1002200015464CEB174022EA0B4E0BFB06FC25EA69
:1002300006470EFB06F607FB0EFE0BFB07F71EEB51
:10024000064E4CEB164C4FF000061EEB074E4CEBE7
:10025000174B18EB0B0840F1000018EB0E0B58EB96
:10026000000840F100008F1A4FF000013CBFC94365
:10027000661B14BFB5EB040C00213CBFC943F61B41
:100280004FEA17444EEA8E0E27EA04454FEA1C4710
:1002900004FB07622CEA074C05FB07F70CFB05F68D
:1002A00004FB0CFC16EB074642EB174216EB0C4620
:1002B00042EB1C421BEB060658EB0202414146EAA8
:1002C0009E0601D5BDE80189B619524141EB0101F5
:1002D000A3F10103BDE801894FEA14454FEA114734
:1002E00024EA054621EA074C05FB07F406FB07F75D
:1002F0000CFB06F105FB0CFC11EB074144EB17442A
:100300004FEA124711EB0C4144EB1C4422EA074C24
:1003100005FB07F206FB07F70CFB06F605FB0CFCDA
:1003200016EB074642EB174216EB0C4642EB1C4518
:100330006A1854F1000148BF7047B619524141EBA9
:100340000101A3F10103704795F0000F37D04FEA88
:1003500011424FEA144721EA024624EA074C02FB05
:1003600007F106FB07F70CFB06F402FB0CFC14EB91
:10037000074441EB17414FEA154714EB0C4441EB9E
:100380001C4125EA074C02FB07F506FB07F70CFBAF
:1003900006F602FB0CFC16EB074645EB174516EB81
:1003A0000C4645EB1C42121951F1000148BF704741
:1003B000B619524141EB0101A3F1010370474FEA25
:1003C00014454FEA114724EA054621EA074C05FB8C
:1003D00007F106FB07F70CFB06F24FF0000605FBE2
:1003E0000CFC12EB074241EB174112EB0C4251EBB4
:1003F0001C4148BF7047921841EB0101A3F1010372
:10040000704700001D484FF6FF710170002080F317
:1004100009881B48016881F308881A484FF0805109
:10042000016062B6FEE717484FF0805101607047E7
:1004300014484FF080510160704772B6EFF30980A5
:1004400028B1203880E8F00F0F490968086000B52E
:100450000E4880475DF804EB0D480E490A7802709B
:1004600009480D490A680260106890E8F00F2030D2
:1004700080F309884EF0040E62B6704722ED00E06A
:100480002403002004ED00E01C030020C9DC000868
:10049000AA020020AB02002020030020490050EAFD
:1004A000C12018BF04204A0D18BF40F0010040F2DF
:1004B000FF72B2EB515F08BF40F00200012808BF95
:1004C0000520704730380A2801D2012070470020EB
:1004D0007047000010B500290AD00878002807D01E
:1004E00005487844FFF792FB002801D0002010BD9A
:1004F0000248784410BD0000BE080000B6080000A5
:1005000010B500290AD00878002807D0054878449B
:10051000FFF77CFB002801D0002010BD0248784482
:1005200010BD0000A20900009A0900004FEA410333
:100530004FEA5353A3F58063D3F11E03C8BFD3F131
:10054000210C0CDD4FF0004242EAC12242EA505237
:1005500032FA03FC8CEAE17CACEBE1707047102BC3
:10056000C4BF0020704703F5787CBCF1FF3F04D086
:100570006FF0004282EA2100704770B500F0B0F8D9
:100580004992248000207047F2E70000DFF848C15C
:1005900070B51CEA111E1EBF1CEA13159EEA0C0F53
:1005A00095EA0C0F00F06F8081EA030423EA4C13F4
:1005B0004EEAD47E21EA4C1141F4801143F48013B9
:1005C000AE44A1FB024CA0FB0365AEF17F7E361961
:1005D00055EB0C05A1FB034C4CF10003A0FB021CE6
:1005E00016EB0C06654153F10003094218BF46F0B3
:1005F000010613F4007F0BD14FEA03314FEA0530B7
:10060000340341EA155140EA16506FF003020AE044
:100610004FEAC3214FEAC520F40241EA555140EAAE
:1006200056506FF0020202EB2E4201EB025585EAB2
:10063000CE710AD05FEA440C18BF24F0004450F198
:10064000000041F1000120EAD47040F2FE7C6245D6
:1006500000D270BDA84214BF4FF080444FF0404418
:10066000002E08BF0024BEF1806FA8BFA1F1C041D9
:10067000BDE8704080F282804FF0000001F1C0417F
:1006800001F0004170479EEA0C0F0CEA131518BFE9
:1006900095EA0C0F06D04FF0000081EA030E0EF031
:1006A000004170BD00F01CF88900013E00F007B861
:1006B00000F009B84FEA430C5FEA5C5C08D081EABD
:1006C000030100F05BB84FEA410C5FEA5C5CF6D1D5
:1006D0004FF00000014970470000FF070000F87F5D
:1006E0000EF1020E2EF0030E5EF8046B364205D4B6
:1006F000012A43EB030515F5001F12D8012841EB31
:10070000010C1CF5001F0CD80ED14FEAD17C15F559
:10071000001F0CEB4C0C0CF1020C08BF4CEBD37C13
:1007200004E04FF0080C01E04FEAD37C0CEB4C05E1
:1007300026FA05F606F00706B6F1040C06D20EEB13
:10074000860CBDE870404CF0010C6047DFE80CF00F
:10075000090B02024FF000414FF00000A1F500210B
:1007600070BD19461046012851EB010418BFD4F59D
:10077000001484BF002001F0004170BD0808A0F5FE
:1007800000114FEA3101704743004FEAD30C4FEAA2
:100790003C0C43401FBF40070CF1605113F0FE4F6B
:1007A00070471CF0006F03D100200CF0004170472F
:1007B0000CF0004343EA507010B540EACC0000F062
:1007C00027F800BF000000924FEA0001FFF7D6BFF4
:1007D0004FF000414FF00000A1F5002170470000EC
:1007E00010F0004148BF4042B0FA80F310FA03F223
:1007F000C3F19D030BD051EAC35101EB1220530604
:1008000038BF704700F1010008BF20F001007047B9
:100810000EF1020E2EF0030E5EF8044B244204D4B7
:100820004FEA4102B2F17F4F11D84FEA4003B3F1D2
:100830007F4F0CD80ED14FEAD07CB2F17F4F0CEB3A
:100840004C0C0CF1020C08BF4CEBD17C04E04FF0D7
:10085000080C01E04FEAD17C0CEB4C0324FA03F4C2
:1008600004F00704B4F1040C06D20EEB840CBDE8CE
:1008700010404CF0010C6047DFE80CF00708020262
:100880004FF00040A0F5800010BD0846420018BFA0
:10089000D2F1807288BF00F0004010BDFEF7EEBEBE
:1008A0003A202E232D303132333435363738394122
:1008B00042434445464748494A4B4C4F5051525396
:1008C000545658595F4E555A4D577E214024256045
:1008D0001F1C1F1E1F1E1F1F1E1F1E1F0807060690
:1008E00005050505040404040404040403030303C8
:1008F00003030303030303030303030302020202CC
:1009000002020202020202020202020202020202C7
:1009100002020202020202020202020201010101BB
:1009200001010101010101010101010101010101B7
:1009300001010101010101010101010101010101A7
:100940000101010101010101010101010101010197
:10095000010101010101010101010101000000008B
:100960000000000000000000000000000000000087
:100970000000000000000000000000000000000077
:100980000000000000000000000000000000000067
:100990000000000000000000000000000000000057
:1009A0000000000000000000000000000000000047
:1009B0000000000000000000000000000000000037
:1009C0000000000000000000000000000000000027
:1009D0000000000000000000000000007856341203
:1009E000FFFFFFFFFFFFFFFFFFFFFF7F555555553F
:1009F000FFFFFF3F33333333AAAAAA2A24499224A4
:100A0000FFFFFF1F1CC7711C9999991974D14517D5
:100A100055555515133BB11392244912111111115B
:100A2000FFFFFF0F0F0F0F0F8EE3380E5E43790DA0
:100A3000CCCCCC0C0CC3300CBAE8A20B2C64210B30
:100A4000AAAAAA0AA3703D0A899DD8095E427B0919
:100A500049922409B0DCD3088888880884104208A9
:100A6000FFFFFF077CF0C1078787870707755007DF
:100A7000C7711C07203000200C000000800000001F
:100A800000020000203200200A00000040010000A7
:100A9000603300200C000000800000000002000015
:100AA00060350020800000000002000064000000AB
:100AB00040060000603700203E0000000A000000F1
:100AC000A03D00200C00000080000000000200009B
:100AD00040000000C800000001000000A03F00200E
:100AE0000C00000080000000000200001100000067
:100AF000880000000200000064000000284200207E
:100B00000C00000080000000000200001100000046
:100B10008800000090140000010001017856341292
:100B200001010000000000000000000000000000C3
:100B300000000000000000000000000000000000B5
:100B400000000000000000000000000001010100A2
:100B50002800040020000100000000000000000048
:100B60000000000000000000000000000000000085
:100B70000000000000000000010020000100100043
:100B80000C00100000000000000000000000000049
:100B90000000000000000000000000000000000055
:100BA0000000000000000000000000000000000045
:100BB000010101002C00010020000C002000400079
:100BC0000800040000000000000000000000000019
:100BD0000000000000000000000000000000000015
:100BE0000000000000000000000000000000000005
:100BF00000000000010101013000010000000000C0
:100C000000000000000000000000000000000000E4
:100C100000000000000000000000000000000000D4
:100C2000000000000101010128000C000003000089
:100C3000040101010101010101000101C4000800DA
:100C400001010000000000000000000000000000A2
:100C50000000000000000000000000000000000094
:100C60000000000000000000000000000000000084
:100C700000000000000000000101340008005C7664
:100C80009607000030313233343536373839414237
:100C900043444546403058003031323334353637DE
:100CA000383961626364656640307800040000088A
:100CB0000000000000000002000100001000000021
:100CC000000000000000000002400000000000A042
:100CD0000000000005400000000000C80000000007
:100CE0000C4000000000409C000000001940000083
:100CF0000020BCBE0000000034400000BFC91B8EB5
:100D000000000004B5400000504BCFD06607E2CF92
:100D1000010000006C4100003E8251AADFEEA734C2
:100D200001000000D9420000DCB5A0E23A301F9774
:100D3000FFFFFFFFB4450000FD25A0C8E9A3C14F98
:100D4000FFFFFFFFFF3F00000000008000000000E9
:100D5000FF3F000000000080000000005869616F44
:100D60006D695F5A3100000031313131313131313B
:100D70003132000062626262626262006165730029
:100D8000CC0E010800000020500300006C01000898
:100D9000FC0F01085003002068B20000C8010008E1
:100DA0001001000043000000F8FFFFFF004040403A
:100DB000404040404040414141414140404040402E
:100DC00040404040404040404040404040050202DA
:100DD0000202020202020202020202020220202099
:100DE00020202020202020020202020202029090F5
:100DF00090909090101010101010101010101010F3
:100E00001010101010101010020202020202888846
:100E10008888888808080808080808080808080852
:100E2000080808080808080802020202400000003A
:100E300000000000000000000000000000000000B2
:100E400000000000000000000000000000000000A2
:100E50000000000000000000000000000000000092
:100E60000000000000000000000000000000000082
:100E70000000000000000000000000000000000072
:100E80000000000000000000000000000000000062
:100E90000000000000000000000000000000000052
:100EA0000000000000000000000000000000000042
:100EB0001C00000043000000F8FFFFFF0C000000D2
:100EC0000E0000000F0000002E00000032011E5C2A
:100ED0000D01087C041A6804415A740841D54D88F4
:100EE000495A84A24A04F00A0102030406070809C9
:100EF0000A7210630C0C5A0432541F111F4B121F3C
:100F000022541D15174B1515184B0704084C1715BF
:100F10001D3059084B0101185A1F285A17085C1F29
:100F2000051E1849824B0E11085C1F110E185A1528
:100F3000285A0518595859681159075C08100F1894
:100F40004A1B084A10A06A0E485305036B03057834
:100F5000492869A854011F015A0F485A1B484B17CA
:100F60001410814B1F02794B0F10295D19151311B5
:100F7000182A021969104B0303CB122415BD3C3CFF
:100F8000BD1009243E49416F49493E101004061323
:100F9000DBDB130604607F050505657F68094223D6
:100FA00099EDED8B0382CB323B325A327832973255
:100FB000B532D432F31A11A31A30044A4EAB393089
:100FC000323C325B3279329832B632D532F41A1270
:100FD000281A31045A4F3001122D01020304040073
:100FE00009E2060708090204060813F3DE140819CB
:0C0FF000DF1408904B1420909B0214208A
:0400000508000131BD
:00000001FF
