Component: ARM Compiler 5.05 update 1 (build 106) Tool: armlink [4d0efa]

==============================================================================

Section Cross References

    main.o(.text) refers to _printf_percent.o(.ARM.Collect$$_printf_percent$$00000000) for _printf_percent
    main.o(.text) refers to _printf_d.o(.ARM.Collect$$_printf_percent$$00000009) for _printf_d
    main.o(.text) refers to _printf_dec.o(.text) for _printf_int_dec
    main.o(.text) refers to _printf_pad.o(.text) for _printf_pre_padding
    main.o(.text) refers to _printf_s.o(.ARM.Collect$$_printf_percent$$00000014) for _printf_s
    main.o(.text) refers to _printf_str.o(.text) for _printf_str
    main.o(.text) refers to _printf_x.o(.ARM.Collect$$_printf_percent$$0000000C) for _printf_x
    main.o(.text) refers to _printf_hex_int_ll_ptr.o(.text) for _printf_longlong_hex
    main.o(.text) refers to ble_app.o(.text) for Ble_Process
    main.o(.text) refers to os_core.o(.text) for OSSchedLock
    main.o(.text) refers to delay.o(.text) for delay_ms
    main.o(.text) refers to __2printf.o(.text) for __2printf
    main.o(.text) refers to ds18b20.o(.text) for DS18B20_Init
    main.o(.text) refers to os_time.o(.text) for OSTimeDlyHMSM
    main.o(.text) refers to max7219.o(.text) for Write_Max7219_Time
    main.o(.text) refers to __2sprintf.o(.text) for __2sprintf
    main.o(.text) refers to timestamp.o(.text) for localtime
    main.o(.text) refers to mqtt.o(.text) for mqtt_ping_message
==============================================================================

Removing Unused input sections from the image.

    Removing sys.o(.emb_text), (6 bytes).
    Removing sys.o(.text), (12 bytes).
    Removing core_cm3.o(.emb_text), (32 bytes).
    Removing stm32f10x_spi.o(.text), (780 bytes).
    Removing cpu_c.o(.text), (1916 bytes).
    Removing lib_math.o(.text), (128 bytes).
    Removing lib_math.o(.data), (4 bytes).
    Removing malloc.o(.constdata), (12 bytes).
    Removing mqttconnectclient.o(.text), (708 bytes).
    Removing mqttconnectserver.o(.text), (508 bytes).
    Removing mqttformat.o(.text), (760 bytes).
    Removing mqttformat.o(.conststring), (383 bytes).
    Removing mqttformat.o(.data), (60 bytes).
    Removing mqttserializepublish.o(.text), (398 bytes).
    Removing mqttsubscribeclient.o(.text), (368 bytes).
    Removing mqttsubscribeserver.o(.text), (286 bytes).
    Removing mqttunsubscribeclient.o(.text), (258 bytes).
    Removing mqttunsubscribeserver.o(.text), (230 bytes).
==============================================================================

Image Symbol Table

    Local Symbols

    Symbol Name                              Value     Ov Type        Size  Object(Section)

    ../clib/angel/boardlib.s                 0x00000000   Number         0  boardinit1.o ABSOLUTE
    ../clib/angel/boardlib.s                 0x00000000   Number         0  boardinit2.o ABSOLUTE
    ../clib/angel/boardlib.s                 0x00000000   Number         0  boardinit3.o ABSOLUTE
    ../clib/angel/boardlib.s                 0x00000000   Number         0  boardshut.o ABSOLUTE
    ../clib/angel/dczerorl2.s                0x00000000   Number         0  __dczerorl2.o ABSOLUTE
    ../clib/angel/handlers.s                 0x00000000   Number         0  __scatter_zi.o ABSOLUTE
    ../clib/angel/kernel.s                   0x00000000   Number         0  __rtentry.o ABSOLUTE
    ../clib/angel/kernel.s                   0x00000000   Number         0  __rtentry2.o ABSOLUTE
    ../clib/angel/kernel.s                   0x00000000   Number         0  __rtentry4.o ABSOLUTE
    ../clib/angel/kernel.s                   0x00000000   Number         0  rtexit.o ABSOLUTE
    ../clib/angel/kernel.s                   0x00000000   Number         0  rtexit2.o ABSOLUTE
    ../clib/angel/rt.s                       0x00000000   Number         0  aeabi_ldiv0.o ABSOLUTE
    ../clib/angel/rt.s                       0x00000000   Number         0  rt_errno_addr_intlibspace.o ABSOLUTE
    ../clib/angel/rt.s                       0x00000000   Number         0  rt_locale_intlibspace.o ABSOLUTE
    ../clib/angel/rt.s                       0x00000000   Number         0  rt_raise.o ABSOLUTE
    ../clib/angel/rt.s                       0x00000000   Number         0  rt_errno_addr.o ABSOLUTE
    ../clib/angel/rt.s                       0x00000000   Number         0  rt_locale.o ABSOLUTE
    ../clib/angel/rt.s                       0x00000000   Number         0  rt_ctype_table.o ABSOLUTE
    ../clib/angel/rt.s                       0x00000000   Number         0  rt_div0.o ABSOLUTE
    ../clib/angel/rt.s                       0x00000000   Number         0  aeabi_ldiv0_sigfpe.o ABSOLUTE
    ../clib/angel/scatter.s                  0x00000000   Number         0  __scatter.o ABSOLUTE
    ../clib/angel/startup.s                  0x00000000   Number         0  __main.o ABSOLUTE
    ../clib/angel/sys.s                      0x00000000   Number         0  sys_stackheap_outer.o ABSOLUTE
    ../clib/angel/sys.s                      0x00000000   Number         0  use_no_semi.o ABSOLUTE
    ../clib/angel/sys.s                      0x00000000   Number         0  use_no_semi_2.o ABSOLUTE
    ../clib/angel/sys.s                      0x00000000   Number         0  libspace.o ABSOLUTE
    ../clib/angel/sys.s                      0x00000000   Number         0  indicate_semi.o ABSOLUTE
    ../clib/angel/sysapp.c                   0x00000000   Number         0  sys_wrch.o ABSOLUTE
    ../clib/angel/sysapp.c                   0x00000000   Number         0  sys_command.o ABSOLUTE
    ../clib/armsys.c                         0x00000000   Number         0  argv_veneer.o ABSOLUTE
    ../clib/armsys.c                         0x00000000   Number         0  argv_veneer.o ABSOLUTE
    ../clib/armsys.c                         0x00000000   Number         0  no_argv.o ABSOLUTE
    ../clib/armsys.c                         0x00000000   Number         0  _get_argv_nomalloc.o ABSOLUTE
    ../clib/bigflt.c                         0x00000000   Number         0  bigflt0.o ABSOLUTE
    ../clib/btod.s                           0x00000000   Number         0  btod.o ABSOLUTE
    ../clib/heapalloc.c                      0x00000000   Number         0  hrguard.o ABSOLUTE
    ../clib/heapaux.c                        0x00000000   Number         0  heapauxi.o ABSOLUTE
    ../clib/libinit.s                        0x00000000   Number         0  libshutdown2.o ABSOLUTE
    ../clib/libinit.s                        0x00000000   Number         0  libinit.o ABSOLUTE
    ../clib/libinit.s                        0x00000000   Number         0  libinit2.o ABSOLUTE
    ../clib/libinit.s                        0x00000000   Number         0  libshutdown.o ABSOLUTE
    ../clib/locale.c                         0x00000000   Number         0  _wcrtomb.o ABSOLUTE
    ../clib/locale.s                         0x00000000   Number         0  lc_numeric_c.o ABSOLUTE
    ../clib/locale.s                         0x00000000   Number         0  lc_ctype_c.o ABSOLUTE
    ../clib/longlong.s                       0x00000000   Number         0  lludiv10.o ABSOLUTE
    ../clib/longlong.s                       0x00000000   Number         0  lludivv7m.o ABSOLUTE
    ../clib/memcpset.s                       0x00000000   Number         0  strcmpv7m.o ABSOLUTE
    ../clib/memcpset.s                       0x00000000   Number         0  rt_memclr_w.o ABSOLUTE
    ../clib/memcpset.s                       0x00000000   Number         0  rt_memclr.o ABSOLUTE
    ../clib/memcpset.s                       0x00000000   Number         0  rt_memcpy_v6.o ABSOLUTE
    ../clib/memcpset.s                       0x00000000   Number         0  rt_memcpy_w.o ABSOLUTE
    ../clib/misc.s                           0x00000000   Number         0  printf_stubs.o ABSOLUTE
    ../clib/printf.c                         0x00000000   Number         0  __printf_flags.o ABSOLUTE
    ../clib/printf.c                         0x00000000   Number         0  __printf_ss.o ABSOLUTE
    ../clib/printf.c                         0x00000000   Number         0  __printf_flags_ss.o ABSOLUTE
    ../clib/printf.c                         0x00000000   Number         0  __printf_wp.o ABSOLUTE
    ../clib/printf.c                         0x00000000   Number         0  __printf_flags_wp.o ABSOLUTE
    ../clib/printf.c                         0x00000000   Number         0  __printf_ss_wp.o ABSOLUTE
    ../clib/printf.c                         0x00000000   Number         0  __printf_flags_ss_wp.o ABSOLUTE
    ../clib/printf.c                         0x00000000   Number         0  noretval__2sprintf.o ABSOLUTE
    ../clib/printf.c                         0x00000000   Number         0  _printf_hex_ptr.o ABSOLUTE
    ../clib/printf.c                         0x00000000   Number         0  noretval__2printf.o ABSOLUTE
    ../clib/printf.c                         0x00000000   Number         0  __printf_nopercent.o ABSOLUTE
    ../clib/printf.c                         0x00000000   Number         0  __2printf.o ABSOLUTE
    ../clib/printf.c                         0x00000000   Number         0  _printf_oct_int_ll.o ABSOLUTE
    ../clib/printf.c                         0x00000000   Number         0  c89vsprintf.o ABSOLUTE
    ../clib/printf.c                         0x00000000   Number         0  _printf_longlong_dec.o ABSOLUTE
    ../clib/printf.c                         0x00000000   Number         0  _printf_fp_infnan.o ABSOLUTE
    ../clib/printf.c                         0x00000000   Number         0  _printf_fp_dec.o ABSOLUTE
    ../clib/printf.c                         0x00000000   Number         0  _printf_oct_int.o ABSOLUTE
    ../clib/printf.c                         0x00000000   Number         0  _printf_oct_ll.o ABSOLUTE
    ../clib/printf.c                         0x00000000   Number         0  __2sprintf.o ABSOLUTE
    ../clib/printf.c                         0x00000000   Number         0  _printf_wchar.o ABSOLUTE
    ../clib/printf.c                         0x00000000   Number         0  __2snprintf.o ABSOLUTE
    ../clib/printf.c                         0x00000000   Number         0  noretval__2snprintf.o ABSOLUTE
    ../clib/printf.c                         0x00000000   Number         0  __printf.o ABSOLUTE
    ../clib/printf.c                         0x00000000   Number         0  _printf_pad.o ABSOLUTE
    ../clib/printf.c                         0x00000000   Number         0  _printf_wctomb.o ABSOLUTE
    ../clib/printf.c                         0x00000000   Number         0  _printf_str.o ABSOLUTE
    ../clib/printf.c                         0x00000000   Number         0  _printf_char_file.o ABSOLUTE
    ../clib/printf.c                         0x00000000   Number         0  _printf_dec.o ABSOLUTE
    ../clib/printf.c                         0x00000000   Number         0  _printf_char.o ABSOLUTE
    ../clib/printf.c                         0x00000000   Number         0  _printf_charcount.o ABSOLUTE
    ../clib/printf.c                         0x00000000   Number         0  _snputc.o ABSOLUTE
    ../clib/printf.c                         0x00000000   Number         0  _printf_hex_ll.o ABSOLUTE
    ../clib/printf.c                         0x00000000   Number         0  _printf_hex_int.o ABSOLUTE
    ../clib/printf.c                         0x00000000   Number         0  _printf_hex_int_ll.o ABSOLUTE
    ../clib/printf.c                         0x00000000   Number         0  _printf_hex_int_ptr.o ABSOLUTE
    ../clib/printf.c                         0x00000000   Number         0  _printf_hex_ll_ptr.o ABSOLUTE
    ../clib/printf.c                         0x00000000   Number         0  _printf_hex_int_ll_ptr.o ABSOLUTE
    ../clib/printf.c                         0x00000000   Number         0  _sputc.o ABSOLUTE
    ../clib/printf.c                         0x00000000   Number         0  _printf_char_common.o ABSOLUTE
    ../clib/printf.c                         0x00000000   Number         0  _printf_intcommon.o ABSOLUTE
    ../clib/printf.c                         0x00000000   Number         0  _printf_truncate.o ABSOLUTE
    ../clib/printf_percent.s                 0x00000000   Number         0  _printf_s.o ABSOLUTE
    ../clib/printf_percent.s                 0x00000000   Number         0  _printf_llo.o ABSOLUTE
    ../clib/printf_percent.s                 0x00000000   Number         0  _printf_llx.o ABSOLUTE
    ../clib/printf_percent.s                 0x00000000   Number         0  _printf_llu.o ABSOLUTE
    ../clib/printf_percent.s                 0x00000000   Number         0  _printf_percent_end.o ABSOLUTE
    ../clib/printf_percent.s                 0x00000000   Number         0  _printf_a.o ABSOLUTE
    ../clib/printf_percent.s                 0x00000000   Number         0  _printf_g.o ABSOLUTE
    ../clib/printf_percent.s                 0x00000000   Number         0  _printf_e.o ABSOLUTE
    ../clib/printf_percent.s                 0x00000000   Number         0  _printf_f.o ABSOLUTE
    ../clib/printf_percent.s                 0x00000000   Number         0  _printf_u.o ABSOLUTE
    ../clib/printf_percent.s                 0x00000000   Number         0  _printf_lli.o ABSOLUTE
    ../clib/printf_percent.s                 0x00000000   Number         0  _printf_i.o ABSOLUTE
    ../clib/printf_percent.s                 0x00000000   Number         0  _printf_o.o ABSOLUTE
    ../clib/printf_percent.s                 0x00000000   Number         0  _printf_percent.o ABSOLUTE
    ../clib/printf_percent.s                 0x00000000   Number         0  _printf_d.o ABSOLUTE
    ../clib/printf_percent.s                 0x00000000   Number         0  _printf_p.o ABSOLUTE
    ../clib/printf_percent.s                 0x00000000   Number         0  _printf_c.o ABSOLUTE
    ../clib/printf_percent.s                 0x00000000   Number         0  _printf_ls.o ABSOLUTE
    ../clib/printf_percent.s                 0x00000000   Number         0  _printf_x.o ABSOLUTE
    ../clib/printf_percent.s                 0x00000000   Number         0  _printf_lc.o ABSOLUTE
    ../clib/printf_percent.s                 0x00000000   Number         0  _printf_l.o ABSOLUTE
    ../clib/printf_percent.s                 0x00000000   Number         0  _printf_n.o ABSOLUTE
    ../clib/printf_percent.s                 0x00000000   Number         0  _printf_ll.o ABSOLUTE
    ../clib/printf_percent.s                 0x00000000   Number         0  _printf_lld.o ABSOLUTE
    ../clib/scanf.c                          0x00000000   Number         0  _chval.o ABSOLUTE
    ../clib/scanf.c                          0x00000000   Number         0  atoi.o ABSOLUTE
    ../clib/scanf.c                          0x00000000   Number         0  strtol.o ABSOLUTE
    ../clib/scanf.c                          0x00000000   Number         0  _strtoul.o ABSOLUTE
    ../clib/signal.c                         0x00000000   Number         0  defsig_rtmem_inner.o ABSOLUTE
    ../clib/signal.c                         0x00000000   Number         0  defsig_rtred_inner.o ABSOLUTE
    ../clib/signal.c                         0x00000000   Number         0  defsig_abrt_inner.o ABSOLUTE
    ../clib/signal.c                         0x00000000   Number         0  defsig_general.o ABSOLUTE
    ../clib/signal.c                         0x00000000   Number         0  __raise.o ABSOLUTE
    ../clib/signal.c                         0x00000000   Number         0  defsig_fpe_inner.o ABSOLUTE
    ../clib/signal.c                         0x00000000   Number         0  defsig_exit.o ABSOLUTE
    ../clib/signal.c                         0x00000000   Number         0  defsig_fpe_formal.o ABSOLUTE
    ../clib/signal.c                         0x00000000   Number         0  defsig_fpe_outer.o ABSOLUTE
    ../clib/signal.c                         0x00000000   Number         0  defsig_pvfn_inner.o ABSOLUTE
    ../clib/signal.c                         0x00000000   Number         0  defsig_other.o ABSOLUTE
    ../clib/signal.c                         0x00000000   Number         0  defsig_segv_inner.o ABSOLUTE
    ../clib/signal.c                         0x00000000   Number         0  defsig_cppl_inner.o ABSOLUTE
    ../clib/signal.c                         0x00000000   Number         0  defsig_stak_inner.o ABSOLUTE
    ../clib/signal.c                         0x00000000   Number         0  defsig_rtmem_formal.o ABSOLUTE
    ../clib/signal.c                         0x00000000   Number         0  defsig_rtmem_outer.o ABSOLUTE
    ../clib/signal.s                         0x00000000   Number         0  defsig.o ABSOLUTE
    ../clib/stdio.c                          0x00000000   Number         0  ferror.o ABSOLUTE
    ../clib/stdio.c                          0x00000000   Number         0  ferror_locked.o ABSOLUTE
    ../clib/stdlib.c                         0x00000000   Number         0  exit.o ABSOLUTE
    ../clib/string.c                         0x00000000   Number         0  strcspn.o ABSOLUTE
    ../clib/string.c                         0x00000000   Number         0  strspn.o ABSOLUTE
    ../clib/string.c                         0x00000000   Number         0  strtok.o ABSOLUTE
    ../clib/string.c                         0x00000000   Number         0  strstr.o ABSOLUTE
    ../clib/string.c                         0x00000000   Number         0  memcmp.o ABSOLUTE
    ../clib/string.c                         0x00000000   Number         0  strtok_int.o ABSOLUTE
    ../clib/string.c                         0x00000000   Number         0  strncmp.o ABSOLUTE
    ../clib/string.c                         0x00000000   Number         0  strlen.o ABSOLUTE
    ../fplib/dfix.s                          0x00000000   Number         0  dfix.o ABSOLUTE
    ../fplib/dmul.s                          0x00000000   Number         0  dmul.o ABSOLUTE
    ../fplib/dnaninf.s                       0x00000000   Number         0  dnaninf.o ABSOLUTE
    ../fplib/dretinf.s                       0x00000000   Number         0  dretinf.o ABSOLUTE
    ../fplib/f2d.s                           0x00000000   Number         0  f2d.o ABSOLUTE
    ../fplib/fflt.s                          0x00000000   Number         0  fflt_clz.o ABSOLUTE
    ../fplib/fnaninf.s                       0x00000000   Number         0  fnaninf.o ABSOLUTE
    ../fplib/fpinit.s                        0x00000000   Number         0  fpinit.o ABSOLUTE
    ../fplib/istatus.s                       0x00000000   Number         0  istatus.o ABSOLUTE
    ../fplib/printf1.s                       0x00000000   Number         0  printf1.o ABSOLUTE
    ../fplib/usenofp.s                       0x00000000   Number         0  usenofp.o ABSOLUTE
    ../mathlib/fpclassify.c                  0x00000000   Number         0  fpclassify.o ABSOLUTE
    ..\CORE\core_cm3.c                       0x00000000   Number         0  core_cm3.o ABSOLUTE
    ..\CORE\startup_stm32f10x_hd.s           0x00000000   Number         0  startup_stm32f10x_hd.o ABSOLUTE
    ..\FWLIB\STM32F10x_FWLib\src\misc.c      0x00000000   Number         0  misc.o ABSOLUTE
    ..\FWLIB\STM32F10x_FWLib\src\stm32f10x_dma.c 0x00000000   Number         0  stm32f10x_dma.o ABSOLUTE
    ..\FWLIB\STM32F10x_FWLib\src\stm32f10x_gpio.c 0x00000000   Number         0  stm32f10x_gpio.o ABSOLUTE
    ..\FWLIB\STM32F10x_FWLib\src\stm32f10x_rcc.c 0x00000000   Number         0  stm32f10x_rcc.o ABSOLUTE
    ..\FWLIB\STM32F10x_FWLib\src\stm32f10x_spi.c 0x00000000   Number         0  stm32f10x_spi.o ABSOLUTE
    ..\FWLIB\STM32F10x_FWLib\src\stm32f10x_tim.c 0x00000000   Number         0  stm32f10x_tim.o ABSOLUTE
    ..\FWLIB\STM32F10x_FWLib\src\stm32f10x_usart.c 0x00000000   Number         0  stm32f10x_usart.o ABSOLUTE
    ..\HARDWARE\ATK-ESP8266\esp8266.c        0x00000000   Number         0  esp8266.o ABSOLUTE
    ..\HARDWARE\BLE\ble_app.c                0x00000000   Number         0  ble_app.o ABSOLUTE
    ..\HARDWARE\BLE\ble_uart.c               0x00000000   Number         0  ble_uart.o ABSOLUTE
    ..\HARDWARE\COMMON\common.c              0x00000000   Number         0  common.o ABSOLUTE
    ..\HARDWARE\DS18B20\DS18B20.c            0x00000000   Number         0  ds18b20.o ABSOLUTE
    ..\HARDWARE\KEY\key.c                    0x00000000   Number         0  key.o ABSOLUTE
    ..\HARDWARE\LED\led.c                    0x00000000   Number         0  led.o ABSOLUTE
    ..\HARDWARE\MAX7219\max7219.c            0x00000000   Number         0  max7219.o ABSOLUTE
    ..\HARDWARE\Timestamp\timestamp.c        0x00000000   Number         0  timestamp.o ABSOLUTE
    ..\MALLOC\malloc.c                       0x00000000   Number         0  malloc.o ABSOLUTE
    ..\MQTT\MQTTConnectClient.c              0x00000000   Number         0  mqttconnectclient.o ABSOLUTE
    ..\MQTT\MQTTConnectServer.c              0x00000000   Number         0  mqttconnectserver.o ABSOLUTE
    ..\MQTT\MQTTDeserializePublish.c         0x00000000   Number         0  mqttdeserializepublish.o ABSOLUTE
    ..\MQTT\MQTTFormat.c                     0x00000000   Number         0  mqttformat.o ABSOLUTE
    ..\MQTT\MQTTPacket.c                     0x00000000   Number         0  mqttpacket.o ABSOLUTE
    ..\MQTT\MQTTSerializePublish.c           0x00000000   Number         0  mqttserializepublish.o ABSOLUTE
    ..\MQTT\MQTTSubscribeClient.c            0x00000000   Number         0  mqttsubscribeclient.o ABSOLUTE
    ..\MQTT\MQTTSubscribeServer.c            0x00000000   Number         0  mqttsubscribeserver.o ABSOLUTE
    ..\MQTT\MQTTUnsubscribeClient.c          0x00000000   Number         0  mqttunsubscribeclient.o ABSOLUTE
    ..\MQTT\MQTTUnsubscribeServer.c          0x00000000   Number         0  mqttunsubscribeserver.o ABSOLUTE
    ..\MQTT\mqtt.c                           0x00000000   Number         0  mqtt.o ABSOLUTE
    ..\SYSTEM\delay\delay.c                  0x00000000   Number         0  delay.o ABSOLUTE
    ..\SYSTEM\sys\sys.c                      0x00000000   Number         0  sys.o ABSOLUTE
    ..\SYSTEM\usart2\usart2.c                0x00000000   Number         0  usart2.o ABSOLUTE
    ..\SYSTEM\usart3\usart3.c                0x00000000   Number         0  usart3.o ABSOLUTE
    ..\SYSTEM\usart\usart.c                  0x00000000   Number         0  usart.o ABSOLUTE
    ..\UCOSIII\UCOS_BSP\bsp.c                0x00000000   Number         0  bsp.o ABSOLUTE
    ..\UCOSIII\uC-CPU\ARM-Cortex-M3\RealView\cpu_a.asm 0x00000000   Number         0  cpu_a.o ABSOLUTE
    ..\UCOSIII\uC-CPU\ARM-Cortex-M3\RealView\cpu_c.c 0x00000000   Number         0  cpu_c.o ABSOLUTE
    ..\UCOSIII\uC-CPU\cpu_core.c             0x00000000   Number         0  cpu_core.o ABSOLUTE
    ..\UCOSIII\uC-LIB\Ports\ARM-Cortex-M3\RealView\lib_mem_a.asm 0x00000000   Number         0  lib_mem_a.o ABSOLUTE
    ..\UCOSIII\uC-LIB\lib_ascii.c            0x00000000   Number         0  lib_ascii.o ABSOLUTE
    ..\UCOSIII\uC-LIB\lib_math.c             0x00000000   Number         0  lib_math.o ABSOLUTE
    ..\UCOSIII\uC-LIB\lib_mem.c              0x00000000   Number         0  lib_mem.o ABSOLUTE
    ..\UCOSIII\uC-LIB\lib_str.c              0x00000000   Number         0  lib_str.o ABSOLUTE
    ..\UCOSIII\uCOS-III\Ports\ARM-Cortex-M3\Generic\RealView\os_cpu_a.s 0x00000000   Number         0  os_cpu_a.o ABSOLUTE
    ..\UCOSIII\uCOS-III\Ports\ARM-Cortex-M3\Generic\RealView\os_cpu_c.c 0x00000000   Number         0  os_cpu_c.o ABSOLUTE
    ..\UCOSIII\uCOS-III\Source\os_cfg_app.c  0x00000000   Number         0  os_cfg_app.o ABSOLUTE
    ..\UCOSIII\uCOS-III\Source\os_core.c     0x00000000   Number         0  os_core.o ABSOLUTE
    ..\UCOSIII\uCOS-III\Source\os_dbg.c      0x00000000   Number         0  os_dbg.o ABSOLUTE
    ..\UCOSIII\uCOS-III\Source\os_flag.c     0x00000000   Number         0  os_flag.o ABSOLUTE
    ..\UCOSIII\uCOS-III\Source\os_int.c      0x00000000   Number         0  os_int.o ABSOLUTE
    ..\UCOSIII\uCOS-III\Source\os_mem.c      0x00000000   Number         0  os_mem.o ABSOLUTE
    ..\UCOSIII\uCOS-III\Source\os_msg.c      0x00000000   Number         0  os_msg.o ABSOLUTE
    ..\UCOSIII\uCOS-III\Source\os_mutex.c    0x00000000   Number         0  os_mutex.o ABSOLUTE
    ..\UCOSIII\uCOS-III\Source\os_pend_multi.c 0x00000000   Number         0  os_pend_multi.o ABSOLUTE
    ..\UCOSIII\uCOS-III\Source\os_prio.c     0x00000000   Number         0  os_prio.o ABSOLUTE
    ..\UCOSIII\uCOS-III\Source\os_q.c        0x00000000   Number         0  os_q.o ABSOLUTE
    ..\UCOSIII\uCOS-III\Source\os_sem.c      0x00000000   Number         0  os_sem.o ABSOLUTE
    ..\UCOSIII\uCOS-III\Source\os_stat.c     0x00000000   Number         0  os_stat.o ABSOLUTE
    ..\UCOSIII\uCOS-III\Source\os_task.c     0x00000000   Number         0  os_task.o ABSOLUTE
    ..\UCOSIII\uCOS-III\Source\os_tick.c     0x00000000   Number         0  os_tick.o ABSOLUTE
    ..\UCOSIII\uCOS-III\Source\os_time.c     0x00000000   Number         0  os_time.o ABSOLUTE
    ..\UCOSIII\uCOS-III\Source\os_tmr.c      0x00000000   Number         0  os_tmr.o ABSOLUTE
    ..\UCOSIII\uCOS-III\Source\os_var.c      0x00000000   Number         0  os_var.o ABSOLUTE
    ..\UCOSIII\uCOS_CONFIG\os_app_hooks.c    0x00000000   Number         0  os_app_hooks.o ABSOLUTE
    ..\\CORE\\core_cm3.c                     0x00000000   Number         0  core_cm3.o ABSOLUTE
    ..\\SYSTEM\\sys\\sys.c                   0x00000000   Number         0  sys.o ABSOLUTE
    dc.s                                     0x00000000   Number         0  dc.o ABSOLUTE
    main.c                                   0x00000000   Number         0  main.o ABSOLUTE
    stm32f10x_it.c                           0x00000000   Number         0  stm32f10x_it.o ABSOLUTE
    system_stm32f10x.c                       0x00000000   Number         0  system_stm32f10x.o ABSOLUTE
    RESET                                    0x08000000   Section      304  startup_stm32f10x_hd.o(RESET)
    !!!main                                  0x08000130   Section        8  __main.o(!!!main)
    !!!scatter                               0x08000138   Section       52  __scatter.o(!!!scatter)
    !!dczerorl2                              0x0800016c   Section       90  __dczerorl2.o(!!dczerorl2)
    !!handler_zi                             0x080001c8   Section       28  __scatter_zi.o(!!handler_zi)
    .ARM.Collect$$_printf_percent$$00000000  0x080001e4   Section        0  _printf_percent.o(.ARM.Collect$$_printf_percent$$00000000)
    .ARM.Collect$$_printf_percent$$00000001  0x080001e4   Section        6  _printf_n.o(.ARM.Collect$$_printf_percent$$00000001)
    .ARM.Collect$$_printf_percent$$00000002  0x080001ea   Section        6  _printf_p.o(.ARM.Collect$$_printf_percent$$00000002)
    .ARM.Collect$$_printf_percent$$00000003  0x080001f0   Section        6  _printf_f.o(.ARM.Collect$$_printf_percent$$00000003)
    .ARM.Collect$$_printf_percent$$00000004  0x080001f6   Section        6  _printf_e.o(.ARM.Collect$$_printf_percent$$00000004)
    .ARM.Collect$$_printf_percent$$00000005  0x080001fc   Section        6  _printf_g.o(.ARM.Collect$$_printf_percent$$00000005)
    .ARM.Collect$$_printf_percent$$00000006  0x08000202   Section        6  _printf_a.o(.ARM.Collect$$_printf_percent$$00000006)
    .ARM.Collect$$_printf_percent$$00000007  0x08000208   Section       10  _printf_ll.o(.ARM.Collect$$_printf_percent$$00000007)
    .ARM.Collect$$_printf_percent$$00000008  0x08000212   Section        6  _printf_i.o(.ARM.Collect$$_printf_percent$$00000008)
    .ARM.Collect$$_printf_percent$$00000009  0x08000218   Section        6  _printf_d.o(.ARM.Collect$$_printf_percent$$00000009)
    .ARM.Collect$$_printf_percent$$0000000A  0x0800021e   Section        6  _printf_u.o(.ARM.Collect$$_printf_percent$$0000000A)
    .ARM.Collect$$_printf_percent$$0000000B  0x08000224   Section        6  _printf_o.o(.ARM.Collect$$_printf_percent$$0000000B)
    .ARM.Collect$$_printf_percent$$0000000C  0x0800022a   Section        6  _printf_x.o(.ARM.Collect$$_printf_percent$$0000000C)
    .ARM.Collect$$_printf_percent$$0000000D  0x08000230   Section        6  _printf_lli.o(.ARM.Collect$$_printf_percent$$0000000D)
    .ARM.Collect$$_printf_percent$$0000000E  0x08000236   Section        6  _printf_lld.o(.ARM.Collect$$_printf_percent$$0000000E)
    .ARM.Collect$$_printf_percent$$0000000F  0x0800023c   Section        6  _printf_llu.o(.ARM.Collect$$_printf_percent$$0000000F)
    .ARM.Collect$$_printf_percent$$00000010  0x08000242   Section        6  _printf_llo.o(.ARM.Collect$$_printf_percent$$00000010)
    .ARM.Collect$$_printf_percent$$00000011  0x08000248   Section        6  _printf_llx.o(.ARM.Collect$$_printf_percent$$00000011)
    .ARM.Collect$$_printf_percent$$00000012  0x0800024e   Section       10  _printf_l.o(.ARM.Collect$$_printf_percent$$00000012)
    .ARM.Collect$$_printf_percent$$00000013  0x08000258   Section        6  _printf_c.o(.ARM.Collect$$_printf_percent$$00000013)
    .ARM.Collect$$_printf_percent$$00000014  0x0800025e   Section        6  _printf_s.o(.ARM.Collect$$_printf_percent$$00000014)
    .ARM.Collect$$_printf_percent$$00000015  0x08000264   Section        6  _printf_lc.o(.ARM.Collect$$_printf_percent$$00000015)
    .ARM.Collect$$_printf_percent$$00000016  0x0800026a   Section        6  _printf_ls.o(.ARM.Collect$$_printf_percent$$00000016)
    .ARM.Collect$$_printf_percent$$00000017  0x08000270   Section        4  _printf_percent_end.o(.ARM.Collect$$_printf_percent$$00000017)
    .ARM.Collect$$libinit$$00000000          0x08000274   Section        2  libinit.o(.ARM.Collect$$libinit$$00000000)
    .ARM.Collect$$libinit$$00000002          0x08000276   Section        0  libinit2.o(.ARM.Collect$$libinit$$00000002)
    .ARM.Collect$$libinit$$00000004          0x08000276   Section        0  libinit2.o(.ARM.Collect$$libinit$$00000004)
    .ARM.Collect$$libinit$$0000000A          0x08000276   Section        0  libinit2.o(.ARM.Collect$$libinit$$0000000A)
    .ARM.Collect$$libinit$$0000000C          0x08000276   Section        0  libinit2.o(.ARM.Collect$$libinit$$0000000C)
    .ARM.Collect$$libinit$$0000000E          0x08000276   Section        0  libinit2.o(.ARM.Collect$$libinit$$0000000E)
    .ARM.Collect$$libinit$$0000000F          0x08000276   Section        6  libinit2.o(.ARM.Collect$$libinit$$0000000F)
    .ARM.Collect$$libinit$$00000011          0x0800027c   Section        0  libinit2.o(.ARM.Collect$$libinit$$00000011)
    .ARM.Collect$$libinit$$00000012          0x0800027c   Section       12  libinit2.o(.ARM.Collect$$libinit$$00000012)
    .ARM.Collect$$libinit$$00000013          0x08000288   Section        0  libinit2.o(.ARM.Collect$$libinit$$00000013)
    .ARM.Collect$$libinit$$00000015          0x08000288   Section        0  libinit2.o(.ARM.Collect$$libinit$$00000015)
    .ARM.Collect$$libinit$$00000016          0x08000288   Section       10  libinit2.o(.ARM.Collect$$libinit$$00000016)
    .ARM.Collect$$libinit$$00000017          0x08000292   Section        0  libinit2.o(.ARM.Collect$$libinit$$00000017)
    .ARM.Collect$$libinit$$00000019          0x08000292   Section        0  libinit2.o(.ARM.Collect$$libinit$$00000019)
    .ARM.Collect$$libinit$$0000001B          0x08000292   Section        0  libinit2.o(.ARM.Collect$$libinit$$0000001B)
    .ARM.Collect$$libinit$$0000001D          0x08000292   Section        0  libinit2.o(.ARM.Collect$$libinit$$0000001D)
    .ARM.Collect$$libinit$$0000001F          0x08000292   Section        0  libinit2.o(.ARM.Collect$$libinit$$0000001F)
    .ARM.Collect$$libinit$$00000021          0x08000292   Section        0  libinit2.o(.ARM.Collect$$libinit$$00000021)
    .ARM.Collect$$libinit$$00000023          0x08000292   Section        0  libinit2.o(.ARM.Collect$$libinit$$00000023)
    .ARM.Collect$$libinit$$00000025          0x08000292   Section        0  libinit2.o(.ARM.Collect$$libinit$$00000025)
    .ARM.Collect$$libinit$$0000002C          0x08000292   Section        0  libinit2.o(.ARM.Collect$$libinit$$0000002C)
    .ARM.Collect$$libinit$$0000002E          0x08000292   Section        0  libinit2.o(.ARM.Collect$$libinit$$0000002E)
    .ARM.Collect$$libinit$$00000030          0x08000292   Section        0  libinit2.o(.ARM.Collect$$libinit$$00000030)
    .ARM.Collect$$libinit$$00000032          0x08000292   Section        0  libinit2.o(.ARM.Collect$$libinit$$00000032)
    .ARM.Collect$$libinit$$00000033          0x08000292   Section        2  libinit2.o(.ARM.Collect$$libinit$$00000033)
    .ARM.Collect$$libshutdown$$00000000      0x08000294   Section        2  libshutdown.o(.ARM.Collect$$libshutdown$$00000000)
    .ARM.Collect$$libshutdown$$00000003      0x08000296   Section        0  libshutdown2.o(.ARM.Collect$$libshutdown$$00000003)
    .ARM.Collect$$libshutdown$$00000006      0x08000296   Section        0  libshutdown2.o(.ARM.Collect$$libshutdown$$00000006)
    .ARM.Collect$$libshutdown$$00000009      0x08000296   Section        0  libshutdown2.o(.ARM.Collect$$libshutdown$$00000009)
    .ARM.Collect$$libshutdown$$0000000B      0x08000296   Section        0  libshutdown2.o(.ARM.Collect$$libshutdown$$0000000B)
    .ARM.Collect$$libshutdown$$0000000E      0x08000296   Section        0  libshutdown2.o(.ARM.Collect$$libshutdown$$0000000E)
    .ARM.Collect$$libshutdown$$0000000F      0x08000296   Section        2  libshutdown2.o(.ARM.Collect$$libshutdown$$0000000F)
    .ARM.Collect$$rtentry$$00000000          0x08000298   Section        0  __rtentry.o(.ARM.Collect$$rtentry$$00000000)
    .ARM.Collect$$rtentry$$00000002          0x08000298   Section        0  __rtentry2.o(.ARM.Collect$$rtentry$$00000002)
    .ARM.Collect$$rtentry$$00000004          0x08000298   Section        6  __rtentry4.o(.ARM.Collect$$rtentry$$00000004)
    .ARM.Collect$$rtentry$$00000009          0x0800029e   Section        0  __rtentry2.o(.ARM.Collect$$rtentry$$00000009)
    .ARM.Collect$$rtentry$$0000000A          0x0800029e   Section        4  __rtentry2.o(.ARM.Collect$$rtentry$$0000000A)
    .ARM.Collect$$rtentry$$0000000C          0x080002a2   Section        0  __rtentry2.o(.ARM.Collect$$rtentry$$0000000C)
    .ARM.Collect$$rtentry$$0000000D          0x080002a2   Section        8  __rtentry2.o(.ARM.Collect$$rtentry$$0000000D)
    .ARM.Collect$$rtexit$$00000000           0x080002aa   Section        2  rtexit.o(.ARM.Collect$$rtexit$$00000000)
    .ARM.Collect$$rtexit$$00000002           0x080002ac   Section        0  rtexit2.o(.ARM.Collect$$rtexit$$00000002)
    .ARM.Collect$$rtexit$$00000003           0x080002ac   Section        4  rtexit2.o(.ARM.Collect$$rtexit$$00000003)
    .ARM.Collect$$rtexit$$00000004           0x080002b0   Section        6  rtexit2.o(.ARM.Collect$$rtexit$$00000004)
    .text                                    0x080002b8   Section        0  main.o(.text)
    .text                                    0x08000e5a   Section        0  stm32f10x_it.o(.text)
    .text                                    0x08000e70   Section        0  system_stm32f10x.o(.text)
    SetSysClockTo72                          0x08000e71   Thumb Code   214  system_stm32f10x.o(.text)
    SetSysClock                              0x08000f47   Thumb Code     8  system_stm32f10x.o(.text)
    .text                                    0x08001050   Section        0  led.o(.text)
    .text                                    0x080010a0   Section        0  esp8266.o(.text)
    .text                                    0x08001398   Section        0  max7219.o(.text)
    .text                                    0x080018b0   Section        0  timestamp.o(.text)
    .text                                    0x08001a4c   Section        0  common.o(.text)
    .text                                    0x08001b84   Section        0  ds18b20.o(.text)
    .text                                    0x08001e00   Section        0  ble_app.o(.text)
    .text                                    0x080023c0   Section        0  ble_uart.o(.text)
    .text                                    0x08002474   Section        0  delay.o(.text)
    .text                                    0x080025c0   Section        0  usart.o(.text)
    .text                                    0x08002710   Section        0  usart2.o(.text)
    .text                                    0x0800298c   Section        0  usart3.o(.text)
    .text                                    0x08002c08   Section       64  startup_stm32f10x_hd.o(.text)
    .text                                    0x08002c48   Section        0  misc.o(.text)
    .text                                    0x08002d24   Section        0  stm32f10x_gpio.o(.text)
    .text                                    0x08003080   Section        0  stm32f10x_usart.o(.text)
    .text                                    0x08003488   Section        0  stm32f10x_rcc.o(.text)
    .text                                    0x0800382c   Section        0  stm32f10x_dma.o(.text)
    .text                                    0x08003a80   Section        0  stm32f10x_tim.o(.text)
    TI4_Config                               0x08003f27   Thumb Code   130  stm32f10x_tim.o(.text)
    TI3_Config                               0x08003fbb   Thumb Code   122  stm32f10x_tim.o(.text)
    TI2_Config                               0x0800404f   Thumb Code   130  stm32f10x_tim.o(.text)
    TI1_Config                               0x080040e3   Thumb Code   108  stm32f10x_tim.o(.text)
    .text                                    0x0800489c   Section        0  bsp.o(.text)
    .text                                    0x08004920   Section        0  cpu_core.o(.text)
    CPU_NameInit                             0x0800494b   Thumb Code     8  cpu_core.o(.text)
    CPU_TS_Init                              0x08004953   Thumb Code    14  cpu_core.o(.text)
    .text                                    0x08004bc8   Section       52  cpu_a.o(.text)
    .text                                    0x08004bfc   Section        0  lib_ascii.o(.text)
    .text                                    0x08004e54   Section        0  lib_mem.o(.text)
    Mem_SegAlloc                             0x0800506b   Thumb Code    60  lib_mem.o(.text)
    Mem_SegCalcTotSize                       0x080050a7   Thumb Code    60  lib_mem.o(.text)
    .text                                    0x0800581c   Section        0  lib_str.o(.text)
    Str_FmtNbr_Int32                         0x08005cd5   Thumb Code   476  lib_str.o(.text)
    Str_ParseNbr_Int32                       0x08005f1d   Thumb Code   446  lib_str.o(.text)
    .text                                    0x08006148   Section      544  lib_mem_a.o(.text)
    .text                                    0x08006368   Section        0  os_cfg_app.o(.text)
    .text                                    0x08006464   Section        0  os_core.o(.text)
    .text                                    0x08007254   Section        0  os_dbg.o(.text)
    .text                                    0x08007404   Section        0  os_flag.o(.text)
    .text                                    0x0800822c   Section        0  os_int.o(.text)
    .text                                    0x08008670   Section        0  os_mem.o(.text)
    .text                                    0x080088a8   Section        0  os_msg.o(.text)
    .text                                    0x08008ad4   Section        0  os_mutex.o(.text)
    .text                                    0x080095a8   Section        0  os_prio.o(.text)
    .text                                    0x08009624   Section        0  os_q.o(.text)
    .text                                    0x08009efc   Section        0  os_sem.o(.text)
    .text                                    0x0800a72c   Section        0  os_stat.o(.text)
    .text                                    0x0800ad64   Section        0  os_task.o(.text)
    .text                                    0x0800c918   Section        0  os_tick.o(.text)
    .text                                    0x0800ce14   Section        0  os_time.o(.text)
    .text                                    0x0800d378   Section        0  os_tmr.o(.text)
    .text                                    0x0800db90   Section        0  os_cpu_c.o(.text)
    .text                                    0x0800ddf0   Section        0  os_app_hooks.o(.text)
    .text                                    0x0800dec4   Section        0  malloc.o(.text)
    .text                                    0x0800e064   Section        0  mqtt.o(.text)
    .text                                    0x0800e3f8   Section        0  mqttdeserializepublish.o(.text)
    .text                                    0x0800e50c   Section        0  mqttpacket.o(.text)
    MQTTPacket_decodenb                      0x0800e7cd   Thumb Code   104  mqttpacket.o(.text)
    .text                                    0x0800e908   Section        2  use_no_semi_2.o(.text)
    .text                                    0x0800e90a   Section      238  lludivv7m.o(.text)
    .text                                    0x0800e9f8   Section        0  c89vsprintf.o(.text)
    .text                                    0x0800ea1c   Section        0  __2printf.o(.text)
    .text                                    0x0800ea34   Section        0  __2sprintf.o(.text)
    .text                                    0x0800ea60   Section        0  _printf_pad.o(.text)
    .text                                    0x0800eaae   Section        0  _printf_str.o(.text)
    .text                                    0x0800eb00   Section        0  _printf_dec.o(.text)
    .text                                    0x0800eb78   Section        0  _printf_charcount.o(.text)
    .text                                    0x0800eba0   Section        0  _printf_hex_int_ll_ptr.o(.text)
    _printf_hex_common                       0x0800eba1   Thumb Code     0  _printf_hex_int_ll_ptr.o(.text)
    .text                                    0x0800ec34   Section        0  __printf_flags_ss_wp.o(.text)
    .text                                    0x0800edbc   Section        0  atoi.o(.text)
    .text                                    0x0800edd8   Section        0  strtok.o(.text)
    .text                                    0x0800ede4   Section        0  strstr.o(.text)
    .text                                    0x0800ee08   Section        0  strlen.o(.text)
    .text                                    0x0800ee46   Section        0  strncmp.o(.text)
    .text                                    0x0800eedc   Section      138  rt_memcpy_v6.o(.text)
    .text                                    0x0800ef66   Section       68  rt_memclr.o(.text)
    .text                                    0x0800efaa   Section       78  rt_memclr_w.o(.text)
    .text                                    0x0800eff8   Section        0  heapauxi.o(.text)
    .text                                    0x0800effe   Section        2  use_no_semi.o(.text)
    .text                                    0x0800f000   Section        8  rt_errno_addr_intlibspace.o(.text)
    .text                                    0x0800f008   Section        0  _printf_truncate.o(.text)
    .text                                    0x0800f02c   Section        0  _printf_intcommon.o(.text)
    .text                                    0x0800f0e0   Section        0  _printf_char_common.o(.text)
    _printf_input_char                       0x0800f0e1   Thumb Code    10  _printf_char_common.o(.text)
    .text                                    0x0800f110   Section        0  _sputc.o(.text)
    .text                                    0x0800f11a   Section        0  _printf_char.o(.text)
    .text                                    0x0800f148   Section        0  _printf_char_file.o(.text)
    .text                                    0x0800f16c   Section        0  _printf_wctomb.o(.text)
    .text                                    0x0800f228   Section        0  _printf_longlong_dec.o(.text)
    .text                                    0x0800f2a4   Section        0  _printf_oct_int_ll.o(.text)
    _printf_longlong_oct_internal            0x0800f2a5   Thumb Code     0  _printf_oct_int_ll.o(.text)
    .text                                    0x0800f314   Section        0  strtol.o(.text)
    .text                                    0x0800f384   Section        0  strtok_int.o(.text)
    .text                                    0x0800f3c8   Section      100  rt_memcpy_w.o(.text)
    .text                                    0x0800f42c   Section        8  libspace.o(.text)
    .text                                    0x0800f434   Section       16  rt_ctype_table.o(.text)
    .text                                    0x0800f444   Section      138  lludiv10.o(.text)
    .text                                    0x0800f4ce   Section        0  _printf_fp_dec.o(.text)
    _fp_digits                               0x0800f4d1   Thumb Code   428  _printf_fp_dec.o(.text)
    .text                                    0x0800f8e8   Section        0  _printf_wchar.o(.text)
    .text                                    0x0800f914   Section        0  _strtoul.o(.text)
    .text                                    0x0800f9b2   Section        0  ferror.o(.text)
    .text                                    0x0800f9ba   Section        0  _wcrtomb.o(.text)
    .text                                    0x0800f9fa   Section        0  strcspn.o(.text)
    .text                                    0x0800fa1a   Section        0  strspn.o(.text)
    .text                                    0x0800fa36   Section       74  sys_stackheap_outer.o(.text)
    .text                                    0x0800fa80   Section        8  rt_locale_intlibspace.o(.text)
    .text                                    0x0800fa88   Section        0  _printf_fp_infnan.o(.text)
    .text                                    0x0800fb08   Section        0  _chval.o(.text)
    .text                                    0x0800fb24   Section        0  bigflt0.o(.text)
    .text                                    0x0800fc00   Section        0  exit.o(.text)
    .text                                    0x0800fc0c   Section      128  strcmpv7m.o(.text)
    CL$$btod_d2e                             0x0800fc8c   Section       62  btod.o(CL$$btod_d2e)
    CL$$btod_d2e_denorm_low                  0x0800fcca   Section       70  btod.o(CL$$btod_d2e_denorm_low)
    CL$$btod_d2e_norm_op1                    0x0800fd10   Section       96  btod.o(CL$$btod_d2e_norm_op1)
    CL$$btod_div_common                      0x0800fd70   Section      824  btod.o(CL$$btod_div_common)
    CL$$btod_e2e                             0x080100a8   Section      198  btod.o(CL$$btod_e2e)
    CL$$btod_ediv                            0x0801016e   Section       40  btod.o(CL$$btod_ediv)
    CL$$btod_emul                            0x08010196   Section       40  btod.o(CL$$btod_emul)
    CL$$btod_mult_common                     0x080101be   Section      580  btod.o(CL$$btod_mult_common)
    CODE                                     0x08010404   Section      152  os_cpu_a.o(CODE)
    i.__ARM_fpclassify                       0x0801049c   Section        0  fpclassify.o(i.__ARM_fpclassify)
    i._is_digit                              0x080104c4   Section        0  __printf_wp.o(i._is_digit)
    locale$$code                             0x080104d4   Section       44  lc_ctype_c.o(locale$$code)
    locale$$code                             0x08010500   Section       44  lc_numeric_c.o(locale$$code)
    x$fpl$dfix                               0x0801052c   Section       94  dfix.o(x$fpl$dfix)
    x$fpl$dmul                               0x0801058c   Section      340  dmul.o(x$fpl$dmul)
    x$fpl$dnaninf                            0x080106e0   Section      156  dnaninf.o(x$fpl$dnaninf)
    x$fpl$dretinf                            0x0801077c   Section       12  dretinf.o(x$fpl$dretinf)
    x$fpl$f2d                                0x08010788   Section       86  f2d.o(x$fpl$f2d)
    x$fpl$fflt                               0x080107e0   Section       48  fflt_clz.o(x$fpl$fflt)
    x$fpl$fnaninf                            0x08010810   Section      140  fnaninf.o(x$fpl$fnaninf)
    x$fpl$printf1                            0x0801089c   Section        4  printf1.o(x$fpl$printf1)
    .constdata                               0x080108a0   Section       48  max7219.o(.constdata)
    x$fpl$usenofp                            0x080108a0   Section        0  usenofp.o(x$fpl$usenofp)
    .constdata                               0x080108d0   Section       12  timestamp.o(.constdata)
    .constdata                               0x080108dc   Section      260  cpu_core.o(.constdata)
    CPU_CntLeadZerosTbl                      0x080108dc   Data         256  cpu_core.o(.constdata)
    .constdata                               0x080109e0   Section      148  lib_str.o(.constdata)
    Str_MultOvfThTbl_Int32U                  0x080109e0   Data         148  lib_str.o(.constdata)
    .constdata                               0x08010a74   Section      164  os_cfg_app.o(.constdata)
    .constdata                               0x08010b18   Section      364  os_dbg.o(.constdata)
    .constdata                               0x08010c84   Section       40  _printf_hex_int_ll_ptr.o(.constdata)
    uc_hextab                                0x08010c84   Data          20  _printf_hex_int_ll_ptr.o(.constdata)
    lc_hextab                                0x08010c98   Data          20  _printf_hex_int_ll_ptr.o(.constdata)
    .constdata                               0x08010cac   Section       17  __printf_flags_ss_wp.o(.constdata)
    maptable                                 0x08010cac   Data          17  __printf_flags_ss_wp.o(.constdata)
    .constdata                               0x08010cc0   Section        8  _printf_wctomb.o(.constdata)
    initial_mbstate                          0x08010cc0   Data           8  _printf_wctomb.o(.constdata)
    .constdata                               0x08010cc8   Section      148  bigflt0.o(.constdata)
    tenpwrs_x                                0x08010cc8   Data          60  bigflt0.o(.constdata)
    tenpwrs_i                                0x08010d04   Data          64  bigflt0.o(.constdata)
    .conststring                             0x08010d5c   Section       36  main.o(.conststring)
    locale$$data                             0x08010da0   Section      272  lc_ctype_c.o(locale$$data)
    __lcctype_c_name                         0x08010da4   Data           2  lc_ctype_c.o(locale$$data)
    __lcctype_c_start                        0x08010dac   Data           0  lc_ctype_c.o(locale$$data)
    locale$$data                             0x08010eb0   Section       28  lc_numeric_c.o(locale$$data)
    __lcctype_c_end                          0x08010eb0   Data           0  lc_ctype_c.o(locale$$data)
    __lcnum_c_name                           0x08010eb4   Data           2  lc_numeric_c.o(locale$$data)
    __lcnum_c_start                          0x08010ebc   Data           0  lc_numeric_c.o(locale$$data)
    __lcnum_c_point                          0x08010ec8   Data           0  lc_numeric_c.o(locale$$data)
    __lcnum_c_thousands                      0x08010eca   Data           0  lc_numeric_c.o(locale$$data)
    __lcnum_c_grouping                       0x08010ecb   Data           0  lc_numeric_c.o(locale$$data)
    __lcnum_c_end                            0x08010ecc   Data           0  lc_numeric_c.o(locale$$data)
    .data                                    0x20000000   Section       45  main.o(.data)
    .data                                    0x20000030   Section       20  system_stm32f10x.o(.data)
    .data                                    0x20000044   Section      384  max7219.o(.data)
    .data                                    0x200001c4   Section       96  timestamp.o(.data)
    mon_yday                                 0x200001c4   Data          96  timestamp.o(.data)
    .data                                    0x20000224   Section        3  ble_app.o(.data)
    num                                      0x20000224   Data           1  ble_app.o(.data)
    flag1                                    0x20000225   Data           1  ble_app.o(.data)
    flag2                                    0x20000226   Data           1  ble_app.o(.data)
    .data                                    0x20000228   Section        4  delay.o(.data)
    fac_us                                   0x20000228   Data           1  delay.o(.data)
    fac_ms                                   0x2000022a   Data           2  delay.o(.data)
    .data                                    0x2000022c   Section        6  usart.o(.data)
    .data                                    0x20000232   Section        2  usart2.o(.data)
    .data                                    0x20000234   Section        2  usart3.o(.data)
    .data                                    0x20000236   Section       20  stm32f10x_rcc.o(.data)
    APBAHBPrescTable                         0x20000236   Data          16  stm32f10x_rcc.o(.data)
    ADCPrescTable                            0x20000246   Data           4  stm32f10x_rcc.o(.data)
    .data                                    0x2000024c   Section        4  cpu_core.o(.data)
    .data                                    0x20000250   Section        4  lib_mem.o(.data)
    .data                                    0x20000254   Section        8  os_prio.o(.data)
    .data                                    0x2000025c   Section      200  os_var.o(.data)
    .data                                    0x20000324   Section        4  os_cpu_c.o(.data)
    .data                                    0x20000328   Section        4  os_app_hooks.o(.data)
    num                                      0x20000328   Data           4  os_app_hooks.o(.data)
    .data                                    0x2000032c   Section       20  malloc.o(.data)
    .data                                    0x20000340   Section        6  mqtt.o(.data)
    oldlen                                   0x20000340   Data           1  mqtt.o(.data)
    id                                       0x20000342   Data           2  mqtt.o(.data)
    id                                       0x20000344   Data           2  mqtt.o(.data)
    .data                                    0x20000348   Section        4  mqttpacket.o(.data)
    bufptr                                   0x20000348   Data           4  mqttpacket.o(.data)
    .data                                    0x2000034c   Section        4  strtok.o(.data)
    _strtok_saves1                           0x2000034c   Data           4  strtok.o(.data)
    .bss                                     0x20000350   Section     6008  main.o(.bss)
    .bss                                     0x20001ac8   Section       50  ble_app.o(.bss)
    .bss                                     0x20001afa   Section      200  usart.o(.bss)
    .bss                                     0x20001bc8   Section     2048  usart2.o(.bss)
    .bss                                     0x200023c8   Section     2048  usart3.o(.bss)
    .bss                                     0x20002bc8   Section       16  cpu_core.o(.bss)
    .bss                                     0x20002bd8   Section     1096  lib_mem.o(.bss)
    .bss                                     0x20003020   Section     5264  os_cfg_app.o(.bss)
    .bss                                     0x200044b0   Section     1760  os_var.o(.bss)
    .bss                                     0x20004b90   Section    21760  malloc.o(.bss)
    .bss                                     0x2000a090   Section      200  mqtt.o(.bss)
    buf                                      0x2000a090   Data         200  mqtt.o(.bss)
    .bss                                     0x2000a158   Section       96  libspace.o(.bss)
    HEAP                                     0x2000a1b8   Section      512  startup_stm32f10x_hd.o(HEAP)
    Heap_Mem                                 0x2000a1b8   Data         512  startup_stm32f10x_hd.o(HEAP)
    STACK                                    0x2000a3b8   Section     4608  startup_stm32f10x_hd.o(STACK)
    Stack_Mem                                0x2000a3b8   Data        4608  startup_stm32f10x_hd.o(STACK)
    __initial_sp                             0x2000b5b8   Data           0  startup_stm32f10x_hd.o(STACK)

    Global Symbols

    Symbol Name                              Value     Ov Type        Size  Object(Section)

    BuildAttributes$$THM_ISAv4$P$D$K$B$S$PE$A:L22UL41UL21$X:L11$S22US41US21$IEEE1$IW$USESV6$~STKCKD$USESV7$~SHL$OTIME$ROPI$IEEEJ$EBA8$UX$STANDARDLIB$REQ8$PRES8$EABIv2 0x00000000   Number         0  anon$$obj.o ABSOLUTE
    __ARM_use_no_argv                        0x00000000   Number         0  main.o ABSOLUTE
    _printf_flags                            0x00000000   Number         0  printf_stubs.o ABSOLUTE
    _printf_return_value                     0x00000000   Number         0  printf_stubs.o ABSOLUTE
    _printf_sizespec                         0x00000000   Number         0  printf_stubs.o ABSOLUTE
    _printf_widthprec                        0x00000000   Number         0  printf_stubs.o ABSOLUTE
    __ARM_exceptions_init                     - Undefined Weak Reference
    __alloca_initialize                       - Undefined Weak Reference
    __arm_preinit_                            - Undefined Weak Reference
    __cpp_initialize__aeabi_                  - Undefined Weak Reference
    __cxa_finalize                            - Undefined Weak Reference
    __sigvec_lookup                           - Undefined Weak Reference
    _atexit_init                              - Undefined Weak Reference
    _call_atexit_fns                          - Undefined Weak Reference
    _clock_init                               - Undefined Weak Reference
    _fp_trap_init                             - Undefined Weak Reference
    _fp_trap_shutdown                         - Undefined Weak Reference
    _get_lc_collate                           - Undefined Weak Reference
    _get_lc_monetary                          - Undefined Weak Reference
    _get_lc_time                              - Undefined Weak Reference
    _getenv_init                              - Undefined Weak Reference
    _handle_redirection                       - Undefined Weak Reference
    _init_alloc                               - Undefined Weak Reference
    _init_user_alloc                          - Undefined Weak Reference
    _initio                                   - Undefined Weak Reference
    _mutex_acquire                            - Undefined Weak Reference
    _mutex_release                            - Undefined Weak Reference
    _printf_fp_hex                            - Undefined Weak Reference
    _printf_mbtowc                            - Undefined Weak Reference
    _printf_wc                                - Undefined Weak Reference
    _rand_init                                - Undefined Weak Reference
    _signal_finish                            - Undefined Weak Reference
    _signal_init                              - Undefined Weak Reference
    _terminate_alloc                          - Undefined Weak Reference
    _terminate_user_alloc                     - Undefined Weak Reference
    _terminateio                              - Undefined Weak Reference
    __Vectors_Size                           0x00000130   Number         0  startup_stm32f10x_hd.o ABSOLUTE
    __Vectors                                0x08000000   Data           4  startup_stm32f10x_hd.o(RESET)
    __Vectors_End                            0x08000130   Data           0  startup_stm32f10x_hd.o(RESET)
    __main                                   0x08000131   Thumb Code     8  __main.o(!!!main)
    __scatterload                            0x08000139   Thumb Code     0  __scatter.o(!!!scatter)
    __scatterload_rt2                        0x08000139   Thumb Code    44  __scatter.o(!!!scatter)
    __scatterload_rt2_thumb_only             0x08000139   Thumb Code     0  __scatter.o(!!!scatter)
    __scatterload_null                       0x08000147   Thumb Code     0  __scatter.o(!!!scatter)
    __decompress                             0x0800016d   Thumb Code    90  __dczerorl2.o(!!dczerorl2)
    __decompress1                            0x0800016d   Thumb Code     0  __dczerorl2.o(!!dczerorl2)
    __scatterload_zeroinit                   0x080001c9   Thumb Code    28  __scatter_zi.o(!!handler_zi)
    _printf_n                                0x080001e5   Thumb Code     0  _printf_n.o(.ARM.Collect$$_printf_percent$$00000001)
    _printf_percent                          0x080001e5   Thumb Code     0  _printf_percent.o(.ARM.Collect$$_printf_percent$$00000000)
    _printf_p                                0x080001eb   Thumb Code     0  _printf_p.o(.ARM.Collect$$_printf_percent$$00000002)
    _printf_f                                0x080001f1   Thumb Code     0  _printf_f.o(.ARM.Collect$$_printf_percent$$00000003)
    _printf_e                                0x080001f7   Thumb Code     0  _printf_e.o(.ARM.Collect$$_printf_percent$$00000004)
    _printf_g                                0x080001fd   Thumb Code     0  _printf_g.o(.ARM.Collect$$_printf_percent$$00000005)
    _printf_a                                0x08000203   Thumb Code     0  _printf_a.o(.ARM.Collect$$_printf_percent$$00000006)
    _printf_ll                               0x08000209   Thumb Code     0  _printf_ll.o(.ARM.Collect$$_printf_percent$$00000007)
    _printf_i                                0x08000213   Thumb Code     0  _printf_i.o(.ARM.Collect$$_printf_percent$$00000008)
    _printf_d                                0x08000219   Thumb Code     0  _printf_d.o(.ARM.Collect$$_printf_percent$$00000009)
    _printf_u                                0x0800021f   Thumb Code     0  _printf_u.o(.ARM.Collect$$_printf_percent$$0000000A)
    _printf_o                                0x08000225   Thumb Code     0  _printf_o.o(.ARM.Collect$$_printf_percent$$0000000B)
    _printf_x                                0x0800022b   Thumb Code     0  _printf_x.o(.ARM.Collect$$_printf_percent$$0000000C)
    _printf_lli                              0x08000231   Thumb Code     0  _printf_lli.o(.ARM.Collect$$_printf_percent$$0000000D)
    _printf_lld                              0x08000237   Thumb Code     0  _printf_lld.o(.ARM.Collect$$_printf_percent$$0000000E)
    _printf_llu                              0x0800023d   Thumb Code     0  _printf_llu.o(.ARM.Collect$$_printf_percent$$0000000F)
    _printf_llo                              0x08000243   Thumb Code     0  _printf_llo.o(.ARM.Collect$$_printf_percent$$00000010)
    _printf_llx                              0x08000249   Thumb Code     0  _printf_llx.o(.ARM.Collect$$_printf_percent$$00000011)
    _printf_l                                0x0800024f   Thumb Code     0  _printf_l.o(.ARM.Collect$$_printf_percent$$00000012)
    _printf_c                                0x08000259   Thumb Code     0  _printf_c.o(.ARM.Collect$$_printf_percent$$00000013)
    _printf_s                                0x0800025f   Thumb Code     0  _printf_s.o(.ARM.Collect$$_printf_percent$$00000014)
    _printf_lc                               0x08000265   Thumb Code     0  _printf_lc.o(.ARM.Collect$$_printf_percent$$00000015)
    _printf_ls                               0x0800026b   Thumb Code     0  _printf_ls.o(.ARM.Collect$$_printf_percent$$00000016)
    _printf_percent_end                      0x08000271   Thumb Code     0  _printf_percent_end.o(.ARM.Collect$$_printf_percent$$00000017)
    __rt_lib_init                            0x08000275   Thumb Code     0  libinit.o(.ARM.Collect$$libinit$$00000000)
    __rt_lib_init_fp_1                       0x08000277   Thumb Code     0  libinit2.o(.ARM.Collect$$libinit$$00000002)
    __rt_lib_init_heap_1                     0x08000277   Thumb Code     0  libinit2.o(.ARM.Collect$$libinit$$0000000A)
    __rt_lib_init_lc_common                  0x08000277   Thumb Code     0  libinit2.o(.ARM.Collect$$libinit$$0000000F)
    __rt_lib_init_preinit_1                  0x08000277   Thumb Code     0  libinit2.o(.ARM.Collect$$libinit$$00000004)
    __rt_lib_init_rand_1                     0x08000277   Thumb Code     0  libinit2.o(.ARM.Collect$$libinit$$0000000E)
    __rt_lib_init_user_alloc_1               0x08000277   Thumb Code     0  libinit2.o(.ARM.Collect$$libinit$$0000000C)
    __rt_lib_init_lc_collate_1               0x0800027d   Thumb Code     0  libinit2.o(.ARM.Collect$$libinit$$00000011)
    __rt_lib_init_lc_ctype_2                 0x0800027d   Thumb Code     0  libinit2.o(.ARM.Collect$$libinit$$00000012)
    __rt_lib_init_lc_ctype_1                 0x08000289   Thumb Code     0  libinit2.o(.ARM.Collect$$libinit$$00000013)
    __rt_lib_init_lc_monetary_1              0x08000289   Thumb Code     0  libinit2.o(.ARM.Collect$$libinit$$00000015)
    __rt_lib_init_lc_numeric_2               0x08000289   Thumb Code     0  libinit2.o(.ARM.Collect$$libinit$$00000016)
    __rt_lib_init_alloca_1                   0x08000293   Thumb Code     0  libinit2.o(.ARM.Collect$$libinit$$0000002E)
    __rt_lib_init_argv_1                     0x08000293   Thumb Code     0  libinit2.o(.ARM.Collect$$libinit$$0000002C)
    __rt_lib_init_atexit_1                   0x08000293   Thumb Code     0  libinit2.o(.ARM.Collect$$libinit$$0000001B)
    __rt_lib_init_clock_1                    0x08000293   Thumb Code     0  libinit2.o(.ARM.Collect$$libinit$$00000021)
    __rt_lib_init_cpp_1                      0x08000293   Thumb Code     0  libinit2.o(.ARM.Collect$$libinit$$00000032)
    __rt_lib_init_exceptions_1               0x08000293   Thumb Code     0  libinit2.o(.ARM.Collect$$libinit$$00000030)
    __rt_lib_init_fp_trap_1                  0x08000293   Thumb Code     0  libinit2.o(.ARM.Collect$$libinit$$0000001F)
    __rt_lib_init_getenv_1                   0x08000293   Thumb Code     0  libinit2.o(.ARM.Collect$$libinit$$00000023)
    __rt_lib_init_lc_numeric_1               0x08000293   Thumb Code     0  libinit2.o(.ARM.Collect$$libinit$$00000017)
    __rt_lib_init_lc_time_1                  0x08000293   Thumb Code     0  libinit2.o(.ARM.Collect$$libinit$$00000019)
    __rt_lib_init_return                     0x08000293   Thumb Code     0  libinit2.o(.ARM.Collect$$libinit$$00000033)
    __rt_lib_init_signal_1                   0x08000293   Thumb Code     0  libinit2.o(.ARM.Collect$$libinit$$0000001D)
    __rt_lib_init_stdio_1                    0x08000293   Thumb Code     0  libinit2.o(.ARM.Collect$$libinit$$00000025)
    __rt_lib_shutdown                        0x08000295   Thumb Code     0  libshutdown.o(.ARM.Collect$$libshutdown$$00000000)
    __rt_lib_shutdown_fp_trap_1              0x08000297   Thumb Code     0  libshutdown2.o(.ARM.Collect$$libshutdown$$00000006)
    __rt_lib_shutdown_heap_1                 0x08000297   Thumb Code     0  libshutdown2.o(.ARM.Collect$$libshutdown$$0000000E)
    __rt_lib_shutdown_return                 0x08000297   Thumb Code     0  libshutdown2.o(.ARM.Collect$$libshutdown$$0000000F)
    __rt_lib_shutdown_signal_1               0x08000297   Thumb Code     0  libshutdown2.o(.ARM.Collect$$libshutdown$$00000009)
    __rt_lib_shutdown_stdio_1                0x08000297   Thumb Code     0  libshutdown2.o(.ARM.Collect$$libshutdown$$00000003)
    __rt_lib_shutdown_user_alloc_1           0x08000297   Thumb Code     0  libshutdown2.o(.ARM.Collect$$libshutdown$$0000000B)
    __rt_entry                               0x08000299   Thumb Code     0  __rtentry.o(.ARM.Collect$$rtentry$$00000000)
    __rt_entry_presh_1                       0x08000299   Thumb Code     0  __rtentry2.o(.ARM.Collect$$rtentry$$00000002)
    __rt_entry_sh                            0x08000299   Thumb Code     0  __rtentry4.o(.ARM.Collect$$rtentry$$00000004)
    __rt_entry_li                            0x0800029f   Thumb Code     0  __rtentry2.o(.ARM.Collect$$rtentry$$0000000A)
    __rt_entry_postsh_1                      0x0800029f   Thumb Code     0  __rtentry2.o(.ARM.Collect$$rtentry$$00000009)
    __rt_entry_main                          0x080002a3   Thumb Code     0  __rtentry2.o(.ARM.Collect$$rtentry$$0000000D)
    __rt_entry_postli_1                      0x080002a3   Thumb Code     0  __rtentry2.o(.ARM.Collect$$rtentry$$0000000C)
    __rt_exit                                0x080002ab   Thumb Code     0  rtexit.o(.ARM.Collect$$rtexit$$00000000)
    __rt_exit_ls                             0x080002ad   Thumb Code     0  rtexit2.o(.ARM.Collect$$rtexit$$00000003)
    __rt_exit_prels_1                        0x080002ad   Thumb Code     0  rtexit2.o(.ARM.Collect$$rtexit$$00000002)
    __rt_exit_exit                           0x080002b1   Thumb Code     0  rtexit2.o(.ARM.Collect$$rtexit$$00000004)
    ble_task                                 0x080002b9   Thumb Code    12  main.o(.text)
    DS18B20_task                             0x080002c5   Thumb Code   112  main.o(.text)
    led0_task                                0x08000335   Thumb Code   582  main.o(.text)
    led_task                                 0x0800057b   Thumb Code    62  main.o(.text)
    esp8266_task                             0x080005b9   Thumb Code  1134  main.o(.text)
    start_task                               0x08000a27   Thumb Code   410  main.o(.text)
    main                                     0x08000bc1   Thumb Code   666  main.o(.text)
    NMI_Handler                              0x08000e5b   Thumb Code     2  stm32f10x_it.o(.text)
    HardFault_Handler                        0x08000e5d   Thumb Code     4  stm32f10x_it.o(.text)
    MemManage_Handler                        0x08000e61   Thumb Code     4  stm32f10x_it.o(.text)
    BusFault_Handler                         0x08000e65   Thumb Code     4  stm32f10x_it.o(.text)
    UsageFault_Handler                       0x08000e69   Thumb Code     4  stm32f10x_it.o(.text)
    SVC_Handler                              0x08000e6d   Thumb Code     2  stm32f10x_it.o(.text)
    DebugMon_Handler                         0x08000e6f   Thumb Code     2  stm32f10x_it.o(.text)
    SystemInit                               0x08000f4f   Thumb Code    78  system_stm32f10x.o(.text)
    SystemCoreClockUpdate                    0x08000f9d   Thumb Code   142  system_stm32f10x.o(.text)
    LED_Init                                 0x08001051   Thumb Code    72  led.o(.text)
    atk_8266_check_cmd                       0x080010a1   Thumb Code    44  esp8266.o(.text)
    atk_8266_send_cmd                        0x080010cd   Thumb Code   118  esp8266.o(.text)
    atk_8266_quit_trans                      0x08001143   Thumb Code   100  esp8266.o(.text)
    atk_8266_wifista_config                  0x080011a7   Thumb Code   188  esp8266.o(.text)
    atk_8266_consta_check                    0x08001263   Thumb Code    36  esp8266.o(.text)
    ESP_Send                                 0x08001287   Thumb Code    68  esp8266.o(.text)
    GPIOB_Init                               0x08001399   Thumb Code    76  max7219.o(.text)
    SendByte                                 0x080013e5   Thumb Code    64  max7219.o(.text)
    Write_Max7219                            0x08001425   Thumb Code   118  max7219.o(.text)
    Init_MAX7219                             0x0800149b   Thumb Code   126  max7219.o(.text)
    Set_MAX7219_REG_INTENSITY                0x08001519   Thumb Code   122  max7219.o(.text)
    find3char                                0x08001593   Thumb Code    32  max7219.o(.text)
    find1char                                0x080015b3   Thumb Code    32  max7219.o(.text)
    find2char                                0x080015d3   Thumb Code    32  max7219.o(.text)
    find4char                                0x080015f3   Thumb Code    32  max7219.o(.text)
    find5char                                0x08001613   Thumb Code    32  max7219.o(.text)
    find8char                                0x08001633   Thumb Code    32  max7219.o(.text)
    Write_Max7219_Time                       0x08001653   Thumb Code   580  max7219.o(.text)
    Clear                                    0x08001897   Thumb Code    26  max7219.o(.text)
    localtime                                0x080018b1   Thumb Code   206  timestamp.o(.text)
    isleap                                   0x0800197f   Thumb Code    52  timestamp.o(.text)
    mktime                                   0x080019b3   Thumb Code   140  timestamp.o(.text)
    GET_ID                                   0x08001a4d   Thumb Code   172  common.o(.text)
    split                                    0x08001af9   Thumb Code    82  common.o(.text)
    Delay_us                                 0x08001b85   Thumb Code    26  ds18b20.o(.text)
    DS18B20_Rst                              0x08001b9f   Thumb Code    54  ds18b20.o(.text)
    DS18B20_Check                            0x08001bd5   Thumb Code    96  ds18b20.o(.text)
    DS18B20_Read_Bit                         0x08001c35   Thumb Code    96  ds18b20.o(.text)
    DS18B20_Read_Byte                        0x08001c95   Thumb Code    34  ds18b20.o(.text)
    DS18B20_Write_Byte                       0x08001cb7   Thumb Code   100  ds18b20.o(.text)
    DS18B20_Start                            0x08001d1b   Thumb Code    24  ds18b20.o(.text)
    DS18B20_Init                             0x08001d33   Thumb Code    54  ds18b20.o(.text)
    DS18B20_Get_Temp                         0x08001d69   Thumb Code   136  ds18b20.o(.text)
    Ble_IoInit                               0x08001e01   Thumb Code    86  ble_app.o(.text)
    Ble_SetInit                              0x08001e57   Thumb Code   452  ble_app.o(.text)
    Ble_SendData                             0x0800201b   Thumb Code    46  ble_app.o(.text)
    Ble_ReceData                             0x08002049   Thumb Code    92  ble_app.o(.text)
    Ble_Process                              0x080020a5   Thumb Code   108  ble_app.o(.text)
    Ble_Init                                 0x08002111   Thumb Code    18  ble_app.o(.text)
    ble_check_cmd                            0x080023c1   Thumb Code    44  ble_uart.o(.text)
    ble_send_cmd                             0x080023ed   Thumb Code   110  ble_uart.o(.text)
    delay_osschedlock                        0x08002475   Thumb Code    10  delay.o(.text)
    delay_osschedunlock                      0x0800247f   Thumb Code    10  delay.o(.text)
    delay_ostimedly                          0x08002489   Thumb Code    16  delay.o(.text)
    SysTick_Handler                          0x08002499   Thumb Code    24  delay.o(.text)
    delay_init                               0x080024b1   Thumb Code    92  delay.o(.text)
    delay_us                                 0x0800250d   Thumb Code    86  delay.o(.text)
    delay_ms                                 0x08002563   Thumb Code    66  delay.o(.text)
    _sys_exit                                0x080025c1   Thumb Code     6  usart.o(.text)
    fputc                                    0x080025c7   Thumb Code    24  usart.o(.text)
    uart_init                                0x080025df   Thumb Code   158  usart.o(.text)
    USART1_IRQHandler                        0x0800267d   Thumb Code   130  usart.o(.text)
    TIM4_Set                                 0x08002711   Thumb Code    34  usart2.o(.text)
    USART2_IRQHandler                        0x08002733   Thumb Code    84  usart2.o(.text)
    TIM4_Init                                0x08002787   Thumb Code    82  usart2.o(.text)
    UART_DMA_Config                          0x080027d9   Thumb Code    72  usart2.o(.text)
    USART2_Init                              0x08002821   Thumb Code   206  usart2.o(.text)
    UART_DMA_Enable                          0x080028ef   Thumb Code    32  usart2.o(.text)
    u2_printf                                0x0800290f   Thumb Code    56  usart2.o(.text)
    TIM4_IRQHandler                          0x08002947   Thumb Code    40  usart2.o(.text)
    TIM5_Set                                 0x0800298d   Thumb Code    34  usart3.o(.text)
    USART3_IRQHandler                        0x080029af   Thumb Code    84  usart3.o(.text)
    TIM5_Init                                0x08002a03   Thumb Code    82  usart3.o(.text)
    UART_DMA_Config3                         0x08002a55   Thumb Code    72  usart3.o(.text)
    USART3_Init                              0x08002a9d   Thumb Code   206  usart3.o(.text)
    UART_DMA_Enable3                         0x08002b6b   Thumb Code    32  usart3.o(.text)
    u3_printf                                0x08002b8b   Thumb Code    56  usart3.o(.text)
    TIM5_IRQHandler                          0x08002bc3   Thumb Code    40  usart3.o(.text)
    Reset_Handler                            0x08002c09   Thumb Code     8  startup_stm32f10x_hd.o(.text)
    ADC1_2_IRQHandler                        0x08002c23   Thumb Code     0  startup_stm32f10x_hd.o(.text)
    ADC3_IRQHandler                          0x08002c23   Thumb Code     0  startup_stm32f10x_hd.o(.text)
    CAN1_RX1_IRQHandler                      0x08002c23   Thumb Code     0  startup_stm32f10x_hd.o(.text)
    CAN1_SCE_IRQHandler                      0x08002c23   Thumb Code     0  startup_stm32f10x_hd.o(.text)
    DMA1_Channel1_IRQHandler                 0x08002c23   Thumb Code     0  startup_stm32f10x_hd.o(.text)
    DMA1_Channel2_IRQHandler                 0x08002c23   Thumb Code     0  startup_stm32f10x_hd.o(.text)
    DMA1_Channel3_IRQHandler                 0x08002c23   Thumb Code     0  startup_stm32f10x_hd.o(.text)
    DMA1_Channel4_IRQHandler                 0x08002c23   Thumb Code     0  startup_stm32f10x_hd.o(.text)
    DMA1_Channel5_IRQHandler                 0x08002c23   Thumb Code     0  startup_stm32f10x_hd.o(.text)
    DMA1_Channel6_IRQHandler                 0x08002c23   Thumb Code     0  startup_stm32f10x_hd.o(.text)
    DMA1_Channel7_IRQHandler                 0x08002c23   Thumb Code     0  startup_stm32f10x_hd.o(.text)
    DMA2_Channel1_IRQHandler                 0x08002c23   Thumb Code     0  startup_stm32f10x_hd.o(.text)
    DMA2_Channel2_IRQHandler                 0x08002c23   Thumb Code     0  startup_stm32f10x_hd.o(.text)
    DMA2_Channel3_IRQHandler                 0x08002c23   Thumb Code     0  startup_stm32f10x_hd.o(.text)
    DMA2_Channel4_5_IRQHandler               0x08002c23   Thumb Code     0  startup_stm32f10x_hd.o(.text)
    EXTI0_IRQHandler                         0x08002c23   Thumb Code     0  startup_stm32f10x_hd.o(.text)
    EXTI15_10_IRQHandler                     0x08002c23   Thumb Code     0  startup_stm32f10x_hd.o(.text)
    EXTI1_IRQHandler                         0x08002c23   Thumb Code     0  startup_stm32f10x_hd.o(.text)
    EXTI2_IRQHandler                         0x08002c23   Thumb Code     0  startup_stm32f10x_hd.o(.text)
    EXTI3_IRQHandler                         0x08002c23   Thumb Code     0  startup_stm32f10x_hd.o(.text)
    EXTI4_IRQHandler                         0x08002c23   Thumb Code     0  startup_stm32f10x_hd.o(.text)
    EXTI9_5_IRQHandler                       0x08002c23   Thumb Code     0  startup_stm32f10x_hd.o(.text)
    FLASH_IRQHandler                         0x08002c23   Thumb Code     0  startup_stm32f10x_hd.o(.text)
    FSMC_IRQHandler                          0x08002c23   Thumb Code     0  startup_stm32f10x_hd.o(.text)
    I2C1_ER_IRQHandler                       0x08002c23   Thumb Code     0  startup_stm32f10x_hd.o(.text)
    I2C1_EV_IRQHandler                       0x08002c23   Thumb Code     0  startup_stm32f10x_hd.o(.text)
    I2C2_ER_IRQHandler                       0x08002c23   Thumb Code     0  startup_stm32f10x_hd.o(.text)
    I2C2_EV_IRQHandler                       0x08002c23   Thumb Code     0  startup_stm32f10x_hd.o(.text)
    PVD_IRQHandler                           0x08002c23   Thumb Code     0  startup_stm32f10x_hd.o(.text)
    RCC_IRQHandler                           0x08002c23   Thumb Code     0  startup_stm32f10x_hd.o(.text)
    RTCAlarm_IRQHandler                      0x08002c23   Thumb Code     0  startup_stm32f10x_hd.o(.text)
    RTC_IRQHandler                           0x08002c23   Thumb Code     0  startup_stm32f10x_hd.o(.text)
    SDIO_IRQHandler                          0x08002c23   Thumb Code     0  startup_stm32f10x_hd.o(.text)
    SPI1_IRQHandler                          0x08002c23   Thumb Code     0  startup_stm32f10x_hd.o(.text)
    SPI2_IRQHandler                          0x08002c23   Thumb Code     0  startup_stm32f10x_hd.o(.text)
    SPI3_IRQHandler                          0x08002c23   Thumb Code     0  startup_stm32f10x_hd.o(.text)
    TAMPER_IRQHandler                        0x08002c23   Thumb Code     0  startup_stm32f10x_hd.o(.text)
    TIM1_BRK_IRQHandler                      0x08002c23   Thumb Code     0  startup_stm32f10x_hd.o(.text)
    TIM1_CC_IRQHandler                       0x08002c23   Thumb Code     0  startup_stm32f10x_hd.o(.text)
    TIM1_TRG_COM_IRQHandler                  0x08002c23   Thumb Code     0  startup_stm32f10x_hd.o(.text)
    TIM1_UP_IRQHandler                       0x08002c23   Thumb Code     0  startup_stm32f10x_hd.o(.text)
    TIM2_IRQHandler                          0x08002c23   Thumb Code     0  startup_stm32f10x_hd.o(.text)
    TIM3_IRQHandler                          0x08002c23   Thumb Code     0  startup_stm32f10x_hd.o(.text)
    TIM6_IRQHandler                          0x08002c23   Thumb Code     0  startup_stm32f10x_hd.o(.text)
    TIM7_IRQHandler                          0x08002c23   Thumb Code     0  startup_stm32f10x_hd.o(.text)
    TIM8_BRK_IRQHandler                      0x08002c23   Thumb Code     0  startup_stm32f10x_hd.o(.text)
    TIM8_CC_IRQHandler                       0x08002c23   Thumb Code     0  startup_stm32f10x_hd.o(.text)
    TIM8_TRG_COM_IRQHandler                  0x08002c23   Thumb Code     0  startup_stm32f10x_hd.o(.text)
    TIM8_UP_IRQHandler                       0x08002c23   Thumb Code     0  startup_stm32f10x_hd.o(.text)
    UART4_IRQHandler                         0x08002c23   Thumb Code     0  startup_stm32f10x_hd.o(.text)
    UART5_IRQHandler                         0x08002c23   Thumb Code     0  startup_stm32f10x_hd.o(.text)
    USBWakeUp_IRQHandler                     0x08002c23   Thumb Code     0  startup_stm32f10x_hd.o(.text)
    USB_HP_CAN1_TX_IRQHandler                0x08002c23   Thumb Code     0  startup_stm32f10x_hd.o(.text)
    USB_LP_CAN1_RX0_IRQHandler               0x08002c23   Thumb Code     0  startup_stm32f10x_hd.o(.text)
    WWDG_IRQHandler                          0x08002c23   Thumb Code     0  startup_stm32f10x_hd.o(.text)
    __user_initial_stackheap                 0x08002c25   Thumb Code     0  startup_stm32f10x_hd.o(.text)
    NVIC_PriorityGroupConfig                 0x08002c49   Thumb Code    10  misc.o(.text)
    NVIC_Init                                0x08002c53   Thumb Code   100  misc.o(.text)
    NVIC_SetVectorTable                      0x08002cb7   Thumb Code    14  misc.o(.text)
    NVIC_SystemLPConfig                      0x08002cc5   Thumb Code    34  misc.o(.text)
    SysTick_CLKSourceConfig                  0x08002ce7   Thumb Code    40  misc.o(.text)
    GPIO_DeInit                              0x08002d25   Thumb Code   172  stm32f10x_gpio.o(.text)
    GPIO_AFIODeInit                          0x08002dd1   Thumb Code    20  stm32f10x_gpio.o(.text)
    GPIO_Init                                0x08002de5   Thumb Code   278  stm32f10x_gpio.o(.text)
    GPIO_StructInit                          0x08002efb   Thumb Code    16  stm32f10x_gpio.o(.text)
    GPIO_ReadInputDataBit                    0x08002f0b   Thumb Code    18  stm32f10x_gpio.o(.text)
    GPIO_ReadInputData                       0x08002f1d   Thumb Code     8  stm32f10x_gpio.o(.text)
    GPIO_ReadOutputDataBit                   0x08002f25   Thumb Code    18  stm32f10x_gpio.o(.text)
    GPIO_ReadOutputData                      0x08002f37   Thumb Code     8  stm32f10x_gpio.o(.text)
    GPIO_SetBits                             0x08002f3f   Thumb Code     4  stm32f10x_gpio.o(.text)
    GPIO_ResetBits                           0x08002f43   Thumb Code     4  stm32f10x_gpio.o(.text)
    GPIO_WriteBit                            0x08002f47   Thumb Code    10  stm32f10x_gpio.o(.text)
    GPIO_Write                               0x08002f51   Thumb Code     4  stm32f10x_gpio.o(.text)
    GPIO_PinLockConfig                       0x08002f55   Thumb Code    18  stm32f10x_gpio.o(.text)
    GPIO_EventOutputConfig                   0x08002f67   Thumb Code    26  stm32f10x_gpio.o(.text)
    GPIO_EventOutputCmd                      0x08002f81   Thumb Code     6  stm32f10x_gpio.o(.text)
    GPIO_PinRemapConfig                      0x08002f87   Thumb Code   138  stm32f10x_gpio.o(.text)
    GPIO_EXTILineConfig                      0x08003011   Thumb Code    66  stm32f10x_gpio.o(.text)
    GPIO_ETH_MediaInterfaceConfig            0x08003053   Thumb Code     8  stm32f10x_gpio.o(.text)
    USART_DeInit                             0x08003081   Thumb Code   134  stm32f10x_usart.o(.text)
    USART_Init                               0x08003107   Thumb Code   210  stm32f10x_usart.o(.text)
    USART_StructInit                         0x080031d9   Thumb Code    24  stm32f10x_usart.o(.text)
    USART_ClockInit                          0x080031f1   Thumb Code    34  stm32f10x_usart.o(.text)
    USART_ClockStructInit                    0x08003213   Thumb Code    12  stm32f10x_usart.o(.text)
    USART_Cmd                                0x0800321f   Thumb Code    24  stm32f10x_usart.o(.text)
    USART_ITConfig                           0x08003237   Thumb Code    74  stm32f10x_usart.o(.text)
    USART_DMACmd                             0x08003281   Thumb Code    18  stm32f10x_usart.o(.text)
    USART_SetAddress                         0x08003293   Thumb Code    18  stm32f10x_usart.o(.text)
    USART_WakeUpConfig                       0x080032a5   Thumb Code    18  stm32f10x_usart.o(.text)
    USART_ReceiverWakeUpCmd                  0x080032b7   Thumb Code    24  stm32f10x_usart.o(.text)
    USART_LINBreakDetectLengthConfig         0x080032cf   Thumb Code    18  stm32f10x_usart.o(.text)
    USART_LINCmd                             0x080032e1   Thumb Code    24  stm32f10x_usart.o(.text)
    USART_SendData                           0x080032f9   Thumb Code     8  stm32f10x_usart.o(.text)
    USART_ReceiveData                        0x08003301   Thumb Code    10  stm32f10x_usart.o(.text)
    USART_SendBreak                          0x0800330b   Thumb Code    10  stm32f10x_usart.o(.text)
    USART_SetGuardTime                       0x08003315   Thumb Code    16  stm32f10x_usart.o(.text)
    USART_SetPrescaler                       0x08003325   Thumb Code    16  stm32f10x_usart.o(.text)
    USART_SmartCardCmd                       0x08003335   Thumb Code    24  stm32f10x_usart.o(.text)
    USART_SmartCardNACKCmd                   0x0800334d   Thumb Code    24  stm32f10x_usart.o(.text)
    USART_HalfDuplexCmd                      0x08003365   Thumb Code    24  stm32f10x_usart.o(.text)
    USART_OverSampling8Cmd                   0x0800337d   Thumb Code    22  stm32f10x_usart.o(.text)
    USART_OneBitMethodCmd                    0x08003393   Thumb Code    24  stm32f10x_usart.o(.text)
    USART_IrDAConfig                         0x080033ab   Thumb Code    18  stm32f10x_usart.o(.text)
    USART_IrDACmd                            0x080033bd   Thumb Code    24  stm32f10x_usart.o(.text)
    USART_GetFlagStatus                      0x080033d5   Thumb Code    26  stm32f10x_usart.o(.text)
    USART_ClearFlag                          0x080033ef   Thumb Code    18  stm32f10x_usart.o(.text)
    USART_GetITStatus                        0x08003401   Thumb Code    84  stm32f10x_usart.o(.text)
    USART_ClearITPendingBit                  0x08003455   Thumb Code    52  stm32f10x_usart.o(.text)
    RCC_DeInit                               0x08003489   Thumb Code    64  stm32f10x_rcc.o(.text)
    RCC_HSEConfig                            0x080034c9   Thumb Code    70  stm32f10x_rcc.o(.text)
    RCC_GetFlagStatus                        0x0800350f   Thumb Code    56  stm32f10x_rcc.o(.text)
    RCC_WaitForHSEStartUp                    0x08003547   Thumb Code    56  stm32f10x_rcc.o(.text)
    RCC_AdjustHSICalibrationValue            0x0800357f   Thumb Code    20  stm32f10x_rcc.o(.text)
    RCC_HSICmd                               0x08003593   Thumb Code     6  stm32f10x_rcc.o(.text)
    RCC_PLLConfig                            0x08003599   Thumb Code    24  stm32f10x_rcc.o(.text)
    RCC_PLLCmd                               0x080035b1   Thumb Code     6  stm32f10x_rcc.o(.text)
    RCC_SYSCLKConfig                         0x080035b7   Thumb Code    18  stm32f10x_rcc.o(.text)
    RCC_GetSYSCLKSource                      0x080035c9   Thumb Code    10  stm32f10x_rcc.o(.text)
    RCC_HCLKConfig                           0x080035d3   Thumb Code    18  stm32f10x_rcc.o(.text)
    RCC_PCLK1Config                          0x080035e5   Thumb Code    18  stm32f10x_rcc.o(.text)
    RCC_PCLK2Config                          0x080035f7   Thumb Code    20  stm32f10x_rcc.o(.text)
    RCC_ITConfig                             0x0800360b   Thumb Code    26  stm32f10x_rcc.o(.text)
    RCC_USBCLKConfig                         0x08003625   Thumb Code     8  stm32f10x_rcc.o(.text)
    RCC_ADCCLKConfig                         0x0800362d   Thumb Code    18  stm32f10x_rcc.o(.text)
    RCC_LSEConfig                            0x0800363f   Thumb Code    50  stm32f10x_rcc.o(.text)
    RCC_LSICmd                               0x08003671   Thumb Code     6  stm32f10x_rcc.o(.text)
    RCC_RTCCLKConfig                         0x08003677   Thumb Code    12  stm32f10x_rcc.o(.text)
    RCC_RTCCLKCmd                            0x08003683   Thumb Code     8  stm32f10x_rcc.o(.text)
    RCC_GetClocksFreq                        0x0800368b   Thumb Code   192  stm32f10x_rcc.o(.text)
    RCC_AHBPeriphClockCmd                    0x0800374b   Thumb Code    26  stm32f10x_rcc.o(.text)
    RCC_APB2PeriphClockCmd                   0x08003765   Thumb Code    26  stm32f10x_rcc.o(.text)
    RCC_APB1PeriphClockCmd                   0x0800377f   Thumb Code    26  stm32f10x_rcc.o(.text)
    RCC_APB2PeriphResetCmd                   0x08003799   Thumb Code    26  stm32f10x_rcc.o(.text)
    RCC_APB1PeriphResetCmd                   0x080037b3   Thumb Code    26  stm32f10x_rcc.o(.text)
    RCC_BackupResetCmd                       0x080037cd   Thumb Code     8  stm32f10x_rcc.o(.text)
    RCC_ClockSecuritySystemCmd               0x080037d5   Thumb Code     6  stm32f10x_rcc.o(.text)
    RCC_MCOConfig                            0x080037db   Thumb Code     6  stm32f10x_rcc.o(.text)
    RCC_ClearFlag                            0x080037e1   Thumb Code    14  stm32f10x_rcc.o(.text)
    RCC_GetITStatus                          0x080037ef   Thumb Code    20  stm32f10x_rcc.o(.text)
    RCC_ClearITPendingBit                    0x08003803   Thumb Code     6  stm32f10x_rcc.o(.text)
    DMA_DeInit                               0x0800382d   Thumb Code   324  stm32f10x_dma.o(.text)
    DMA_Init                                 0x08003971   Thumb Code    60  stm32f10x_dma.o(.text)
    DMA_StructInit                           0x080039ad   Thumb Code    26  stm32f10x_dma.o(.text)
    DMA_Cmd                                  0x080039c7   Thumb Code    24  stm32f10x_dma.o(.text)
    DMA_ITConfig                             0x080039df   Thumb Code    18  stm32f10x_dma.o(.text)
    DMA_SetCurrDataCounter                   0x080039f1   Thumb Code     4  stm32f10x_dma.o(.text)
    DMA_GetCurrDataCounter                   0x080039f5   Thumb Code     8  stm32f10x_dma.o(.text)
    DMA_GetFlagStatus                        0x080039fd   Thumb Code    40  stm32f10x_dma.o(.text)
    DMA_ClearFlag                            0x08003a25   Thumb Code    22  stm32f10x_dma.o(.text)
    DMA_GetITStatus                          0x08003a3b   Thumb Code    40  stm32f10x_dma.o(.text)
    DMA_ClearITPendingBit                    0x08003a63   Thumb Code    22  stm32f10x_dma.o(.text)
    TIM_DeInit                               0x08003a81   Thumb Code   424  stm32f10x_tim.o(.text)
    TIM_TimeBaseInit                         0x08003c29   Thumb Code   122  stm32f10x_tim.o(.text)
    TIM_OC1Init                              0x08003ca3   Thumb Code   132  stm32f10x_tim.o(.text)
    TIM_OC2Init                              0x08003d27   Thumb Code   154  stm32f10x_tim.o(.text)
    TIM_OC3Init                              0x08003dc1   Thumb Code   150  stm32f10x_tim.o(.text)
    TIM_OC4Init                              0x08003e57   Thumb Code   182  stm32f10x_tim.o(.text)
    TIM_SetIC4Prescaler                      0x08003f0d   Thumb Code    26  stm32f10x_tim.o(.text)
    TIM_SetIC3Prescaler                      0x08003fa9   Thumb Code    18  stm32f10x_tim.o(.text)
    TIM_SetIC2Prescaler                      0x08004035   Thumb Code    26  stm32f10x_tim.o(.text)
    TIM_SetIC1Prescaler                      0x080040d1   Thumb Code    18  stm32f10x_tim.o(.text)
    TIM_ICInit                               0x0800414f   Thumb Code   150  stm32f10x_tim.o(.text)
    TIM_PWMIConfig                           0x080041e5   Thumb Code   124  stm32f10x_tim.o(.text)
    TIM_BDTRConfig                           0x08004261   Thumb Code    32  stm32f10x_tim.o(.text)
    TIM_TimeBaseStructInit                   0x08004281   Thumb Code    18  stm32f10x_tim.o(.text)
    TIM_OCStructInit                         0x08004293   Thumb Code    20  stm32f10x_tim.o(.text)
    TIM_ICStructInit                         0x080042a7   Thumb Code    18  stm32f10x_tim.o(.text)
    TIM_BDTRStructInit                       0x080042b9   Thumb Code    40  stm32f10x_tim.o(.text)
    TIM_Cmd                                  0x080042e1   Thumb Code    24  stm32f10x_tim.o(.text)
    TIM_CtrlPWMOutputs                       0x080042f9   Thumb Code    30  stm32f10x_tim.o(.text)
    TIM_ITConfig                             0x08004317   Thumb Code    18  stm32f10x_tim.o(.text)
    TIM_GenerateEvent                        0x08004329   Thumb Code     4  stm32f10x_tim.o(.text)
    TIM_DMAConfig                            0x0800432d   Thumb Code    10  stm32f10x_tim.o(.text)
    TIM_DMACmd                               0x08004337   Thumb Code    18  stm32f10x_tim.o(.text)
    TIM_InternalClockConfig                  0x08004349   Thumb Code    12  stm32f10x_tim.o(.text)
    TIM_SelectInputTrigger                   0x08004355   Thumb Code    18  stm32f10x_tim.o(.text)
    TIM_ITRxExternalClockConfig              0x08004367   Thumb Code    24  stm32f10x_tim.o(.text)
    TIM_TIxExternalClockConfig               0x0800437f   Thumb Code    62  stm32f10x_tim.o(.text)
    TIM_ETRConfig                            0x080043bd   Thumb Code    28  stm32f10x_tim.o(.text)
    TIM_ETRClockMode1Config                  0x080043d9   Thumb Code    54  stm32f10x_tim.o(.text)
    TIM_ETRClockMode2Config                  0x0800440f   Thumb Code    32  stm32f10x_tim.o(.text)
    TIM_PrescalerConfig                      0x0800442f   Thumb Code     6  stm32f10x_tim.o(.text)
    TIM_CounterModeConfig                    0x08004435   Thumb Code    18  stm32f10x_tim.o(.text)
    TIM_EncoderInterfaceConfig               0x08004447   Thumb Code    66  stm32f10x_tim.o(.text)
    TIM_ForcedOC1Config                      0x08004489   Thumb Code    18  stm32f10x_tim.o(.text)
    TIM_ForcedOC2Config                      0x0800449b   Thumb Code    26  stm32f10x_tim.o(.text)
    TIM_ForcedOC3Config                      0x080044b5   Thumb Code    18  stm32f10x_tim.o(.text)
    TIM_ForcedOC4Config                      0x080044c7   Thumb Code    26  stm32f10x_tim.o(.text)
    TIM_ARRPreloadConfig                     0x080044e1   Thumb Code    24  stm32f10x_tim.o(.text)
    TIM_SelectCOM                            0x080044f9   Thumb Code    24  stm32f10x_tim.o(.text)
    TIM_SelectCCDMA                          0x08004511   Thumb Code    24  stm32f10x_tim.o(.text)
    TIM_CCPreloadControl                     0x08004529   Thumb Code    24  stm32f10x_tim.o(.text)
    TIM_OC1PreloadConfig                     0x08004541   Thumb Code    18  stm32f10x_tim.o(.text)
    TIM_OC2PreloadConfig                     0x08004553   Thumb Code    26  stm32f10x_tim.o(.text)
    TIM_OC3PreloadConfig                     0x0800456d   Thumb Code    18  stm32f10x_tim.o(.text)
    TIM_OC4PreloadConfig                     0x0800457f   Thumb Code    26  stm32f10x_tim.o(.text)
    TIM_OC1FastConfig                        0x08004599   Thumb Code    18  stm32f10x_tim.o(.text)
    TIM_OC2FastConfig                        0x080045ab   Thumb Code    26  stm32f10x_tim.o(.text)
    TIM_OC3FastConfig                        0x080045c5   Thumb Code    18  stm32f10x_tim.o(.text)
    TIM_OC4FastConfig                        0x080045d7   Thumb Code    26  stm32f10x_tim.o(.text)
    TIM_ClearOC1Ref                          0x080045f1   Thumb Code    18  stm32f10x_tim.o(.text)
    TIM_ClearOC2Ref                          0x08004603   Thumb Code    24  stm32f10x_tim.o(.text)
    TIM_ClearOC3Ref                          0x0800461b   Thumb Code    18  stm32f10x_tim.o(.text)
    TIM_ClearOC4Ref                          0x0800462d   Thumb Code    24  stm32f10x_tim.o(.text)
    TIM_OC1PolarityConfig                    0x08004645   Thumb Code    18  stm32f10x_tim.o(.text)
    TIM_OC1NPolarityConfig                   0x08004657   Thumb Code    18  stm32f10x_tim.o(.text)
    TIM_OC2PolarityConfig                    0x08004669   Thumb Code    26  stm32f10x_tim.o(.text)
    TIM_OC2NPolarityConfig                   0x08004683   Thumb Code    26  stm32f10x_tim.o(.text)
    TIM_OC3PolarityConfig                    0x0800469d   Thumb Code    26  stm32f10x_tim.o(.text)
    TIM_OC3NPolarityConfig                   0x080046b7   Thumb Code    26  stm32f10x_tim.o(.text)
    TIM_OC4PolarityConfig                    0x080046d1   Thumb Code    26  stm32f10x_tim.o(.text)
    TIM_CCxCmd                               0x080046eb   Thumb Code    30  stm32f10x_tim.o(.text)
    TIM_CCxNCmd                              0x08004709   Thumb Code    30  stm32f10x_tim.o(.text)
    TIM_SelectOCxM                           0x08004727   Thumb Code    82  stm32f10x_tim.o(.text)
    TIM_UpdateDisableConfig                  0x08004779   Thumb Code    24  stm32f10x_tim.o(.text)
    TIM_UpdateRequestConfig                  0x08004791   Thumb Code    24  stm32f10x_tim.o(.text)
    TIM_SelectHallSensor                     0x080047a9   Thumb Code    24  stm32f10x_tim.o(.text)
    TIM_SelectOnePulseMode                   0x080047c1   Thumb Code    18  stm32f10x_tim.o(.text)
    TIM_SelectOutputTrigger                  0x080047d3   Thumb Code    18  stm32f10x_tim.o(.text)
    TIM_SelectSlaveMode                      0x080047e5   Thumb Code    18  stm32f10x_tim.o(.text)
    TIM_SelectMasterSlaveMode                0x080047f7   Thumb Code    18  stm32f10x_tim.o(.text)
    TIM_SetCounter                           0x08004809   Thumb Code     4  stm32f10x_tim.o(.text)
    TIM_SetAutoreload                        0x0800480d   Thumb Code     4  stm32f10x_tim.o(.text)
    TIM_SetCompare1                          0x08004811   Thumb Code     4  stm32f10x_tim.o(.text)
    TIM_SetCompare2                          0x08004815   Thumb Code     4  stm32f10x_tim.o(.text)
    TIM_SetCompare3                          0x08004819   Thumb Code     4  stm32f10x_tim.o(.text)
    TIM_SetCompare4                          0x0800481d   Thumb Code     6  stm32f10x_tim.o(.text)
    TIM_SetClockDivision                     0x08004823   Thumb Code    18  stm32f10x_tim.o(.text)
    TIM_GetCapture1                          0x08004835   Thumb Code     6  stm32f10x_tim.o(.text)
    TIM_GetCapture2                          0x0800483b   Thumb Code     6  stm32f10x_tim.o(.text)
    TIM_GetCapture3                          0x08004841   Thumb Code     6  stm32f10x_tim.o(.text)
    TIM_GetCapture4                          0x08004847   Thumb Code     8  stm32f10x_tim.o(.text)
    TIM_GetCounter                           0x0800484f   Thumb Code     6  stm32f10x_tim.o(.text)
    TIM_GetPrescaler                         0x08004855   Thumb Code     6  stm32f10x_tim.o(.text)
    TIM_GetFlagStatus                        0x0800485b   Thumb Code    18  stm32f10x_tim.o(.text)
    TIM_ClearFlag                            0x0800486d   Thumb Code     6  stm32f10x_tim.o(.text)
    TIM_GetITStatus                          0x08004873   Thumb Code    34  stm32f10x_tim.o(.text)
    TIM_ClearITPendingBit                    0x08004895   Thumb Code     6  stm32f10x_tim.o(.text)
    BSP_CPU_ClkFreq                          0x0800489d   Thumb Code    16  bsp.o(.text)
    CPU_TS_TmrInit                           0x080048ad   Thumb Code    44  bsp.o(.text)
    CPU_TS_TmrRd                             0x080048d9   Thumb Code     6  bsp.o(.text)
    CPU_TS32_to_uSec                         0x080048df   Thumb Code    54  bsp.o(.text)
    CPU_NameClr                              0x08004921   Thumb Code    42  cpu_core.o(.text)
    CPU_Init                                 0x08004961   Thumb Code    12  cpu_core.o(.text)
    CPU_SW_Exception                         0x0800496d   Thumb Code     4  cpu_core.o(.text)
    CPU_NameGet                              0x08004971   Thumb Code    70  cpu_core.o(.text)
    CPU_NameSet                              0x080049b7   Thumb Code    96  cpu_core.o(.text)
    CPU_TS_Get32                             0x08004a17   Thumb Code    12  cpu_core.o(.text)
    CPU_TS_Update                            0x08004a23   Thumb Code     2  cpu_core.o(.text)
    CPU_TS_TmrFreqGet                        0x08004a25   Thumb Code    30  cpu_core.o(.text)
    CPU_TS_TmrFreqSet                        0x08004a43   Thumb Code     6  cpu_core.o(.text)
    CPU_CntLeadZeros08                       0x08004a49   Thumb Code    18  cpu_core.o(.text)
    CPU_CntLeadZeros16                       0x08004a5b   Thumb Code    18  cpu_core.o(.text)
    CPU_CntLeadZeros32                       0x08004a6d   Thumb Code    18  cpu_core.o(.text)
    CPU_CntLeadZeros64                       0x08004a7f   Thumb Code   188  cpu_core.o(.text)
    CPU_CntTrailZeros08                      0x08004b3b   Thumb Code    22  cpu_core.o(.text)
    CPU_CntTrailZeros16                      0x08004b51   Thumb Code    22  cpu_core.o(.text)
    CPU_CntTrailZeros32                      0x08004b67   Thumb Code    22  cpu_core.o(.text)
    CPU_CntTrailZeros64                      0x08004b7d   Thumb Code    62  cpu_core.o(.text)
    CPU_IntDis                               0x08004bc9   Thumb Code     0  cpu_a.o(.text)
    CPU_IntEn                                0x08004bcd   Thumb Code     0  cpu_a.o(.text)
    CPU_SR_Save                              0x08004bd1   Thumb Code     0  cpu_a.o(.text)
    CPU_SR_Restore                           0x08004bd9   Thumb Code     0  cpu_a.o(.text)
    CPU_WaitForInt                           0x08004bdf   Thumb Code     0  cpu_a.o(.text)
    CPU_WaitForExcept                        0x08004be3   Thumb Code     0  cpu_a.o(.text)
    CPU_CntLeadZeros                         0x08004be7   Thumb Code     0  cpu_a.o(.text)
    CPU_CntTrailZeros                        0x08004bed   Thumb Code     0  cpu_a.o(.text)
    CPU_RevBits                              0x08004bf7   Thumb Code     0  cpu_a.o(.text)
    ASCII_IsAlpha                            0x08004bfd   Thumb Code    48  lib_ascii.o(.text)
    ASCII_IsAlphaNum                         0x08004c2d   Thumb Code    76  lib_ascii.o(.text)
    ASCII_IsLower                            0x08004c79   Thumb Code    20  lib_ascii.o(.text)
    ASCII_IsUpper                            0x08004c8d   Thumb Code    20  lib_ascii.o(.text)
    ASCII_IsDig                              0x08004ca1   Thumb Code    20  lib_ascii.o(.text)
    ASCII_IsDigOct                           0x08004cb5   Thumb Code    20  lib_ascii.o(.text)
    ASCII_IsDigHex                           0x08004cc9   Thumb Code    36  lib_ascii.o(.text)
    ASCII_IsBlank                            0x08004ced   Thumb Code    20  lib_ascii.o(.text)
    ASCII_IsSpace                            0x08004d01   Thumb Code    36  lib_ascii.o(.text)
    ASCII_IsPrint                            0x08004d25   Thumb Code    20  lib_ascii.o(.text)
    ASCII_IsGraph                            0x08004d39   Thumb Code    20  lib_ascii.o(.text)
    ASCII_IsPunct                            0x08004d4d   Thumb Code   134  lib_ascii.o(.text)
    ASCII_IsCtrl                             0x08004dd3   Thumb Code    26  lib_ascii.o(.text)
    ASCII_ToLower                            0x08004ded   Thumb Code    32  lib_ascii.o(.text)
    ASCII_ToUpper                            0x08004e0d   Thumb Code    32  lib_ascii.o(.text)
    ASCII_Cmp                                0x08004e2d   Thumb Code    38  lib_ascii.o(.text)
    Mem_Init                                 0x08004e55   Thumb Code    54  lib_mem.o(.text)
    Mem_Set                                  0x08004e8b   Thumb Code    84  lib_mem.o(.text)
    Mem_Clr                                  0x08004edf   Thumb Code    18  lib_mem.o(.text)
    Mem_Move                                 0x08004ef1   Thumb Code   186  lib_mem.o(.text)
    Mem_Cmp                                  0x08004fab   Thumb Code   192  lib_mem.o(.text)
    Mem_HeapAlloc                            0x080050e3   Thumb Code   168  lib_mem.o(.text)
    Mem_SegGetSizeRem                        0x0800518b   Thumb Code   108  lib_mem.o(.text)
    Mem_HeapGetSizeRem                       0x080051f7   Thumb Code    22  lib_mem.o(.text)
    Mem_PoolClr                              0x0800520d   Thumb Code    80  lib_mem.o(.text)
    Mem_PoolCreate                           0x0800525d   Thumb Code   838  lib_mem.o(.text)
    Mem_PoolBlkGetNbrAvail                   0x080055a3   Thumb Code    52  lib_mem.o(.text)
    Mem_PoolBlkGet                           0x080055d7   Thumb Code   126  lib_mem.o(.text)
    Mem_PoolBlkGetUsedAtIx                   0x08005655   Thumb Code   140  lib_mem.o(.text)
    Mem_PoolBlkFree                          0x080056e1   Thumb Code   152  lib_mem.o(.text)
    Mem_PoolBlkIxGet                         0x08005779   Thumb Code   162  lib_mem.o(.text)
    Str_Len_N                                0x0800581d   Thumb Code    28  lib_str.o(.text)
    Str_Len                                  0x08005839   Thumb Code    20  lib_str.o(.text)
    Str_Copy_N                               0x0800584d   Thumb Code    70  lib_str.o(.text)
    Str_Copy                                 0x08005893   Thumb Code    24  lib_str.o(.text)
    Str_Cat_N                                0x080058ab   Thumb Code    90  lib_str.o(.text)
    Str_Cat                                  0x08005905   Thumb Code    24  lib_str.o(.text)
    Str_Cmp_N                                0x0800591d   Thumb Code   156  lib_str.o(.text)
    Str_Cmp                                  0x080059b9   Thumb Code    24  lib_str.o(.text)
    Str_CmpIgnoreCase_N                      0x080059d1   Thumb Code   264  lib_str.o(.text)
    Str_CmpIgnoreCase                        0x08005ad9   Thumb Code    24  lib_str.o(.text)
    Str_Char_N                               0x08005af1   Thumb Code    74  lib_str.o(.text)
    Str_Char                                 0x08005b3b   Thumb Code    24  lib_str.o(.text)
    Str_Char_Last_N                          0x08005b53   Thumb Code    76  lib_str.o(.text)
    Str_Char_Last                            0x08005b9f   Thumb Code    24  lib_str.o(.text)
    Str_Char_Replace_N                       0x08005bb7   Thumb Code    52  lib_str.o(.text)
    Str_Char_Replace                         0x08005beb   Thumb Code    28  lib_str.o(.text)
    Str_Str_N                                0x08005c07   Thumb Code   182  lib_str.o(.text)
    Str_Str                                  0x08005cbd   Thumb Code    24  lib_str.o(.text)
    Str_FmtNbr_Int32U                        0x08005eb1   Thumb Code    46  lib_str.o(.text)
    Str_FmtNbr_Int32S                        0x08005edf   Thumb Code    62  lib_str.o(.text)
    Str_ParseNbr_Int32U                      0x080060db   Thumb Code    30  lib_str.o(.text)
    Str_ParseNbr_Int32S                      0x080060f9   Thumb Code    74  lib_str.o(.text)
    Mem_Copy                                 0x08006149   Thumb Code     0  lib_mem_a.o(.text)
    OSCfg_Init                               0x08006369   Thumb Code    86  os_cfg_app.o(.text)
    OS_IdleTask                              0x08006465   Thumb Code    60  os_core.o(.text)
    OS_IdleTaskInit                          0x080064a1   Thumb Code    68  os_core.o(.text)
    OS_RdyListInit                           0x080064e5   Thumb Code    32  os_core.o(.text)
    OSInit                                   0x08006505   Thumb Code   300  os_core.o(.text)
    OSIntEnter                               0x08006631   Thumb Code    34  os_core.o(.text)
    OSIntExit                                0x08006653   Thumb Code   188  os_core.o(.text)
    OSSched                                  0x0800670f   Thumb Code   130  os_core.o(.text)
    OS_SchedLockTimeMeasStart                0x08006791   Thumb Code    20  os_core.o(.text)
    OSSchedLock                              0x080067a5   Thumb Code   104  os_core.o(.text)
    OS_SchedLockTimeMeasStop                 0x0800680d   Thumb Code    44  os_core.o(.text)
    OSSchedUnlock                            0x08006839   Thumb Code   286  os_core.o(.text)
    OSSchedRoundRobinCfg                     0x08006957   Thumb Code    88  os_core.o(.text)
    OS_RdyListMoveHeadToTail                 0x080069af   Thumb Code    68  os_core.o(.text)
    OSSchedRoundRobinYield                   0x080069f3   Thumb Code   164  os_core.o(.text)
    OSStart                                  0x08006a97   Thumb Code    78  os_core.o(.text)
    OSVersion                                0x08006ae5   Thumb Code    12  os_core.o(.text)
    OS_PendDbgNameAdd                        0x08006af1   Thumb Code    66  os_core.o(.text)
    OS_PendListInsertPrio                    0x08006b33   Thumb Code   102  os_core.o(.text)
    OS_PendDataInit                          0x08006b99   Thumb Code    38  os_core.o(.text)
    OS_RdyListRemove                         0x08006bbf   Thumb Code    86  os_core.o(.text)
    OS_TaskBlock                             0x08006c15   Thumb Code    56  os_core.o(.text)
    OS_Pend                                  0x08006c4d   Thumb Code    98  os_core.o(.text)
    OS_PendListRemove1                       0x08006caf   Thumb Code   136  os_core.o(.text)
    OS_PendListRemove                        0x08006d37   Thumb Code    48  os_core.o(.text)
    OS_PendAbort1                            0x08006d67   Thumb Code    36  os_core.o(.text)
    OS_RdyListInsertHead                     0x08006d8b   Thumb Code    58  os_core.o(.text)
    OS_RdyListInsertTail                     0x08006dc5   Thumb Code    56  os_core.o(.text)
    OS_RdyListInsert                         0x08006dfd   Thumb Code    40  os_core.o(.text)
    OS_TaskRdy                               0x08006e25   Thumb Code    28  os_core.o(.text)
    OS_PendAbort                             0x08006e41   Thumb Code   166  os_core.o(.text)
    OS_PendDbgNameRemove                     0x08006ee7   Thumb Code    34  os_core.o(.text)
    OS_PendListChangePrio                    0x08006f09   Thumb Code    70  os_core.o(.text)
    OS_PendListInit                          0x08006f4f   Thumb Code    10  os_core.o(.text)
    OS_PendListInsertHead                    0x08006f59   Thumb Code    32  os_core.o(.text)
    OS_PendObjDel1                           0x08006f79   Thumb Code    36  os_core.o(.text)
    OS_PendObjDel                            0x08006f9d   Thumb Code   162  os_core.o(.text)
    OS_Post1                                 0x0800703f   Thumb Code    42  os_core.o(.text)
    OS_Post                                  0x08007069   Thumb Code   192  os_core.o(.text)
    OS_Sched0                                0x08007129   Thumb Code    68  os_core.o(.text)
    OS_SchedRoundRobin                       0x0800716d   Thumb Code   218  os_core.o(.text)
    OS_Dbg_Init                              0x08007255   Thumb Code   146  os_dbg.o(.text)
    OS_FlagDbgListAdd                        0x08007405   Thumb Code    38  os_flag.o(.text)
    OSFlagCreate                             0x0800742b   Thumb Code   172  os_flag.o(.text)
    OS_FlagClr                               0x080074d7   Thumb Code    28  os_flag.o(.text)
    OS_FlagDbgListRemove                     0x080074f3   Thumb Code    44  os_flag.o(.text)
    OSFlagDel                                0x0800751f   Thumb Code   594  os_flag.o(.text)
    OS_FlagBlock                             0x08007771   Thumb Code    58  os_flag.o(.text)
    OSFlagPend                               0x080077ab   Thumb Code  1488  os_flag.o(.text)
    OSFlagPendAbort                          0x08007d7b   Thumb Code   292  os_flag.o(.text)
    OSFlagPendGetFlagsRdy                    0x08007e9f   Thumb Code    68  os_flag.o(.text)
    OS_FlagTaskRdy                           0x08007ee3   Thumb Code    86  os_flag.o(.text)
    OS_FlagPost                              0x08007f39   Thumb Code   570  os_flag.o(.text)
    OSFlagPost                               0x08008173   Thumb Code   146  os_flag.o(.text)
    OS_FlagInit                              0x08008205   Thumb Code    14  os_flag.o(.text)
    OS_IntQPost                              0x0800822d   Thumb Code   216  os_int.o(.text)
    OS_IntQRePost                            0x08008305   Thumb Code   360  os_int.o(.text)
    OS_IntQTask                              0x0800846d   Thumb Code   162  os_int.o(.text)
    OS_IntQTaskInit                          0x0800850f   Thumb Code   208  os_int.o(.text)
    OS_MemDbgListAdd                         0x08008671   Thumb Code    34  os_mem.o(.text)
    OSMemCreate                              0x08008693   Thumb Code   288  os_mem.o(.text)
    OSMemGet                                 0x080087b3   Thumb Code   100  os_mem.o(.text)
    OSMemPut                                 0x08008817   Thumb Code   112  os_mem.o(.text)
    OS_MemInit                               0x08008887   Thumb Code    14  os_mem.o(.text)
    OS_MsgPoolCreate                         0x080088a9   Thumb Code    54  os_msg.o(.text)
    OS_MsgPoolInit                           0x080088df   Thumb Code    70  os_msg.o(.text)
    OS_MsgQFreeAll                           0x08008925   Thumb Code    62  os_msg.o(.text)
    OS_MsgQInit                              0x08008963   Thumb Code    14  os_msg.o(.text)
    OS_MsgQGet                               0x08008971   Thumb Code    98  os_msg.o(.text)
    OS_MsgQPut                               0x080089d3   Thumb Code   246  os_msg.o(.text)
    OS_MutexDbgListAdd                       0x08008ad5   Thumb Code    38  os_mutex.o(.text)
    OSMutexCreate                            0x08008afb   Thumb Code   178  os_mutex.o(.text)
    OS_MutexClr                              0x08008bad   Thumb Code    38  os_mutex.o(.text)
    OS_MutexDbgListRemove                    0x08008bd3   Thumb Code    44  os_mutex.o(.text)
    OSMutexDel                               0x08008bff   Thumb Code   842  os_mutex.o(.text)
    OSMutexPend                              0x08008f49   Thumb Code   706  os_mutex.o(.text)
    OSMutexPendAbort                         0x0800920b   Thumb Code   314  os_mutex.o(.text)
    OSMutexPost                              0x08009345   Thumb Code   564  os_mutex.o(.text)
    OS_MutexInit                             0x08009579   Thumb Code    14  os_mutex.o(.text)
    OS_PrioInit                              0x080095a9   Thumb Code    20  os_prio.o(.text)
    OS_PrioGetHighest                        0x080095bd   Thumb Code    36  os_prio.o(.text)
    OS_PrioInsert                            0x080095e1   Thumb Code    32  os_prio.o(.text)
    OS_PrioRemove                            0x08009601   Thumb Code    32  os_prio.o(.text)
    OS_QDbgListAdd                           0x08009625   Thumb Code    38  os_q.o(.text)
    OSQCreate                                0x0800964b   Thumb Code   186  os_q.o(.text)
    OS_QClr                                  0x08009705   Thumb Code    40  os_q.o(.text)
    OS_QDbgListRemove                        0x0800972d   Thumb Code    44  os_q.o(.text)
    OSQDel                                   0x08009759   Thumb Code   362  os_q.o(.text)
    OSQFlush                                 0x080098c3   Thumb Code   210  os_q.o(.text)
    OSQPend                                  0x08009995   Thumb Code   538  os_q.o(.text)
    OSQPendAbort                             0x08009baf   Thumb Code   292  os_q.o(.text)
    OS_QPost                                 0x08009cd3   Thumb Code   324  os_q.o(.text)
    OSQPost                                  0x08009e17   Thumb Code   198  os_q.o(.text)
    OS_QInit                                 0x08009edd   Thumb Code    14  os_q.o(.text)
    OS_SemDbgListAdd                         0x08009efd   Thumb Code    38  os_sem.o(.text)
    OSSemCreate                              0x08009f23   Thumb Code   172  os_sem.o(.text)
    OS_SemClr                                0x08009fcf   Thumb Code    28  os_sem.o(.text)
    OS_SemDbgListRemove                      0x08009feb   Thumb Code    44  os_sem.o(.text)
    OSSemDel                                 0x0800a017   Thumb Code   362  os_sem.o(.text)
    OSSemPend                                0x0800a181   Thumb Code   504  os_sem.o(.text)
    OSSemPendAbort                           0x0800a379   Thumb Code   292  os_sem.o(.text)
    OS_SemPost                               0x0800a49d   Thumb Code   350  os_sem.o(.text)
    OSSemPost                                0x0800a5fb   Thumb Code   144  os_sem.o(.text)
    OSSemSet                                 0x0800a68b   Thumb Code   138  os_sem.o(.text)
    OS_SemInit                               0x0800a715   Thumb Code    14  os_sem.o(.text)
    OSStatReset                              0x0800a72d   Thumb Code   270  os_stat.o(.text)
    OSStatTaskCPUUsageInit                   0x0800a83b   Thumb Code   212  os_stat.o(.text)
    OS_StatTask                              0x0800a90f   Thumb Code   888  os_stat.o(.text)
    OS_StatTaskInit                          0x0800ac87   Thumb Code   138  os_stat.o(.text)
    OSTaskChangePrio                         0x0800ad65   Thumb Code   416  os_task.o(.text)
    OS_TaskDbgListAdd                        0x0800af05   Thumb Code    42  os_task.o(.text)
    OS_TaskInitTCB                           0x0800af2f   Thumb Code   186  os_task.o(.text)
    OSTaskCreate                             0x0800afe9   Thumb Code   616  os_task.o(.text)
    OS_TaskDbgListRemove                     0x0800b251   Thumb Code    64  os_task.o(.text)
    OSTaskDel                                0x0800b291   Thumb Code   424  os_task.o(.text)
    OSTaskQFlush                             0x0800b439   Thumb Code   214  os_task.o(.text)
    OSTaskQPend                              0x0800b50f   Thumb Code   554  os_task.o(.text)
    OSTaskQPendAbort                         0x0800b739   Thumb Code   242  os_task.o(.text)
    OS_TaskQPost                             0x0800b82b   Thumb Code   526  os_task.o(.text)
    OSTaskQPost                              0x0800ba39   Thumb Code   114  os_task.o(.text)
    OSTaskRegGet                             0x0800baab   Thumb Code    78  os_task.o(.text)
    OSTaskRegGetID                           0x0800baf9   Thumb Code    84  os_task.o(.text)
    OSTaskRegSet                             0x0800bb4d   Thumb Code    78  os_task.o(.text)
    OS_TaskResume                            0x0800bb9b   Thumb Code   314  os_task.o(.text)
    OSTaskResume                             0x0800bcd5   Thumb Code   112  os_task.o(.text)
    OSTaskSemPend                            0x0800bd45   Thumb Code   550  os_task.o(.text)
    OSTaskSemPendAbort                       0x0800bf6b   Thumb Code   270  os_task.o(.text)
    OS_TaskSemPost                           0x0800c079   Thumb Code  1224  os_task.o(.text)
    OSTaskSemPost                            0x0800c541   Thumb Code    98  os_task.o(.text)
    OSTaskSemSet                             0x0800c5a3   Thumb Code    80  os_task.o(.text)
    OSTaskStkChk                             0x0800c5f3   Thumb Code   224  os_task.o(.text)
    OS_TaskSuspend                           0x0800c6d3   Thumb Code   328  os_task.o(.text)
    OSTaskSuspend                            0x0800c81b   Thumb Code    78  os_task.o(.text)
    OSTaskTimeQuantaSet                      0x0800c869   Thumb Code    96  os_task.o(.text)
    OS_TaskInit                              0x0800c8c9   Thumb Code    18  os_task.o(.text)
    OS_TaskReturn                            0x0800c8db   Thumb Code    20  os_task.o(.text)
    OS_TickListRemove                        0x0800c919   Thumb Code    56  os_tick.o(.text)
    OS_TickListUpdate                        0x0800c951   Thumb Code   480  os_tick.o(.text)
    OS_TickTask                              0x0800cb31   Thumb Code    38  os_tick.o(.text)
    OS_TickListInit                          0x0800cb57   Thumb Code    32  os_tick.o(.text)
    OS_TickTaskInit                          0x0800cb77   Thumb Code   130  os_tick.o(.text)
    OS_TickListInsert                        0x0800cbf9   Thumb Code   502  os_tick.o(.text)
    OS_TickListResetPeak                     0x0800cdef   Thumb Code    28  os_tick.o(.text)
    OSTimeDly                                0x0800ce15   Thumb Code   266  os_time.o(.text)
    OSTimeDlyHMSM                            0x0800cf1f   Thumb Code   480  os_time.o(.text)
    OSTimeDlyResume                          0x0800d0ff   Thumb Code   466  os_time.o(.text)
    OSTimeGet                                0x0800d2d1   Thumb Code    46  os_time.o(.text)
    OSTimeSet                                0x0800d2ff   Thumb Code    46  os_time.o(.text)
    OSTimeTick                               0x0800d32d   Thumb Code    54  os_time.o(.text)
    OS_TmrDbgListAdd                         0x0800d379   Thumb Code    34  os_tmr.o(.text)
    OSTmrCreate                              0x0800d39b   Thumb Code   248  os_tmr.o(.text)
    OS_TmrClr                                0x0800d493   Thumb Code    36  os_tmr.o(.text)
    OS_TmrUnlink                             0x0800d4b7   Thumb Code    72  os_tmr.o(.text)
    OS_TmrDbgListRemove                      0x0800d4ff   Thumb Code    44  os_tmr.o(.text)
    OSTmrDel                                 0x0800d52b   Thumb Code   176  os_tmr.o(.text)
    OSTmrRemainGet                           0x0800d5db   Thumb Code   184  os_tmr.o(.text)
    OS_TmrLink                               0x0800d693   Thumb Code   196  os_tmr.o(.text)
    OSTmrStart                               0x0800d757   Thumb Code   210  os_tmr.o(.text)
    OSTmrStateGet                            0x0800d829   Thumb Code   134  os_tmr.o(.text)
    OSTmrStop                                0x0800d8af   Thumb Code   232  os_tmr.o(.text)
    OS_TmrTask                               0x0800d997   Thumb Code   176  os_tmr.o(.text)
    OS_TmrInit                               0x0800da47   Thumb Code   208  os_tmr.o(.text)
    OS_TmrResetPeak                          0x0800db17   Thumb Code    28  os_tmr.o(.text)
    OSIdleTaskHook                           0x0800db91   Thumb Code    16  os_cpu_c.o(.text)
    OSInitHook                               0x0800dba1   Thumb Code    28  os_cpu_c.o(.text)
    OSStatTaskHook                           0x0800dbbd   Thumb Code    16  os_cpu_c.o(.text)
    OSTaskCreateHook                         0x0800dbcd   Thumb Code    20  os_cpu_c.o(.text)
    OSTaskDelHook                            0x0800dbe1   Thumb Code    20  os_cpu_c.o(.text)
    OSTaskReturnHook                         0x0800dbf5   Thumb Code    20  os_cpu_c.o(.text)
    OSTaskStkInit                            0x0800dc09   Thumb Code   192  os_cpu_c.o(.text)
    OSTaskSwHook                             0x0800dcc9   Thumb Code   120  os_cpu_c.o(.text)
    OSTimeTickHook                           0x0800dd41   Thumb Code    16  os_cpu_c.o(.text)
    OS_CPU_SysTickHandler                    0x0800dd51   Thumb Code    52  os_cpu_c.o(.text)
    OS_CPU_SysTickInit                       0x0800dd85   Thumb Code    44  os_cpu_c.o(.text)
    App_OS_TimeTickHook                      0x0800ddf1   Thumb Code     2  os_app_hooks.o(.text)
    App_OS_TaskSwHook                        0x0800ddf3   Thumb Code     2  os_app_hooks.o(.text)
    App_OS_StatTaskHook                      0x0800ddf5   Thumb Code     2  os_app_hooks.o(.text)
    App_OS_IdleTaskHook                      0x0800ddf7   Thumb Code    12  os_app_hooks.o(.text)
    App_OS_TaskReturnHook                    0x0800de03   Thumb Code     2  os_app_hooks.o(.text)
    App_OS_TaskDelHook                       0x0800de05   Thumb Code     2  os_app_hooks.o(.text)
    App_OS_TaskCreateHook                    0x0800de07   Thumb Code     2  os_app_hooks.o(.text)
    App_OS_SetAllHooks                       0x0800de09   Thumb Code    90  os_app_hooks.o(.text)
    App_OS_ClrAllHooks                       0x0800de63   Thumb Code    64  os_app_hooks.o(.text)
    App_OS_InitHook                          0x0800dea3   Thumb Code     2  os_app_hooks.o(.text)
    mymemcpy                                 0x0800dec5   Thumb Code    26  malloc.o(.text)
    mymemset                                 0x0800dedf   Thumb Code    20  malloc.o(.text)
    mem_init                                 0x0800def3   Thumb Code    38  malloc.o(.text)
    mem_perused                              0x0800df19   Thumb Code    42  malloc.o(.text)
    mem_malloc                               0x0800df43   Thumb Code   116  malloc.o(.text)
    mem_free                                 0x0800dfb7   Thumb Code    66  malloc.o(.text)
    myfree                                   0x0800dff9   Thumb Code    24  malloc.o(.text)
    mymalloc                                 0x0800e011   Thumb Code    28  malloc.o(.text)
    myrealloc                                0x0800e02d   Thumb Code    50  malloc.o(.text)
    mqtt_connect_message                     0x0800e065   Thumb Code   276  mqtt.o(.text)
    mqtt_publish_message                     0x0800e179   Thumb Code   176  mqtt.o(.text)
    mqtt_puback_message                      0x0800e229   Thumb Code    42  mqtt.o(.text)
    mqtt_subscribe_message                   0x0800e253   Thumb Code   130  mqtt.o(.text)
    mqtt_ping_message                        0x0800e2d5   Thumb Code    14  mqtt.o(.text)
    mqtt_disconnect_message                  0x0800e2e3   Thumb Code    14  mqtt.o(.text)
    transport_getdata                        0x0800e2f1   Thumb Code    60  mqtt.o(.text)
    MqttClientReadMsg                        0x0800e32d   Thumb Code    98  mqtt.o(.text)
    MQTTDeserialize_publish                  0x0800e3f9   Thumb Code   168  mqttdeserializepublish.o(.text)
    MQTTDeserialize_ack                      0x0800e4a1   Thumb Code   108  mqttdeserializepublish.o(.text)
    MQTTPacket_encode                        0x0800e50d   Thumb Code    54  mqttpacket.o(.text)
    MQTTPacket_decode                        0x0800e543   Thumb Code    88  mqttpacket.o(.text)
    MQTTPacket_len                           0x0800e59b   Thumb Code    34  mqttpacket.o(.text)
    bufchar                                  0x0800e5bd   Thumb Code    36  mqttpacket.o(.text)
    MQTTPacket_decodeBuf                     0x0800e5e1   Thumb Code    22  mqttpacket.o(.text)
    readInt                                  0x0800e5f7   Thumb Code    26  mqttpacket.o(.text)
    readChar                                 0x0800e611   Thumb Code    14  mqttpacket.o(.text)
    writeChar                                0x0800e61f   Thumb Code    12  mqttpacket.o(.text)
    writeInt                                 0x0800e62b   Thumb Code    48  mqttpacket.o(.text)
    writeCString                             0x0800e65b   Thumb Code    40  mqttpacket.o(.text)
    getLenStringLen                          0x0800e683   Thumb Code    18  mqttpacket.o(.text)
    writeMQTTString                          0x0800e695   Thumb Code    62  mqttpacket.o(.text)
    readMQTTLenString                        0x0800e6d3   Thumb Code    58  mqttpacket.o(.text)
    MQTTstrlen                               0x0800e70d   Thumb Code    24  mqttpacket.o(.text)
    MQTTPacket_equals                        0x0800e725   Thumb Code    66  mqttpacket.o(.text)
    MQTTPacket_read                          0x0800e767   Thumb Code   102  mqttpacket.o(.text)
    MQTTPacket_readnb                        0x0800e835   Thumb Code   204  mqttpacket.o(.text)
    __use_no_semihosting                     0x0800e909   Thumb Code     2  use_no_semi_2.o(.text)
    __aeabi_uldivmod                         0x0800e90b   Thumb Code     0  lludivv7m.o(.text)
    _ll_udiv                                 0x0800e90b   Thumb Code   238  lludivv7m.o(.text)
    __c89vsprintf                            0x0800e9f9   Thumb Code    32  c89vsprintf.o(.text)
    __2printf                                0x0800ea1d   Thumb Code    20  __2printf.o(.text)
    __2sprintf                               0x0800ea35   Thumb Code    38  __2sprintf.o(.text)
    _printf_pre_padding                      0x0800ea61   Thumb Code    44  _printf_pad.o(.text)
    _printf_post_padding                     0x0800ea8d   Thumb Code    34  _printf_pad.o(.text)
    _printf_str                              0x0800eaaf   Thumb Code    82  _printf_str.o(.text)
    _printf_int_dec                          0x0800eb01   Thumb Code   104  _printf_dec.o(.text)
    _printf_charcount                        0x0800eb79   Thumb Code    40  _printf_charcount.o(.text)
    _printf_longlong_hex                     0x0800eba1   Thumb Code    86  _printf_hex_int_ll_ptr.o(.text)
    _printf_int_hex                          0x0800ebf7   Thumb Code    28  _printf_hex_int_ll_ptr.o(.text)
    _printf_ll_hex                           0x0800ec13   Thumb Code    12  _printf_hex_int_ll_ptr.o(.text)
    _printf_hex_ptr                          0x0800ec1f   Thumb Code    18  _printf_hex_int_ll_ptr.o(.text)
    __printf                                 0x0800ec35   Thumb Code   388  __printf_flags_ss_wp.o(.text)
    atoi                                     0x0800edbd   Thumb Code    26  atoi.o(.text)
    strtok                                   0x0800edd9   Thumb Code     6  strtok.o(.text)
    strstr                                   0x0800ede5   Thumb Code    36  strstr.o(.text)
    strlen                                   0x0800ee09   Thumb Code    62  strlen.o(.text)
    strncmp                                  0x0800ee47   Thumb Code   150  strncmp.o(.text)
    __aeabi_memcpy                           0x0800eedd   Thumb Code     0  rt_memcpy_v6.o(.text)
    __rt_memcpy                              0x0800eedd   Thumb Code   138  rt_memcpy_v6.o(.text)
    _memcpy_lastbytes                        0x0800ef43   Thumb Code     0  rt_memcpy_v6.o(.text)
    __aeabi_memclr                           0x0800ef67   Thumb Code     0  rt_memclr.o(.text)
    __rt_memclr                              0x0800ef67   Thumb Code    68  rt_memclr.o(.text)
    _memset                                  0x0800ef6b   Thumb Code     0  rt_memclr.o(.text)
    __aeabi_memclr4                          0x0800efab   Thumb Code     0  rt_memclr_w.o(.text)
    __aeabi_memclr8                          0x0800efab   Thumb Code     0  rt_memclr_w.o(.text)
    __rt_memclr_w                            0x0800efab   Thumb Code    78  rt_memclr_w.o(.text)
    _memset_w                                0x0800efaf   Thumb Code     0  rt_memclr_w.o(.text)
    __use_two_region_memory                  0x0800eff9   Thumb Code     2  heapauxi.o(.text)
    __rt_heap_escrow$2region                 0x0800effb   Thumb Code     2  heapauxi.o(.text)
    __rt_heap_expand$2region                 0x0800effd   Thumb Code     2  heapauxi.o(.text)
    __I$use$semihosting                      0x0800efff   Thumb Code     0  use_no_semi.o(.text)
    __use_no_semihosting_swi                 0x0800efff   Thumb Code     2  use_no_semi.o(.text)
    __aeabi_errno_addr                       0x0800f001   Thumb Code     8  rt_errno_addr_intlibspace.o(.text)
    __errno$intlibspace                      0x0800f001   Thumb Code     0  rt_errno_addr_intlibspace.o(.text)
    __rt_errno_addr$intlibspace              0x0800f001   Thumb Code     0  rt_errno_addr_intlibspace.o(.text)
    _printf_truncate_signed                  0x0800f009   Thumb Code    18  _printf_truncate.o(.text)
    _printf_truncate_unsigned                0x0800f01b   Thumb Code    18  _printf_truncate.o(.text)
    _printf_int_common                       0x0800f02d   Thumb Code   178  _printf_intcommon.o(.text)
    _printf_char_common                      0x0800f0eb   Thumb Code    32  _printf_char_common.o(.text)
    _sputc                                   0x0800f111   Thumb Code    10  _sputc.o(.text)
    _printf_cs_common                        0x0800f11b   Thumb Code    20  _printf_char.o(.text)
    _printf_char                             0x0800f12f   Thumb Code    16  _printf_char.o(.text)
    _printf_string                           0x0800f13f   Thumb Code     8  _printf_char.o(.text)
    _printf_char_file                        0x0800f149   Thumb Code    32  _printf_char_file.o(.text)
    _printf_wctomb                           0x0800f16d   Thumb Code   182  _printf_wctomb.o(.text)
    _printf_longlong_dec                     0x0800f229   Thumb Code   108  _printf_longlong_dec.o(.text)
    _printf_longlong_oct                     0x0800f2a5   Thumb Code    68  _printf_oct_int_ll.o(.text)
    _printf_int_oct                          0x0800f2e9   Thumb Code    24  _printf_oct_int_ll.o(.text)
    _printf_ll_oct                           0x0800f301   Thumb Code    12  _printf_oct_int_ll.o(.text)
    strtol                                   0x0800f315   Thumb Code   112  strtol.o(.text)
    __strtok_internal                        0x0800f385   Thumb Code    64  strtok_int.o(.text)
    __aeabi_memcpy4                          0x0800f3c9   Thumb Code     0  rt_memcpy_w.o(.text)
    __aeabi_memcpy8                          0x0800f3c9   Thumb Code     0  rt_memcpy_w.o(.text)
    __rt_memcpy_w                            0x0800f3c9   Thumb Code   100  rt_memcpy_w.o(.text)
    _memcpy_lastbytes_aligned                0x0800f411   Thumb Code     0  rt_memcpy_w.o(.text)
    __user_libspace                          0x0800f42d   Thumb Code     8  libspace.o(.text)
    __user_perproc_libspace                  0x0800f42d   Thumb Code     0  libspace.o(.text)
    __user_perthread_libspace                0x0800f42d   Thumb Code     0  libspace.o(.text)
    __rt_ctype_table                         0x0800f435   Thumb Code    16  rt_ctype_table.o(.text)
    _ll_udiv10                               0x0800f445   Thumb Code   138  lludiv10.o(.text)
    __lib_sel_fp_printf                      0x0800f4cf   Thumb Code     2  _printf_fp_dec.o(.text)
    _printf_fp_dec_real                      0x0800f67d   Thumb Code   620  _printf_fp_dec.o(.text)
    _printf_lcs_common                       0x0800f8e9   Thumb Code    20  _printf_wchar.o(.text)
    _printf_wchar                            0x0800f8fd   Thumb Code    16  _printf_wchar.o(.text)
    _printf_wstring                          0x0800f90d   Thumb Code     8  _printf_wchar.o(.text)
    _strtoul                                 0x0800f915   Thumb Code   158  _strtoul.o(.text)
    ferror                                   0x0800f9b3   Thumb Code     8  ferror.o(.text)
    _wcrtomb                                 0x0800f9bb   Thumb Code    64  _wcrtomb.o(.text)
    strcspn                                  0x0800f9fb   Thumb Code    32  strcspn.o(.text)
    strspn                                   0x0800fa1b   Thumb Code    28  strspn.o(.text)
    __user_setup_stackheap                   0x0800fa37   Thumb Code    74  sys_stackheap_outer.o(.text)
    __rt_locale                              0x0800fa81   Thumb Code     8  rt_locale_intlibspace.o(.text)
    _printf_fp_infnan                        0x0800fa89   Thumb Code   112  _printf_fp_infnan.o(.text)
    _chval                                   0x0800fb09   Thumb Code    28  _chval.o(.text)
    _btod_etento                             0x0800fb25   Thumb Code   216  bigflt0.o(.text)
    exit                                     0x0800fc01   Thumb Code    12  exit.o(.text)
    strcmp                                   0x0800fc0d   Thumb Code   128  strcmpv7m.o(.text)
    _btod_d2e                                0x0800fc8d   Thumb Code    62  btod.o(CL$$btod_d2e)
    _d2e_denorm_low                          0x0800fccb   Thumb Code    70  btod.o(CL$$btod_d2e_denorm_low)
    _d2e_norm_op1                            0x0800fd11   Thumb Code    96  btod.o(CL$$btod_d2e_norm_op1)
    __btod_div_common                        0x0800fd71   Thumb Code   696  btod.o(CL$$btod_div_common)
    _e2e                                     0x080100a9   Thumb Code   198  btod.o(CL$$btod_e2e)
    _btod_ediv                               0x0801016f   Thumb Code    40  btod.o(CL$$btod_ediv)
    _btod_emul                               0x08010197   Thumb Code    40  btod.o(CL$$btod_emul)
    __btod_mult_common                       0x080101bf   Thumb Code   580  btod.o(CL$$btod_mult_common)
    OSStartHighRdy                           0x08010405   Thumb Code     0  os_cpu_a.o(CODE)
    OSCtxSw                                  0x08010427   Thumb Code     0  os_cpu_a.o(CODE)
    OSIntCtxSw                               0x08010431   Thumb Code     0  os_cpu_a.o(CODE)
    PendSV_Handler                           0x0801043b   Thumb Code     0  os_cpu_a.o(CODE)
    __ARM_fpclassify                         0x0801049d   Thumb Code    40  fpclassify.o(i.__ARM_fpclassify)
    _is_digit                                0x080104c5   Thumb Code    14  __printf_wp.o(i._is_digit)
    _get_lc_ctype                            0x080104d5   Thumb Code    44  lc_ctype_c.o(locale$$code)
    _get_lc_numeric                          0x08010501   Thumb Code    44  lc_numeric_c.o(locale$$code)
    __aeabi_d2iz                             0x0801052d   Thumb Code     0  dfix.o(x$fpl$dfix)
    _dfix                                    0x0801052d   Thumb Code    94  dfix.o(x$fpl$dfix)
    __aeabi_dmul                             0x0801058d   Thumb Code     0  dmul.o(x$fpl$dmul)
    _dmul                                    0x0801058d   Thumb Code   332  dmul.o(x$fpl$dmul)
    __fpl_dnaninf                            0x080106e1   Thumb Code   156  dnaninf.o(x$fpl$dnaninf)
    __fpl_dretinf                            0x0801077d   Thumb Code    12  dretinf.o(x$fpl$dretinf)
    __aeabi_f2d                              0x08010789   Thumb Code     0  f2d.o(x$fpl$f2d)
    _f2d                                     0x08010789   Thumb Code    86  f2d.o(x$fpl$f2d)
    __aeabi_i2f                              0x080107e1   Thumb Code     0  fflt_clz.o(x$fpl$fflt)
    _fflt                                    0x080107e1   Thumb Code    48  fflt_clz.o(x$fpl$fflt)
    __fpl_fnaninf                            0x08010811   Thumb Code   140  fnaninf.o(x$fpl$fnaninf)
    _printf_fp_dec                           0x0801089d   Thumb Code     4  printf1.o(x$fpl$printf1)
    __I$use$fp                               0x080108a0   Number         0  usenofp.o(x$fpl$usenofp)
    chars1_key                               0x080108a0   Data           3  max7219.o(.constdata)
    chars2_key                               0x080108a3   Data           2  max7219.o(.constdata)
    chars3_key                               0x080108a5   Data          32  max7219.o(.constdata)
    chars4_key                               0x080108c5   Data           3  max7219.o(.constdata)
    chars5_key                               0x080108c8   Data           2  max7219.o(.constdata)
    chars8_key                               0x080108ca   Data           6  max7219.o(.constdata)
    Days                                     0x080108d0   Data          12  timestamp.o(.constdata)
    CPU_EndiannessTest                       0x080109dc   Data           4  cpu_core.o(.constdata)
    OSCfg_IdleTaskStkBasePtr                 0x08010a74   Data           4  os_cfg_app.o(.constdata)
    OSCfg_IdleTaskStkLimit                   0x08010a78   Data           4  os_cfg_app.o(.constdata)
    OSCfg_IdleTaskStkSize                    0x08010a7c   Data           4  os_cfg_app.o(.constdata)
    OSCfg_IdleTaskStkSizeRAM                 0x08010a80   Data           4  os_cfg_app.o(.constdata)
    OSCfg_IntQBasePtr                        0x08010a84   Data           4  os_cfg_app.o(.constdata)
    OSCfg_IntQSize                           0x08010a88   Data           2  os_cfg_app.o(.constdata)
    OSCfg_IntQSizeRAM                        0x08010a8c   Data           4  os_cfg_app.o(.constdata)
    OSCfg_IntQTaskStkBasePtr                 0x08010a90   Data           4  os_cfg_app.o(.constdata)
    OSCfg_IntQTaskStkLimit                   0x08010a94   Data           4  os_cfg_app.o(.constdata)
    OSCfg_IntQTaskStkSize                    0x08010a98   Data           4  os_cfg_app.o(.constdata)
    OSCfg_IntQTaskStkSizeRAM                 0x08010a9c   Data           4  os_cfg_app.o(.constdata)
    OSCfg_ISRStkBasePtr                      0x08010aa0   Data           4  os_cfg_app.o(.constdata)
    OSCfg_ISRStkSize                         0x08010aa4   Data           4  os_cfg_app.o(.constdata)
    OSCfg_ISRStkSizeRAM                      0x08010aa8   Data           4  os_cfg_app.o(.constdata)
    OSCfg_MsgPoolSize                        0x08010aac   Data           2  os_cfg_app.o(.constdata)
    OSCfg_MsgPoolSizeRAM                     0x08010ab0   Data           4  os_cfg_app.o(.constdata)
    OSCfg_MsgPoolBasePtr                     0x08010ab4   Data           4  os_cfg_app.o(.constdata)
    OSCfg_StatTaskPrio                       0x08010ab8   Data           1  os_cfg_app.o(.constdata)
    OSCfg_StatTaskRate_Hz                    0x08010abc   Data           4  os_cfg_app.o(.constdata)
    OSCfg_StatTaskStkBasePtr                 0x08010ac0   Data           4  os_cfg_app.o(.constdata)
    OSCfg_StatTaskStkLimit                   0x08010ac4   Data           4  os_cfg_app.o(.constdata)
    OSCfg_StatTaskStkSize                    0x08010ac8   Data           4  os_cfg_app.o(.constdata)
    OSCfg_StatTaskStkSizeRAM                 0x08010acc   Data           4  os_cfg_app.o(.constdata)
    OSCfg_StkSizeMin                         0x08010ad0   Data           4  os_cfg_app.o(.constdata)
    OSCfg_TickRate_Hz                        0x08010ad4   Data           4  os_cfg_app.o(.constdata)
    OSCfg_TickTaskPrio                       0x08010ad8   Data           1  os_cfg_app.o(.constdata)
    OSCfg_TickTaskStkBasePtr                 0x08010adc   Data           4  os_cfg_app.o(.constdata)
    OSCfg_TickTaskStkLimit                   0x08010ae0   Data           4  os_cfg_app.o(.constdata)
    OSCfg_TickTaskStkSize                    0x08010ae4   Data           4  os_cfg_app.o(.constdata)
    OSCfg_TickTaskStkSizeRAM                 0x08010ae8   Data           4  os_cfg_app.o(.constdata)
    OSCfg_TickWheelSize                      0x08010aec   Data           2  os_cfg_app.o(.constdata)
    OSCfg_TickWheelSizeRAM                   0x08010af0   Data           4  os_cfg_app.o(.constdata)
    OSCfg_TmrTaskPrio                        0x08010af4   Data           1  os_cfg_app.o(.constdata)
    OSCfg_TmrTaskRate_Hz                     0x08010af8   Data           4  os_cfg_app.o(.constdata)
    OSCfg_TmrTaskStkBasePtr                  0x08010afc   Data           4  os_cfg_app.o(.constdata)
    OSCfg_TmrTaskStkLimit                    0x08010b00   Data           4  os_cfg_app.o(.constdata)
    OSCfg_TmrTaskStkSize                     0x08010b04   Data           4  os_cfg_app.o(.constdata)
    OSCfg_TmrTaskStkSizeRAM                  0x08010b08   Data           4  os_cfg_app.o(.constdata)
    OSCfg_TmrWheelSize                       0x08010b0c   Data           2  os_cfg_app.o(.constdata)
    OSCfg_TmrWheelSizeRAM                    0x08010b10   Data           4  os_cfg_app.o(.constdata)
    OSCfg_DataSizeRAM                        0x08010b14   Data           4  os_cfg_app.o(.constdata)
    OSDbg_DbgEn                              0x08010b18   Data           2  os_dbg.o(.constdata)
    OSDbg_ArgChkEn                           0x08010b1a   Data           1  os_dbg.o(.constdata)
    OSDbg_AppHooksEn                         0x08010b1b   Data           1  os_dbg.o(.constdata)
    OSDbg_EndiannessTest                     0x08010b1c   Data           4  os_dbg.o(.constdata)
    OSDbg_CalledFromISRChkEn                 0x08010b20   Data           1  os_dbg.o(.constdata)
    OSDbg_FlagEn                             0x08010b21   Data           1  os_dbg.o(.constdata)
    OSDbg_FlagGrp                            0x08010b24   Data          40  os_dbg.o(.constdata)
    OSDbg_FlagDelEn                          0x08010b4c   Data           1  os_dbg.o(.constdata)
    OSDbg_FlagModeClrEn                      0x08010b4d   Data           1  os_dbg.o(.constdata)
    OSDbg_FlagPendAbortEn                    0x08010b4e   Data           1  os_dbg.o(.constdata)
    OSDbg_FlagGrpSize                        0x08010b50   Data           2  os_dbg.o(.constdata)
    OSDbg_FlagWidth                          0x08010b52   Data           2  os_dbg.o(.constdata)
    OSDbg_IntQ                               0x08010b54   Data           2  os_dbg.o(.constdata)
    OSDbg_ISRPostDeferredEn                  0x08010b56   Data           1  os_dbg.o(.constdata)
    OSDbg_Mem                                0x08010b58   Data          32  os_dbg.o(.constdata)
    OSDbg_MemEn                              0x08010b78   Data           1  os_dbg.o(.constdata)
    OSDbg_MemSize                            0x08010b7a   Data           2  os_dbg.o(.constdata)
    OSDbg_MsgEn                              0x08010b7c   Data           1  os_dbg.o(.constdata)
    OSDbg_MsgSize                            0x08010b7e   Data           2  os_dbg.o(.constdata)
    OSDbg_MsgPoolSize                        0x08010b80   Data           2  os_dbg.o(.constdata)
    OSDbg_MsgQSize                           0x08010b82   Data           2  os_dbg.o(.constdata)
    OSDbg_Mutex                              0x08010b84   Data          44  os_dbg.o(.constdata)
    OSDbg_MutexEn                            0x08010bb0   Data           1  os_dbg.o(.constdata)
    OSDbg_MutexDelEn                         0x08010bb1   Data           1  os_dbg.o(.constdata)
    OSDbg_MutexPendAbortEn                   0x08010bb2   Data           1  os_dbg.o(.constdata)
    OSDbg_MutexSize                          0x08010bb4   Data           2  os_dbg.o(.constdata)
    OSDbg_ObjTypeChkEn                       0x08010bb6   Data           1  os_dbg.o(.constdata)
    OSDbg_PendMultiEn                        0x08010bb7   Data           1  os_dbg.o(.constdata)
    OSDbg_PendDataSize                       0x08010bb8   Data           2  os_dbg.o(.constdata)
    OSDbg_PendListSize                       0x08010bba   Data           2  os_dbg.o(.constdata)
    OSDbg_PendObjSize                        0x08010bbc   Data           2  os_dbg.o(.constdata)
    OSDbg_PrioMax                            0x08010bbe   Data           2  os_dbg.o(.constdata)
    OSDbg_PrioTblSize                        0x08010bc0   Data           2  os_dbg.o(.constdata)
    OSDbg_PtrSize                            0x08010bc2   Data           2  os_dbg.o(.constdata)
    OSDbg_Q                                  0x08010bc4   Data          48  os_dbg.o(.constdata)
    OSDbg_QEn                                0x08010bf4   Data           1  os_dbg.o(.constdata)
    OSDbg_QDelEn                             0x08010bf5   Data           1  os_dbg.o(.constdata)
    OSDbg_QFlushEn                           0x08010bf6   Data           1  os_dbg.o(.constdata)
    OSDbg_QPendAbortEn                       0x08010bf7   Data           1  os_dbg.o(.constdata)
    OSDbg_QSize                              0x08010bf8   Data           2  os_dbg.o(.constdata)
    OSDbg_SchedRoundRobinEn                  0x08010bfa   Data           1  os_dbg.o(.constdata)
    OSDbg_Sem                                0x08010bfc   Data          40  os_dbg.o(.constdata)
    OSDbg_SemEn                              0x08010c24   Data           1  os_dbg.o(.constdata)
    OSDbg_SemDelEn                           0x08010c25   Data           1  os_dbg.o(.constdata)
    OSDbg_SemPendAbortEn                     0x08010c26   Data           1  os_dbg.o(.constdata)
    OSDbg_SemSetEn                           0x08010c27   Data           1  os_dbg.o(.constdata)
    OSDbg_SemSize                            0x08010c28   Data           2  os_dbg.o(.constdata)
    OSDbg_RdyList                            0x08010c2a   Data           2  os_dbg.o(.constdata)
    OSDbg_RdyListSize                        0x08010c2c   Data           4  os_dbg.o(.constdata)
    OSDbg_StkWidth                           0x08010c30   Data           1  os_dbg.o(.constdata)
    OSDbg_StatTaskEn                         0x08010c31   Data           1  os_dbg.o(.constdata)
    OSDbg_StatTaskStkChkEn                   0x08010c32   Data           1  os_dbg.o(.constdata)
    OSDbg_TaskChangePrioEn                   0x08010c33   Data           1  os_dbg.o(.constdata)
    OSDbg_TaskDelEn                          0x08010c34   Data           1  os_dbg.o(.constdata)
    OSDbg_TaskQEn                            0x08010c35   Data           1  os_dbg.o(.constdata)
    OSDbg_TaskQPendAbortEn                   0x08010c36   Data           1  os_dbg.o(.constdata)
    OSDbg_TaskProfileEn                      0x08010c37   Data           1  os_dbg.o(.constdata)
    OSDbg_TaskRegTblSize                     0x08010c38   Data           2  os_dbg.o(.constdata)
    OSDbg_TaskSemPendAbortEn                 0x08010c3a   Data           1  os_dbg.o(.constdata)
    OSDbg_TaskSuspendEn                      0x08010c3b   Data           1  os_dbg.o(.constdata)
    OSDbg_TCBSize                            0x08010c3c   Data           2  os_dbg.o(.constdata)
    OSDbg_TickSpokeSize                      0x08010c3e   Data           2  os_dbg.o(.constdata)
    OSDbg_TimeDlyHMSMEn                      0x08010c40   Data           1  os_dbg.o(.constdata)
    OSDbg_TimeDlyResumeEn                    0x08010c41   Data           1  os_dbg.o(.constdata)
    OSDbg_TLS_TblSize                        0x08010c42   Data           2  os_dbg.o(.constdata)
    OSDbg_Tmr                                0x08010c44   Data          52  os_dbg.o(.constdata)
    OSDbg_TmrEn                              0x08010c78   Data           1  os_dbg.o(.constdata)
    OSDbg_TmrDelEn                           0x08010c79   Data           1  os_dbg.o(.constdata)
    OSDbg_TmrSize                            0x08010c7a   Data           2  os_dbg.o(.constdata)
    OSDbg_TmrSpokeSize                       0x08010c7c   Data           2  os_dbg.o(.constdata)
    OSDbg_VersionNbr                         0x08010c7e   Data           2  os_dbg.o(.constdata)
    OSDbg_DataSize                           0x08010c80   Data           4  os_dbg.o(.constdata)
    Region$$Table$$Base                      0x08010d80   Number         0  anon$$obj.o(Region$$Table)
    Region$$Table$$Limit                     0x08010da0   Number         0  anon$$obj.o(Region$$Table)
    __ctype                                  0x08010dad   Data           0  lc_ctype_c.o(locale$$data)
    wifista_link                             0x20000000   Data           1  main.o(.data)
    wifista_ssid                             0x20000004   Data           4  main.o(.data)
    wifista_encryption                       0x20000008   Data           4  main.o(.data)
    wifista_password                         0x2000000c   Data           4  main.o(.data)
    mqtt_status                              0x20000010   Data           1  main.o(.data)
    ClientID                                 0x20000014   Data           4  main.o(.data)
    res                                      0x20000018   Data           1  main.o(.data)
    len                                      0x2000001a   Data           2  main.o(.data)
    ping_second                              0x2000001c   Data           1  main.o(.data)
    loading_second                           0x2000001d   Data           1  main.o(.data)
    timestamp                                0x20000020   Data           4  main.o(.data)
    chip_id                                  0x20000024   Data           4  main.o(.data)
    topic_time                               0x20000028   Data           1  main.o(.data)
    DS18B20_STATUS                           0x20000029   Data           1  main.o(.data)
    Temp                                     0x2000002a   Data           2  main.o(.data)
    BLE_LINK                                 0x2000002c   Data           1  main.o(.data)
    SystemCoreClock                          0x20000030   Data           4  system_stm32f10x.o(.data)
    AHBPrescTable                            0x20000034   Data          16  system_stm32f10x.o(.data)
    chars1                                   0x20000044   Data          24  max7219.o(.data)
    chars2                                   0x2000005c   Data          16  max7219.o(.data)
    chars3                                   0x2000006c   Data         256  max7219.o(.data)
    chars4                                   0x2000016c   Data          24  max7219.o(.data)
    chars5                                   0x20000184   Data          16  max7219.o(.data)
    chars8                                   0x20000194   Data          48  max7219.o(.data)
    __stdout                                 0x2000022c   Data           4  usart.o(.data)
    USART_RX_STA                             0x20000230   Data           2  usart.o(.data)
    USART2_RX_STA                            0x20000232   Data           2  usart2.o(.data)
    USART3_RX_STA                            0x20000234   Data           2  usart3.o(.data)
    CPU_TS_TmrFreq_Hz                        0x2000024c   Data           4  cpu_core.o(.data)
    Mem_PoolTbl                              0x20000250   Data           4  lib_mem.o(.data)
    OSPrioTbl                                0x20000254   Data           8  os_prio.o(.data)
    OS_AppTaskCreateHookPtr                  0x2000025c   Data           4  os_var.o(.data)
    OS_AppTaskDelHookPtr                     0x20000260   Data           4  os_var.o(.data)
    OS_AppTaskReturnHookPtr                  0x20000264   Data           4  os_var.o(.data)
    OS_AppIdleTaskHookPtr                    0x20000268   Data           4  os_var.o(.data)
    OS_AppStatTaskHookPtr                    0x2000026c   Data           4  os_var.o(.data)
    OS_AppTaskSwHookPtr                      0x20000270   Data           4  os_var.o(.data)
    OS_AppTimeTickHookPtr                    0x20000274   Data           4  os_var.o(.data)
    OSIdleTaskCtr                            0x20000278   Data           4  os_var.o(.data)
    OSIntNestingCtr                          0x2000027c   Data           1  os_var.o(.data)
    OSRunning                                0x2000027d   Data           1  os_var.o(.data)
    OSIntQInPtr                              0x20000280   Data           4  os_var.o(.data)
    OSIntQOutPtr                             0x20000284   Data           4  os_var.o(.data)
    OSIntQNbrEntries                         0x20000288   Data           2  os_var.o(.data)
    OSIntQNbrEntriesMax                      0x2000028a   Data           2  os_var.o(.data)
    OSIntQOvfCtr                             0x2000028c   Data           2  os_var.o(.data)
    OSIntQTaskTimeMax                        0x20000290   Data           4  os_var.o(.data)
    OSFlagDbgListPtr                         0x20000294   Data           4  os_var.o(.data)
    OSFlagQty                                0x20000298   Data           2  os_var.o(.data)
    OSMemDbgListPtr                          0x2000029c   Data           4  os_var.o(.data)
    OSMemQty                                 0x200002a0   Data           2  os_var.o(.data)
    OSMutexDbgListPtr                        0x200002a4   Data           4  os_var.o(.data)
    OSMutexQty                               0x200002a8   Data           2  os_var.o(.data)
    OSPrioCur                                0x200002aa   Data           1  os_var.o(.data)
    OSPrioHighRdy                            0x200002ab   Data           1  os_var.o(.data)
    OSPrioSaved                              0x200002ac   Data           1  os_var.o(.data)
    OSQDbgListPtr                            0x200002b0   Data           4  os_var.o(.data)
    OSQQty                                   0x200002b4   Data           2  os_var.o(.data)
    OSSchedLockTimeBegin                     0x200002b8   Data           4  os_var.o(.data)
    OSSchedLockTimeMax                       0x200002bc   Data           4  os_var.o(.data)
    OSSchedLockTimeMaxCur                    0x200002c0   Data           4  os_var.o(.data)
    OSSchedLockNestingCtr                    0x200002c4   Data           1  os_var.o(.data)
    OSSchedRoundRobinDfltTimeQuanta          0x200002c8   Data           4  os_var.o(.data)
    OSSchedRoundRobinEn                      0x200002cc   Data           1  os_var.o(.data)
    OSSemDbgListPtr                          0x200002d0   Data           4  os_var.o(.data)
    OSSemQty                                 0x200002d4   Data           2  os_var.o(.data)
    OSStatResetFlag                          0x200002d6   Data           1  os_var.o(.data)
    OSStatTaskCPUUsage                       0x200002d8   Data           2  os_var.o(.data)
    OSStatTaskCPUUsageMax                    0x200002da   Data           2  os_var.o(.data)
    OSStatTaskCtr                            0x200002dc   Data           4  os_var.o(.data)
    OSStatTaskCtrMax                         0x200002e0   Data           4  os_var.o(.data)
    OSStatTaskCtrRun                         0x200002e4   Data           4  os_var.o(.data)
    OSStatTaskRdy                            0x200002e8   Data           1  os_var.o(.data)
    OSStatTaskTimeMax                        0x200002ec   Data           4  os_var.o(.data)
    OSTaskCtxSwCtr                           0x200002f0   Data           4  os_var.o(.data)
    OSTaskDbgListPtr                         0x200002f4   Data           4  os_var.o(.data)
    OSTaskQty                                0x200002f8   Data           2  os_var.o(.data)
    OSTaskRegNextAvailID                     0x200002fa   Data           1  os_var.o(.data)
    OSTickCtr                                0x200002fc   Data           4  os_var.o(.data)
    OSTickTaskTimeMax                        0x20000300   Data           4  os_var.o(.data)
    OSTmrDbgListPtr                          0x20000304   Data           4  os_var.o(.data)
    OSTmrQty                                 0x20000308   Data           2  os_var.o(.data)
    OSTmrTaskTimeMax                         0x2000030c   Data           4  os_var.o(.data)
    OSTmrTickCtr                             0x20000310   Data           4  os_var.o(.data)
    OSTmrUpdateCnt                           0x20000314   Data           4  os_var.o(.data)
    OSTmrUpdateCtr                           0x20000318   Data           4  os_var.o(.data)
    OSTCBCurPtr                              0x2000031c   Data           4  os_var.o(.data)
    OSTCBHighRdyPtr                          0x20000320   Data           4  os_var.o(.data)
    OS_CPU_ExceptStkBase                     0x20000324   Data           4  os_cpu_c.o(.data)
    mallco_dev                               0x2000032c   Data          20  malloc.o(.data)
    StartTaskTCB                             0x20000350   Data         196  main.o(.bss)
    START_TASK_STK                           0x20000414   Data        2048  main.o(.bss)
    Led0TaskTCB                              0x20000c14   Data         196  main.o(.bss)
    LED0_TASK_STK                            0x20000cd8   Data         512  main.o(.bss)
    DS18B20TaskTCB                           0x20000ed8   Data         196  main.o(.bss)
    DS18B20_TASK_STK                         0x20000f9c   Data         512  main.o(.bss)
    LEDTaskTCB                               0x2000119c   Data         196  main.o(.bss)
    LED_TASK_STK                             0x20001260   Data         512  main.o(.bss)
    ESP8266TaskTCB                           0x20001460   Data         196  main.o(.bss)
    ESP8266_TASK_STK                         0x20001524   Data         512  main.o(.bss)
    BLETaskTCB                               0x20001724   Data         196  main.o(.bss)
    BLE_TASK_STK                             0x200017e8   Data         512  main.o(.bss)
    mqtt_msg                                 0x200019e8   Data         200  main.o(.bss)
    t                                        0x20001ab0   Data          24  main.o(.bss)
    sendbuf                                  0x20001ac8   Data          50  ble_app.o(.bss)
    USART_RX_BUF                             0x20001afa   Data         200  usart.o(.bss)
    USART2_TX_BUF                            0x20001bc8   Data        1024  usart2.o(.bss)
    USART2_RX_BUF                            0x20001fc8   Data        1024  usart2.o(.bss)
    USART3_TX_BUF                            0x200023c8   Data        1024  usart3.o(.bss)
    USART3_RX_BUF                            0x200027c8   Data        1024  usart3.o(.bss)
    CPU_Name                                 0x20002bc8   Data          16  cpu_core.o(.bss)
    Mem_PoolHeap                             0x20002bd8   Data          72  lib_mem.o(.bss)
    Mem_Heap                                 0x20002c20   Data        1024  lib_mem.o(.bss)
    OSCfg_IdleTaskStk                        0x20003020   Data         512  os_cfg_app.o(.bss)
    OSCfg_IntQ                               0x20003220   Data         320  os_cfg_app.o(.bss)
    OSCfg_IntQTaskStk                        0x20003360   Data         512  os_cfg_app.o(.bss)
    OSCfg_ISRStk                             0x20003560   Data         512  os_cfg_app.o(.bss)
    OSCfg_MsgPool                            0x20003760   Data        1600  os_cfg_app.o(.bss)
    OSCfg_StatTaskStk                        0x20003da0   Data         512  os_cfg_app.o(.bss)
    OSCfg_TickTaskStk                        0x20003fa0   Data         512  os_cfg_app.o(.bss)
    OSCfg_TickWheel                          0x200041a0   Data         136  os_cfg_app.o(.bss)
    OSCfg_TmrTaskStk                         0x20004228   Data         512  os_cfg_app.o(.bss)
    OSCfg_TmrWheel                           0x20004428   Data         136  os_cfg_app.o(.bss)
    OSIdleTaskTCB                            0x200044b0   Data         196  os_var.o(.bss)
    OSIntQTaskTCB                            0x20004574   Data         196  os_var.o(.bss)
    OSMsgPool                                0x20004638   Data          12  os_var.o(.bss)
    OSRdyList                                0x20004644   Data         768  os_var.o(.bss)
    OSStatTaskTCB                            0x20004944   Data         196  os_var.o(.bss)
    OSTickTaskTCB                            0x20004a08   Data         196  os_var.o(.bss)
    OSTmrTaskTCB                             0x20004acc   Data         196  os_var.o(.bss)
    membase                                  0x20004b90   Data       20480  malloc.o(.bss)
    memmapbase                               0x20009b90   Data        1280  malloc.o(.bss)
    __libspace_start                         0x2000a158   Data          96  libspace.o(.bss)
    __temporary_stack_top$libspace           0x2000a1b8   Data           0  libspace.o(.bss)



==============================================================================

Memory Map of the image

  Image Entry point : 0x08000131

  Load Region LR_IROM1 (Base: 0x08000000, Size: 0x0001121c, Max: 0x00040000, ABSOLUTE, COMPRESSED[0x00010ffc])

    Execution Region ER_IROM1 (Base: 0x08000000, Size: 0x00010ecc, Max: 0x00040000, ABSOLUTE)

    Base Addr    Size         Type   Attr      Idx    E Section Name        Object

    0x08000000   0x00000130   Data   RO          491    RESET               startup_stm32f10x_hd.o
    0x08000130   0x00000008   Code   RO         1253  * !!!main             c_w.l(__main.o)
    0x08000138   0x00000034   Code   RO         1563    !!!scatter          c_w.l(__scatter.o)
    0x0800016c   0x0000005a   Code   RO         1561    !!dczerorl2         c_w.l(__dczerorl2.o)
    0x080001c6   0x00000002   PAD
    0x080001c8   0x0000001c   Code   RO         1565    !!handler_zi        c_w.l(__scatter_zi.o)
    0x080001e4   0x00000000   Code   RO         1231    .ARM.Collect$$_printf_percent$$00000000  c_w.l(_printf_percent.o)
    0x080001e4   0x00000006   Code   RO         1227    .ARM.Collect$$_printf_percent$$00000001  c_w.l(_printf_n.o)
    0x080001ea   0x00000006   Code   RO         1229    .ARM.Collect$$_printf_percent$$00000002  c_w.l(_printf_p.o)
    0x080001f0   0x00000006   Code   RO         1309    .ARM.Collect$$_printf_percent$$00000003  c_w.l(_printf_f.o)
    0x080001f6   0x00000006   Code   RO         1310    .ARM.Collect$$_printf_percent$$00000004  c_w.l(_printf_e.o)
    0x080001fc   0x00000006   Code   RO         1311    .ARM.Collect$$_printf_percent$$00000005  c_w.l(_printf_g.o)
    0x08000202   0x00000006   Code   RO         1312    .ARM.Collect$$_printf_percent$$00000006  c_w.l(_printf_a.o)
    0x08000208   0x0000000a   Code   RO         1317    .ARM.Collect$$_printf_percent$$00000007  c_w.l(_printf_ll.o)
    0x08000212   0x00000006   Code   RO         1307    .ARM.Collect$$_printf_percent$$00000008  c_w.l(_printf_i.o)
    0x08000218   0x00000006   Code   RO         1230    .ARM.Collect$$_printf_percent$$00000009  c_w.l(_printf_d.o)
    0x0800021e   0x00000006   Code   RO         1308    .ARM.Collect$$_printf_percent$$0000000A  c_w.l(_printf_u.o)
    0x08000224   0x00000006   Code   RO         1306    .ARM.Collect$$_printf_percent$$0000000B  c_w.l(_printf_o.o)
    0x0800022a   0x00000006   Code   RO         1228    .ARM.Collect$$_printf_percent$$0000000C  c_w.l(_printf_x.o)
    0x08000230   0x00000006   Code   RO         1314    .ARM.Collect$$_printf_percent$$0000000D  c_w.l(_printf_lli.o)
    0x08000236   0x00000006   Code   RO         1315    .ARM.Collect$$_printf_percent$$0000000E  c_w.l(_printf_lld.o)
    0x0800023c   0x00000006   Code   RO         1316    .ARM.Collect$$_printf_percent$$0000000F  c_w.l(_printf_llu.o)
    0x08000242   0x00000006   Code   RO         1321    .ARM.Collect$$_printf_percent$$00000010  c_w.l(_printf_llo.o)
    0x08000248   0x00000006   Code   RO         1322    .ARM.Collect$$_printf_percent$$00000011  c_w.l(_printf_llx.o)
    0x0800024e   0x0000000a   Code   RO         1318    .ARM.Collect$$_printf_percent$$00000012  c_w.l(_printf_l.o)
    0x08000258   0x00000006   Code   RO         1225    .ARM.Collect$$_printf_percent$$00000013  c_w.l(_printf_c.o)
    0x0800025e   0x00000006   Code   RO         1226    .ARM.Collect$$_printf_percent$$00000014  c_w.l(_printf_s.o)
    0x08000264   0x00000006   Code   RO         1319    .ARM.Collect$$_printf_percent$$00000015  c_w.l(_printf_lc.o)
    0x0800026a   0x00000006   Code   RO         1320    .ARM.Collect$$_printf_percent$$00000016  c_w.l(_printf_ls.o)
    0x08000270   0x00000004   Code   RO         1313    .ARM.Collect$$_printf_percent$$00000017  c_w.l(_printf_percent_end.o)
    0x08000274   0x00000002   Code   RO         1433    .ARM.Collect$$libinit$$00000000  c_w.l(libinit.o)
    0x08000276   0x00000000   Code   RO         1449    .ARM.Collect$$libinit$$00000002  c_w.l(libinit2.o)
    0x08000276   0x00000000   Code   RO         1451    .ARM.Collect$$libinit$$00000004  c_w.l(libinit2.o)
    0x08000276   0x00000000   Code   RO         1454    .ARM.Collect$$libinit$$0000000A  c_w.l(libinit2.o)
    0x08000276   0x00000000   Code   RO         1456    .ARM.Collect$$libinit$$0000000C  c_w.l(libinit2.o)
    0x08000276   0x00000000   Code   RO         1458    .ARM.Collect$$libinit$$0000000E  c_w.l(libinit2.o)
    0x08000276   0x00000006   Code   RO         1459    .ARM.Collect$$libinit$$0000000F  c_w.l(libinit2.o)
    0x0800027c   0x00000000   Code   RO         1461    .ARM.Collect$$libinit$$00000011  c_w.l(libinit2.o)
    0x0800027c   0x0000000c   Code   RO         1462    .ARM.Collect$$libinit$$00000012  c_w.l(libinit2.o)
    0x08000288   0x00000000   Code   RO         1463    .ARM.Collect$$libinit$$00000013  c_w.l(libinit2.o)
    0x08000288   0x00000000   Code   RO         1465    .ARM.Collect$$libinit$$00000015  c_w.l(libinit2.o)
    0x08000288   0x0000000a   Code   RO         1466    .ARM.Collect$$libinit$$00000016  c_w.l(libinit2.o)
    0x08000292   0x00000000   Code   RO         1467    .ARM.Collect$$libinit$$00000017  c_w.l(libinit2.o)
    0x08000292   0x00000000   Code   RO         1469    .ARM.Collect$$libinit$$00000019  c_w.l(libinit2.o)
    0x08000292   0x00000000   Code   RO         1471    .ARM.Collect$$libinit$$0000001B  c_w.l(libinit2.o)
    0x08000292   0x00000000   Code   RO         1473    .ARM.Collect$$libinit$$0000001D  c_w.l(libinit2.o)
    0x08000292   0x00000000   Code   RO         1475    .ARM.Collect$$libinit$$0000001F  c_w.l(libinit2.o)
    0x08000292   0x00000000   Code   RO         1477    .ARM.Collect$$libinit$$00000021  c_w.l(libinit2.o)
    0x08000292   0x00000000   Code   RO         1479    .ARM.Collect$$libinit$$00000023  c_w.l(libinit2.o)
    0x08000292   0x00000000   Code   RO         1481    .ARM.Collect$$libinit$$00000025  c_w.l(libinit2.o)
    0x08000292   0x00000000   Code   RO         1485    .ARM.Collect$$libinit$$0000002C  c_w.l(libinit2.o)
    0x08000292   0x00000000   Code   RO         1487    .ARM.Collect$$libinit$$0000002E  c_w.l(libinit2.o)
    0x08000292   0x00000000   Code   RO         1489    .ARM.Collect$$libinit$$00000030  c_w.l(libinit2.o)
    0x08000292   0x00000000   Code   RO         1491    .ARM.Collect$$libinit$$00000032  c_w.l(libinit2.o)
    0x08000292   0x00000002   Code   RO         1492    .ARM.Collect$$libinit$$00000033  c_w.l(libinit2.o)
    0x08000294   0x00000002   Code   RO         1518    .ARM.Collect$$libshutdown$$00000000  c_w.l(libshutdown.o)
    0x08000296   0x00000000   Code   RO         1546    .ARM.Collect$$libshutdown$$00000003  c_w.l(libshutdown2.o)
    0x08000296   0x00000000   Code   RO         1549    .ARM.Collect$$libshutdown$$00000006  c_w.l(libshutdown2.o)
    0x08000296   0x00000000   Code   RO         1552    .ARM.Collect$$libshutdown$$00000009  c_w.l(libshutdown2.o)
    0x08000296   0x00000000   Code   RO         1554    .ARM.Collect$$libshutdown$$0000000B  c_w.l(libshutdown2.o)
    0x08000296   0x00000000   Code   RO         1557    .ARM.Collect$$libshutdown$$0000000E  c_w.l(libshutdown2.o)
    0x08000296   0x00000002   Code   RO         1558    .ARM.Collect$$libshutdown$$0000000F  c_w.l(libshutdown2.o)
    0x08000298   0x00000000   Code   RO         1271    .ARM.Collect$$rtentry$$00000000  c_w.l(__rtentry.o)
    0x08000298   0x00000000   Code   RO         1342    .ARM.Collect$$rtentry$$00000002  c_w.l(__rtentry2.o)
    0x08000298   0x00000006   Code   RO         1354    .ARM.Collect$$rtentry$$00000004  c_w.l(__rtentry4.o)
    0x0800029e   0x00000000   Code   RO         1344    .ARM.Collect$$rtentry$$00000009  c_w.l(__rtentry2.o)
    0x0800029e   0x00000004   Code   RO         1345    .ARM.Collect$$rtentry$$0000000A  c_w.l(__rtentry2.o)
    0x080002a2   0x00000000   Code   RO         1347    .ARM.Collect$$rtentry$$0000000C  c_w.l(__rtentry2.o)
    0x080002a2   0x00000008   Code   RO         1348    .ARM.Collect$$rtentry$$0000000D  c_w.l(__rtentry2.o)
    0x080002aa   0x00000002   Code   RO         1438    .ARM.Collect$$rtexit$$00000000  c_w.l(rtexit.o)
    0x080002ac   0x00000000   Code   RO         1494    .ARM.Collect$$rtexit$$00000002  c_w.l(rtexit2.o)
    0x080002ac   0x00000004   Code   RO         1495    .ARM.Collect$$rtexit$$00000003  c_w.l(rtexit2.o)
    0x080002b0   0x00000006   Code   RO         1496    .ARM.Collect$$rtexit$$00000004  c_w.l(rtexit2.o)
    0x080002b6   0x00000002   PAD
    0x080002b8   0x00000ba2   Code   RO            1    .text               main.o
    0x08000e5a   0x00000016   Code   RO          212    .text               stm32f10x_it.o
    0x08000e70   0x000001e0   Code   RO          244    .text               system_stm32f10x.o
    0x08001050   0x00000050   Code   RO          262    .text               led.o
    0x080010a0   0x000002f8   Code   RO          274    .text               esp8266.o
    0x08001398   0x00000518   Code   RO          290    .text               max7219.o
    0x080018b0   0x0000019c   Code   RO          306    .text               timestamp.o
    0x08001a4c   0x00000138   Code   RO          322    .text               common.o
    0x08001b84   0x0000027c   Code   RO          334    .text               ds18b20.o
    0x08001e00   0x000005c0   Code   RO          346    .text               ble_app.o
    0x080023c0   0x000000b4   Code   RO          365    .text               ble_uart.o
    0x08002474   0x0000014c   Code   RO          380    .text               delay.o
    0x080025c0   0x00000150   Code   RO          411    .text               usart.o
    0x08002710   0x0000027c   Code   RO          434    .text               usart2.o
    0x0800298c   0x0000027c   Code   RO          460    .text               usart3.o
    0x08002c08   0x00000040   Code   RO          492    .text               startup_stm32f10x_hd.o
    0x08002c48   0x000000dc   Code   RO          496    .text               misc.o
    0x08002d24   0x0000035c   Code   RO          508    .text               stm32f10x_gpio.o
    0x08003080   0x00000408   Code   RO          520    .text               stm32f10x_usart.o
    0x08003488   0x000003a4   Code   RO          532    .text               stm32f10x_rcc.o
    0x0800382c   0x00000254   Code   RO          546    .text               stm32f10x_dma.o
    0x08003a80   0x00000e1a   Code   RO          558    .text               stm32f10x_tim.o
    0x0800489a   0x00000002   PAD
    0x0800489c   0x00000084   Code   RO          582    .text               bsp.o
    0x08004920   0x000002a8   Code   RO          597    .text               cpu_core.o
    0x08004bc8   0x00000034   Code   RO          635    .text               cpu_a.o
    0x08004bfc   0x00000256   Code   RO          638    .text               lib_ascii.o
    0x08004e52   0x00000002   PAD
    0x08004e54   0x000009c6   Code   RO          671    .text               lib_mem.o
    0x0800581a   0x00000002   PAD
    0x0800581c   0x0000092c   Code   RO          690    .text               lib_str.o
    0x08006148   0x00000220   Code   RO          707    .text               lib_mem_a.o
    0x08006368   0x000000fc   Code   RO          710    .text               os_cfg_app.o
    0x08006464   0x00000df0   Code   RO          733    .text               os_core.o
    0x08007254   0x000001b0   Code   RO          745    .text               os_dbg.o
    0x08007404   0x00000e28   Code   RO          760    .text               os_flag.o
    0x0800822c   0x00000444   Code   RO          772    .text               os_int.o
    0x08008670   0x00000238   Code   RO          784    .text               os_mem.o
    0x080088a8   0x0000022c   Code   RO          796    .text               os_msg.o
    0x08008ad4   0x00000ad4   Code   RO          808    .text               os_mutex.o
    0x080095a8   0x0000007c   Code   RO          826    .text               os_prio.o
    0x08009624   0x000008d8   Code   RO          845    .text               os_q.o
    0x08009efc   0x00000830   Code   RO          857    .text               os_sem.o
    0x0800a72c   0x00000638   Code   RO          869    .text               os_stat.o
    0x0800ad64   0x00001bb4   Code   RO          881    .text               os_task.o
    0x0800c918   0x000004fc   Code   RO          893    .text               os_tick.o
    0x0800ce14   0x00000564   Code   RO          905    .text               os_time.o
    0x0800d378   0x00000818   Code   RO          917    .text               os_tmr.o
    0x0800db90   0x00000260   Code   RO          946    .text               os_cpu_c.o
    0x0800ddf0   0x000000d4   Code   RO          964    .text               os_app_hooks.o
    0x0800dec4   0x000001a0   Code   RO          977    .text               malloc.o
    0x0800e064   0x00000394   Code   RO          997    .text               mqtt.o
    0x0800e3f8   0x00000114   Code   RO         1036    .text               mqttdeserializepublish.o
    0x0800e50c   0x000003fc   Code   RO         1064    .text               mqttpacket.o
    0x0800e908   0x00000002   Code   RO         1156    .text               c_w.l(use_no_semi_2.o)
    0x0800e90a   0x000000ee   Code   RO         1158    .text               c_w.l(lludivv7m.o)
    0x0800e9f8   0x00000024   Code   RO         1160    .text               c_w.l(c89vsprintf.o)
    0x0800ea1c   0x00000018   Code   RO         1162    .text               c_w.l(__2printf.o)
    0x0800ea34   0x0000002c   Code   RO         1164    .text               c_w.l(__2sprintf.o)
    0x0800ea60   0x0000004e   Code   RO         1176    .text               c_w.l(_printf_pad.o)
    0x0800eaae   0x00000052   Code   RO         1178    .text               c_w.l(_printf_str.o)
    0x0800eb00   0x00000078   Code   RO         1180    .text               c_w.l(_printf_dec.o)
    0x0800eb78   0x00000028   Code   RO         1182    .text               c_w.l(_printf_charcount.o)
    0x0800eba0   0x00000094   Code   RO         1202    .text               c_w.l(_printf_hex_int_ll_ptr.o)
    0x0800ec34   0x00000188   Code   RO         1222    .text               c_w.l(__printf_flags_ss_wp.o)
    0x0800edbc   0x0000001a   Code   RO         1232    .text               c_w.l(atoi.o)
    0x0800edd6   0x00000002   PAD
    0x0800edd8   0x0000000c   Code   RO         1234    .text               c_w.l(strtok.o)
    0x0800ede4   0x00000024   Code   RO         1237    .text               c_w.l(strstr.o)
    0x0800ee08   0x0000003e   Code   RO         1241    .text               c_w.l(strlen.o)
    0x0800ee46   0x00000096   Code   RO         1243    .text               c_w.l(strncmp.o)
    0x0800eedc   0x0000008a   Code   RO         1245    .text               c_w.l(rt_memcpy_v6.o)
    0x0800ef66   0x00000044   Code   RO         1247    .text               c_w.l(rt_memclr.o)
    0x0800efaa   0x0000004e   Code   RO         1249    .text               c_w.l(rt_memclr_w.o)
    0x0800eff8   0x00000006   Code   RO         1251    .text               c_w.l(heapauxi.o)
    0x0800effe   0x00000002   Code   RO         1269    .text               c_w.l(use_no_semi.o)
    0x0800f000   0x00000008   Code   RO         1279    .text               c_w.l(rt_errno_addr_intlibspace.o)
    0x0800f008   0x00000024   Code   RO         1281    .text               c_w.l(_printf_truncate.o)
    0x0800f02c   0x000000b2   Code   RO         1283    .text               c_w.l(_printf_intcommon.o)
    0x0800f0de   0x00000002   PAD
    0x0800f0e0   0x00000030   Code   RO         1285    .text               c_w.l(_printf_char_common.o)
    0x0800f110   0x0000000a   Code   RO         1287    .text               c_w.l(_sputc.o)
    0x0800f11a   0x0000002c   Code   RO         1291    .text               c_w.l(_printf_char.o)
    0x0800f146   0x00000002   PAD
    0x0800f148   0x00000024   Code   RO         1293    .text               c_w.l(_printf_char_file.o)
    0x0800f16c   0x000000bc   Code   RO         1295    .text               c_w.l(_printf_wctomb.o)
    0x0800f228   0x0000007c   Code   RO         1298    .text               c_w.l(_printf_longlong_dec.o)
    0x0800f2a4   0x00000070   Code   RO         1304    .text               c_w.l(_printf_oct_int_ll.o)
    0x0800f314   0x00000070   Code   RO         1323    .text               c_w.l(strtol.o)
    0x0800f384   0x00000044   Code   RO         1325    .text               c_w.l(strtok_int.o)
    0x0800f3c8   0x00000064   Code   RO         1327    .text               c_w.l(rt_memcpy_w.o)
    0x0800f42c   0x00000008   Code   RO         1338    .text               c_w.l(libspace.o)
    0x0800f434   0x00000010   Code   RO         1356    .text               c_w.l(rt_ctype_table.o)
    0x0800f444   0x0000008a   Code   RO         1360    .text               c_w.l(lludiv10.o)
    0x0800f4ce   0x0000041a   Code   RO         1362    .text               c_w.l(_printf_fp_dec.o)
    0x0800f8e8   0x0000002c   Code   RO         1366    .text               c_w.l(_printf_wchar.o)
    0x0800f914   0x0000009e   Code   RO         1368    .text               c_w.l(_strtoul.o)
    0x0800f9b2   0x00000008   Code   RO         1370    .text               c_w.l(ferror.o)
    0x0800f9ba   0x00000040   Code   RO         1374    .text               c_w.l(_wcrtomb.o)
    0x0800f9fa   0x00000020   Code   RO         1376    .text               c_w.l(strcspn.o)
    0x0800fa1a   0x0000001c   Code   RO         1378    .text               c_w.l(strspn.o)
    0x0800fa36   0x0000004a   Code   RO         1380    .text               c_w.l(sys_stackheap_outer.o)
    0x0800fa80   0x00000008   Code   RO         1385    .text               c_w.l(rt_locale_intlibspace.o)
    0x0800fa88   0x00000080   Code   RO         1387    .text               c_w.l(_printf_fp_infnan.o)
    0x0800fb08   0x0000001c   Code   RO         1389    .text               c_w.l(_chval.o)
    0x0800fb24   0x000000dc   Code   RO         1391    .text               c_w.l(bigflt0.o)
    0x0800fc00   0x0000000c   Code   RO         1422    .text               c_w.l(exit.o)
    0x0800fc0c   0x00000080   Code   RO         1446    .text               c_w.l(strcmpv7m.o)
    0x0800fc8c   0x0000003e   Code   RO         1394    CL$$btod_d2e        c_w.l(btod.o)
    0x0800fcca   0x00000046   Code   RO         1396    CL$$btod_d2e_denorm_low  c_w.l(btod.o)
    0x0800fd10   0x00000060   Code   RO         1395    CL$$btod_d2e_norm_op1  c_w.l(btod.o)
    0x0800fd70   0x00000338   Code   RO         1404    CL$$btod_div_common  c_w.l(btod.o)
    0x080100a8   0x000000c6   Code   RO         1401    CL$$btod_e2e        c_w.l(btod.o)
    0x0801016e   0x00000028   Code   RO         1398    CL$$btod_ediv       c_w.l(btod.o)
    0x08010196   0x00000028   Code   RO         1397    CL$$btod_emul       c_w.l(btod.o)
    0x080101be   0x00000244   Code   RO         1403    CL$$btod_mult_common  c_w.l(btod.o)
    0x08010402   0x00000002   PAD
    0x08010404   0x00000098   Code   RO          943    CODE                os_cpu_a.o
    0x0801049c   0x00000028   Code   RO         1436    i.__ARM_fpclassify  m_ws.l(fpclassify.o)
    0x080104c4   0x0000000e   Code   RO         1215    i._is_digit         c_w.l(__printf_wp.o)
    0x080104d2   0x00000002   PAD
    0x080104d4   0x0000002c   Code   RO         1417    locale$$code        c_w.l(lc_ctype_c.o)
    0x08010500   0x0000002c   Code   RO         1420    locale$$code        c_w.l(lc_numeric_c.o)
    0x0801052c   0x0000005e   Code   RO         1255    x$fpl$dfix          fz_ws.l(dfix.o)
    0x0801058a   0x00000002   PAD
    0x0801058c   0x00000154   Code   RO         1259    x$fpl$dmul          fz_ws.l(dmul.o)
    0x080106e0   0x0000009c   Code   RO         1329    x$fpl$dnaninf       fz_ws.l(dnaninf.o)
    0x0801077c   0x0000000c   Code   RO         1331    x$fpl$dretinf       fz_ws.l(dretinf.o)
    0x08010788   0x00000056   Code   RO         1261    x$fpl$f2d           fz_ws.l(f2d.o)
    0x080107de   0x00000002   PAD
    0x080107e0   0x00000030   Code   RO         1264    x$fpl$fflt          fz_ws.l(fflt_clz.o)
    0x08010810   0x0000008c   Code   RO         1333    x$fpl$fnaninf       fz_ws.l(fnaninf.o)
    0x0801089c   0x00000004   Code   RO         1335    x$fpl$printf1       fz_ws.l(printf1.o)
    0x080108a0   0x00000000   Code   RO         1337    x$fpl$usenofp       fz_ws.l(usenofp.o)
    0x080108a0   0x00000030   Data   RO          291    .constdata          max7219.o
    0x080108d0   0x0000000c   Data   RO          307    .constdata          timestamp.o
    0x080108dc   0x00000104   Data   RO          599    .constdata          cpu_core.o
    0x080109e0   0x00000094   Data   RO          691    .constdata          lib_str.o
    0x08010a74   0x000000a4   Data   RO          712    .constdata          os_cfg_app.o
    0x08010b18   0x0000016c   Data   RO          746    .constdata          os_dbg.o
    0x08010c84   0x00000028   Data   RO         1203    .constdata          c_w.l(_printf_hex_int_ll_ptr.o)
    0x08010cac   0x00000011   Data   RO         1223    .constdata          c_w.l(__printf_flags_ss_wp.o)
    0x08010cbd   0x00000003   PAD
    0x08010cc0   0x00000008   Data   RO         1296    .constdata          c_w.l(_printf_wctomb.o)
    0x08010cc8   0x00000094   Data   RO         1392    .constdata          c_w.l(bigflt0.o)
    0x08010d5c   0x00000024   Data   RO            3    .conststring        main.o
    0x08010d80   0x00000020   Data   RO         1559    Region$$Table       anon$$obj.o
    0x08010da0   0x00000110   Data   RO         1416    locale$$data        c_w.l(lc_ctype_c.o)
    0x08010eb0   0x0000001c   Data   RO         1419    locale$$data        c_w.l(lc_numeric_c.o)


    Execution Region RW_IRAM1 (Base: 0x20000000, Size: 0x0000b5b8, Max: 0x0000c000, ABSOLUTE, COMPRESSED[0x00000130])

    Base Addr    Size         Type   Attr      Idx    E Section Name        Object

    0x20000000   0x0000002d   Data   RW            4    .data               main.o
    0x2000002d   0x00000003   PAD
    0x20000030   0x00000014   Data   RW          245    .data               system_stm32f10x.o
    0x20000044   0x00000180   Data   RW          292    .data               max7219.o
    0x200001c4   0x00000060   Data   RW          308    .data               timestamp.o
    0x20000224   0x00000003   Data   RW          348    .data               ble_app.o
    0x20000227   0x00000001   PAD
    0x20000228   0x00000004   Data   RW          381    .data               delay.o
    0x2000022c   0x00000006   Data   RW          413    .data               usart.o
    0x20000232   0x00000002   Data   RW          436    .data               usart2.o
    0x20000234   0x00000002   Data   RW          462    .data               usart3.o
    0x20000236   0x00000014   Data   RW          533    .data               stm32f10x_rcc.o
    0x2000024a   0x00000002   PAD
    0x2000024c   0x00000004   Data   RW          600    .data               cpu_core.o
    0x20000250   0x00000004   Data   RW          673    .data               lib_mem.o
    0x20000254   0x00000008   Data   RW          827    .data               os_prio.o
    0x2000025c   0x000000c8   Data   RW          930    .data               os_var.o
    0x20000324   0x00000004   Data   RW          947    .data               os_cpu_c.o
    0x20000328   0x00000004   Data   RW          965    .data               os_app_hooks.o
    0x2000032c   0x00000014   Data   RW          980    .data               malloc.o
    0x20000340   0x00000006   Data   RW          999    .data               mqtt.o
    0x20000346   0x00000002   PAD
    0x20000348   0x00000004   Data   RW         1065    .data               mqttpacket.o
    0x2000034c   0x00000004   Data   RW         1235    .data               c_w.l(strtok.o)
    0x20000350   0x00001778   Zero   RW            2    .bss                main.o
    0x20001ac8   0x00000032   Zero   RW          347    .bss                ble_app.o
    0x20001afa   0x000000c8   Zero   RW          412    .bss                usart.o
    0x20001bc2   0x00000006   PAD
    0x20001bc8   0x00000800   Zero   RW          435    .bss                usart2.o
    0x200023c8   0x00000800   Zero   RW          461    .bss                usart3.o
    0x20002bc8   0x00000010   Zero   RW          598    .bss                cpu_core.o
    0x20002bd8   0x00000448   Zero   RW          672    .bss                lib_mem.o
    0x20003020   0x00001490   Zero   RW          711    .bss                os_cfg_app.o
    0x200044b0   0x000006e0   Zero   RW          929    .bss                os_var.o
    0x20004b90   0x00005500   Zero   RW          978    .bss                malloc.o
    0x2000a090   0x000000c8   Zero   RW          998    .bss                mqtt.o
    0x2000a158   0x00000060   Zero   RW         1339    .bss                c_w.l(libspace.o)
    0x2000a1b8   0x00000200   Zero   RW          490    HEAP                startup_stm32f10x_hd.o
    0x2000a3b8   0x00001200   Zero   RW          489    STACK               startup_stm32f10x_hd.o


==============================================================================

Image component sizes


      Code (inc. data)   RO Data    RW Data    ZI Data      Debug   Object Name

      1472        670          0          3         50       2386   ble_app.o
       180         26          0          0          0       1325   ble_uart.o
       132         12          0          0          0       1127   bsp.o
       312         58          0          0          0       1071   common.o
        52          0          0          0          0        328   cpu_a.o
       680         14        260          4         16      14231   cpu_core.o
       332         28          0          4          0       1761   delay.o
       636         16          0          0          0       2371   ds18b20.o
       760        206          0          0          0       2482   esp8266.o
        80          8          0          0          0        487   led.o
       598          0          0          0          0       3688   lib_ascii.o
      2502         32          0          4       1096      21708   lib_mem.o
       544          0          0          0          0        476   lib_mem_a.o
      2348          6        148          0          0      13034   lib_str.o
      2978        920         36         45       6008     309563   main.o
       416          6          0         20      21760       3881   malloc.o
      1304         72         48        384          0       5062   max7219.o
       220         22          0          0          0       1805   misc.o
       916        106          0          6        200       3901   mqtt.o
       276          0          0          0          0       1982   mqttdeserializepublish.o
      1020          8          0          4          0       5864   mqttpacket.o
       212         32          0          4          0       1829   os_app_hooks.o
       252        166        164          0       5264      20866   os_cfg_app.o
      3568        284          0          0          0      12013   os_core.o
       152         32          0          0          0        384   os_cpu_a.o
       608         64          0          4          0       3697   os_cpu_c.o
       432        286        364          0          0       4725   os_dbg.o
      3624        110          0          0          0       7679   os_flag.o
      1092        146          0          0          0       2252   os_int.o
       568         20          0          0          0       2652   os_mem.o
       556         12          0          0          0       2711   os_msg.o
      2772        114          0          0          0       5370   os_mutex.o
       124          4          0          8          0       1720   os_prio.o
      2264         76          0          0          0       6048   os_q.o
      2096         70          0          0          0       6064   os_sem.o
      1592        180          0          0          0       2753   os_stat.o
      7092        270          0          0          0      13426   os_task.o
      1276         90          0          0          0       3209   os_tick.o
      1380         46          0          0          0       3149   os_time.o
      2072        140          0          0          0       6250   os_tmr.o
         0          0          0        200       1760      19341   os_var.o
        64         26        304          0       5120        784   startup_stm32f10x_hd.o
       596          8          0          0          0       4338   stm32f10x_dma.o
       860         38          0          0          0       5653   stm32f10x_gpio.o
        22          0          0          0          0        987   stm32f10x_it.o
       932         36          0         20          0       8820   stm32f10x_rcc.o
      3610         88          0          0          0      22140   stm32f10x_tim.o
      1032         22          0          0          0       8376   stm32f10x_usart.o
         0          0          0          0          0         32   sys.o
       480         38          0         20          0       1707   system_stm32f10x.o
       412         14         12         96          0       1857   timestamp.o
       336         18          0          6        200       3146   usart.o
       636         30          0          2       2048       3569   usart2.o
       636         30          0          2       2048       3007   usart3.o

    ----------------------------------------------------------------------
     59112       4700       1368        844      45576     589087   Object Totals
         0          0         32          0          0          0   (incl. Generated)
         6          0          0          8          6          0   (incl. Padding)

    ----------------------------------------------------------------------

      Code (inc. data)   RO Data    RW Data    ZI Data      Debug   Library Member Name

        24          4          0          0          0         84   __2printf.o
        44          6          0          0          0         84   __2sprintf.o
        90          0          0          0          0          0   __dczerorl2.o
         8          0          0          0          0         68   __main.o
       392          4         17          0          0         92   __printf_flags_ss_wp.o
        14          0          0          0          0         68   __printf_wp.o
         0          0          0          0          0          0   __rtentry.o
        12          0          0          0          0          0   __rtentry2.o
         6          0          0          0          0          0   __rtentry4.o
        52          8          0          0          0          0   __scatter.o
        28          0          0          0          0          0   __scatter_zi.o
        28          0          0          0          0         68   _chval.o
         6          0          0          0          0          0   _printf_a.o
         6          0          0          0          0          0   _printf_c.o
        44          0          0          0          0        108   _printf_char.o
        48          6          0          0          0         96   _printf_char_common.o
        36          4          0          0          0         80   _printf_char_file.o
        40          0          0          0          0         68   _printf_charcount.o
         6          0          0          0          0          0   _printf_d.o
       120         16          0          0          0         92   _printf_dec.o
         6          0          0          0          0          0   _printf_e.o
         6          0          0          0          0          0   _printf_f.o
      1050          0          0          0          0        216   _printf_fp_dec.o
       128         16          0          0          0         84   _printf_fp_infnan.o
         6          0          0          0          0          0   _printf_g.o
       148          4         40          0          0        160   _printf_hex_int_ll_ptr.o
         6          0          0          0          0          0   _printf_i.o
       178          0          0          0          0         88   _printf_intcommon.o
        10          0          0          0          0          0   _printf_l.o
         6          0          0          0          0          0   _printf_lc.o
        10          0          0          0          0          0   _printf_ll.o
         6          0          0          0          0          0   _printf_lld.o
         6          0          0          0          0          0   _printf_lli.o
         6          0          0          0          0          0   _printf_llo.o
         6          0          0          0          0          0   _printf_llu.o
         6          0          0          0          0          0   _printf_llx.o
       124         16          0          0          0         92   _printf_longlong_dec.o
         6          0          0          0          0          0   _printf_ls.o
         6          0          0          0          0          0   _printf_n.o
         6          0          0          0          0          0   _printf_o.o
       112          8          0          0          0        124   _printf_oct_int_ll.o
         6          0          0          0          0          0   _printf_p.o
        78          0          0          0          0        108   _printf_pad.o
         0          0          0          0          0          0   _printf_percent.o
         4          0          0          0          0          0   _printf_percent_end.o
         6          0          0          0          0          0   _printf_s.o
        82          0          0          0          0         80   _printf_str.o
        36          0          0          0          0         84   _printf_truncate.o
         6          0          0          0          0          0   _printf_u.o
        44          0          0          0          0        108   _printf_wchar.o
       188          6          8          0          0         92   _printf_wctomb.o
         6          0          0          0          0          0   _printf_x.o
        10          0          0          0          0         68   _sputc.o
       158          0          0          0          0         92   _strtoul.o
        64          0          0          0          0         92   _wcrtomb.o
        26          0          0          0          0         80   atoi.o
       220          4        148          0          0         96   bigflt0.o
      1910        128          0          0          0        672   btod.o
        36          4          0          0          0         76   c89vsprintf.o
        12          0          0          0          0         72   exit.o
         8          0          0          0          0         68   ferror.o
         6          0          0          0          0        152   heapauxi.o
        44         10        272          0          0         76   lc_ctype_c.o
        44         10         28          0          0         76   lc_numeric_c.o
         2          0          0          0          0          0   libinit.o
        30          0          0          0          0          0   libinit2.o
         2          0          0          0          0          0   libshutdown.o
         2          0          0          0          0          0   libshutdown2.o
